{
	"contracts/nft.sol": {
		"GameCharacterNFT": {
			"abi": [
				{
					"inputs": [
						{
							"internalType": "string",
							"name": "_name",
							"type": "string"
						},
						{
							"internalType": "string",
							"name": "_symbol",
							"type": "string"
						}
					],
					"stateMutability": "nonpayable",
					"type": "constructor"
				},
				{
					"inputs": [
						{
							"internalType": "address",
							"name": "sender",
							"type": "address"
						},
						{
							"internalType": "uint256",
							"name": "tokenId",
							"type": "uint256"
						},
						{
							"internalType": "address",
							"name": "owner",
							"type": "address"
						}
					],
					"name": "ERC721IncorrectOwner",
					"type": "error"
				},
				{
					"inputs": [
						{
							"internalType": "address",
							"name": "operator",
							"type": "address"
						},
						{
							"internalType": "uint256",
							"name": "tokenId",
							"type": "uint256"
						}
					],
					"name": "ERC721InsufficientApproval",
					"type": "error"
				},
				{
					"inputs": [
						{
							"internalType": "address",
							"name": "approver",
							"type": "address"
						}
					],
					"name": "ERC721InvalidApprover",
					"type": "error"
				},
				{
					"inputs": [
						{
							"internalType": "address",
							"name": "operator",
							"type": "address"
						}
					],
					"name": "ERC721InvalidOperator",
					"type": "error"
				},
				{
					"inputs": [
						{
							"internalType": "address",
							"name": "owner",
							"type": "address"
						}
					],
					"name": "ERC721InvalidOwner",
					"type": "error"
				},
				{
					"inputs": [
						{
							"internalType": "address",
							"name": "receiver",
							"type": "address"
						}
					],
					"name": "ERC721InvalidReceiver",
					"type": "error"
				},
				{
					"inputs": [
						{
							"internalType": "address",
							"name": "sender",
							"type": "address"
						}
					],
					"name": "ERC721InvalidSender",
					"type": "error"
				},
				{
					"inputs": [
						{
							"internalType": "uint256",
							"name": "tokenId",
							"type": "uint256"
						}
					],
					"name": "ERC721NonexistentToken",
					"type": "error"
				},
				{
					"inputs": [
						{
							"internalType": "address",
							"name": "owner",
							"type": "address"
						}
					],
					"name": "OwnableInvalidOwner",
					"type": "error"
				},
				{
					"inputs": [
						{
							"internalType": "address",
							"name": "account",
							"type": "address"
						}
					],
					"name": "OwnableUnauthorizedAccount",
					"type": "error"
				},
				{
					"anonymous": false,
					"inputs": [
						{
							"indexed": true,
							"internalType": "address",
							"name": "owner",
							"type": "address"
						},
						{
							"indexed": true,
							"internalType": "address",
							"name": "approved",
							"type": "address"
						},
						{
							"indexed": true,
							"internalType": "uint256",
							"name": "tokenId",
							"type": "uint256"
						}
					],
					"name": "Approval",
					"type": "event"
				},
				{
					"anonymous": false,
					"inputs": [
						{
							"indexed": true,
							"internalType": "address",
							"name": "owner",
							"type": "address"
						},
						{
							"indexed": true,
							"internalType": "address",
							"name": "operator",
							"type": "address"
						},
						{
							"indexed": false,
							"internalType": "bool",
							"name": "approved",
							"type": "bool"
						}
					],
					"name": "ApprovalForAll",
					"type": "event"
				},
				{
					"anonymous": false,
					"inputs": [
						{
							"indexed": false,
							"internalType": "address",
							"name": "owner",
							"type": "address"
						},
						{
							"indexed": false,
							"internalType": "uint256",
							"name": "tokenId",
							"type": "uint256"
						},
						{
							"indexed": false,
							"internalType": "string",
							"name": "name",
							"type": "string"
						},
						{
							"indexed": false,
							"internalType": "uint256",
							"name": "level",
							"type": "uint256"
						},
						{
							"indexed": false,
							"internalType": "uint256",
							"name": "power",
							"type": "uint256"
						}
					],
					"name": "CharacterMinted",
					"type": "event"
				},
				{
					"anonymous": false,
					"inputs": [
						{
							"indexed": true,
							"internalType": "address",
							"name": "previousOwner",
							"type": "address"
						},
						{
							"indexed": true,
							"internalType": "address",
							"name": "newOwner",
							"type": "address"
						}
					],
					"name": "OwnershipTransferred",
					"type": "event"
				},
				{
					"anonymous": false,
					"inputs": [
						{
							"indexed": true,
							"internalType": "address",
							"name": "from",
							"type": "address"
						},
						{
							"indexed": true,
							"internalType": "address",
							"name": "to",
							"type": "address"
						},
						{
							"indexed": true,
							"internalType": "uint256",
							"name": "tokenId",
							"type": "uint256"
						}
					],
					"name": "Transfer",
					"type": "event"
				},
				{
					"inputs": [
						{
							"internalType": "address",
							"name": "to",
							"type": "address"
						},
						{
							"internalType": "uint256",
							"name": "tokenId",
							"type": "uint256"
						}
					],
					"name": "approve",
					"outputs": [],
					"stateMutability": "nonpayable",
					"type": "function"
				},
				{
					"inputs": [
						{
							"internalType": "address",
							"name": "owner",
							"type": "address"
						}
					],
					"name": "balanceOf",
					"outputs": [
						{
							"internalType": "uint256",
							"name": "",
							"type": "uint256"
						}
					],
					"stateMutability": "view",
					"type": "function"
				},
				{
					"inputs": [
						{
							"internalType": "uint256",
							"name": "tokenId",
							"type": "uint256"
						}
					],
					"name": "getApproved",
					"outputs": [
						{
							"internalType": "address",
							"name": "",
							"type": "address"
						}
					],
					"stateMutability": "view",
					"type": "function"
				},
				{
					"inputs": [
						{
							"internalType": "uint256",
							"name": "tokenId",
							"type": "uint256"
						}
					],
					"name": "getCharacterAttributes",
					"outputs": [
						{
							"internalType": "string",
							"name": "",
							"type": "string"
						},
						{
							"internalType": "uint256",
							"name": "",
							"type": "uint256"
						},
						{
							"internalType": "uint256",
							"name": "",
							"type": "uint256"
						}
					],
					"stateMutability": "view",
					"type": "function"
				},
				{
					"inputs": [
						{
							"internalType": "address",
							"name": "owner",
							"type": "address"
						},
						{
							"internalType": "address",
							"name": "operator",
							"type": "address"
						}
					],
					"name": "isApprovedForAll",
					"outputs": [
						{
							"internalType": "bool",
							"name": "",
							"type": "bool"
						}
					],
					"stateMutability": "view",
					"type": "function"
				},
				{
					"inputs": [
						{
							"internalType": "uint256",
							"name": "tokenId",
							"type": "uint256"
						}
					],
					"name": "isCharacterMinted",
					"outputs": [
						{
							"internalType": "bool",
							"name": "",
							"type": "bool"
						}
					],
					"stateMutability": "view",
					"type": "function"
				},
				{
					"inputs": [
						{
							"internalType": "string",
							"name": "name",
							"type": "string"
						},
						{
							"internalType": "uint256",
							"name": "level",
							"type": "uint256"
						},
						{
							"internalType": "uint256",
							"name": "power",
							"type": "uint256"
						}
					],
					"name": "mintCharacter",
					"outputs": [],
					"stateMutability": "nonpayable",
					"type": "function"
				},
				{
					"inputs": [],
					"name": "name",
					"outputs": [
						{
							"internalType": "string",
							"name": "",
							"type": "string"
						}
					],
					"stateMutability": "view",
					"type": "function"
				},
				{
					"inputs": [],
					"name": "owner",
					"outputs": [
						{
							"internalType": "address",
							"name": "",
							"type": "address"
						}
					],
					"stateMutability": "view",
					"type": "function"
				},
				{
					"inputs": [
						{
							"internalType": "uint256",
							"name": "tokenId",
							"type": "uint256"
						}
					],
					"name": "ownerOf",
					"outputs": [
						{
							"internalType": "address",
							"name": "",
							"type": "address"
						}
					],
					"stateMutability": "view",
					"type": "function"
				},
				{
					"inputs": [],
					"name": "renounceOwnership",
					"outputs": [],
					"stateMutability": "nonpayable",
					"type": "function"
				},
				{
					"inputs": [
						{
							"internalType": "address",
							"name": "from",
							"type": "address"
						},
						{
							"internalType": "address",
							"name": "to",
							"type": "address"
						},
						{
							"internalType": "uint256",
							"name": "tokenId",
							"type": "uint256"
						}
					],
					"name": "safeTransferFrom",
					"outputs": [],
					"stateMutability": "nonpayable",
					"type": "function"
				},
				{
					"inputs": [
						{
							"internalType": "address",
							"name": "from",
							"type": "address"
						},
						{
							"internalType": "address",
							"name": "to",
							"type": "address"
						},
						{
							"internalType": "uint256",
							"name": "tokenId",
							"type": "uint256"
						},
						{
							"internalType": "bytes",
							"name": "data",
							"type": "bytes"
						}
					],
					"name": "safeTransferFrom",
					"outputs": [],
					"stateMutability": "nonpayable",
					"type": "function"
				},
				{
					"inputs": [
						{
							"internalType": "address",
							"name": "operator",
							"type": "address"
						},
						{
							"internalType": "bool",
							"name": "approved",
							"type": "bool"
						}
					],
					"name": "setApprovalForAll",
					"outputs": [],
					"stateMutability": "nonpayable",
					"type": "function"
				},
				{
					"inputs": [
						{
							"internalType": "bytes4",
							"name": "interfaceId",
							"type": "bytes4"
						}
					],
					"name": "supportsInterface",
					"outputs": [
						{
							"internalType": "bool",
							"name": "",
							"type": "bool"
						}
					],
					"stateMutability": "view",
					"type": "function"
				},
				{
					"inputs": [],
					"name": "symbol",
					"outputs": [
						{
							"internalType": "string",
							"name": "",
							"type": "string"
						}
					],
					"stateMutability": "view",
					"type": "function"
				},
				{
					"inputs": [
						{
							"internalType": "uint256",
							"name": "tokenId",
							"type": "uint256"
						}
					],
					"name": "tokenURI",
					"outputs": [
						{
							"internalType": "string",
							"name": "",
							"type": "string"
						}
					],
					"stateMutability": "view",
					"type": "function"
				},
				{
					"inputs": [
						{
							"internalType": "address",
							"name": "from",
							"type": "address"
						},
						{
							"internalType": "address",
							"name": "to",
							"type": "address"
						},
						{
							"internalType": "uint256",
							"name": "tokenId",
							"type": "uint256"
						}
					],
					"name": "transferFrom",
					"outputs": [],
					"stateMutability": "nonpayable",
					"type": "function"
				},
				{
					"inputs": [
						{
							"internalType": "address",
							"name": "newOwner",
							"type": "address"
						}
					],
					"name": "transferOwnership",
					"outputs": [],
					"stateMutability": "nonpayable",
					"type": "function"
				}
			],
			"devdoc": {
				"errors": {
					"ERC721IncorrectOwner(address,uint256,address)": [
						{
							"details": "Indicates an error related to the ownership over a particular token. Used in transfers.",
							"params": {
								"owner": "Address of the current owner of a token.",
								"sender": "Address whose tokens are being transferred.",
								"tokenId": "Identifier number of a token."
							}
						}
					],
					"ERC721InsufficientApproval(address,uint256)": [
						{
							"details": "Indicates a failure with the `operator`’s approval. Used in transfers.",
							"params": {
								"operator": "Address that may be allowed to operate on tokens without being their owner.",
								"tokenId": "Identifier number of a token."
							}
						}
					],
					"ERC721InvalidApprover(address)": [
						{
							"details": "Indicates a failure with the `approver` of a token to be approved. Used in approvals.",
							"params": {
								"approver": "Address initiating an approval operation."
							}
						}
					],
					"ERC721InvalidOperator(address)": [
						{
							"details": "Indicates a failure with the `operator` to be approved. Used in approvals.",
							"params": {
								"operator": "Address that may be allowed to operate on tokens without being their owner."
							}
						}
					],
					"ERC721InvalidOwner(address)": [
						{
							"details": "Indicates that an address can't be an owner. For example, `address(0)` is a forbidden owner in EIP-20. Used in balance queries.",
							"params": {
								"owner": "Address of the current owner of a token."
							}
						}
					],
					"ERC721InvalidReceiver(address)": [
						{
							"details": "Indicates a failure with the token `receiver`. Used in transfers.",
							"params": {
								"receiver": "Address to which tokens are being transferred."
							}
						}
					],
					"ERC721InvalidSender(address)": [
						{
							"details": "Indicates a failure with the token `sender`. Used in transfers.",
							"params": {
								"sender": "Address whose tokens are being transferred."
							}
						}
					],
					"ERC721NonexistentToken(uint256)": [
						{
							"details": "Indicates a `tokenId` whose `owner` is the zero address.",
							"params": {
								"tokenId": "Identifier number of a token."
							}
						}
					],
					"OwnableInvalidOwner(address)": [
						{
							"details": "The owner is not a valid owner account. (eg. `address(0)`)"
						}
					],
					"OwnableUnauthorizedAccount(address)": [
						{
							"details": "The caller account is not authorized to perform an operation."
						}
					]
				},
				"events": {
					"Approval(address,address,uint256)": {
						"details": "Emitted when `owner` enables `approved` to manage the `tokenId` token."
					},
					"ApprovalForAll(address,address,bool)": {
						"details": "Emitted when `owner` enables or disables (`approved`) `operator` to manage all of its assets."
					},
					"Transfer(address,address,uint256)": {
						"details": "Emitted when `tokenId` token is transferred from `from` to `to`."
					}
				},
				"kind": "dev",
				"methods": {
					"approve(address,uint256)": {
						"details": "See {IERC721-approve}."
					},
					"balanceOf(address)": {
						"details": "See {IERC721-balanceOf}."
					},
					"getApproved(uint256)": {
						"details": "See {IERC721-getApproved}."
					},
					"isApprovedForAll(address,address)": {
						"details": "See {IERC721-isApprovedForAll}."
					},
					"name()": {
						"details": "See {IERC721Metadata-name}."
					},
					"owner()": {
						"details": "Returns the address of the current owner."
					},
					"ownerOf(uint256)": {
						"details": "See {IERC721-ownerOf}."
					},
					"renounceOwnership()": {
						"details": "Leaves the contract without owner. It will not be possible to call `onlyOwner` functions. Can only be called by the current owner. NOTE: Renouncing ownership will leave the contract without an owner, thereby disabling any functionality that is only available to the owner."
					},
					"safeTransferFrom(address,address,uint256)": {
						"details": "See {IERC721-safeTransferFrom}."
					},
					"safeTransferFrom(address,address,uint256,bytes)": {
						"details": "See {IERC721-safeTransferFrom}."
					},
					"setApprovalForAll(address,bool)": {
						"details": "See {IERC721-setApprovalForAll}."
					},
					"supportsInterface(bytes4)": {
						"details": "See {IERC165-supportsInterface}."
					},
					"symbol()": {
						"details": "See {IERC721Metadata-symbol}."
					},
					"tokenURI(uint256)": {
						"details": "See {IERC721Metadata-tokenURI}."
					},
					"transferFrom(address,address,uint256)": {
						"details": "See {IERC721-transferFrom}."
					},
					"transferOwnership(address)": {
						"details": "Transfers ownership of the contract to a new account (`newOwner`). Can only be called by the current owner."
					}
				},
				"version": 1
			},
			"evm": {
				"assembly": "    /* \"contracts/nft.sol\":274:1716  contract GameCharacterNFT is ERC721, Ownable {... */\n  mstore(0x40, 0x80)\n    /* \"contracts/nft.sol\":722:829  constructor(string memory _name, string memory _symbol) ERC721(_name, _symbol) Ownable(msg.sender) {... */\n  callvalue\n  dup1\n  iszero\n  tag_1\n  jumpi\n  0x00\n  dup1\n  revert\ntag_1:\n  pop\n  mload(0x40)\n  sub(codesize, bytecodeSize)\n  dup1\n  bytecodeSize\n  dup4\n  codecopy\n  dup2\n  dup2\n  add\n  0x40\n  mstore\n  dup2\n  add\n  swap1\n  tag_2\n  swap2\n  swap1\n  tag_3\n  jump\t// in\ntag_2:\n    /* \"contracts/nft.sol\":809:819  msg.sender */\n  caller\n    /* \"contracts/nft.sol\":785:790  _name */\n  dup3\n    /* \"contracts/nft.sol\":792:799  _symbol */\n  dup3\n    /* \"@openzeppelin/contracts@5.0.0/token/ERC721/ERC721.sol\":1455:1460  name_ */\n  dup2\n    /* \"@openzeppelin/contracts@5.0.0/token/ERC721/ERC721.sol\":1447:1452  _name */\n  0x00\n    /* \"@openzeppelin/contracts@5.0.0/token/ERC721/ERC721.sol\":1447:1460  _name = name_ */\n  swap1\n  dup2\n  tag_8\n  swap2\n  swap1\n  tag_9\n  jump\t// in\ntag_8:\n  pop\n    /* \"@openzeppelin/contracts@5.0.0/token/ERC721/ERC721.sol\":1480:1487  symbol_ */\n  dup1\n    /* \"@openzeppelin/contracts@5.0.0/token/ERC721/ERC721.sol\":1470:1477  _symbol */\n  0x01\n    /* \"@openzeppelin/contracts@5.0.0/token/ERC721/ERC721.sol\":1470:1487  _symbol = symbol_ */\n  swap1\n  dup2\n  tag_10\n  swap2\n  swap1\n  tag_9\n  jump\t// in\ntag_10:\n  pop\n    /* \"@openzeppelin/contracts@5.0.0/token/ERC721/ERC721.sol\":1381:1494  constructor(string memory name_, string memory symbol_) {... */\n  pop\n  pop\n    /* \"@openzeppelin/contracts@5.0.0/access/Ownable.sol\":1297:1298  0 */\n  0x00\n    /* \"@openzeppelin/contracts@5.0.0/access/Ownable.sol\":1273:1299  initialOwner == address(0) */\n  0xffffffffffffffffffffffffffffffffffffffff\n  and\n    /* \"@openzeppelin/contracts@5.0.0/access/Ownable.sol\":1273:1285  initialOwner */\n  dup2\n    /* \"@openzeppelin/contracts@5.0.0/access/Ownable.sol\":1273:1299  initialOwner == address(0) */\n  0xffffffffffffffffffffffffffffffffffffffff\n  and\n  sub\n    /* \"@openzeppelin/contracts@5.0.0/access/Ownable.sol\":1269:1364  if (initialOwner == address(0)) {... */\n  tag_12\n  jumpi\n    /* \"@openzeppelin/contracts@5.0.0/access/Ownable.sol\":1350:1351  0 */\n  0x00\n    /* \"@openzeppelin/contracts@5.0.0/access/Ownable.sol\":1322:1353  OwnableInvalidOwner(address(0)) */\n  mload(0x40)\n  0x1e4fbdf700000000000000000000000000000000000000000000000000000000\n  dup2\n  mstore\n  0x04\n  add\n  tag_13\n  swap2\n  swap1\n  tag_14\n  jump\t// in\ntag_13:\n  mload(0x40)\n  dup1\n  swap2\n  sub\n  swap1\n  revert\n    /* \"@openzeppelin/contracts@5.0.0/access/Ownable.sol\":1269:1364  if (initialOwner == address(0)) {... */\ntag_12:\n    /* \"@openzeppelin/contracts@5.0.0/access/Ownable.sol\":1373:1405  _transferOwnership(initialOwner) */\n  tag_15\n    /* \"@openzeppelin/contracts@5.0.0/access/Ownable.sol\":1392:1404  initialOwner */\n  dup2\n    /* \"@openzeppelin/contracts@5.0.0/access/Ownable.sol\":1373:1391  _transferOwnership */\n  shl(0x20, tag_16)\n    /* \"@openzeppelin/contracts@5.0.0/access/Ownable.sol\":1373:1405  _transferOwnership(initialOwner) */\n  0x20\n  shr\n  jump\t// in\ntag_15:\n    /* \"@openzeppelin/contracts@5.0.0/access/Ownable.sol\":1225:1412  constructor(address initialOwner) {... */\n  pop\n    /* \"contracts/nft.sol\":722:829  constructor(string memory _name, string memory _symbol) ERC721(_name, _symbol) Ownable(msg.sender) {... */\n  pop\n  pop\n    /* \"contracts/nft.sol\":274:1716  contract GameCharacterNFT is ERC721, Ownable {... */\n  jump(tag_18)\n    /* \"@openzeppelin/contracts@5.0.0/access/Ownable.sol\":2912:3099  function _transferOwnership(address newOwner) internal virtual {... */\ntag_16:\n    /* \"@openzeppelin/contracts@5.0.0/access/Ownable.sol\":2985:3001  address oldOwner */\n  0x00\n    /* \"@openzeppelin/contracts@5.0.0/access/Ownable.sol\":3004:3010  _owner */\n  0x06\n  0x00\n  swap1\n  sload\n  swap1\n  0x0100\n  exp\n  swap1\n  div\n  0xffffffffffffffffffffffffffffffffffffffff\n  and\n    /* \"@openzeppelin/contracts@5.0.0/access/Ownable.sol\":2985:3010  address oldOwner = _owner */\n  swap1\n  pop\n    /* \"@openzeppelin/contracts@5.0.0/access/Ownable.sol\":3029:3037  newOwner */\n  dup2\n    /* \"@openzeppelin/contracts@5.0.0/access/Ownable.sol\":3020:3026  _owner */\n  0x06\n  0x00\n    /* \"@openzeppelin/contracts@5.0.0/access/Ownable.sol\":3020:3037  _owner = newOwner */\n  0x0100\n  exp\n  dup2\n  sload\n  dup2\n  0xffffffffffffffffffffffffffffffffffffffff\n  mul\n  not\n  and\n  swap1\n  dup4\n  0xffffffffffffffffffffffffffffffffffffffff\n  and\n  mul\n  or\n  swap1\n  sstore\n  pop\n    /* \"@openzeppelin/contracts@5.0.0/access/Ownable.sol\":3083:3091  newOwner */\n  dup2\n    /* \"@openzeppelin/contracts@5.0.0/access/Ownable.sol\":3052:3092  OwnershipTransferred(oldOwner, newOwner) */\n  0xffffffffffffffffffffffffffffffffffffffff\n  and\n    /* \"@openzeppelin/contracts@5.0.0/access/Ownable.sol\":3073:3081  oldOwner */\n  dup2\n    /* \"@openzeppelin/contracts@5.0.0/access/Ownable.sol\":3052:3092  OwnershipTransferred(oldOwner, newOwner) */\n  0xffffffffffffffffffffffffffffffffffffffff\n  and\n  0x8be0079c531659141344cd1fd0a4f28419497f9722a3daafe3b4186f6b6457e0\n  mload(0x40)\n  mload(0x40)\n  dup1\n  swap2\n  sub\n  swap1\n  log3\n    /* \"@openzeppelin/contracts@5.0.0/access/Ownable.sol\":2975:3099  {... */\n  pop\n    /* \"@openzeppelin/contracts@5.0.0/access/Ownable.sol\":2912:3099  function _transferOwnership(address newOwner) internal virtual {... */\n  pop\n  jump\t// out\n    /* \"#utility.yul\":7:82   */\ntag_20:\n    /* \"#utility.yul\":40:46   */\n  0x00\n    /* \"#utility.yul\":73:75   */\n  0x40\n    /* \"#utility.yul\":67:76   */\n  mload\n    /* \"#utility.yul\":57:76   */\n  swap1\n  pop\n    /* \"#utility.yul\":7:82   */\n  swap1\n  jump\t// out\n    /* \"#utility.yul\":88:205   */\ntag_21:\n    /* \"#utility.yul\":197:198   */\n  0x00\n    /* \"#utility.yul\":194:195   */\n  dup1\n    /* \"#utility.yul\":187:199   */\n  revert\n    /* \"#utility.yul\":211:328   */\ntag_22:\n    /* \"#utility.yul\":320:321   */\n  0x00\n    /* \"#utility.yul\":317:318   */\n  dup1\n    /* \"#utility.yul\":310:322   */\n  revert\n    /* \"#utility.yul\":334:451   */\ntag_23:\n    /* \"#utility.yul\":443:444   */\n  0x00\n    /* \"#utility.yul\":440:441   */\n  dup1\n    /* \"#utility.yul\":433:445   */\n  revert\n    /* \"#utility.yul\":457:574   */\ntag_24:\n    /* \"#utility.yul\":566:567   */\n  0x00\n    /* \"#utility.yul\":563:564   */\n  dup1\n    /* \"#utility.yul\":556:568   */\n  revert\n    /* \"#utility.yul\":580:682   */\ntag_25:\n    /* \"#utility.yul\":621:627   */\n  0x00\n    /* \"#utility.yul\":672:674   */\n  0x1f\n    /* \"#utility.yul\":668:675   */\n  not\n    /* \"#utility.yul\":663:665   */\n  0x1f\n    /* \"#utility.yul\":656:661   */\n  dup4\n    /* \"#utility.yul\":652:666   */\n  add\n    /* \"#utility.yul\":648:676   */\n  and\n    /* \"#utility.yul\":638:676   */\n  swap1\n  pop\n    /* \"#utility.yul\":580:682   */\n  swap2\n  swap1\n  pop\n  jump\t// out\n    /* \"#utility.yul\":688:868   */\ntag_26:\n    /* \"#utility.yul\":736:813   */\n  0x4e487b7100000000000000000000000000000000000000000000000000000000\n    /* \"#utility.yul\":733:734   */\n  0x00\n    /* \"#utility.yul\":726:814   */\n  mstore\n    /* \"#utility.yul\":833:837   */\n  0x41\n    /* \"#utility.yul\":830:831   */\n  0x04\n    /* \"#utility.yul\":823:838   */\n  mstore\n    /* \"#utility.yul\":857:861   */\n  0x24\n    /* \"#utility.yul\":854:855   */\n  0x00\n    /* \"#utility.yul\":847:862   */\n  revert\n    /* \"#utility.yul\":874:1155   */\ntag_27:\n    /* \"#utility.yul\":957:984   */\n  tag_64\n    /* \"#utility.yul\":979:983   */\n  dup3\n    /* \"#utility.yul\":957:984   */\n  tag_25\n  jump\t// in\ntag_64:\n    /* \"#utility.yul\":949:955   */\n  dup2\n    /* \"#utility.yul\":945:985   */\n  add\n    /* \"#utility.yul\":1087:1093   */\n  dup2\n    /* \"#utility.yul\":1075:1085   */\n  dup2\n    /* \"#utility.yul\":1072:1094   */\n  lt\n    /* \"#utility.yul\":1051:1069   */\n  0xffffffffffffffff\n    /* \"#utility.yul\":1039:1049   */\n  dup3\n    /* \"#utility.yul\":1036:1070   */\n  gt\n    /* \"#utility.yul\":1033:1095   */\n  or\n    /* \"#utility.yul\":1030:1118   */\n  iszero\n  tag_65\n  jumpi\n    /* \"#utility.yul\":1098:1116   */\n  tag_66\n  tag_26\n  jump\t// in\ntag_66:\n    /* \"#utility.yul\":1030:1118   */\ntag_65:\n    /* \"#utility.yul\":1138:1148   */\n  dup1\n    /* \"#utility.yul\":1134:1136   */\n  0x40\n    /* \"#utility.yul\":1127:1149   */\n  mstore\n    /* \"#utility.yul\":917:1155   */\n  pop\n    /* \"#utility.yul\":874:1155   */\n  pop\n  pop\n  jump\t// out\n    /* \"#utility.yul\":1161:1290   */\ntag_28:\n    /* \"#utility.yul\":1195:1201   */\n  0x00\n    /* \"#utility.yul\":1222:1242   */\n  tag_68\n  tag_20\n  jump\t// in\ntag_68:\n    /* \"#utility.yul\":1212:1242   */\n  swap1\n  pop\n    /* \"#utility.yul\":1251:1284   */\n  tag_69\n    /* \"#utility.yul\":1279:1283   */\n  dup3\n    /* \"#utility.yul\":1271:1277   */\n  dup3\n    /* \"#utility.yul\":1251:1284   */\n  tag_27\n  jump\t// in\ntag_69:\n    /* \"#utility.yul\":1161:1290   */\n  swap2\n  swap1\n  pop\n  jump\t// out\n    /* \"#utility.yul\":1296:1604   */\ntag_29:\n    /* \"#utility.yul\":1358:1362   */\n  0x00\n    /* \"#utility.yul\":1448:1466   */\n  0xffffffffffffffff\n    /* \"#utility.yul\":1440:1446   */\n  dup3\n    /* \"#utility.yul\":1437:1467   */\n  gt\n    /* \"#utility.yul\":1434:1490   */\n  iszero\n  tag_71\n  jumpi\n    /* \"#utility.yul\":1470:1488   */\n  tag_72\n  tag_26\n  jump\t// in\ntag_72:\n    /* \"#utility.yul\":1434:1490   */\ntag_71:\n    /* \"#utility.yul\":1508:1537   */\n  tag_73\n    /* \"#utility.yul\":1530:1536   */\n  dup3\n    /* \"#utility.yul\":1508:1537   */\n  tag_25\n  jump\t// in\ntag_73:\n    /* \"#utility.yul\":1500:1537   */\n  swap1\n  pop\n    /* \"#utility.yul\":1592:1596   */\n  0x20\n    /* \"#utility.yul\":1586:1590   */\n  dup2\n    /* \"#utility.yul\":1582:1597   */\n  add\n    /* \"#utility.yul\":1574:1597   */\n  swap1\n  pop\n    /* \"#utility.yul\":1296:1604   */\n  swap2\n  swap1\n  pop\n  jump\t// out\n    /* \"#utility.yul\":1610:1856   */\ntag_30:\n    /* \"#utility.yul\":1691:1692   */\n  0x00\n    /* \"#utility.yul\":1701:1814   */\ntag_75:\n    /* \"#utility.yul\":1715:1721   */\n  dup4\n    /* \"#utility.yul\":1712:1713   */\n  dup2\n    /* \"#utility.yul\":1709:1722   */\n  lt\n    /* \"#utility.yul\":1701:1814   */\n  iszero\n  tag_77\n  jumpi\n    /* \"#utility.yul\":1800:1801   */\n  dup1\n    /* \"#utility.yul\":1795:1798   */\n  dup3\n    /* \"#utility.yul\":1791:1802   */\n  add\n    /* \"#utility.yul\":1785:1803   */\n  mload\n    /* \"#utility.yul\":1781:1782   */\n  dup2\n    /* \"#utility.yul\":1776:1779   */\n  dup5\n    /* \"#utility.yul\":1772:1783   */\n  add\n    /* \"#utility.yul\":1765:1804   */\n  mstore\n    /* \"#utility.yul\":1737:1739   */\n  0x20\n    /* \"#utility.yul\":1734:1735   */\n  dup2\n    /* \"#utility.yul\":1730:1740   */\n  add\n    /* \"#utility.yul\":1725:1740   */\n  swap1\n  pop\n    /* \"#utility.yul\":1701:1814   */\n  jump(tag_75)\ntag_77:\n    /* \"#utility.yul\":1848:1849   */\n  0x00\n    /* \"#utility.yul\":1839:1845   */\n  dup5\n    /* \"#utility.yul\":1834:1837   */\n  dup5\n    /* \"#utility.yul\":1830:1846   */\n  add\n    /* \"#utility.yul\":1823:1850   */\n  mstore\n    /* \"#utility.yul\":1672:1856   */\n  pop\n    /* \"#utility.yul\":1610:1856   */\n  pop\n  pop\n  pop\n  jump\t// out\n    /* \"#utility.yul\":1862:2296   */\ntag_31:\n    /* \"#utility.yul\":1951:1956   */\n  0x00\n    /* \"#utility.yul\":1976:2042   */\n  tag_79\n    /* \"#utility.yul\":1992:2041   */\n  tag_80\n    /* \"#utility.yul\":2034:2040   */\n  dup5\n    /* \"#utility.yul\":1992:2041   */\n  tag_29\n  jump\t// in\ntag_80:\n    /* \"#utility.yul\":1976:2042   */\n  tag_28\n  jump\t// in\ntag_79:\n    /* \"#utility.yul\":1967:2042   */\n  swap1\n  pop\n    /* \"#utility.yul\":2065:2071   */\n  dup3\n    /* \"#utility.yul\":2058:2063   */\n  dup2\n    /* \"#utility.yul\":2051:2072   */\n  mstore\n    /* \"#utility.yul\":2103:2107   */\n  0x20\n    /* \"#utility.yul\":2096:2101   */\n  dup2\n    /* \"#utility.yul\":2092:2108   */\n  add\n    /* \"#utility.yul\":2141:2144   */\n  dup5\n    /* \"#utility.yul\":2132:2138   */\n  dup5\n    /* \"#utility.yul\":2127:2130   */\n  dup5\n    /* \"#utility.yul\":2123:2139   */\n  add\n    /* \"#utility.yul\":2120:2145   */\n  gt\n    /* \"#utility.yul\":2117:2229   */\n  iszero\n  tag_81\n  jumpi\n    /* \"#utility.yul\":2148:2227   */\n  tag_82\n  tag_24\n  jump\t// in\ntag_82:\n    /* \"#utility.yul\":2117:2229   */\ntag_81:\n    /* \"#utility.yul\":2238:2290   */\n  tag_83\n    /* \"#utility.yul\":2283:2289   */\n  dup5\n    /* \"#utility.yul\":2278:2281   */\n  dup3\n    /* \"#utility.yul\":2273:2276   */\n  dup6\n    /* \"#utility.yul\":2238:2290   */\n  tag_30\n  jump\t// in\ntag_83:\n    /* \"#utility.yul\":1957:2296   */\n  pop\n    /* \"#utility.yul\":1862:2296   */\n  swap4\n  swap3\n  pop\n  pop\n  pop\n  jump\t// out\n    /* \"#utility.yul\":2316:2671   */\ntag_32:\n    /* \"#utility.yul\":2383:2388   */\n  0x00\n    /* \"#utility.yul\":2432:2435   */\n  dup3\n    /* \"#utility.yul\":2425:2429   */\n  0x1f\n    /* \"#utility.yul\":2417:2423   */\n  dup4\n    /* \"#utility.yul\":2413:2430   */\n  add\n    /* \"#utility.yul\":2409:2436   */\n  slt\n    /* \"#utility.yul\":2399:2521   */\n  tag_85\n  jumpi\n    /* \"#utility.yul\":2440:2519   */\n  tag_86\n  tag_23\n  jump\t// in\ntag_86:\n    /* \"#utility.yul\":2399:2521   */\ntag_85:\n    /* \"#utility.yul\":2550:2556   */\n  dup2\n    /* \"#utility.yul\":2544:2557   */\n  mload\n    /* \"#utility.yul\":2575:2665   */\n  tag_87\n    /* \"#utility.yul\":2661:2664   */\n  dup5\n    /* \"#utility.yul\":2653:2659   */\n  dup3\n    /* \"#utility.yul\":2646:2650   */\n  0x20\n    /* \"#utility.yul\":2638:2644   */\n  dup7\n    /* \"#utility.yul\":2634:2651   */\n  add\n    /* \"#utility.yul\":2575:2665   */\n  tag_31\n  jump\t// in\ntag_87:\n    /* \"#utility.yul\":2566:2665   */\n  swap2\n  pop\n    /* \"#utility.yul\":2389:2671   */\n  pop\n    /* \"#utility.yul\":2316:2671   */\n  swap3\n  swap2\n  pop\n  pop\n  jump\t// out\n    /* \"#utility.yul\":2677:3530   */\ntag_3:\n    /* \"#utility.yul\":2776:2782   */\n  0x00\n    /* \"#utility.yul\":2784:2790   */\n  dup1\n    /* \"#utility.yul\":2833:2835   */\n  0x40\n    /* \"#utility.yul\":2821:2830   */\n  dup4\n    /* \"#utility.yul\":2812:2819   */\n  dup6\n    /* \"#utility.yul\":2808:2831   */\n  sub\n    /* \"#utility.yul\":2804:2836   */\n  slt\n    /* \"#utility.yul\":2801:2920   */\n  iszero\n  tag_89\n  jumpi\n    /* \"#utility.yul\":2839:2918   */\n  tag_90\n  tag_21\n  jump\t// in\ntag_90:\n    /* \"#utility.yul\":2801:2920   */\ntag_89:\n    /* \"#utility.yul\":2980:2981   */\n  0x00\n    /* \"#utility.yul\":2969:2978   */\n  dup4\n    /* \"#utility.yul\":2965:2982   */\n  add\n    /* \"#utility.yul\":2959:2983   */\n  mload\n    /* \"#utility.yul\":3010:3028   */\n  0xffffffffffffffff\n    /* \"#utility.yul\":3002:3008   */\n  dup2\n    /* \"#utility.yul\":2999:3029   */\n  gt\n    /* \"#utility.yul\":2996:3113   */\n  iszero\n  tag_91\n  jumpi\n    /* \"#utility.yul\":3032:3111   */\n  tag_92\n  tag_22\n  jump\t// in\ntag_92:\n    /* \"#utility.yul\":2996:3113   */\ntag_91:\n    /* \"#utility.yul\":3137:3211   */\n  tag_93\n    /* \"#utility.yul\":3203:3210   */\n  dup6\n    /* \"#utility.yul\":3194:3200   */\n  dup3\n    /* \"#utility.yul\":3183:3192   */\n  dup7\n    /* \"#utility.yul\":3179:3201   */\n  add\n    /* \"#utility.yul\":3137:3211   */\n  tag_32\n  jump\t// in\ntag_93:\n    /* \"#utility.yul\":3127:3211   */\n  swap3\n  pop\n    /* \"#utility.yul\":2930:3221   */\n  pop\n    /* \"#utility.yul\":3281:3283   */\n  0x20\n    /* \"#utility.yul\":3270:3279   */\n  dup4\n    /* \"#utility.yul\":3266:3284   */\n  add\n    /* \"#utility.yul\":3260:3285   */\n  mload\n    /* \"#utility.yul\":3312:3330   */\n  0xffffffffffffffff\n    /* \"#utility.yul\":3304:3310   */\n  dup2\n    /* \"#utility.yul\":3301:3331   */\n  gt\n    /* \"#utility.yul\":3298:3415   */\n  iszero\n  tag_94\n  jumpi\n    /* \"#utility.yul\":3334:3413   */\n  tag_95\n  tag_22\n  jump\t// in\ntag_95:\n    /* \"#utility.yul\":3298:3415   */\ntag_94:\n    /* \"#utility.yul\":3439:3513   */\n  tag_96\n    /* \"#utility.yul\":3505:3512   */\n  dup6\n    /* \"#utility.yul\":3496:3502   */\n  dup3\n    /* \"#utility.yul\":3485:3494   */\n  dup7\n    /* \"#utility.yul\":3481:3503   */\n  add\n    /* \"#utility.yul\":3439:3513   */\n  tag_32\n  jump\t// in\ntag_96:\n    /* \"#utility.yul\":3429:3513   */\n  swap2\n  pop\n    /* \"#utility.yul\":3231:3523   */\n  pop\n    /* \"#utility.yul\":2677:3530   */\n  swap3\n  pop\n  swap3\n  swap1\n  pop\n  jump\t// out\n    /* \"#utility.yul\":3536:3635   */\ntag_33:\n    /* \"#utility.yul\":3588:3594   */\n  0x00\n    /* \"#utility.yul\":3622:3627   */\n  dup2\n    /* \"#utility.yul\":3616:3628   */\n  mload\n    /* \"#utility.yul\":3606:3628   */\n  swap1\n  pop\n    /* \"#utility.yul\":3536:3635   */\n  swap2\n  swap1\n  pop\n  jump\t// out\n    /* \"#utility.yul\":3641:3821   */\ntag_34:\n    /* \"#utility.yul\":3689:3766   */\n  0x4e487b7100000000000000000000000000000000000000000000000000000000\n    /* \"#utility.yul\":3686:3687   */\n  0x00\n    /* \"#utility.yul\":3679:3767   */\n  mstore\n    /* \"#utility.yul\":3786:3790   */\n  0x22\n    /* \"#utility.yul\":3783:3784   */\n  0x04\n    /* \"#utility.yul\":3776:3791   */\n  mstore\n    /* \"#utility.yul\":3810:3814   */\n  0x24\n    /* \"#utility.yul\":3807:3808   */\n  0x00\n    /* \"#utility.yul\":3800:3815   */\n  revert\n    /* \"#utility.yul\":3827:4147   */\ntag_35:\n    /* \"#utility.yul\":3871:3877   */\n  0x00\n    /* \"#utility.yul\":3908:3909   */\n  0x02\n    /* \"#utility.yul\":3902:3906   */\n  dup3\n    /* \"#utility.yul\":3898:3910   */\n  div\n    /* \"#utility.yul\":3888:3910   */\n  swap1\n  pop\n    /* \"#utility.yul\":3955:3956   */\n  0x01\n    /* \"#utility.yul\":3949:3953   */\n  dup3\n    /* \"#utility.yul\":3945:3957   */\n  and\n    /* \"#utility.yul\":3976:3994   */\n  dup1\n    /* \"#utility.yul\":3966:4047   */\n  tag_100\n  jumpi\n    /* \"#utility.yul\":4032:4036   */\n  0x7f\n    /* \"#utility.yul\":4024:4030   */\n  dup3\n    /* \"#utility.yul\":4020:4037   */\n  and\n    /* \"#utility.yul\":4010:4037   */\n  swap2\n  pop\n    /* \"#utility.yul\":3966:4047   */\ntag_100:\n    /* \"#utility.yul\":4094:4096   */\n  0x20\n    /* \"#utility.yul\":4086:4092   */\n  dup3\n    /* \"#utility.yul\":4083:4097   */\n  lt\n    /* \"#utility.yul\":4063:4081   */\n  dup2\n    /* \"#utility.yul\":4060:4098   */\n  sub\n    /* \"#utility.yul\":4057:4141   */\n  tag_101\n  jumpi\n    /* \"#utility.yul\":4113:4131   */\n  tag_102\n  tag_34\n  jump\t// in\ntag_102:\n    /* \"#utility.yul\":4057:4141   */\ntag_101:\n    /* \"#utility.yul\":3878:4147   */\n  pop\n    /* \"#utility.yul\":3827:4147   */\n  swap2\n  swap1\n  pop\n  jump\t// out\n    /* \"#utility.yul\":4153:4294   */\ntag_36:\n    /* \"#utility.yul\":4202:4206   */\n  0x00\n    /* \"#utility.yul\":4225:4228   */\n  dup2\n    /* \"#utility.yul\":4217:4228   */\n  swap1\n  pop\n    /* \"#utility.yul\":4248:4251   */\n  dup2\n    /* \"#utility.yul\":4245:4246   */\n  0x00\n    /* \"#utility.yul\":4238:4252   */\n  mstore\n    /* \"#utility.yul\":4282:4286   */\n  0x20\n    /* \"#utility.yul\":4279:4280   */\n  0x00\n    /* \"#utility.yul\":4269:4287   */\n  keccak256\n    /* \"#utility.yul\":4261:4287   */\n  swap1\n  pop\n    /* \"#utility.yul\":4153:4294   */\n  swap2\n  swap1\n  pop\n  jump\t// out\n    /* \"#utility.yul\":4300:4393   */\ntag_37:\n    /* \"#utility.yul\":4337:4343   */\n  0x00\n    /* \"#utility.yul\":4384:4386   */\n  0x20\n    /* \"#utility.yul\":4379:4381   */\n  0x1f\n    /* \"#utility.yul\":4372:4377   */\n  dup4\n    /* \"#utility.yul\":4368:4382   */\n  add\n    /* \"#utility.yul\":4364:4387   */\n  div\n    /* \"#utility.yul\":4354:4387   */\n  swap1\n  pop\n    /* \"#utility.yul\":4300:4393   */\n  swap2\n  swap1\n  pop\n  jump\t// out\n    /* \"#utility.yul\":4399:4506   */\ntag_38:\n    /* \"#utility.yul\":4443:4451   */\n  0x00\n    /* \"#utility.yul\":4493:4498   */\n  dup3\n    /* \"#utility.yul\":4487:4491   */\n  dup3\n    /* \"#utility.yul\":4483:4499   */\n  shl\n    /* \"#utility.yul\":4462:4499   */\n  swap1\n  pop\n    /* \"#utility.yul\":4399:4506   */\n  swap3\n  swap2\n  pop\n  pop\n  jump\t// out\n    /* \"#utility.yul\":4512:4905   */\ntag_39:\n    /* \"#utility.yul\":4581:4587   */\n  0x00\n    /* \"#utility.yul\":4631:4632   */\n  0x08\n    /* \"#utility.yul\":4619:4629   */\n  dup4\n    /* \"#utility.yul\":4615:4633   */\n  mul\n    /* \"#utility.yul\":4654:4751   */\n  tag_107\n    /* \"#utility.yul\":4684:4750   */\n  0xffffffffffffffffffffffffffffffffffffffffffffffffffffffffffffffff\n    /* \"#utility.yul\":4673:4682   */\n  dup3\n    /* \"#utility.yul\":4654:4751   */\n  tag_38\n  jump\t// in\ntag_107:\n    /* \"#utility.yul\":4772:4811   */\n  tag_108\n    /* \"#utility.yul\":4802:4810   */\n  dup7\n    /* \"#utility.yul\":4791:4800   */\n  dup4\n    /* \"#utility.yul\":4772:4811   */\n  tag_38\n  jump\t// in\ntag_108:\n    /* \"#utility.yul\":4760:4811   */\n  swap6\n  pop\n    /* \"#utility.yul\":4844:4848   */\n  dup1\n    /* \"#utility.yul\":4840:4849   */\n  not\n    /* \"#utility.yul\":4833:4838   */\n  dup5\n    /* \"#utility.yul\":4829:4850   */\n  and\n    /* \"#utility.yul\":4820:4850   */\n  swap4\n  pop\n    /* \"#utility.yul\":4893:4897   */\n  dup1\n    /* \"#utility.yul\":4883:4891   */\n  dup7\n    /* \"#utility.yul\":4879:4898   */\n  and\n    /* \"#utility.yul\":4872:4877   */\n  dup5\n    /* \"#utility.yul\":4869:4899   */\n  or\n    /* \"#utility.yul\":4859:4899   */\n  swap3\n  pop\n    /* \"#utility.yul\":4588:4905   */\n  pop\n  pop\n    /* \"#utility.yul\":4512:4905   */\n  swap4\n  swap3\n  pop\n  pop\n  pop\n  jump\t// out\n    /* \"#utility.yul\":4911:4988   */\ntag_40:\n    /* \"#utility.yul\":4948:4955   */\n  0x00\n    /* \"#utility.yul\":4977:4982   */\n  dup2\n    /* \"#utility.yul\":4966:4982   */\n  swap1\n  pop\n    /* \"#utility.yul\":4911:4988   */\n  swap2\n  swap1\n  pop\n  jump\t// out\n    /* \"#utility.yul\":4994:5054   */\ntag_41:\n    /* \"#utility.yul\":5022:5025   */\n  0x00\n    /* \"#utility.yul\":5043:5048   */\n  dup2\n    /* \"#utility.yul\":5036:5048   */\n  swap1\n  pop\n    /* \"#utility.yul\":4994:5054   */\n  swap2\n  swap1\n  pop\n  jump\t// out\n    /* \"#utility.yul\":5060:5202   */\ntag_42:\n    /* \"#utility.yul\":5110:5119   */\n  0x00\n    /* \"#utility.yul\":5143:5196   */\n  tag_112\n    /* \"#utility.yul\":5161:5195   */\n  tag_113\n    /* \"#utility.yul\":5170:5194   */\n  tag_114\n    /* \"#utility.yul\":5188:5193   */\n  dup5\n    /* \"#utility.yul\":5170:5194   */\n  tag_40\n  jump\t// in\ntag_114:\n    /* \"#utility.yul\":5161:5195   */\n  tag_41\n  jump\t// in\ntag_113:\n    /* \"#utility.yul\":5143:5196   */\n  tag_40\n  jump\t// in\ntag_112:\n    /* \"#utility.yul\":5130:5196   */\n  swap1\n  pop\n    /* \"#utility.yul\":5060:5202   */\n  swap2\n  swap1\n  pop\n  jump\t// out\n    /* \"#utility.yul\":5208:5283   */\ntag_43:\n    /* \"#utility.yul\":5251:5254   */\n  0x00\n    /* \"#utility.yul\":5272:5277   */\n  dup2\n    /* \"#utility.yul\":5265:5277   */\n  swap1\n  pop\n    /* \"#utility.yul\":5208:5283   */\n  swap2\n  swap1\n  pop\n  jump\t// out\n    /* \"#utility.yul\":5289:5558   */\ntag_44:\n    /* \"#utility.yul\":5399:5438   */\n  tag_117\n    /* \"#utility.yul\":5430:5437   */\n  dup4\n    /* \"#utility.yul\":5399:5438   */\n  tag_42\n  jump\t// in\ntag_117:\n    /* \"#utility.yul\":5460:5551   */\n  tag_118\n    /* \"#utility.yul\":5509:5550   */\n  tag_119\n    /* \"#utility.yul\":5533:5549   */\n  dup3\n    /* \"#utility.yul\":5509:5550   */\n  tag_43\n  jump\t// in\ntag_119:\n    /* \"#utility.yul\":5501:5507   */\n  dup5\n    /* \"#utility.yul\":5494:5498   */\n  dup5\n    /* \"#utility.yul\":5488:5499   */\n  sload\n    /* \"#utility.yul\":5460:5551   */\n  tag_39\n  jump\t// in\ntag_118:\n    /* \"#utility.yul\":5454:5458   */\n  dup3\n    /* \"#utility.yul\":5447:5552   */\n  sstore\n    /* \"#utility.yul\":5365:5558   */\n  pop\n    /* \"#utility.yul\":5289:5558   */\n  pop\n  pop\n  pop\n  jump\t// out\n    /* \"#utility.yul\":5564:5637   */\ntag_45:\n    /* \"#utility.yul\":5609:5612   */\n  0x00\n    /* \"#utility.yul\":5564:5637   */\n  swap1\n  jump\t// out\n    /* \"#utility.yul\":5643:5832   */\ntag_46:\n    /* \"#utility.yul\":5720:5752   */\n  tag_122\n  tag_45\n  jump\t// in\ntag_122:\n    /* \"#utility.yul\":5761:5826   */\n  tag_123\n    /* \"#utility.yul\":5819:5825   */\n  dup2\n    /* \"#utility.yul\":5811:5817   */\n  dup5\n    /* \"#utility.yul\":5805:5809   */\n  dup5\n    /* \"#utility.yul\":5761:5826   */\n  tag_44\n  jump\t// in\ntag_123:\n    /* \"#utility.yul\":5696:5832   */\n  pop\n    /* \"#utility.yul\":5643:5832   */\n  pop\n  pop\n  jump\t// out\n    /* \"#utility.yul\":5838:6024   */\ntag_47:\n    /* \"#utility.yul\":5898:6018   */\ntag_125:\n    /* \"#utility.yul\":5915:5918   */\n  dup2\n    /* \"#utility.yul\":5908:5913   */\n  dup2\n    /* \"#utility.yul\":5905:5919   */\n  lt\n    /* \"#utility.yul\":5898:6018   */\n  iszero\n  tag_127\n  jumpi\n    /* \"#utility.yul\":5969:6008   */\n  tag_128\n    /* \"#utility.yul\":6006:6007   */\n  0x00\n    /* \"#utility.yul\":5999:6004   */\n  dup3\n    /* \"#utility.yul\":5969:6008   */\n  tag_46\n  jump\t// in\ntag_128:\n    /* \"#utility.yul\":5942:5943   */\n  0x01\n    /* \"#utility.yul\":5935:5940   */\n  dup2\n    /* \"#utility.yul\":5931:5944   */\n  add\n    /* \"#utility.yul\":5922:5944   */\n  swap1\n  pop\n    /* \"#utility.yul\":5898:6018   */\n  jump(tag_125)\ntag_127:\n    /* \"#utility.yul\":5838:6024   */\n  pop\n  pop\n  jump\t// out\n    /* \"#utility.yul\":6030:6573   */\ntag_48:\n    /* \"#utility.yul\":6131:6133   */\n  0x1f\n    /* \"#utility.yul\":6126:6129   */\n  dup3\n    /* \"#utility.yul\":6123:6134   */\n  gt\n    /* \"#utility.yul\":6120:6566   */\n  iszero\n  tag_130\n  jumpi\n    /* \"#utility.yul\":6165:6203   */\n  tag_131\n    /* \"#utility.yul\":6197:6202   */\n  dup2\n    /* \"#utility.yul\":6165:6203   */\n  tag_36\n  jump\t// in\ntag_131:\n    /* \"#utility.yul\":6249:6278   */\n  tag_132\n    /* \"#utility.yul\":6267:6277   */\n  dup5\n    /* \"#utility.yul\":6249:6278   */\n  tag_37\n  jump\t// in\ntag_132:\n    /* \"#utility.yul\":6239:6247   */\n  dup2\n    /* \"#utility.yul\":6235:6279   */\n  add\n    /* \"#utility.yul\":6432:6434   */\n  0x20\n    /* \"#utility.yul\":6420:6430   */\n  dup6\n    /* \"#utility.yul\":6417:6435   */\n  lt\n    /* \"#utility.yul\":6414:6463   */\n  iszero\n  tag_133\n  jumpi\n    /* \"#utility.yul\":6453:6461   */\n  dup2\n    /* \"#utility.yul\":6438:6461   */\n  swap1\n  pop\n    /* \"#utility.yul\":6414:6463   */\ntag_133:\n    /* \"#utility.yul\":6476:6556   */\n  tag_134\n    /* \"#utility.yul\":6532:6554   */\n  tag_135\n    /* \"#utility.yul\":6550:6553   */\n  dup6\n    /* \"#utility.yul\":6532:6554   */\n  tag_37\n  jump\t// in\ntag_135:\n    /* \"#utility.yul\":6522:6530   */\n  dup4\n    /* \"#utility.yul\":6518:6555   */\n  add\n    /* \"#utility.yul\":6505:6516   */\n  dup3\n    /* \"#utility.yul\":6476:6556   */\n  tag_47\n  jump\t// in\ntag_134:\n    /* \"#utility.yul\":6135:6566   */\n  pop\n  pop\n    /* \"#utility.yul\":6120:6566   */\ntag_130:\n    /* \"#utility.yul\":6030:6573   */\n  pop\n  pop\n  pop\n  jump\t// out\n    /* \"#utility.yul\":6579:6696   */\ntag_49:\n    /* \"#utility.yul\":6633:6641   */\n  0x00\n    /* \"#utility.yul\":6683:6688   */\n  dup3\n    /* \"#utility.yul\":6677:6681   */\n  dup3\n    /* \"#utility.yul\":6673:6689   */\n  shr\n    /* \"#utility.yul\":6652:6689   */\n  swap1\n  pop\n    /* \"#utility.yul\":6579:6696   */\n  swap3\n  swap2\n  pop\n  pop\n  jump\t// out\n    /* \"#utility.yul\":6702:6871   */\ntag_50:\n    /* \"#utility.yul\":6746:6752   */\n  0x00\n    /* \"#utility.yul\":6779:6830   */\n  tag_138\n    /* \"#utility.yul\":6827:6828   */\n  0x00\n    /* \"#utility.yul\":6823:6829   */\n  not\n    /* \"#utility.yul\":6815:6820   */\n  dup5\n    /* \"#utility.yul\":6812:6813   */\n  0x08\n    /* \"#utility.yul\":6808:6821   */\n  mul\n    /* \"#utility.yul\":6779:6830   */\n  tag_49\n  jump\t// in\ntag_138:\n    /* \"#utility.yul\":6775:6831   */\n  not\n    /* \"#utility.yul\":6860:6864   */\n  dup1\n    /* \"#utility.yul\":6854:6858   */\n  dup4\n    /* \"#utility.yul\":6850:6865   */\n  and\n    /* \"#utility.yul\":6840:6865   */\n  swap2\n  pop\n    /* \"#utility.yul\":6753:6871   */\n  pop\n    /* \"#utility.yul\":6702:6871   */\n  swap3\n  swap2\n  pop\n  pop\n  jump\t// out\n    /* \"#utility.yul\":6876:7171   */\ntag_51:\n    /* \"#utility.yul\":6952:6956   */\n  0x00\n    /* \"#utility.yul\":7098:7127   */\n  tag_140\n    /* \"#utility.yul\":7123:7126   */\n  dup4\n    /* \"#utility.yul\":7117:7121   */\n  dup4\n    /* \"#utility.yul\":7098:7127   */\n  tag_50\n  jump\t// in\ntag_140:\n    /* \"#utility.yul\":7090:7127   */\n  swap2\n  pop\n    /* \"#utility.yul\":7160:7163   */\n  dup3\n    /* \"#utility.yul\":7157:7158   */\n  0x02\n    /* \"#utility.yul\":7153:7164   */\n  mul\n    /* \"#utility.yul\":7147:7151   */\n  dup3\n    /* \"#utility.yul\":7144:7165   */\n  or\n    /* \"#utility.yul\":7136:7165   */\n  swap1\n  pop\n    /* \"#utility.yul\":6876:7171   */\n  swap3\n  swap2\n  pop\n  pop\n  jump\t// out\n    /* \"#utility.yul\":7176:8571   */\ntag_9:\n    /* \"#utility.yul\":7293:7330   */\n  tag_142\n    /* \"#utility.yul\":7326:7329   */\n  dup3\n    /* \"#utility.yul\":7293:7330   */\n  tag_33\n  jump\t// in\ntag_142:\n    /* \"#utility.yul\":7395:7413   */\n  0xffffffffffffffff\n    /* \"#utility.yul\":7387:7393   */\n  dup2\n    /* \"#utility.yul\":7384:7414   */\n  gt\n    /* \"#utility.yul\":7381:7437   */\n  iszero\n  tag_143\n  jumpi\n    /* \"#utility.yul\":7417:7435   */\n  tag_144\n  tag_26\n  jump\t// in\ntag_144:\n    /* \"#utility.yul\":7381:7437   */\ntag_143:\n    /* \"#utility.yul\":7461:7499   */\n  tag_145\n    /* \"#utility.yul\":7493:7497   */\n  dup3\n    /* \"#utility.yul\":7487:7498   */\n  sload\n    /* \"#utility.yul\":7461:7499   */\n  tag_35\n  jump\t// in\ntag_145:\n    /* \"#utility.yul\":7546:7613   */\n  tag_146\n    /* \"#utility.yul\":7606:7612   */\n  dup3\n    /* \"#utility.yul\":7598:7604   */\n  dup3\n    /* \"#utility.yul\":7592:7596   */\n  dup6\n    /* \"#utility.yul\":7546:7613   */\n  tag_48\n  jump\t// in\ntag_146:\n    /* \"#utility.yul\":7640:7641   */\n  0x00\n    /* \"#utility.yul\":7664:7668   */\n  0x20\n    /* \"#utility.yul\":7651:7668   */\n  swap1\n  pop\n    /* \"#utility.yul\":7696:7698   */\n  0x1f\n    /* \"#utility.yul\":7688:7694   */\n  dup4\n    /* \"#utility.yul\":7685:7699   */\n  gt\n    /* \"#utility.yul\":7713:7714   */\n  0x01\n    /* \"#utility.yul\":7708:8326   */\n  dup2\n  eq\n  tag_148\n  jumpi\n    /* \"#utility.yul\":8370:8371   */\n  0x00\n    /* \"#utility.yul\":8387:8393   */\n  dup5\n    /* \"#utility.yul\":8384:8461   */\n  iszero\n  tag_149\n  jumpi\n    /* \"#utility.yul\":8436:8445   */\n  dup3\n    /* \"#utility.yul\":8431:8434   */\n  dup8\n    /* \"#utility.yul\":8427:8446   */\n  add\n    /* \"#utility.yul\":8421:8447   */\n  mload\n    /* \"#utility.yul\":8412:8447   */\n  swap1\n  pop\n    /* \"#utility.yul\":8384:8461   */\ntag_149:\n    /* \"#utility.yul\":8487:8554   */\n  tag_150\n    /* \"#utility.yul\":8547:8553   */\n  dup6\n    /* \"#utility.yul\":8540:8545   */\n  dup3\n    /* \"#utility.yul\":8487:8554   */\n  tag_51\n  jump\t// in\ntag_150:\n    /* \"#utility.yul\":8481:8485   */\n  dup7\n    /* \"#utility.yul\":8474:8555   */\n  sstore\n    /* \"#utility.yul\":8343:8565   */\n  pop\n    /* \"#utility.yul\":7678:8565   */\n  jump(tag_147)\n    /* \"#utility.yul\":7708:8326   */\ntag_148:\n    /* \"#utility.yul\":7760:7764   */\n  0x1f\n    /* \"#utility.yul\":7756:7765   */\n  not\n    /* \"#utility.yul\":7748:7754   */\n  dup5\n    /* \"#utility.yul\":7744:7766   */\n  and\n    /* \"#utility.yul\":7794:7831   */\n  tag_151\n    /* \"#utility.yul\":7826:7830   */\n  dup7\n    /* \"#utility.yul\":7794:7831   */\n  tag_36\n  jump\t// in\ntag_151:\n    /* \"#utility.yul\":7853:7854   */\n  0x00\n    /* \"#utility.yul\":7867:8075   */\ntag_152:\n    /* \"#utility.yul\":7881:7888   */\n  dup3\n    /* \"#utility.yul\":7878:7879   */\n  dup2\n    /* \"#utility.yul\":7875:7889   */\n  lt\n    /* \"#utility.yul\":7867:8075   */\n  iszero\n  tag_154\n  jumpi\n    /* \"#utility.yul\":7960:7969   */\n  dup5\n    /* \"#utility.yul\":7955:7958   */\n  dup10\n    /* \"#utility.yul\":7951:7970   */\n  add\n    /* \"#utility.yul\":7945:7971   */\n  mload\n    /* \"#utility.yul\":7937:7943   */\n  dup3\n    /* \"#utility.yul\":7930:7972   */\n  sstore\n    /* \"#utility.yul\":8011:8012   */\n  0x01\n    /* \"#utility.yul\":8003:8009   */\n  dup3\n    /* \"#utility.yul\":7999:8013   */\n  add\n    /* \"#utility.yul\":7989:8013   */\n  swap2\n  pop\n    /* \"#utility.yul\":8058:8060   */\n  0x20\n    /* \"#utility.yul\":8047:8056   */\n  dup6\n    /* \"#utility.yul\":8043:8061   */\n  add\n    /* \"#utility.yul\":8030:8061   */\n  swap5\n  pop\n    /* \"#utility.yul\":7904:7908   */\n  0x20\n    /* \"#utility.yul\":7901:7902   */\n  dup2\n    /* \"#utility.yul\":7897:7909   */\n  add\n    /* \"#utility.yul\":7892:7909   */\n  swap1\n  pop\n    /* \"#utility.yul\":7867:8075   */\n  jump(tag_152)\ntag_154:\n    /* \"#utility.yul\":8103:8109   */\n  dup7\n    /* \"#utility.yul\":8094:8101   */\n  dup4\n    /* \"#utility.yul\":8091:8110   */\n  lt\n    /* \"#utility.yul\":8088:8267   */\n  iszero\n  tag_155\n  jumpi\n    /* \"#utility.yul\":8161:8170   */\n  dup5\n    /* \"#utility.yul\":8156:8159   */\n  dup10\n    /* \"#utility.yul\":8152:8171   */\n  add\n    /* \"#utility.yul\":8146:8172   */\n  mload\n    /* \"#utility.yul\":8204:8252   */\n  tag_156\n    /* \"#utility.yul\":8246:8250   */\n  0x1f\n    /* \"#utility.yul\":8238:8244   */\n  dup10\n    /* \"#utility.yul\":8234:8251   */\n  and\n    /* \"#utility.yul\":8223:8232   */\n  dup3\n    /* \"#utility.yul\":8204:8252   */\n  tag_50\n  jump\t// in\ntag_156:\n    /* \"#utility.yul\":8196:8202   */\n  dup4\n    /* \"#utility.yul\":8189:8253   */\n  sstore\n    /* \"#utility.yul\":8111:8267   */\n  pop\n    /* \"#utility.yul\":8088:8267   */\ntag_155:\n    /* \"#utility.yul\":8313:8314   */\n  0x01\n    /* \"#utility.yul\":8309:8310   */\n  0x02\n    /* \"#utility.yul\":8301:8307   */\n  dup9\n    /* \"#utility.yul\":8297:8311   */\n  mul\n    /* \"#utility.yul\":8293:8315   */\n  add\n    /* \"#utility.yul\":8287:8291   */\n  dup9\n    /* \"#utility.yul\":8280:8316   */\n  sstore\n    /* \"#utility.yul\":7715:8326   */\n  pop\n  pop\n  pop\n    /* \"#utility.yul\":7678:8565   */\ntag_147:\n  pop\n    /* \"#utility.yul\":7268:8571   */\n  pop\n  pop\n  pop\n    /* \"#utility.yul\":7176:8571   */\n  pop\n  pop\n  jump\t// out\n    /* \"#utility.yul\":8577:8703   */\ntag_52:\n    /* \"#utility.yul\":8614:8621   */\n  0x00\n    /* \"#utility.yul\":8654:8696   */\n  0xffffffffffffffffffffffffffffffffffffffff\n    /* \"#utility.yul\":8647:8652   */\n  dup3\n    /* \"#utility.yul\":8643:8697   */\n  and\n    /* \"#utility.yul\":8632:8697   */\n  swap1\n  pop\n    /* \"#utility.yul\":8577:8703   */\n  swap2\n  swap1\n  pop\n  jump\t// out\n    /* \"#utility.yul\":8709:8805   */\ntag_53:\n    /* \"#utility.yul\":8746:8753   */\n  0x00\n    /* \"#utility.yul\":8775:8799   */\n  tag_159\n    /* \"#utility.yul\":8793:8798   */\n  dup3\n    /* \"#utility.yul\":8775:8799   */\n  tag_52\n  jump\t// in\ntag_159:\n    /* \"#utility.yul\":8764:8799   */\n  swap1\n  pop\n    /* \"#utility.yul\":8709:8805   */\n  swap2\n  swap1\n  pop\n  jump\t// out\n    /* \"#utility.yul\":8811:8929   */\ntag_54:\n    /* \"#utility.yul\":8898:8922   */\n  tag_161\n    /* \"#utility.yul\":8916:8921   */\n  dup2\n    /* \"#utility.yul\":8898:8922   */\n  tag_53\n  jump\t// in\ntag_161:\n    /* \"#utility.yul\":8893:8896   */\n  dup3\n    /* \"#utility.yul\":8886:8923   */\n  mstore\n    /* \"#utility.yul\":8811:8929   */\n  pop\n  pop\n  jump\t// out\n    /* \"#utility.yul\":8935:9157   */\ntag_14:\n    /* \"#utility.yul\":9028:9032   */\n  0x00\n    /* \"#utility.yul\":9066:9068   */\n  0x20\n    /* \"#utility.yul\":9055:9064   */\n  dup3\n    /* \"#utility.yul\":9051:9069   */\n  add\n    /* \"#utility.yul\":9043:9069   */\n  swap1\n  pop\n    /* \"#utility.yul\":9079:9150   */\n  tag_163\n    /* \"#utility.yul\":9147:9148   */\n  0x00\n    /* \"#utility.yul\":9136:9145   */\n  dup4\n    /* \"#utility.yul\":9132:9149   */\n  add\n    /* \"#utility.yul\":9123:9129   */\n  dup5\n    /* \"#utility.yul\":9079:9150   */\n  tag_54\n  jump\t// in\ntag_163:\n    /* \"#utility.yul\":8935:9157   */\n  swap3\n  swap2\n  pop\n  pop\n  jump\t// out\n    /* \"contracts/nft.sol\":274:1716  contract GameCharacterNFT is ERC721, Ownable {... */\ntag_18:\n  dataSize(sub_0)\n  dup1\n  dataOffset(sub_0)\n  0x00\n  codecopy\n  0x00\n  return\nstop\n\nsub_0: assembly {\n        /* \"contracts/nft.sol\":274:1716  contract GameCharacterNFT is ERC721, Ownable {... */\n      mstore(0x40, 0x80)\n      callvalue\n      dup1\n      iszero\n      tag_1\n      jumpi\n      0x00\n      dup1\n      revert\n    tag_1:\n      pop\n      jumpi(tag_2, lt(calldatasize, 0x04))\n      shr(0xe0, calldataload(0x00))\n      dup1\n      0x715018a6\n      gt\n      tag_22\n      jumpi\n      dup1\n      0xb88d4fde\n      gt\n      tag_23\n      jumpi\n      dup1\n      0xb88d4fde\n      eq\n      tag_17\n      jumpi\n      dup1\n      0xc87b56dd\n      eq\n      tag_18\n      jumpi\n      dup1\n      0xd0e60cff\n      eq\n      tag_19\n      jumpi\n      dup1\n      0xe985e9c5\n      eq\n      tag_20\n      jumpi\n      dup1\n      0xf2fde38b\n      eq\n      tag_21\n      jumpi\n      jump(tag_2)\n    tag_23:\n      dup1\n      0x715018a6\n      eq\n      tag_12\n      jumpi\n      dup1\n      0x8da5cb5b\n      eq\n      tag_13\n      jumpi\n      dup1\n      0x95d89b41\n      eq\n      tag_14\n      jumpi\n      dup1\n      0x9756aadd\n      eq\n      tag_15\n      jumpi\n      dup1\n      0xa22cb465\n      eq\n      tag_16\n      jumpi\n      jump(tag_2)\n    tag_22:\n      dup1\n      0x23b872dd\n      gt\n      tag_24\n      jumpi\n      dup1\n      0x23b872dd\n      eq\n      tag_7\n      jumpi\n      dup1\n      0x42842e0e\n      eq\n      tag_8\n      jumpi\n      dup1\n      0x5091df62\n      eq\n      tag_9\n      jumpi\n      dup1\n      0x6352211e\n      eq\n      tag_10\n      jumpi\n      dup1\n      0x70a08231\n      eq\n      tag_11\n      jumpi\n      jump(tag_2)\n    tag_24:\n      dup1\n      0x01ffc9a7\n      eq\n      tag_3\n      jumpi\n      dup1\n      0x06fdde03\n      eq\n      tag_4\n      jumpi\n      dup1\n      0x081812fc\n      eq\n      tag_5\n      jumpi\n      dup1\n      0x095ea7b3\n      eq\n      tag_6\n      jumpi\n    tag_2:\n      0x00\n      dup1\n      revert\n        /* \"@openzeppelin/contracts@5.0.0/token/ERC721/ERC721.sol\":1561:1861  function supportsInterface(bytes4 interfaceId) public view virtual override(ERC165, IERC165) returns (bool) {... */\n    tag_3:\n      tag_25\n      0x04\n      dup1\n      calldatasize\n      sub\n      dup2\n      add\n      swap1\n      tag_26\n      swap2\n      swap1\n      tag_27\n      jump\t// in\n    tag_26:\n      tag_28\n      jump\t// in\n    tag_25:\n      mload(0x40)\n      tag_29\n      swap2\n      swap1\n      tag_30\n      jump\t// in\n    tag_29:\n      mload(0x40)\n      dup1\n      swap2\n      sub\n      swap1\n      return\n        /* \"@openzeppelin/contracts@5.0.0/token/ERC721/ERC721.sol\":2365:2454  function name() public view virtual returns (string memory) {... */\n    tag_4:\n      tag_31\n      tag_32\n      jump\t// in\n    tag_31:\n      mload(0x40)\n      tag_33\n      swap2\n      swap1\n      tag_34\n      jump\t// in\n    tag_33:\n      mload(0x40)\n      dup1\n      swap2\n      sub\n      swap1\n      return\n        /* \"@openzeppelin/contracts@5.0.0/token/ERC721/ERC721.sol\":3497:3651  function getApproved(uint256 tokenId) public view virtual returns (address) {... */\n    tag_5:\n      tag_35\n      0x04\n      dup1\n      calldatasize\n      sub\n      dup2\n      add\n      swap1\n      tag_36\n      swap2\n      swap1\n      tag_37\n      jump\t// in\n    tag_36:\n      tag_38\n      jump\t// in\n    tag_35:\n      mload(0x40)\n      tag_39\n      swap2\n      swap1\n      tag_40\n      jump\t// in\n    tag_39:\n      mload(0x40)\n      dup1\n      swap2\n      sub\n      swap1\n      return\n        /* \"@openzeppelin/contracts@5.0.0/token/ERC721/ERC721.sol\":3323:3436  function approve(address to, uint256 tokenId) public virtual {... */\n    tag_6:\n      tag_41\n      0x04\n      dup1\n      calldatasize\n      sub\n      dup2\n      add\n      swap1\n      tag_42\n      swap2\n      swap1\n      tag_43\n      jump\t// in\n    tag_42:\n      tag_44\n      jump\t// in\n    tag_41:\n      stop\n        /* \"@openzeppelin/contracts@5.0.0/token/ERC721/ERC721.sol\":4143:4721  function transferFrom(address from, address to, uint256 tokenId) public virtual {... */\n    tag_7:\n      tag_45\n      0x04\n      dup1\n      calldatasize\n      sub\n      dup2\n      add\n      swap1\n      tag_46\n      swap2\n      swap1\n      tag_47\n      jump\t// in\n    tag_46:\n      tag_48\n      jump\t// in\n    tag_45:\n      stop\n        /* \"@openzeppelin/contracts@5.0.0/token/ERC721/ERC721.sol\":4787:4919  function safeTransferFrom(address from, address to, uint256 tokenId) public {... */\n    tag_8:\n      tag_49\n      0x04\n      dup1\n      calldatasize\n      sub\n      dup2\n      add\n      swap1\n      tag_50\n      swap2\n      swap1\n      tag_47\n      jump\t// in\n    tag_50:\n      tag_51\n      jump\t// in\n    tag_49:\n      stop\n        /* \"contracts/nft.sol\":837:1243  function mintCharacter(string memory name, uint256 level, uint256 power) external onlyOwner {... */\n    tag_9:\n      tag_52\n      0x04\n      dup1\n      calldatasize\n      sub\n      dup2\n      add\n      swap1\n      tag_53\n      swap2\n      swap1\n      tag_54\n      jump\t// in\n    tag_53:\n      tag_55\n      jump\t// in\n    tag_52:\n      stop\n        /* \"@openzeppelin/contracts@5.0.0/token/ERC721/ERC721.sol\":2185:2303  function ownerOf(uint256 tokenId) public view virtual returns (address) {... */\n    tag_10:\n      tag_56\n      0x04\n      dup1\n      calldatasize\n      sub\n      dup2\n      add\n      swap1\n      tag_57\n      swap2\n      swap1\n      tag_37\n      jump\t// in\n    tag_57:\n      tag_58\n      jump\t// in\n    tag_56:\n      mload(0x40)\n      tag_59\n      swap2\n      swap1\n      tag_40\n      jump\t// in\n    tag_59:\n      mload(0x40)\n      dup1\n      swap2\n      sub\n      swap1\n      return\n        /* \"@openzeppelin/contracts@5.0.0/token/ERC721/ERC721.sol\":1920:2128  function balanceOf(address owner) public view virtual returns (uint256) {... */\n    tag_11:\n      tag_60\n      0x04\n      dup1\n      calldatasize\n      sub\n      dup2\n      add\n      swap1\n      tag_61\n      swap2\n      swap1\n      tag_62\n      jump\t// in\n    tag_61:\n      tag_63\n      jump\t// in\n    tag_60:\n      mload(0x40)\n      tag_64\n      swap2\n      swap1\n      tag_65\n      jump\t// in\n    tag_64:\n      mload(0x40)\n      dup1\n      swap2\n      sub\n      swap1\n      return\n        /* \"@openzeppelin/contracts@5.0.0/access/Ownable.sol\":2293:2394  function renounceOwnership() public virtual onlyOwner {... */\n    tag_12:\n      tag_66\n      tag_67\n      jump\t// in\n    tag_66:\n      stop\n        /* \"@openzeppelin/contracts@5.0.0/access/Ownable.sol\":1638:1723  function owner() public view virtual returns (address) {... */\n    tag_13:\n      tag_68\n      tag_69\n      jump\t// in\n    tag_68:\n      mload(0x40)\n      tag_70\n      swap2\n      swap1\n      tag_40\n      jump\t// in\n    tag_70:\n      mload(0x40)\n      dup1\n      swap2\n      sub\n      swap1\n      return\n        /* \"@openzeppelin/contracts@5.0.0/token/ERC721/ERC721.sol\":2518:2611  function symbol() public view virtual returns (string memory) {... */\n    tag_14:\n      tag_71\n      tag_72\n      jump\t// in\n    tag_71:\n      mload(0x40)\n      tag_73\n      swap2\n      swap1\n      tag_34\n      jump\t// in\n    tag_73:\n      mload(0x40)\n      dup1\n      swap2\n      sub\n      swap1\n      return\n        /* \"contracts/nft.sol\":1251:1374  function isCharacterMinted(uint256 tokenId) external view returns (bool) {... */\n    tag_15:\n      tag_74\n      0x04\n      dup1\n      calldatasize\n      sub\n      dup2\n      add\n      swap1\n      tag_75\n      swap2\n      swap1\n      tag_37\n      jump\t// in\n    tag_75:\n      tag_76\n      jump\t// in\n    tag_74:\n      mload(0x40)\n      tag_77\n      swap2\n      swap1\n      tag_30\n      jump\t// in\n    tag_77:\n      mload(0x40)\n      dup1\n      swap2\n      sub\n      swap1\n      return\n        /* \"@openzeppelin/contracts@5.0.0/token/ERC721/ERC721.sol\":3718:3862  function setApprovalForAll(address operator, bool approved) public virtual {... */\n    tag_16:\n      tag_78\n      0x04\n      dup1\n      calldatasize\n      sub\n      dup2\n      add\n      swap1\n      tag_79\n      swap2\n      swap1\n      tag_80\n      jump\t// in\n    tag_79:\n      tag_81\n      jump\t// in\n    tag_78:\n      stop\n        /* \"@openzeppelin/contracts@5.0.0/token/ERC721/ERC721.sol\":4985:5193  function safeTransferFrom(address from, address to, uint256 tokenId, bytes memory data) public virtual {... */\n    tag_17:\n      tag_82\n      0x04\n      dup1\n      calldatasize\n      sub\n      dup2\n      add\n      swap1\n      tag_83\n      swap2\n      swap1\n      tag_84\n      jump\t// in\n    tag_83:\n      tag_85\n      jump\t// in\n    tag_82:\n      stop\n        /* \"@openzeppelin/contracts@5.0.0/token/ERC721/ERC721.sol\":2677:2932  function tokenURI(uint256 tokenId) public view virtual returns (string memory) {... */\n    tag_18:\n      tag_86\n      0x04\n      dup1\n      calldatasize\n      sub\n      dup2\n      add\n      swap1\n      tag_87\n      swap2\n      swap1\n      tag_37\n      jump\t// in\n    tag_87:\n      tag_88\n      jump\t// in\n    tag_86:\n      mload(0x40)\n      tag_89\n      swap2\n      swap1\n      tag_34\n      jump\t// in\n    tag_89:\n      mload(0x40)\n      dup1\n      swap2\n      sub\n      swap1\n      return\n        /* \"contracts/nft.sol\":1382:1713  function getCharacterAttributes(uint256 tokenId) external view returns (string memory, uint256, uint256) {... */\n    tag_19:\n      tag_90\n      0x04\n      dup1\n      calldatasize\n      sub\n      dup2\n      add\n      swap1\n      tag_91\n      swap2\n      swap1\n      tag_37\n      jump\t// in\n    tag_91:\n      tag_92\n      jump\t// in\n    tag_90:\n      mload(0x40)\n      tag_93\n      swap4\n      swap3\n      swap2\n      swap1\n      tag_94\n      jump\t// in\n    tag_93:\n      mload(0x40)\n      dup1\n      swap2\n      sub\n      swap1\n      return\n        /* \"@openzeppelin/contracts@5.0.0/token/ERC721/ERC721.sol\":3928:4081  function isApprovedForAll(address owner, address operator) public view virtual returns (bool) {... */\n    tag_20:\n      tag_95\n      0x04\n      dup1\n      calldatasize\n      sub\n      dup2\n      add\n      swap1\n      tag_96\n      swap2\n      swap1\n      tag_97\n      jump\t// in\n    tag_96:\n      tag_98\n      jump\t// in\n    tag_95:\n      mload(0x40)\n      tag_99\n      swap2\n      swap1\n      tag_30\n      jump\t// in\n    tag_99:\n      mload(0x40)\n      dup1\n      swap2\n      sub\n      swap1\n      return\n        /* \"@openzeppelin/contracts@5.0.0/access/Ownable.sol\":2543:2758  function transferOwnership(address newOwner) public virtual onlyOwner {... */\n    tag_21:\n      tag_100\n      0x04\n      dup1\n      calldatasize\n      sub\n      dup2\n      add\n      swap1\n      tag_101\n      swap2\n      swap1\n      tag_62\n      jump\t// in\n    tag_101:\n      tag_102\n      jump\t// in\n    tag_100:\n      stop\n        /* \"@openzeppelin/contracts@5.0.0/token/ERC721/ERC721.sol\":1561:1861  function supportsInterface(bytes4 interfaceId) public view virtual override(ERC165, IERC165) returns (bool) {... */\n    tag_28:\n        /* \"@openzeppelin/contracts@5.0.0/token/ERC721/ERC721.sol\":1663:1667  bool */\n      0x00\n        /* \"@openzeppelin/contracts@5.0.0/token/ERC721/ERC721.sol\":1713:1738  type(IERC721).interfaceId */\n      0x80ac58cd00000000000000000000000000000000000000000000000000000000\n        /* \"@openzeppelin/contracts@5.0.0/token/ERC721/ERC721.sol\":1698:1738  interfaceId == type(IERC721).interfaceId */\n      not(0xffffffffffffffffffffffffffffffffffffffffffffffffffffffff)\n      and\n        /* \"@openzeppelin/contracts@5.0.0/token/ERC721/ERC721.sol\":1698:1709  interfaceId */\n      dup3\n        /* \"@openzeppelin/contracts@5.0.0/token/ERC721/ERC721.sol\":1698:1738  interfaceId == type(IERC721).interfaceId */\n      not(0xffffffffffffffffffffffffffffffffffffffffffffffffffffffff)\n      and\n      eq\n        /* \"@openzeppelin/contracts@5.0.0/token/ERC721/ERC721.sol\":1698:1802  interfaceId == type(IERC721).interfaceId ||... */\n      dup1\n      tag_104\n      jumpi\n      pop\n        /* \"@openzeppelin/contracts@5.0.0/token/ERC721/ERC721.sol\":1769:1802  type(IERC721Metadata).interfaceId */\n      0x5b5e139f00000000000000000000000000000000000000000000000000000000\n        /* \"@openzeppelin/contracts@5.0.0/token/ERC721/ERC721.sol\":1754:1802  interfaceId == type(IERC721Metadata).interfaceId */\n      not(0xffffffffffffffffffffffffffffffffffffffffffffffffffffffff)\n      and\n        /* \"@openzeppelin/contracts@5.0.0/token/ERC721/ERC721.sol\":1754:1765  interfaceId */\n      dup3\n        /* \"@openzeppelin/contracts@5.0.0/token/ERC721/ERC721.sol\":1754:1802  interfaceId == type(IERC721Metadata).interfaceId */\n      not(0xffffffffffffffffffffffffffffffffffffffffffffffffffffffff)\n      and\n      eq\n        /* \"@openzeppelin/contracts@5.0.0/token/ERC721/ERC721.sol\":1698:1802  interfaceId == type(IERC721).interfaceId ||... */\n    tag_104:\n        /* \"@openzeppelin/contracts@5.0.0/token/ERC721/ERC721.sol\":1698:1854  interfaceId == type(IERC721).interfaceId ||... */\n      dup1\n      tag_105\n      jumpi\n      pop\n        /* \"@openzeppelin/contracts@5.0.0/token/ERC721/ERC721.sol\":1818:1854  super.supportsInterface(interfaceId) */\n      tag_106\n        /* \"@openzeppelin/contracts@5.0.0/token/ERC721/ERC721.sol\":1842:1853  interfaceId */\n      dup3\n        /* \"@openzeppelin/contracts@5.0.0/token/ERC721/ERC721.sol\":1818:1841  super.supportsInterface */\n      tag_107\n        /* \"@openzeppelin/contracts@5.0.0/token/ERC721/ERC721.sol\":1818:1854  super.supportsInterface(interfaceId) */\n      jump\t// in\n    tag_106:\n        /* \"@openzeppelin/contracts@5.0.0/token/ERC721/ERC721.sol\":1698:1854  interfaceId == type(IERC721).interfaceId ||... */\n    tag_105:\n        /* \"@openzeppelin/contracts@5.0.0/token/ERC721/ERC721.sol\":1679:1854  return... */\n      swap1\n      pop\n        /* \"@openzeppelin/contracts@5.0.0/token/ERC721/ERC721.sol\":1561:1861  function supportsInterface(bytes4 interfaceId) public view virtual override(ERC165, IERC165) returns (bool) {... */\n      swap2\n      swap1\n      pop\n      jump\t// out\n        /* \"@openzeppelin/contracts@5.0.0/token/ERC721/ERC721.sol\":2365:2454  function name() public view virtual returns (string memory) {... */\n    tag_32:\n        /* \"@openzeppelin/contracts@5.0.0/token/ERC721/ERC721.sol\":2410:2423  string memory */\n      0x60\n        /* \"@openzeppelin/contracts@5.0.0/token/ERC721/ERC721.sol\":2442:2447  _name */\n      0x00\n        /* \"@openzeppelin/contracts@5.0.0/token/ERC721/ERC721.sol\":2435:2447  return _name */\n      dup1\n      sload\n      tag_109\n      swap1\n      tag_110\n      jump\t// in\n    tag_109:\n      dup1\n      0x1f\n      add\n      0x20\n      dup1\n      swap2\n      div\n      mul\n      0x20\n      add\n      mload(0x40)\n      swap1\n      dup2\n      add\n      0x40\n      mstore\n      dup1\n      swap3\n      swap2\n      swap1\n      dup2\n      dup2\n      mstore\n      0x20\n      add\n      dup3\n      dup1\n      sload\n      tag_111\n      swap1\n      tag_110\n      jump\t// in\n    tag_111:\n      dup1\n      iszero\n      tag_112\n      jumpi\n      dup1\n      0x1f\n      lt\n      tag_113\n      jumpi\n      0x0100\n      dup1\n      dup4\n      sload\n      div\n      mul\n      dup4\n      mstore\n      swap2\n      0x20\n      add\n      swap2\n      jump(tag_112)\n    tag_113:\n      dup3\n      add\n      swap2\n      swap1\n      0x00\n      mstore\n      keccak256(0x00, 0x20)\n      swap1\n    tag_114:\n      dup2\n      sload\n      dup2\n      mstore\n      swap1\n      0x01\n      add\n      swap1\n      0x20\n      add\n      dup1\n      dup4\n      gt\n      tag_114\n      jumpi\n      dup3\n      swap1\n      sub\n      0x1f\n      and\n      dup3\n      add\n      swap2\n    tag_112:\n      pop\n      pop\n      pop\n      pop\n      pop\n      swap1\n      pop\n        /* \"@openzeppelin/contracts@5.0.0/token/ERC721/ERC721.sol\":2365:2454  function name() public view virtual returns (string memory) {... */\n      swap1\n      jump\t// out\n        /* \"@openzeppelin/contracts@5.0.0/token/ERC721/ERC721.sol\":3497:3651  function getApproved(uint256 tokenId) public view virtual returns (address) {... */\n    tag_38:\n        /* \"@openzeppelin/contracts@5.0.0/token/ERC721/ERC721.sol\":3564:3571  address */\n      0x00\n        /* \"@openzeppelin/contracts@5.0.0/token/ERC721/ERC721.sol\":3583:3605  _requireOwned(tokenId) */\n      tag_116\n        /* \"@openzeppelin/contracts@5.0.0/token/ERC721/ERC721.sol\":3597:3604  tokenId */\n      dup3\n        /* \"@openzeppelin/contracts@5.0.0/token/ERC721/ERC721.sol\":3583:3596  _requireOwned */\n      tag_117\n        /* \"@openzeppelin/contracts@5.0.0/token/ERC721/ERC721.sol\":3583:3605  _requireOwned(tokenId) */\n      jump\t// in\n    tag_116:\n      pop\n        /* \"@openzeppelin/contracts@5.0.0/token/ERC721/ERC721.sol\":3623:3644  _getApproved(tokenId) */\n      tag_118\n        /* \"@openzeppelin/contracts@5.0.0/token/ERC721/ERC721.sol\":3636:3643  tokenId */\n      dup3\n        /* \"@openzeppelin/contracts@5.0.0/token/ERC721/ERC721.sol\":3623:3635  _getApproved */\n      tag_119\n        /* \"@openzeppelin/contracts@5.0.0/token/ERC721/ERC721.sol\":3623:3644  _getApproved(tokenId) */\n      jump\t// in\n    tag_118:\n        /* \"@openzeppelin/contracts@5.0.0/token/ERC721/ERC721.sol\":3616:3644  return _getApproved(tokenId) */\n      swap1\n      pop\n        /* \"@openzeppelin/contracts@5.0.0/token/ERC721/ERC721.sol\":3497:3651  function getApproved(uint256 tokenId) public view virtual returns (address) {... */\n      swap2\n      swap1\n      pop\n      jump\t// out\n        /* \"@openzeppelin/contracts@5.0.0/token/ERC721/ERC721.sol\":3323:3436  function approve(address to, uint256 tokenId) public virtual {... */\n    tag_44:\n        /* \"@openzeppelin/contracts@5.0.0/token/ERC721/ERC721.sol\":3394:3429  _approve(to, tokenId, _msgSender()) */\n      tag_121\n        /* \"@openzeppelin/contracts@5.0.0/token/ERC721/ERC721.sol\":3403:3405  to */\n      dup3\n        /* \"@openzeppelin/contracts@5.0.0/token/ERC721/ERC721.sol\":3407:3414  tokenId */\n      dup3\n        /* \"@openzeppelin/contracts@5.0.0/token/ERC721/ERC721.sol\":3416:3428  _msgSender() */\n      tag_122\n        /* \"@openzeppelin/contracts@5.0.0/token/ERC721/ERC721.sol\":3416:3426  _msgSender */\n      tag_123\n        /* \"@openzeppelin/contracts@5.0.0/token/ERC721/ERC721.sol\":3416:3428  _msgSender() */\n      jump\t// in\n    tag_122:\n        /* \"@openzeppelin/contracts@5.0.0/token/ERC721/ERC721.sol\":3394:3402  _approve */\n      tag_124\n        /* \"@openzeppelin/contracts@5.0.0/token/ERC721/ERC721.sol\":3394:3429  _approve(to, tokenId, _msgSender()) */\n      jump\t// in\n    tag_121:\n        /* \"@openzeppelin/contracts@5.0.0/token/ERC721/ERC721.sol\":3323:3436  function approve(address to, uint256 tokenId) public virtual {... */\n      pop\n      pop\n      jump\t// out\n        /* \"@openzeppelin/contracts@5.0.0/token/ERC721/ERC721.sol\":4143:4721  function transferFrom(address from, address to, uint256 tokenId) public virtual {... */\n    tag_48:\n        /* \"@openzeppelin/contracts@5.0.0/token/ERC721/ERC721.sol\":4251:4252  0 */\n      0x00\n        /* \"@openzeppelin/contracts@5.0.0/token/ERC721/ERC721.sol\":4237:4253  to == address(0) */\n      0xffffffffffffffffffffffffffffffffffffffff\n      and\n        /* \"@openzeppelin/contracts@5.0.0/token/ERC721/ERC721.sol\":4237:4239  to */\n      dup3\n        /* \"@openzeppelin/contracts@5.0.0/token/ERC721/ERC721.sol\":4237:4253  to == address(0) */\n      0xffffffffffffffffffffffffffffffffffffffff\n      and\n      sub\n        /* \"@openzeppelin/contracts@5.0.0/token/ERC721/ERC721.sol\":4233:4320  if (to == address(0)) {... */\n      tag_126\n      jumpi\n        /* \"@openzeppelin/contracts@5.0.0/token/ERC721/ERC721.sol\":4306:4307  0 */\n      0x00\n        /* \"@openzeppelin/contracts@5.0.0/token/ERC721/ERC721.sol\":4276:4309  ERC721InvalidReceiver(address(0)) */\n      mload(0x40)\n      0x64a0ae9200000000000000000000000000000000000000000000000000000000\n      dup2\n      mstore\n      0x04\n      add\n      tag_127\n      swap2\n      swap1\n      tag_40\n      jump\t// in\n    tag_127:\n      mload(0x40)\n      dup1\n      swap2\n      sub\n      swap1\n      revert\n        /* \"@openzeppelin/contracts@5.0.0/token/ERC721/ERC721.sol\":4233:4320  if (to == address(0)) {... */\n    tag_126:\n        /* \"@openzeppelin/contracts@5.0.0/token/ERC721/ERC721.sol\":4538:4559  address previousOwner */\n      0x00\n        /* \"@openzeppelin/contracts@5.0.0/token/ERC721/ERC721.sol\":4562:4596  _update(to, tokenId, _msgSender()) */\n      tag_128\n        /* \"@openzeppelin/contracts@5.0.0/token/ERC721/ERC721.sol\":4570:4572  to */\n      dup4\n        /* \"@openzeppelin/contracts@5.0.0/token/ERC721/ERC721.sol\":4574:4581  tokenId */\n      dup4\n        /* \"@openzeppelin/contracts@5.0.0/token/ERC721/ERC721.sol\":4583:4595  _msgSender() */\n      tag_129\n        /* \"@openzeppelin/contracts@5.0.0/token/ERC721/ERC721.sol\":4583:4593  _msgSender */\n      tag_123\n        /* \"@openzeppelin/contracts@5.0.0/token/ERC721/ERC721.sol\":4583:4595  _msgSender() */\n      jump\t// in\n    tag_129:\n        /* \"@openzeppelin/contracts@5.0.0/token/ERC721/ERC721.sol\":4562:4569  _update */\n      tag_130\n        /* \"@openzeppelin/contracts@5.0.0/token/ERC721/ERC721.sol\":4562:4596  _update(to, tokenId, _msgSender()) */\n      jump\t// in\n    tag_128:\n        /* \"@openzeppelin/contracts@5.0.0/token/ERC721/ERC721.sol\":4538:4596  address previousOwner = _update(to, tokenId, _msgSender()) */\n      swap1\n      pop\n        /* \"@openzeppelin/contracts@5.0.0/token/ERC721/ERC721.sol\":4627:4631  from */\n      dup4\n        /* \"@openzeppelin/contracts@5.0.0/token/ERC721/ERC721.sol\":4610:4631  previousOwner != from */\n      0xffffffffffffffffffffffffffffffffffffffff\n      and\n        /* \"@openzeppelin/contracts@5.0.0/token/ERC721/ERC721.sol\":4610:4623  previousOwner */\n      dup2\n        /* \"@openzeppelin/contracts@5.0.0/token/ERC721/ERC721.sol\":4610:4631  previousOwner != from */\n      0xffffffffffffffffffffffffffffffffffffffff\n      and\n      eq\n        /* \"@openzeppelin/contracts@5.0.0/token/ERC721/ERC721.sol\":4606:4715  if (previousOwner != from) {... */\n      tag_131\n      jumpi\n        /* \"@openzeppelin/contracts@5.0.0/token/ERC721/ERC721.sol\":4675:4679  from */\n      dup4\n        /* \"@openzeppelin/contracts@5.0.0/token/ERC721/ERC721.sol\":4681:4688  tokenId */\n      dup3\n        /* \"@openzeppelin/contracts@5.0.0/token/ERC721/ERC721.sol\":4690:4703  previousOwner */\n      dup3\n        /* \"@openzeppelin/contracts@5.0.0/token/ERC721/ERC721.sol\":4654:4704  ERC721IncorrectOwner(from, tokenId, previousOwner) */\n      mload(0x40)\n      0x64283d7b00000000000000000000000000000000000000000000000000000000\n      dup2\n      mstore\n      0x04\n      add\n      tag_132\n      swap4\n      swap3\n      swap2\n      swap1\n      tag_133\n      jump\t// in\n    tag_132:\n      mload(0x40)\n      dup1\n      swap2\n      sub\n      swap1\n      revert\n        /* \"@openzeppelin/contracts@5.0.0/token/ERC721/ERC721.sol\":4606:4715  if (previousOwner != from) {... */\n    tag_131:\n        /* \"@openzeppelin/contracts@5.0.0/token/ERC721/ERC721.sol\":4223:4721  {... */\n      pop\n        /* \"@openzeppelin/contracts@5.0.0/token/ERC721/ERC721.sol\":4143:4721  function transferFrom(address from, address to, uint256 tokenId) public virtual {... */\n      pop\n      pop\n      pop\n      jump\t// out\n        /* \"@openzeppelin/contracts@5.0.0/token/ERC721/ERC721.sol\":4787:4919  function safeTransferFrom(address from, address to, uint256 tokenId) public {... */\n    tag_51:\n        /* \"@openzeppelin/contracts@5.0.0/token/ERC721/ERC721.sol\":4873:4912  safeTransferFrom(from, to, tokenId, \"\") */\n      tag_135\n        /* \"@openzeppelin/contracts@5.0.0/token/ERC721/ERC721.sol\":4890:4894  from */\n      dup4\n        /* \"@openzeppelin/contracts@5.0.0/token/ERC721/ERC721.sol\":4896:4898  to */\n      dup4\n        /* \"@openzeppelin/contracts@5.0.0/token/ERC721/ERC721.sol\":4900:4907  tokenId */\n      dup4\n        /* \"@openzeppelin/contracts@5.0.0/token/ERC721/ERC721.sol\":4873:4912  safeTransferFrom(from, to, tokenId, \"\") */\n      mload(0x40)\n      dup1\n      0x20\n      add\n      0x40\n      mstore\n      dup1\n      0x00\n      dup2\n      mstore\n      pop\n        /* \"@openzeppelin/contracts@5.0.0/token/ERC721/ERC721.sol\":4873:4889  safeTransferFrom */\n      tag_85\n        /* \"@openzeppelin/contracts@5.0.0/token/ERC721/ERC721.sol\":4873:4912  safeTransferFrom(from, to, tokenId, \"\") */\n      jump\t// in\n    tag_135:\n        /* \"@openzeppelin/contracts@5.0.0/token/ERC721/ERC721.sol\":4787:4919  function safeTransferFrom(address from, address to, uint256 tokenId) public {... */\n      pop\n      pop\n      pop\n      jump\t// out\n        /* \"contracts/nft.sol\":837:1243  function mintCharacter(string memory name, uint256 level, uint256 power) external onlyOwner {... */\n    tag_55:\n        /* \"@openzeppelin/contracts@5.0.0/access/Ownable.sol\":1531:1544  _checkOwner() */\n      tag_137\n        /* \"@openzeppelin/contracts@5.0.0/access/Ownable.sol\":1531:1542  _checkOwner */\n      tag_138\n        /* \"@openzeppelin/contracts@5.0.0/access/Ownable.sol\":1531:1544  _checkOwner() */\n      jump\t// in\n    tag_137:\n        /* \"contracts/nft.sol\":940:955  uint256 tokenId */\n      0x00\n        /* \"contracts/nft.sol\":958:972  tokenIdCounter */\n      sload(0x07)\n        /* \"contracts/nft.sol\":940:972  uint256 tokenId = tokenIdCounter */\n      swap1\n      pop\n        /* \"contracts/nft.sol\":983:1013  _safeMint(msg.sender, tokenId) */\n      tag_140\n        /* \"contracts/nft.sol\":993:1003  msg.sender */\n      caller\n        /* \"contracts/nft.sol\":1005:1012  tokenId */\n      dup3\n        /* \"contracts/nft.sol\":983:992  _safeMint */\n      tag_141\n        /* \"contracts/nft.sol\":983:1013  _safeMint(msg.sender, tokenId) */\n      jump\t// in\n    tag_140:\n        /* \"contracts/nft.sol\":1051:1055  true */\n      0x01\n        /* \"contracts/nft.sol\":1024:1039  characterMinted */\n      0x08\n        /* \"contracts/nft.sol\":1024:1048  characterMinted[tokenId] */\n      0x00\n        /* \"contracts/nft.sol\":1040:1047  tokenId */\n      dup4\n        /* \"contracts/nft.sol\":1024:1048  characterMinted[tokenId] */\n      dup2\n      mstore\n      0x20\n      add\n      swap1\n      dup2\n      mstore\n      0x20\n      add\n      0x00\n      keccak256\n      0x00\n        /* \"contracts/nft.sol\":1024:1055  characterMinted[tokenId] = true */\n      0x0100\n      exp\n      dup2\n      sload\n      dup2\n      0xff\n      mul\n      not\n      and\n      swap1\n      dup4\n      iszero\n      iszero\n      mul\n      or\n      swap1\n      sstore\n      pop\n        /* \"contracts/nft.sol\":1097:1136  CharacterAttributes(name, level, power) */\n      mload(0x40)\n      dup1\n      0x60\n      add\n      0x40\n      mstore\n      dup1\n        /* \"contracts/nft.sol\":1117:1121  name */\n      dup6\n        /* \"contracts/nft.sol\":1097:1136  CharacterAttributes(name, level, power) */\n      dup2\n      mstore\n      0x20\n      add\n        /* \"contracts/nft.sol\":1123:1128  level */\n      dup5\n        /* \"contracts/nft.sol\":1097:1136  CharacterAttributes(name, level, power) */\n      dup2\n      mstore\n      0x20\n      add\n        /* \"contracts/nft.sol\":1130:1135  power */\n      dup4\n        /* \"contracts/nft.sol\":1097:1136  CharacterAttributes(name, level, power) */\n      dup2\n      mstore\n      pop\n        /* \"contracts/nft.sol\":1066:1085  characterAttributes */\n      0x09\n        /* \"contracts/nft.sol\":1066:1094  characterAttributes[tokenId] */\n      0x00\n        /* \"contracts/nft.sol\":1086:1093  tokenId */\n      dup4\n        /* \"contracts/nft.sol\":1066:1094  characterAttributes[tokenId] */\n      dup2\n      mstore\n      0x20\n      add\n      swap1\n      dup2\n      mstore\n      0x20\n      add\n      0x00\n      keccak256\n        /* \"contracts/nft.sol\":1066:1136  characterAttributes[tokenId] = CharacterAttributes(name, level, power) */\n      0x00\n      dup3\n      add\n      mload\n      dup2\n      0x00\n      add\n      swap1\n      dup2\n      tag_142\n      swap2\n      swap1\n      tag_143\n      jump\t// in\n    tag_142:\n      pop\n      0x20\n      dup3\n      add\n      mload\n      dup2\n      0x01\n      add\n      sstore\n      0x40\n      dup3\n      add\n      mload\n      dup2\n      0x02\n      add\n      sstore\n      swap1\n      pop\n      pop\n        /* \"contracts/nft.sol\":1147:1161  tokenIdCounter */\n      0x07\n      0x00\n        /* \"contracts/nft.sol\":1147:1163  tokenIdCounter++ */\n      dup2\n      sload\n      dup1\n      swap3\n      swap2\n      swap1\n      tag_144\n      swap1\n      tag_145\n      jump\t// in\n    tag_144:\n      swap2\n      swap1\n      pop\n      sstore\n      pop\n        /* \"contracts/nft.sol\":1179:1235  CharacterMinted(msg.sender, tokenId, name, level, power) */\n      0x7a4bb3b51994e0ca98a9a569b1b5baade9f795a768ce078dffdb422d1afeef4b\n        /* \"contracts/nft.sol\":1195:1205  msg.sender */\n      caller\n        /* \"contracts/nft.sol\":1207:1214  tokenId */\n      dup3\n        /* \"contracts/nft.sol\":1216:1220  name */\n      dup7\n        /* \"contracts/nft.sol\":1222:1227  level */\n      dup7\n        /* \"contracts/nft.sol\":1229:1234  power */\n      dup7\n        /* \"contracts/nft.sol\":1179:1235  CharacterMinted(msg.sender, tokenId, name, level, power) */\n      mload(0x40)\n      tag_146\n      swap6\n      swap5\n      swap4\n      swap3\n      swap2\n      swap1\n      tag_147\n      jump\t// in\n    tag_146:\n      mload(0x40)\n      dup1\n      swap2\n      sub\n      swap1\n      log1\n        /* \"contracts/nft.sol\":929:1243  {... */\n      pop\n        /* \"contracts/nft.sol\":837:1243  function mintCharacter(string memory name, uint256 level, uint256 power) external onlyOwner {... */\n      pop\n      pop\n      pop\n      jump\t// out\n        /* \"@openzeppelin/contracts@5.0.0/token/ERC721/ERC721.sol\":2185:2303  function ownerOf(uint256 tokenId) public view virtual returns (address) {... */\n    tag_58:\n        /* \"@openzeppelin/contracts@5.0.0/token/ERC721/ERC721.sol\":2248:2255  address */\n      0x00\n        /* \"@openzeppelin/contracts@5.0.0/token/ERC721/ERC721.sol\":2274:2296  _requireOwned(tokenId) */\n      tag_149\n        /* \"@openzeppelin/contracts@5.0.0/token/ERC721/ERC721.sol\":2288:2295  tokenId */\n      dup3\n        /* \"@openzeppelin/contracts@5.0.0/token/ERC721/ERC721.sol\":2274:2287  _requireOwned */\n      tag_117\n        /* \"@openzeppelin/contracts@5.0.0/token/ERC721/ERC721.sol\":2274:2296  _requireOwned(tokenId) */\n      jump\t// in\n    tag_149:\n        /* \"@openzeppelin/contracts@5.0.0/token/ERC721/ERC721.sol\":2267:2296  return _requireOwned(tokenId) */\n      swap1\n      pop\n        /* \"@openzeppelin/contracts@5.0.0/token/ERC721/ERC721.sol\":2185:2303  function ownerOf(uint256 tokenId) public view virtual returns (address) {... */\n      swap2\n      swap1\n      pop\n      jump\t// out\n        /* \"@openzeppelin/contracts@5.0.0/token/ERC721/ERC721.sol\":1920:2128  function balanceOf(address owner) public view virtual returns (uint256) {... */\n    tag_63:\n        /* \"@openzeppelin/contracts@5.0.0/token/ERC721/ERC721.sol\":1983:1990  uint256 */\n      0x00\n        /* \"@openzeppelin/contracts@5.0.0/token/ERC721/ERC721.sol\":2023:2024  0 */\n      dup1\n        /* \"@openzeppelin/contracts@5.0.0/token/ERC721/ERC721.sol\":2006:2025  owner == address(0) */\n      0xffffffffffffffffffffffffffffffffffffffff\n      and\n        /* \"@openzeppelin/contracts@5.0.0/token/ERC721/ERC721.sol\":2006:2011  owner */\n      dup3\n        /* \"@openzeppelin/contracts@5.0.0/token/ERC721/ERC721.sol\":2006:2025  owner == address(0) */\n      0xffffffffffffffffffffffffffffffffffffffff\n      and\n      sub\n        /* \"@openzeppelin/contracts@5.0.0/token/ERC721/ERC721.sol\":2002:2089  if (owner == address(0)) {... */\n      tag_151\n      jumpi\n        /* \"@openzeppelin/contracts@5.0.0/token/ERC721/ERC721.sol\":2075:2076  0 */\n      0x00\n        /* \"@openzeppelin/contracts@5.0.0/token/ERC721/ERC721.sol\":2048:2078  ERC721InvalidOwner(address(0)) */\n      mload(0x40)\n      0x89c62b6400000000000000000000000000000000000000000000000000000000\n      dup2\n      mstore\n      0x04\n      add\n      tag_152\n      swap2\n      swap1\n      tag_40\n      jump\t// in\n    tag_152:\n      mload(0x40)\n      dup1\n      swap2\n      sub\n      swap1\n      revert\n        /* \"@openzeppelin/contracts@5.0.0/token/ERC721/ERC721.sol\":2002:2089  if (owner == address(0)) {... */\n    tag_151:\n        /* \"@openzeppelin/contracts@5.0.0/token/ERC721/ERC721.sol\":2105:2114  _balances */\n      0x03\n        /* \"@openzeppelin/contracts@5.0.0/token/ERC721/ERC721.sol\":2105:2121  _balances[owner] */\n      0x00\n        /* \"@openzeppelin/contracts@5.0.0/token/ERC721/ERC721.sol\":2115:2120  owner */\n      dup4\n        /* \"@openzeppelin/contracts@5.0.0/token/ERC721/ERC721.sol\":2105:2121  _balances[owner] */\n      0xffffffffffffffffffffffffffffffffffffffff\n      and\n      0xffffffffffffffffffffffffffffffffffffffff\n      and\n      dup2\n      mstore\n      0x20\n      add\n      swap1\n      dup2\n      mstore\n      0x20\n      add\n      0x00\n      keccak256\n      sload\n        /* \"@openzeppelin/contracts@5.0.0/token/ERC721/ERC721.sol\":2098:2121  return _balances[owner] */\n      swap1\n      pop\n        /* \"@openzeppelin/contracts@5.0.0/token/ERC721/ERC721.sol\":1920:2128  function balanceOf(address owner) public view virtual returns (uint256) {... */\n      swap2\n      swap1\n      pop\n      jump\t// out\n        /* \"@openzeppelin/contracts@5.0.0/access/Ownable.sol\":2293:2394  function renounceOwnership() public virtual onlyOwner {... */\n    tag_67:\n        /* \"@openzeppelin/contracts@5.0.0/access/Ownable.sol\":1531:1544  _checkOwner() */\n      tag_154\n        /* \"@openzeppelin/contracts@5.0.0/access/Ownable.sol\":1531:1542  _checkOwner */\n      tag_138\n        /* \"@openzeppelin/contracts@5.0.0/access/Ownable.sol\":1531:1544  _checkOwner() */\n      jump\t// in\n    tag_154:\n        /* \"@openzeppelin/contracts@5.0.0/access/Ownable.sol\":2357:2387  _transferOwnership(address(0)) */\n      tag_156\n        /* \"@openzeppelin/contracts@5.0.0/access/Ownable.sol\":2384:2385  0 */\n      0x00\n        /* \"@openzeppelin/contracts@5.0.0/access/Ownable.sol\":2357:2375  _transferOwnership */\n      tag_157\n        /* \"@openzeppelin/contracts@5.0.0/access/Ownable.sol\":2357:2387  _transferOwnership(address(0)) */\n      jump\t// in\n    tag_156:\n        /* \"@openzeppelin/contracts@5.0.0/access/Ownable.sol\":2293:2394  function renounceOwnership() public virtual onlyOwner {... */\n      jump\t// out\n        /* \"@openzeppelin/contracts@5.0.0/access/Ownable.sol\":1638:1723  function owner() public view virtual returns (address) {... */\n    tag_69:\n        /* \"@openzeppelin/contracts@5.0.0/access/Ownable.sol\":1684:1691  address */\n      0x00\n        /* \"@openzeppelin/contracts@5.0.0/access/Ownable.sol\":1710:1716  _owner */\n      0x06\n      0x00\n      swap1\n      sload\n      swap1\n      0x0100\n      exp\n      swap1\n      div\n      0xffffffffffffffffffffffffffffffffffffffff\n      and\n        /* \"@openzeppelin/contracts@5.0.0/access/Ownable.sol\":1703:1716  return _owner */\n      swap1\n      pop\n        /* \"@openzeppelin/contracts@5.0.0/access/Ownable.sol\":1638:1723  function owner() public view virtual returns (address) {... */\n      swap1\n      jump\t// out\n        /* \"@openzeppelin/contracts@5.0.0/token/ERC721/ERC721.sol\":2518:2611  function symbol() public view virtual returns (string memory) {... */\n    tag_72:\n        /* \"@openzeppelin/contracts@5.0.0/token/ERC721/ERC721.sol\":2565:2578  string memory */\n      0x60\n        /* \"@openzeppelin/contracts@5.0.0/token/ERC721/ERC721.sol\":2597:2604  _symbol */\n      0x01\n        /* \"@openzeppelin/contracts@5.0.0/token/ERC721/ERC721.sol\":2590:2604  return _symbol */\n      dup1\n      sload\n      tag_160\n      swap1\n      tag_110\n      jump\t// in\n    tag_160:\n      dup1\n      0x1f\n      add\n      0x20\n      dup1\n      swap2\n      div\n      mul\n      0x20\n      add\n      mload(0x40)\n      swap1\n      dup2\n      add\n      0x40\n      mstore\n      dup1\n      swap3\n      swap2\n      swap1\n      dup2\n      dup2\n      mstore\n      0x20\n      add\n      dup3\n      dup1\n      sload\n      tag_161\n      swap1\n      tag_110\n      jump\t// in\n    tag_161:\n      dup1\n      iszero\n      tag_162\n      jumpi\n      dup1\n      0x1f\n      lt\n      tag_163\n      jumpi\n      0x0100\n      dup1\n      dup4\n      sload\n      div\n      mul\n      dup4\n      mstore\n      swap2\n      0x20\n      add\n      swap2\n      jump(tag_162)\n    tag_163:\n      dup3\n      add\n      swap2\n      swap1\n      0x00\n      mstore\n      keccak256(0x00, 0x20)\n      swap1\n    tag_164:\n      dup2\n      sload\n      dup2\n      mstore\n      swap1\n      0x01\n      add\n      swap1\n      0x20\n      add\n      dup1\n      dup4\n      gt\n      tag_164\n      jumpi\n      dup3\n      swap1\n      sub\n      0x1f\n      and\n      dup3\n      add\n      swap2\n    tag_162:\n      pop\n      pop\n      pop\n      pop\n      pop\n      swap1\n      pop\n        /* \"@openzeppelin/contracts@5.0.0/token/ERC721/ERC721.sol\":2518:2611  function symbol() public view virtual returns (string memory) {... */\n      swap1\n      jump\t// out\n        /* \"contracts/nft.sol\":1251:1374  function isCharacterMinted(uint256 tokenId) external view returns (bool) {... */\n    tag_76:\n        /* \"contracts/nft.sol\":1318:1322  bool */\n      0x00\n        /* \"contracts/nft.sol\":1342:1357  characterMinted */\n      0x08\n        /* \"contracts/nft.sol\":1342:1366  characterMinted[tokenId] */\n      0x00\n        /* \"contracts/nft.sol\":1358:1365  tokenId */\n      dup4\n        /* \"contracts/nft.sol\":1342:1366  characterMinted[tokenId] */\n      dup2\n      mstore\n      0x20\n      add\n      swap1\n      dup2\n      mstore\n      0x20\n      add\n      0x00\n      keccak256\n      0x00\n      swap1\n      sload\n      swap1\n      0x0100\n      exp\n      swap1\n      div\n      0xff\n      and\n        /* \"contracts/nft.sol\":1335:1366  return characterMinted[tokenId] */\n      swap1\n      pop\n        /* \"contracts/nft.sol\":1251:1374  function isCharacterMinted(uint256 tokenId) external view returns (bool) {... */\n      swap2\n      swap1\n      pop\n      jump\t// out\n        /* \"@openzeppelin/contracts@5.0.0/token/ERC721/ERC721.sol\":3718:3862  function setApprovalForAll(address operator, bool approved) public virtual {... */\n    tag_81:\n        /* \"@openzeppelin/contracts@5.0.0/token/ERC721/ERC721.sol\":3803:3855  _setApprovalForAll(_msgSender(), operator, approved) */\n      tag_167\n        /* \"@openzeppelin/contracts@5.0.0/token/ERC721/ERC721.sol\":3822:3834  _msgSender() */\n      tag_168\n        /* \"@openzeppelin/contracts@5.0.0/token/ERC721/ERC721.sol\":3822:3832  _msgSender */\n      tag_123\n        /* \"@openzeppelin/contracts@5.0.0/token/ERC721/ERC721.sol\":3822:3834  _msgSender() */\n      jump\t// in\n    tag_168:\n        /* \"@openzeppelin/contracts@5.0.0/token/ERC721/ERC721.sol\":3836:3844  operator */\n      dup4\n        /* \"@openzeppelin/contracts@5.0.0/token/ERC721/ERC721.sol\":3846:3854  approved */\n      dup4\n        /* \"@openzeppelin/contracts@5.0.0/token/ERC721/ERC721.sol\":3803:3821  _setApprovalForAll */\n      tag_169\n        /* \"@openzeppelin/contracts@5.0.0/token/ERC721/ERC721.sol\":3803:3855  _setApprovalForAll(_msgSender(), operator, approved) */\n      jump\t// in\n    tag_167:\n        /* \"@openzeppelin/contracts@5.0.0/token/ERC721/ERC721.sol\":3718:3862  function setApprovalForAll(address operator, bool approved) public virtual {... */\n      pop\n      pop\n      jump\t// out\n        /* \"@openzeppelin/contracts@5.0.0/token/ERC721/ERC721.sol\":4985:5193  function safeTransferFrom(address from, address to, uint256 tokenId, bytes memory data) public virtual {... */\n    tag_85:\n        /* \"@openzeppelin/contracts@5.0.0/token/ERC721/ERC721.sol\":5098:5129  transferFrom(from, to, tokenId) */\n      tag_171\n        /* \"@openzeppelin/contracts@5.0.0/token/ERC721/ERC721.sol\":5111:5115  from */\n      dup5\n        /* \"@openzeppelin/contracts@5.0.0/token/ERC721/ERC721.sol\":5117:5119  to */\n      dup5\n        /* \"@openzeppelin/contracts@5.0.0/token/ERC721/ERC721.sol\":5121:5128  tokenId */\n      dup5\n        /* \"@openzeppelin/contracts@5.0.0/token/ERC721/ERC721.sol\":5098:5110  transferFrom */\n      tag_48\n        /* \"@openzeppelin/contracts@5.0.0/token/ERC721/ERC721.sol\":5098:5129  transferFrom(from, to, tokenId) */\n      jump\t// in\n    tag_171:\n        /* \"@openzeppelin/contracts@5.0.0/token/ERC721/ERC721.sol\":5139:5186  _checkOnERC721Received(from, to, tokenId, data) */\n      tag_172\n        /* \"@openzeppelin/contracts@5.0.0/token/ERC721/ERC721.sol\":5162:5166  from */\n      dup5\n        /* \"@openzeppelin/contracts@5.0.0/token/ERC721/ERC721.sol\":5168:5170  to */\n      dup5\n        /* \"@openzeppelin/contracts@5.0.0/token/ERC721/ERC721.sol\":5172:5179  tokenId */\n      dup5\n        /* \"@openzeppelin/contracts@5.0.0/token/ERC721/ERC721.sol\":5181:5185  data */\n      dup5\n        /* \"@openzeppelin/contracts@5.0.0/token/ERC721/ERC721.sol\":5139:5161  _checkOnERC721Received */\n      tag_173\n        /* \"@openzeppelin/contracts@5.0.0/token/ERC721/ERC721.sol\":5139:5186  _checkOnERC721Received(from, to, tokenId, data) */\n      jump\t// in\n    tag_172:\n        /* \"@openzeppelin/contracts@5.0.0/token/ERC721/ERC721.sol\":4985:5193  function safeTransferFrom(address from, address to, uint256 tokenId, bytes memory data) public virtual {... */\n      pop\n      pop\n      pop\n      pop\n      jump\t// out\n        /* \"@openzeppelin/contracts@5.0.0/token/ERC721/ERC721.sol\":2677:2932  function tokenURI(uint256 tokenId) public view virtual returns (string memory) {... */\n    tag_88:\n        /* \"@openzeppelin/contracts@5.0.0/token/ERC721/ERC721.sol\":2741:2754  string memory */\n      0x60\n        /* \"@openzeppelin/contracts@5.0.0/token/ERC721/ERC721.sol\":2766:2788  _requireOwned(tokenId) */\n      tag_175\n        /* \"@openzeppelin/contracts@5.0.0/token/ERC721/ERC721.sol\":2780:2787  tokenId */\n      dup3\n        /* \"@openzeppelin/contracts@5.0.0/token/ERC721/ERC721.sol\":2766:2779  _requireOwned */\n      tag_117\n        /* \"@openzeppelin/contracts@5.0.0/token/ERC721/ERC721.sol\":2766:2788  _requireOwned(tokenId) */\n      jump\t// in\n    tag_175:\n      pop\n        /* \"@openzeppelin/contracts@5.0.0/token/ERC721/ERC721.sol\":2799:2820  string memory baseURI */\n      0x00\n        /* \"@openzeppelin/contracts@5.0.0/token/ERC721/ERC721.sol\":2823:2833  _baseURI() */\n      tag_176\n        /* \"@openzeppelin/contracts@5.0.0/token/ERC721/ERC721.sol\":2823:2831  _baseURI */\n      tag_177\n        /* \"@openzeppelin/contracts@5.0.0/token/ERC721/ERC721.sol\":2823:2833  _baseURI() */\n      jump\t// in\n    tag_176:\n        /* \"@openzeppelin/contracts@5.0.0/token/ERC721/ERC721.sol\":2799:2833  string memory baseURI = _baseURI() */\n      swap1\n      pop\n        /* \"@openzeppelin/contracts@5.0.0/token/ERC721/ERC721.sol\":2874:2875  0 */\n      0x00\n        /* \"@openzeppelin/contracts@5.0.0/token/ERC721/ERC721.sol\":2856:2863  baseURI */\n      dup2\n        /* \"@openzeppelin/contracts@5.0.0/token/ERC721/ERC721.sol\":2850:2871  bytes(baseURI).length */\n      mload\n        /* \"@openzeppelin/contracts@5.0.0/token/ERC721/ERC721.sol\":2850:2875  bytes(baseURI).length > 0 */\n      gt\n        /* \"@openzeppelin/contracts@5.0.0/token/ERC721/ERC721.sol\":2850:2925  bytes(baseURI).length > 0 ? string.concat(baseURI, tokenId.toString()) : \"\" */\n      tag_178\n      jumpi\n      mload(0x40)\n      dup1\n      0x20\n      add\n      0x40\n      mstore\n      dup1\n      0x00\n      dup2\n      mstore\n      pop\n      jump(tag_179)\n    tag_178:\n        /* \"@openzeppelin/contracts@5.0.0/token/ERC721/ERC721.sol\":2892:2899  baseURI */\n      dup1\n        /* \"@openzeppelin/contracts@5.0.0/token/ERC721/ERC721.sol\":2901:2919  tokenId.toString() */\n      tag_180\n        /* \"@openzeppelin/contracts@5.0.0/token/ERC721/ERC721.sol\":2901:2908  tokenId */\n      dup5\n        /* \"@openzeppelin/contracts@5.0.0/token/ERC721/ERC721.sol\":2901:2917  tokenId.toString */\n      tag_181\n        /* \"@openzeppelin/contracts@5.0.0/token/ERC721/ERC721.sol\":2901:2919  tokenId.toString() */\n      jump\t// in\n    tag_180:\n        /* \"@openzeppelin/contracts@5.0.0/token/ERC721/ERC721.sol\":2878:2920  string.concat(baseURI, tokenId.toString()) */\n      add(0x20, mload(0x40))\n      tag_182\n      swap3\n      swap2\n      swap1\n      tag_183\n      jump\t// in\n    tag_182:\n      mload(0x40)\n      0x20\n      dup2\n      dup4\n      sub\n      sub\n      dup2\n      mstore\n      swap1\n      0x40\n      mstore\n        /* \"@openzeppelin/contracts@5.0.0/token/ERC721/ERC721.sol\":2850:2925  bytes(baseURI).length > 0 ? string.concat(baseURI, tokenId.toString()) : \"\" */\n    tag_179:\n        /* \"@openzeppelin/contracts@5.0.0/token/ERC721/ERC721.sol\":2843:2925  return bytes(baseURI).length > 0 ? string.concat(baseURI, tokenId.toString()) : \"\" */\n      swap2\n      pop\n      pop\n        /* \"@openzeppelin/contracts@5.0.0/token/ERC721/ERC721.sol\":2677:2932  function tokenURI(uint256 tokenId) public view virtual returns (string memory) {... */\n      swap2\n      swap1\n      pop\n      jump\t// out\n        /* \"contracts/nft.sol\":1382:1713  function getCharacterAttributes(uint256 tokenId) external view returns (string memory, uint256, uint256) {... */\n    tag_92:\n        /* \"contracts/nft.sol\":1454:1467  string memory */\n      0x60\n        /* \"contracts/nft.sol\":1469:1476  uint256 */\n      0x00\n        /* \"contracts/nft.sol\":1478:1485  uint256 */\n      dup1\n        /* \"contracts/nft.sol\":1506:1521  characterMinted */\n      0x08\n        /* \"contracts/nft.sol\":1506:1530  characterMinted[tokenId] */\n      0x00\n        /* \"contracts/nft.sol\":1522:1529  tokenId */\n      dup6\n        /* \"contracts/nft.sol\":1506:1530  characterMinted[tokenId] */\n      dup2\n      mstore\n      0x20\n      add\n      swap1\n      dup2\n      mstore\n      0x20\n      add\n      0x00\n      keccak256\n      0x00\n      swap1\n      sload\n      swap1\n      0x0100\n      exp\n      swap1\n      div\n      0xff\n      and\n        /* \"contracts/nft.sol\":1498:1555  require(characterMinted[tokenId], \"Character not minted\") */\n      tag_185\n      jumpi\n      mload(0x40)\n      0x08c379a000000000000000000000000000000000000000000000000000000000\n      dup2\n      mstore\n      0x04\n      add\n      tag_186\n      swap1\n      tag_187\n      jump\t// in\n    tag_186:\n      mload(0x40)\n      dup1\n      swap2\n      sub\n      swap1\n      revert\n    tag_185:\n        /* \"contracts/nft.sol\":1566:1603  CharacterAttributes memory attributes */\n      0x00\n        /* \"contracts/nft.sol\":1606:1625  characterAttributes */\n      0x09\n        /* \"contracts/nft.sol\":1606:1634  characterAttributes[tokenId] */\n      0x00\n        /* \"contracts/nft.sol\":1626:1633  tokenId */\n      dup7\n        /* \"contracts/nft.sol\":1606:1634  characterAttributes[tokenId] */\n      dup2\n      mstore\n      0x20\n      add\n      swap1\n      dup2\n      mstore\n      0x20\n      add\n      0x00\n      keccak256\n        /* \"contracts/nft.sol\":1566:1634  CharacterAttributes memory attributes = characterAttributes[tokenId] */\n      mload(0x40)\n      dup1\n      0x60\n      add\n      0x40\n      mstore\n      swap1\n      dup2\n      0x00\n      dup3\n      add\n      dup1\n      sload\n      tag_188\n      swap1\n      tag_110\n      jump\t// in\n    tag_188:\n      dup1\n      0x1f\n      add\n      0x20\n      dup1\n      swap2\n      div\n      mul\n      0x20\n      add\n      mload(0x40)\n      swap1\n      dup2\n      add\n      0x40\n      mstore\n      dup1\n      swap3\n      swap2\n      swap1\n      dup2\n      dup2\n      mstore\n      0x20\n      add\n      dup3\n      dup1\n      sload\n      tag_189\n      swap1\n      tag_110\n      jump\t// in\n    tag_189:\n      dup1\n      iszero\n      tag_190\n      jumpi\n      dup1\n      0x1f\n      lt\n      tag_191\n      jumpi\n      0x0100\n      dup1\n      dup4\n      sload\n      div\n      mul\n      dup4\n      mstore\n      swap2\n      0x20\n      add\n      swap2\n      jump(tag_190)\n    tag_191:\n      dup3\n      add\n      swap2\n      swap1\n      0x00\n      mstore\n      keccak256(0x00, 0x20)\n      swap1\n    tag_192:\n      dup2\n      sload\n      dup2\n      mstore\n      swap1\n      0x01\n      add\n      swap1\n      0x20\n      add\n      dup1\n      dup4\n      gt\n      tag_192\n      jumpi\n      dup3\n      swap1\n      sub\n      0x1f\n      and\n      dup3\n      add\n      swap2\n    tag_190:\n      pop\n      pop\n      pop\n      pop\n      pop\n      dup2\n      mstore\n      0x20\n      add\n      0x01\n      dup3\n      add\n      sload\n      dup2\n      mstore\n      0x20\n      add\n      0x02\n      dup3\n      add\n      sload\n      dup2\n      mstore\n      pop\n      pop\n      swap1\n      pop\n        /* \"contracts/nft.sol\":1653:1663  attributes */\n      dup1\n        /* \"contracts/nft.sol\":1653:1668  attributes.name */\n      0x00\n      add\n      mload\n        /* \"contracts/nft.sol\":1670:1680  attributes */\n      dup2\n        /* \"contracts/nft.sol\":1670:1686  attributes.level */\n      0x20\n      add\n      mload\n        /* \"contracts/nft.sol\":1688:1698  attributes */\n      dup3\n        /* \"contracts/nft.sol\":1688:1704  attributes.power */\n      0x40\n      add\n      mload\n        /* \"contracts/nft.sol\":1645:1705  return (attributes.name, attributes.level, attributes.power) */\n      swap4\n      pop\n      swap4\n      pop\n      swap4\n      pop\n      pop\n        /* \"contracts/nft.sol\":1382:1713  function getCharacterAttributes(uint256 tokenId) external view returns (string memory, uint256, uint256) {... */\n      swap2\n      swap4\n      swap1\n      swap3\n      pop\n      jump\t// out\n        /* \"@openzeppelin/contracts@5.0.0/token/ERC721/ERC721.sol\":3928:4081  function isApprovedForAll(address owner, address operator) public view virtual returns (bool) {... */\n    tag_98:\n        /* \"@openzeppelin/contracts@5.0.0/token/ERC721/ERC721.sol\":4016:4020  bool */\n      0x00\n        /* \"@openzeppelin/contracts@5.0.0/token/ERC721/ERC721.sol\":4039:4057  _operatorApprovals */\n      0x05\n        /* \"@openzeppelin/contracts@5.0.0/token/ERC721/ERC721.sol\":4039:4064  _operatorApprovals[owner] */\n      0x00\n        /* \"@openzeppelin/contracts@5.0.0/token/ERC721/ERC721.sol\":4058:4063  owner */\n      dup5\n        /* \"@openzeppelin/contracts@5.0.0/token/ERC721/ERC721.sol\":4039:4064  _operatorApprovals[owner] */\n      0xffffffffffffffffffffffffffffffffffffffff\n      and\n      0xffffffffffffffffffffffffffffffffffffffff\n      and\n      dup2\n      mstore\n      0x20\n      add\n      swap1\n      dup2\n      mstore\n      0x20\n      add\n      0x00\n      keccak256\n        /* \"@openzeppelin/contracts@5.0.0/token/ERC721/ERC721.sol\":4039:4074  _operatorApprovals[owner][operator] */\n      0x00\n        /* \"@openzeppelin/contracts@5.0.0/token/ERC721/ERC721.sol\":4065:4073  operator */\n      dup4\n        /* \"@openzeppelin/contracts@5.0.0/token/ERC721/ERC721.sol\":4039:4074  _operatorApprovals[owner][operator] */\n      0xffffffffffffffffffffffffffffffffffffffff\n      and\n      0xffffffffffffffffffffffffffffffffffffffff\n      and\n      dup2\n      mstore\n      0x20\n      add\n      swap1\n      dup2\n      mstore\n      0x20\n      add\n      0x00\n      keccak256\n      0x00\n      swap1\n      sload\n      swap1\n      0x0100\n      exp\n      swap1\n      div\n      0xff\n      and\n        /* \"@openzeppelin/contracts@5.0.0/token/ERC721/ERC721.sol\":4032:4074  return _operatorApprovals[owner][operator] */\n      swap1\n      pop\n        /* \"@openzeppelin/contracts@5.0.0/token/ERC721/ERC721.sol\":3928:4081  function isApprovedForAll(address owner, address operator) public view virtual returns (bool) {... */\n      swap3\n      swap2\n      pop\n      pop\n      jump\t// out\n        /* \"@openzeppelin/contracts@5.0.0/access/Ownable.sol\":2543:2758  function transferOwnership(address newOwner) public virtual onlyOwner {... */\n    tag_102:\n        /* \"@openzeppelin/contracts@5.0.0/access/Ownable.sol\":1531:1544  _checkOwner() */\n      tag_195\n        /* \"@openzeppelin/contracts@5.0.0/access/Ownable.sol\":1531:1542  _checkOwner */\n      tag_138\n        /* \"@openzeppelin/contracts@5.0.0/access/Ownable.sol\":1531:1544  _checkOwner() */\n      jump\t// in\n    tag_195:\n        /* \"@openzeppelin/contracts@5.0.0/access/Ownable.sol\":2647:2648  0 */\n      0x00\n        /* \"@openzeppelin/contracts@5.0.0/access/Ownable.sol\":2627:2649  newOwner == address(0) */\n      0xffffffffffffffffffffffffffffffffffffffff\n      and\n        /* \"@openzeppelin/contracts@5.0.0/access/Ownable.sol\":2627:2635  newOwner */\n      dup2\n        /* \"@openzeppelin/contracts@5.0.0/access/Ownable.sol\":2627:2649  newOwner == address(0) */\n      0xffffffffffffffffffffffffffffffffffffffff\n      and\n      sub\n        /* \"@openzeppelin/contracts@5.0.0/access/Ownable.sol\":2623:2714  if (newOwner == address(0)) {... */\n      tag_197\n      jumpi\n        /* \"@openzeppelin/contracts@5.0.0/access/Ownable.sol\":2700:2701  0 */\n      0x00\n        /* \"@openzeppelin/contracts@5.0.0/access/Ownable.sol\":2672:2703  OwnableInvalidOwner(address(0)) */\n      mload(0x40)\n      0x1e4fbdf700000000000000000000000000000000000000000000000000000000\n      dup2\n      mstore\n      0x04\n      add\n      tag_198\n      swap2\n      swap1\n      tag_40\n      jump\t// in\n    tag_198:\n      mload(0x40)\n      dup1\n      swap2\n      sub\n      swap1\n      revert\n        /* \"@openzeppelin/contracts@5.0.0/access/Ownable.sol\":2623:2714  if (newOwner == address(0)) {... */\n    tag_197:\n        /* \"@openzeppelin/contracts@5.0.0/access/Ownable.sol\":2723:2751  _transferOwnership(newOwner) */\n      tag_199\n        /* \"@openzeppelin/contracts@5.0.0/access/Ownable.sol\":2742:2750  newOwner */\n      dup2\n        /* \"@openzeppelin/contracts@5.0.0/access/Ownable.sol\":2723:2741  _transferOwnership */\n      tag_157\n        /* \"@openzeppelin/contracts@5.0.0/access/Ownable.sol\":2723:2751  _transferOwnership(newOwner) */\n      jump\t// in\n    tag_199:\n        /* \"@openzeppelin/contracts@5.0.0/access/Ownable.sol\":2543:2758  function transferOwnership(address newOwner) public virtual onlyOwner {... */\n      pop\n      jump\t// out\n        /* \"@openzeppelin/contracts@5.0.0/utils/introspection/ERC165.sol\":762:908  function supportsInterface(bytes4 interfaceId) public view virtual returns (bool) {... */\n    tag_107:\n        /* \"@openzeppelin/contracts@5.0.0/utils/introspection/ERC165.sol\":838:842  bool */\n      0x00\n        /* \"@openzeppelin/contracts@5.0.0/utils/introspection/ERC165.sol\":876:901  type(IERC165).interfaceId */\n      0x01ffc9a700000000000000000000000000000000000000000000000000000000\n        /* \"@openzeppelin/contracts@5.0.0/utils/introspection/ERC165.sol\":861:901  interfaceId == type(IERC165).interfaceId */\n      not(0xffffffffffffffffffffffffffffffffffffffffffffffffffffffff)\n      and\n        /* \"@openzeppelin/contracts@5.0.0/utils/introspection/ERC165.sol\":861:872  interfaceId */\n      dup3\n        /* \"@openzeppelin/contracts@5.0.0/utils/introspection/ERC165.sol\":861:901  interfaceId == type(IERC165).interfaceId */\n      not(0xffffffffffffffffffffffffffffffffffffffffffffffffffffffff)\n      and\n      eq\n        /* \"@openzeppelin/contracts@5.0.0/utils/introspection/ERC165.sol\":854:901  return interfaceId == type(IERC165).interfaceId */\n      swap1\n      pop\n        /* \"@openzeppelin/contracts@5.0.0/utils/introspection/ERC165.sol\":762:908  function supportsInterface(bytes4 interfaceId) public view virtual returns (bool) {... */\n      swap2\n      swap1\n      pop\n      jump\t// out\n        /* \"@openzeppelin/contracts@5.0.0/token/ERC721/ERC721.sol\":16138:16379  function _requireOwned(uint256 tokenId) internal view returns (address) {... */\n    tag_117:\n        /* \"@openzeppelin/contracts@5.0.0/token/ERC721/ERC721.sol\":16201:16208  address */\n      0x00\n        /* \"@openzeppelin/contracts@5.0.0/token/ERC721/ERC721.sol\":16220:16233  address owner */\n      dup1\n        /* \"@openzeppelin/contracts@5.0.0/token/ERC721/ERC721.sol\":16236:16253  _ownerOf(tokenId) */\n      tag_202\n        /* \"@openzeppelin/contracts@5.0.0/token/ERC721/ERC721.sol\":16245:16252  tokenId */\n      dup4\n        /* \"@openzeppelin/contracts@5.0.0/token/ERC721/ERC721.sol\":16236:16244  _ownerOf */\n      tag_203\n        /* \"@openzeppelin/contracts@5.0.0/token/ERC721/ERC721.sol\":16236:16253  _ownerOf(tokenId) */\n      jump\t// in\n    tag_202:\n        /* \"@openzeppelin/contracts@5.0.0/token/ERC721/ERC721.sol\":16220:16253  address owner = _ownerOf(tokenId) */\n      swap1\n      pop\n        /* \"@openzeppelin/contracts@5.0.0/token/ERC721/ERC721.sol\":16284:16285  0 */\n      0x00\n        /* \"@openzeppelin/contracts@5.0.0/token/ERC721/ERC721.sol\":16267:16286  owner == address(0) */\n      0xffffffffffffffffffffffffffffffffffffffff\n      and\n        /* \"@openzeppelin/contracts@5.0.0/token/ERC721/ERC721.sol\":16267:16272  owner */\n      dup2\n        /* \"@openzeppelin/contracts@5.0.0/token/ERC721/ERC721.sol\":16267:16286  owner == address(0) */\n      0xffffffffffffffffffffffffffffffffffffffff\n      and\n      sub\n        /* \"@openzeppelin/contracts@5.0.0/token/ERC721/ERC721.sol\":16263:16351  if (owner == address(0)) {... */\n      tag_204\n      jumpi\n        /* \"@openzeppelin/contracts@5.0.0/token/ERC721/ERC721.sol\":16332:16339  tokenId */\n      dup3\n        /* \"@openzeppelin/contracts@5.0.0/token/ERC721/ERC721.sol\":16309:16340  ERC721NonexistentToken(tokenId) */\n      mload(0x40)\n      0x7e27328900000000000000000000000000000000000000000000000000000000\n      dup2\n      mstore\n      0x04\n      add\n      tag_205\n      swap2\n      swap1\n      tag_65\n      jump\t// in\n    tag_205:\n      mload(0x40)\n      dup1\n      swap2\n      sub\n      swap1\n      revert\n        /* \"@openzeppelin/contracts@5.0.0/token/ERC721/ERC721.sol\":16263:16351  if (owner == address(0)) {... */\n    tag_204:\n        /* \"@openzeppelin/contracts@5.0.0/token/ERC721/ERC721.sol\":16367:16372  owner */\n      dup1\n        /* \"@openzeppelin/contracts@5.0.0/token/ERC721/ERC721.sol\":16360:16372  return owner */\n      swap2\n      pop\n      pop\n        /* \"@openzeppelin/contracts@5.0.0/token/ERC721/ERC721.sol\":16138:16379  function _requireOwned(uint256 tokenId) internal view returns (address) {... */\n      swap2\n      swap1\n      pop\n      jump\t// out\n        /* \"@openzeppelin/contracts@5.0.0/token/ERC721/ERC721.sol\":5938:6065  function _getApproved(uint256 tokenId) internal view virtual returns (address) {... */\n    tag_119:\n        /* \"@openzeppelin/contracts@5.0.0/token/ERC721/ERC721.sol\":6008:6015  address */\n      0x00\n        /* \"@openzeppelin/contracts@5.0.0/token/ERC721/ERC721.sol\":6034:6049  _tokenApprovals */\n      0x04\n        /* \"@openzeppelin/contracts@5.0.0/token/ERC721/ERC721.sol\":6034:6058  _tokenApprovals[tokenId] */\n      0x00\n        /* \"@openzeppelin/contracts@5.0.0/token/ERC721/ERC721.sol\":6050:6057  tokenId */\n      dup4\n        /* \"@openzeppelin/contracts@5.0.0/token/ERC721/ERC721.sol\":6034:6058  _tokenApprovals[tokenId] */\n      dup2\n      mstore\n      0x20\n      add\n      swap1\n      dup2\n      mstore\n      0x20\n      add\n      0x00\n      keccak256\n      0x00\n      swap1\n      sload\n      swap1\n      0x0100\n      exp\n      swap1\n      div\n      0xffffffffffffffffffffffffffffffffffffffff\n      and\n        /* \"@openzeppelin/contracts@5.0.0/token/ERC721/ERC721.sol\":6027:6058  return _tokenApprovals[tokenId] */\n      swap1\n      pop\n        /* \"@openzeppelin/contracts@5.0.0/token/ERC721/ERC721.sol\":5938:6065  function _getApproved(uint256 tokenId) internal view virtual returns (address) {... */\n      swap2\n      swap1\n      pop\n      jump\t// out\n        /* \"@openzeppelin/contracts@5.0.0/utils/Context.sol\":656:752  function _msgSender() internal view virtual returns (address) {... */\n    tag_123:\n        /* \"@openzeppelin/contracts@5.0.0/utils/Context.sol\":709:716  address */\n      0x00\n        /* \"@openzeppelin/contracts@5.0.0/utils/Context.sol\":735:745  msg.sender */\n      caller\n        /* \"@openzeppelin/contracts@5.0.0/utils/Context.sol\":728:745  return msg.sender */\n      swap1\n      pop\n        /* \"@openzeppelin/contracts@5.0.0/utils/Context.sol\":656:752  function _msgSender() internal view virtual returns (address) {... */\n      swap1\n      jump\t// out\n        /* \"@openzeppelin/contracts@5.0.0/token/ERC721/ERC721.sol\":14418:14538  function _approve(address to, uint256 tokenId, address auth) internal {... */\n    tag_124:\n        /* \"@openzeppelin/contracts@5.0.0/token/ERC721/ERC721.sol\":14498:14531  _approve(to, tokenId, auth, true) */\n      tag_209\n        /* \"@openzeppelin/contracts@5.0.0/token/ERC721/ERC721.sol\":14507:14509  to */\n      dup4\n        /* \"@openzeppelin/contracts@5.0.0/token/ERC721/ERC721.sol\":14511:14518  tokenId */\n      dup4\n        /* \"@openzeppelin/contracts@5.0.0/token/ERC721/ERC721.sol\":14520:14524  auth */\n      dup4\n        /* \"@openzeppelin/contracts@5.0.0/token/ERC721/ERC721.sol\":14526:14530  true */\n      0x01\n        /* \"@openzeppelin/contracts@5.0.0/token/ERC721/ERC721.sol\":14498:14506  _approve */\n      tag_210\n        /* \"@openzeppelin/contracts@5.0.0/token/ERC721/ERC721.sol\":14498:14531  _approve(to, tokenId, auth, true) */\n      jump\t// in\n    tag_209:\n        /* \"@openzeppelin/contracts@5.0.0/token/ERC721/ERC721.sol\":14418:14538  function _approve(address to, uint256 tokenId, address auth) internal {... */\n      pop\n      pop\n      pop\n      jump\t// out\n        /* \"@openzeppelin/contracts@5.0.0/token/ERC721/ERC721.sol\":8838:9633  function _update(address to, uint256 tokenId, address auth) internal virtual returns (address) {... */\n    tag_130:\n        /* \"@openzeppelin/contracts@5.0.0/token/ERC721/ERC721.sol\":8924:8931  address */\n      0x00\n        /* \"@openzeppelin/contracts@5.0.0/token/ERC721/ERC721.sol\":8943:8955  address from */\n      dup1\n        /* \"@openzeppelin/contracts@5.0.0/token/ERC721/ERC721.sol\":8958:8975  _ownerOf(tokenId) */\n      tag_212\n        /* \"@openzeppelin/contracts@5.0.0/token/ERC721/ERC721.sol\":8967:8974  tokenId */\n      dup5\n        /* \"@openzeppelin/contracts@5.0.0/token/ERC721/ERC721.sol\":8958:8966  _ownerOf */\n      tag_203\n        /* \"@openzeppelin/contracts@5.0.0/token/ERC721/ERC721.sol\":8958:8975  _ownerOf(tokenId) */\n      jump\t// in\n    tag_212:\n        /* \"@openzeppelin/contracts@5.0.0/token/ERC721/ERC721.sol\":8943:8975  address from = _ownerOf(tokenId) */\n      swap1\n      pop\n        /* \"@openzeppelin/contracts@5.0.0/token/ERC721/ERC721.sol\":9051:9052  0 */\n      0x00\n        /* \"@openzeppelin/contracts@5.0.0/token/ERC721/ERC721.sol\":9035:9053  auth != address(0) */\n      0xffffffffffffffffffffffffffffffffffffffff\n      and\n        /* \"@openzeppelin/contracts@5.0.0/token/ERC721/ERC721.sol\":9035:9039  auth */\n      dup4\n        /* \"@openzeppelin/contracts@5.0.0/token/ERC721/ERC721.sol\":9035:9053  auth != address(0) */\n      0xffffffffffffffffffffffffffffffffffffffff\n      and\n      eq\n        /* \"@openzeppelin/contracts@5.0.0/token/ERC721/ERC721.sol\":9031:9117  if (auth != address(0)) {... */\n      tag_213\n      jumpi\n        /* \"@openzeppelin/contracts@5.0.0/token/ERC721/ERC721.sol\":9069:9106  _checkAuthorized(from, auth, tokenId) */\n      tag_214\n        /* \"@openzeppelin/contracts@5.0.0/token/ERC721/ERC721.sol\":9086:9090  from */\n      dup2\n        /* \"@openzeppelin/contracts@5.0.0/token/ERC721/ERC721.sol\":9092:9096  auth */\n      dup5\n        /* \"@openzeppelin/contracts@5.0.0/token/ERC721/ERC721.sol\":9098:9105  tokenId */\n      dup7\n        /* \"@openzeppelin/contracts@5.0.0/token/ERC721/ERC721.sol\":9069:9085  _checkAuthorized */\n      tag_215\n        /* \"@openzeppelin/contracts@5.0.0/token/ERC721/ERC721.sol\":9069:9106  _checkAuthorized(from, auth, tokenId) */\n      jump\t// in\n    tag_214:\n        /* \"@openzeppelin/contracts@5.0.0/token/ERC721/ERC721.sol\":9031:9117  if (auth != address(0)) {... */\n    tag_213:\n        /* \"@openzeppelin/contracts@5.0.0/token/ERC721/ERC721.sol\":9177:9178  0 */\n      0x00\n        /* \"@openzeppelin/contracts@5.0.0/token/ERC721/ERC721.sol\":9161:9179  from != address(0) */\n      0xffffffffffffffffffffffffffffffffffffffff\n      and\n        /* \"@openzeppelin/contracts@5.0.0/token/ERC721/ERC721.sol\":9161:9165  from */\n      dup2\n        /* \"@openzeppelin/contracts@5.0.0/token/ERC721/ERC721.sol\":9161:9179  from != address(0) */\n      0xffffffffffffffffffffffffffffffffffffffff\n      and\n      eq\n        /* \"@openzeppelin/contracts@5.0.0/token/ERC721/ERC721.sol\":9157:9413  if (from != address(0)) {... */\n      tag_216\n      jumpi\n        /* \"@openzeppelin/contracts@5.0.0/token/ERC721/ERC721.sol\":9277:9325  _approve(address(0), tokenId, address(0), false) */\n      tag_217\n        /* \"@openzeppelin/contracts@5.0.0/token/ERC721/ERC721.sol\":9294:9295  0 */\n      0x00\n        /* \"@openzeppelin/contracts@5.0.0/token/ERC721/ERC721.sol\":9298:9305  tokenId */\n      dup6\n        /* \"@openzeppelin/contracts@5.0.0/token/ERC721/ERC721.sol\":9315:9316  0 */\n      0x00\n        /* \"@openzeppelin/contracts@5.0.0/token/ERC721/ERC721.sol\":9319:9324  false */\n      dup1\n        /* \"@openzeppelin/contracts@5.0.0/token/ERC721/ERC721.sol\":9277:9285  _approve */\n      tag_210\n        /* \"@openzeppelin/contracts@5.0.0/token/ERC721/ERC721.sol\":9277:9325  _approve(address(0), tokenId, address(0), false) */\n      jump\t// in\n    tag_217:\n        /* \"@openzeppelin/contracts@5.0.0/token/ERC721/ERC721.sol\":9387:9388  1 */\n      0x01\n        /* \"@openzeppelin/contracts@5.0.0/token/ERC721/ERC721.sol\":9368:9377  _balances */\n      0x03\n        /* \"@openzeppelin/contracts@5.0.0/token/ERC721/ERC721.sol\":9368:9383  _balances[from] */\n      0x00\n        /* \"@openzeppelin/contracts@5.0.0/token/ERC721/ERC721.sol\":9378:9382  from */\n      dup4\n        /* \"@openzeppelin/contracts@5.0.0/token/ERC721/ERC721.sol\":9368:9383  _balances[from] */\n      0xffffffffffffffffffffffffffffffffffffffff\n      and\n      0xffffffffffffffffffffffffffffffffffffffff\n      and\n      dup2\n      mstore\n      0x20\n      add\n      swap1\n      dup2\n      mstore\n      0x20\n      add\n      0x00\n      keccak256\n      0x00\n        /* \"@openzeppelin/contracts@5.0.0/token/ERC721/ERC721.sol\":9368:9388  _balances[from] -= 1 */\n      dup3\n      dup3\n      sload\n      sub\n      swap3\n      pop\n      pop\n      dup2\n      swap1\n      sstore\n      pop\n        /* \"@openzeppelin/contracts@5.0.0/token/ERC721/ERC721.sol\":9157:9413  if (from != address(0)) {... */\n    tag_216:\n        /* \"@openzeppelin/contracts@5.0.0/token/ERC721/ERC721.sol\":9441:9442  0 */\n      0x00\n        /* \"@openzeppelin/contracts@5.0.0/token/ERC721/ERC721.sol\":9427:9443  to != address(0) */\n      0xffffffffffffffffffffffffffffffffffffffff\n      and\n        /* \"@openzeppelin/contracts@5.0.0/token/ERC721/ERC721.sol\":9427:9429  to */\n      dup6\n        /* \"@openzeppelin/contracts@5.0.0/token/ERC721/ERC721.sol\":9427:9443  to != address(0) */\n      0xffffffffffffffffffffffffffffffffffffffff\n      and\n      eq\n        /* \"@openzeppelin/contracts@5.0.0/token/ERC721/ERC721.sol\":9423:9530  if (to != address(0)) {... */\n      tag_218\n      jumpi\n        /* \"@openzeppelin/contracts@5.0.0/token/ERC721/ERC721.sol\":9504:9505  1 */\n      0x01\n        /* \"@openzeppelin/contracts@5.0.0/token/ERC721/ERC721.sol\":9487:9496  _balances */\n      0x03\n        /* \"@openzeppelin/contracts@5.0.0/token/ERC721/ERC721.sol\":9487:9500  _balances[to] */\n      0x00\n        /* \"@openzeppelin/contracts@5.0.0/token/ERC721/ERC721.sol\":9497:9499  to */\n      dup8\n        /* \"@openzeppelin/contracts@5.0.0/token/ERC721/ERC721.sol\":9487:9500  _balances[to] */\n      0xffffffffffffffffffffffffffffffffffffffff\n      and\n      0xffffffffffffffffffffffffffffffffffffffff\n      and\n      dup2\n      mstore\n      0x20\n      add\n      swap1\n      dup2\n      mstore\n      0x20\n      add\n      0x00\n      keccak256\n      0x00\n        /* \"@openzeppelin/contracts@5.0.0/token/ERC721/ERC721.sol\":9487:9505  _balances[to] += 1 */\n      dup3\n      dup3\n      sload\n      add\n      swap3\n      pop\n      pop\n      dup2\n      swap1\n      sstore\n      pop\n        /* \"@openzeppelin/contracts@5.0.0/token/ERC721/ERC721.sol\":9423:9530  if (to != address(0)) {... */\n    tag_218:\n        /* \"@openzeppelin/contracts@5.0.0/token/ERC721/ERC721.sol\":9559:9561  to */\n      dup5\n        /* \"@openzeppelin/contracts@5.0.0/token/ERC721/ERC721.sol\":9540:9547  _owners */\n      0x02\n        /* \"@openzeppelin/contracts@5.0.0/token/ERC721/ERC721.sol\":9540:9556  _owners[tokenId] */\n      0x00\n        /* \"@openzeppelin/contracts@5.0.0/token/ERC721/ERC721.sol\":9548:9555  tokenId */\n      dup7\n        /* \"@openzeppelin/contracts@5.0.0/token/ERC721/ERC721.sol\":9540:9556  _owners[tokenId] */\n      dup2\n      mstore\n      0x20\n      add\n      swap1\n      dup2\n      mstore\n      0x20\n      add\n      0x00\n      keccak256\n      0x00\n        /* \"@openzeppelin/contracts@5.0.0/token/ERC721/ERC721.sol\":9540:9561  _owners[tokenId] = to */\n      0x0100\n      exp\n      dup2\n      sload\n      dup2\n      0xffffffffffffffffffffffffffffffffffffffff\n      mul\n      not\n      and\n      swap1\n      dup4\n      0xffffffffffffffffffffffffffffffffffffffff\n      and\n      mul\n      or\n      swap1\n      sstore\n      pop\n        /* \"@openzeppelin/contracts@5.0.0/token/ERC721/ERC721.sol\":9596:9603  tokenId */\n      dup4\n        /* \"@openzeppelin/contracts@5.0.0/token/ERC721/ERC721.sol\":9592:9594  to */\n      dup6\n        /* \"@openzeppelin/contracts@5.0.0/token/ERC721/ERC721.sol\":9577:9604  Transfer(from, to, tokenId) */\n      0xffffffffffffffffffffffffffffffffffffffff\n      and\n        /* \"@openzeppelin/contracts@5.0.0/token/ERC721/ERC721.sol\":9586:9590  from */\n      dup3\n        /* \"@openzeppelin/contracts@5.0.0/token/ERC721/ERC721.sol\":9577:9604  Transfer(from, to, tokenId) */\n      0xffffffffffffffffffffffffffffffffffffffff\n      and\n      0xddf252ad1be2c89b69c2b068fc378daa952ba7f163c4a11628f55a4df523b3ef\n      mload(0x40)\n      mload(0x40)\n      dup1\n      swap2\n      sub\n      swap1\n      log4\n        /* \"@openzeppelin/contracts@5.0.0/token/ERC721/ERC721.sol\":9622:9626  from */\n      dup1\n        /* \"@openzeppelin/contracts@5.0.0/token/ERC721/ERC721.sol\":9615:9626  return from */\n      swap2\n      pop\n      pop\n        /* \"@openzeppelin/contracts@5.0.0/token/ERC721/ERC721.sol\":8838:9633  function _update(address to, uint256 tokenId, address auth) internal virtual returns (address) {... */\n      swap4\n      swap3\n      pop\n      pop\n      pop\n      jump\t// out\n        /* \"@openzeppelin/contracts@5.0.0/access/Ownable.sol\":1796:1958  function _checkOwner() internal view virtual {... */\n    tag_138:\n        /* \"@openzeppelin/contracts@5.0.0/access/Ownable.sol\":1866:1878  _msgSender() */\n      tag_220\n        /* \"@openzeppelin/contracts@5.0.0/access/Ownable.sol\":1866:1876  _msgSender */\n      tag_123\n        /* \"@openzeppelin/contracts@5.0.0/access/Ownable.sol\":1866:1878  _msgSender() */\n      jump\t// in\n    tag_220:\n        /* \"@openzeppelin/contracts@5.0.0/access/Ownable.sol\":1855:1878  owner() != _msgSender() */\n      0xffffffffffffffffffffffffffffffffffffffff\n      and\n        /* \"@openzeppelin/contracts@5.0.0/access/Ownable.sol\":1855:1862  owner() */\n      tag_221\n        /* \"@openzeppelin/contracts@5.0.0/access/Ownable.sol\":1855:1860  owner */\n      tag_69\n        /* \"@openzeppelin/contracts@5.0.0/access/Ownable.sol\":1855:1862  owner() */\n      jump\t// in\n    tag_221:\n        /* \"@openzeppelin/contracts@5.0.0/access/Ownable.sol\":1855:1878  owner() != _msgSender() */\n      0xffffffffffffffffffffffffffffffffffffffff\n      and\n      eq\n        /* \"@openzeppelin/contracts@5.0.0/access/Ownable.sol\":1851:1952  if (owner() != _msgSender()) {... */\n      tag_222\n      jumpi\n        /* \"@openzeppelin/contracts@5.0.0/access/Ownable.sol\":1928:1940  _msgSender() */\n      tag_223\n        /* \"@openzeppelin/contracts@5.0.0/access/Ownable.sol\":1928:1938  _msgSender */\n      tag_123\n        /* \"@openzeppelin/contracts@5.0.0/access/Ownable.sol\":1928:1940  _msgSender() */\n      jump\t// in\n    tag_223:\n        /* \"@openzeppelin/contracts@5.0.0/access/Ownable.sol\":1901:1941  OwnableUnauthorizedAccount(_msgSender()) */\n      mload(0x40)\n      0x118cdaa700000000000000000000000000000000000000000000000000000000\n      dup2\n      mstore\n      0x04\n      add\n      tag_224\n      swap2\n      swap1\n      tag_40\n      jump\t// in\n    tag_224:\n      mload(0x40)\n      dup1\n      swap2\n      sub\n      swap1\n      revert\n        /* \"@openzeppelin/contracts@5.0.0/access/Ownable.sol\":1851:1952  if (owner() != _msgSender()) {... */\n    tag_222:\n        /* \"@openzeppelin/contracts@5.0.0/access/Ownable.sol\":1796:1958  function _checkOwner() internal view virtual {... */\n      jump\t// out\n        /* \"@openzeppelin/contracts@5.0.0/token/ERC721/ERC721.sol\":10633:10733  function _safeMint(address to, uint256 tokenId) internal {... */\n    tag_141:\n        /* \"@openzeppelin/contracts@5.0.0/token/ERC721/ERC721.sol\":10700:10726  _safeMint(to, tokenId, \"\") */\n      tag_226\n        /* \"@openzeppelin/contracts@5.0.0/token/ERC721/ERC721.sol\":10710:10712  to */\n      dup3\n        /* \"@openzeppelin/contracts@5.0.0/token/ERC721/ERC721.sol\":10714:10721  tokenId */\n      dup3\n        /* \"@openzeppelin/contracts@5.0.0/token/ERC721/ERC721.sol\":10700:10726  _safeMint(to, tokenId, \"\") */\n      mload(0x40)\n      dup1\n      0x20\n      add\n      0x40\n      mstore\n      dup1\n      0x00\n      dup2\n      mstore\n      pop\n        /* \"@openzeppelin/contracts@5.0.0/token/ERC721/ERC721.sol\":10700:10709  _safeMint */\n      tag_227\n        /* \"@openzeppelin/contracts@5.0.0/token/ERC721/ERC721.sol\":10700:10726  _safeMint(to, tokenId, \"\") */\n      jump\t// in\n    tag_226:\n        /* \"@openzeppelin/contracts@5.0.0/token/ERC721/ERC721.sol\":10633:10733  function _safeMint(address to, uint256 tokenId) internal {... */\n      pop\n      pop\n      jump\t// out\n        /* \"@openzeppelin/contracts@5.0.0/access/Ownable.sol\":2912:3099  function _transferOwnership(address newOwner) internal virtual {... */\n    tag_157:\n        /* \"@openzeppelin/contracts@5.0.0/access/Ownable.sol\":2985:3001  address oldOwner */\n      0x00\n        /* \"@openzeppelin/contracts@5.0.0/access/Ownable.sol\":3004:3010  _owner */\n      0x06\n      0x00\n      swap1\n      sload\n      swap1\n      0x0100\n      exp\n      swap1\n      div\n      0xffffffffffffffffffffffffffffffffffffffff\n      and\n        /* \"@openzeppelin/contracts@5.0.0/access/Ownable.sol\":2985:3010  address oldOwner = _owner */\n      swap1\n      pop\n        /* \"@openzeppelin/contracts@5.0.0/access/Ownable.sol\":3029:3037  newOwner */\n      dup2\n        /* \"@openzeppelin/contracts@5.0.0/access/Ownable.sol\":3020:3026  _owner */\n      0x06\n      0x00\n        /* \"@openzeppelin/contracts@5.0.0/access/Ownable.sol\":3020:3037  _owner = newOwner */\n      0x0100\n      exp\n      dup2\n      sload\n      dup2\n      0xffffffffffffffffffffffffffffffffffffffff\n      mul\n      not\n      and\n      swap1\n      dup4\n      0xffffffffffffffffffffffffffffffffffffffff\n      and\n      mul\n      or\n      swap1\n      sstore\n      pop\n        /* \"@openzeppelin/contracts@5.0.0/access/Ownable.sol\":3083:3091  newOwner */\n      dup2\n        /* \"@openzeppelin/contracts@5.0.0/access/Ownable.sol\":3052:3092  OwnershipTransferred(oldOwner, newOwner) */\n      0xffffffffffffffffffffffffffffffffffffffff\n      and\n        /* \"@openzeppelin/contracts@5.0.0/access/Ownable.sol\":3073:3081  oldOwner */\n      dup2\n        /* \"@openzeppelin/contracts@5.0.0/access/Ownable.sol\":3052:3092  OwnershipTransferred(oldOwner, newOwner) */\n      0xffffffffffffffffffffffffffffffffffffffff\n      and\n      0x8be0079c531659141344cd1fd0a4f28419497f9722a3daafe3b4186f6b6457e0\n      mload(0x40)\n      mload(0x40)\n      dup1\n      swap2\n      sub\n      swap1\n      log3\n        /* \"@openzeppelin/contracts@5.0.0/access/Ownable.sol\":2975:3099  {... */\n      pop\n        /* \"@openzeppelin/contracts@5.0.0/access/Ownable.sol\":2912:3099  function _transferOwnership(address newOwner) internal virtual {... */\n      pop\n      jump\t// out\n        /* \"@openzeppelin/contracts@5.0.0/token/ERC721/ERC721.sol\":15591:15903  function _setApprovalForAll(address owner, address operator, bool approved) internal virtual {... */\n    tag_169:\n        /* \"@openzeppelin/contracts@5.0.0/token/ERC721/ERC721.sol\":15718:15719  0 */\n      0x00\n        /* \"@openzeppelin/contracts@5.0.0/token/ERC721/ERC721.sol\":15698:15720  operator == address(0) */\n      0xffffffffffffffffffffffffffffffffffffffff\n      and\n        /* \"@openzeppelin/contracts@5.0.0/token/ERC721/ERC721.sol\":15698:15706  operator */\n      dup3\n        /* \"@openzeppelin/contracts@5.0.0/token/ERC721/ERC721.sol\":15698:15720  operator == address(0) */\n      0xffffffffffffffffffffffffffffffffffffffff\n      and\n      sub\n        /* \"@openzeppelin/contracts@5.0.0/token/ERC721/ERC721.sol\":15694:15785  if (operator == address(0)) {... */\n      tag_230\n      jumpi\n        /* \"@openzeppelin/contracts@5.0.0/token/ERC721/ERC721.sol\":15765:15773  operator */\n      dup2\n        /* \"@openzeppelin/contracts@5.0.0/token/ERC721/ERC721.sol\":15743:15774  ERC721InvalidOperator(operator) */\n      mload(0x40)\n      0x5b08ba1800000000000000000000000000000000000000000000000000000000\n      dup2\n      mstore\n      0x04\n      add\n      tag_231\n      swap2\n      swap1\n      tag_40\n      jump\t// in\n    tag_231:\n      mload(0x40)\n      dup1\n      swap2\n      sub\n      swap1\n      revert\n        /* \"@openzeppelin/contracts@5.0.0/token/ERC721/ERC721.sol\":15694:15785  if (operator == address(0)) {... */\n    tag_230:\n        /* \"@openzeppelin/contracts@5.0.0/token/ERC721/ERC721.sol\":15832:15840  approved */\n      dup1\n        /* \"@openzeppelin/contracts@5.0.0/token/ERC721/ERC721.sol\":15794:15812  _operatorApprovals */\n      0x05\n        /* \"@openzeppelin/contracts@5.0.0/token/ERC721/ERC721.sol\":15794:15819  _operatorApprovals[owner] */\n      0x00\n        /* \"@openzeppelin/contracts@5.0.0/token/ERC721/ERC721.sol\":15813:15818  owner */\n      dup6\n        /* \"@openzeppelin/contracts@5.0.0/token/ERC721/ERC721.sol\":15794:15819  _operatorApprovals[owner] */\n      0xffffffffffffffffffffffffffffffffffffffff\n      and\n      0xffffffffffffffffffffffffffffffffffffffff\n      and\n      dup2\n      mstore\n      0x20\n      add\n      swap1\n      dup2\n      mstore\n      0x20\n      add\n      0x00\n      keccak256\n        /* \"@openzeppelin/contracts@5.0.0/token/ERC721/ERC721.sol\":15794:15829  _operatorApprovals[owner][operator] */\n      0x00\n        /* \"@openzeppelin/contracts@5.0.0/token/ERC721/ERC721.sol\":15820:15828  operator */\n      dup5\n        /* \"@openzeppelin/contracts@5.0.0/token/ERC721/ERC721.sol\":15794:15829  _operatorApprovals[owner][operator] */\n      0xffffffffffffffffffffffffffffffffffffffff\n      and\n      0xffffffffffffffffffffffffffffffffffffffff\n      and\n      dup2\n      mstore\n      0x20\n      add\n      swap1\n      dup2\n      mstore\n      0x20\n      add\n      0x00\n      keccak256\n      0x00\n        /* \"@openzeppelin/contracts@5.0.0/token/ERC721/ERC721.sol\":15794:15840  _operatorApprovals[owner][operator] = approved */\n      0x0100\n      exp\n      dup2\n      sload\n      dup2\n      0xff\n      mul\n      not\n      and\n      swap1\n      dup4\n      iszero\n      iszero\n      mul\n      or\n      swap1\n      sstore\n      pop\n        /* \"@openzeppelin/contracts@5.0.0/token/ERC721/ERC721.sol\":15877:15885  operator */\n      dup2\n        /* \"@openzeppelin/contracts@5.0.0/token/ERC721/ERC721.sol\":15855:15896  ApprovalForAll(owner, operator, approved) */\n      0xffffffffffffffffffffffffffffffffffffffff\n      and\n        /* \"@openzeppelin/contracts@5.0.0/token/ERC721/ERC721.sol\":15870:15875  owner */\n      dup4\n        /* \"@openzeppelin/contracts@5.0.0/token/ERC721/ERC721.sol\":15855:15896  ApprovalForAll(owner, operator, approved) */\n      0xffffffffffffffffffffffffffffffffffffffff\n      and\n      0x17307eab39ab6107e8899845ad3d59bd9653f200f220920489ca2b5937696c31\n        /* \"@openzeppelin/contracts@5.0.0/token/ERC721/ERC721.sol\":15887:15895  approved */\n      dup4\n        /* \"@openzeppelin/contracts@5.0.0/token/ERC721/ERC721.sol\":15855:15896  ApprovalForAll(owner, operator, approved) */\n      mload(0x40)\n      tag_232\n      swap2\n      swap1\n      tag_30\n      jump\t// in\n    tag_232:\n      mload(0x40)\n      dup1\n      swap2\n      sub\n      swap1\n      log3\n        /* \"@openzeppelin/contracts@5.0.0/token/ERC721/ERC721.sol\":15591:15903  function _setApprovalForAll(address owner, address operator, bool approved) internal virtual {... */\n      pop\n      pop\n      pop\n      jump\t// out\n        /* \"@openzeppelin/contracts@5.0.0/token/ERC721/ERC721.sol\":16918:17700  function _checkOnERC721Received(address from, address to, uint256 tokenId, bytes memory data) private {... */\n    tag_173:\n        /* \"@openzeppelin/contracts@5.0.0/token/ERC721/ERC721.sol\":17051:17052  0 */\n      0x00\n        /* \"@openzeppelin/contracts@5.0.0/token/ERC721/ERC721.sol\":17034:17036  to */\n      dup4\n        /* \"@openzeppelin/contracts@5.0.0/token/ERC721/ERC721.sol\":17034:17048  to.code.length */\n      0xffffffffffffffffffffffffffffffffffffffff\n      and\n      extcodesize\n        /* \"@openzeppelin/contracts@5.0.0/token/ERC721/ERC721.sol\":17034:17052  to.code.length > 0 */\n      gt\n        /* \"@openzeppelin/contracts@5.0.0/token/ERC721/ERC721.sol\":17030:17694  if (to.code.length > 0) {... */\n      iszero\n      tag_234\n      jumpi\n        /* \"@openzeppelin/contracts@5.0.0/token/ERC721/ERC721.sol\":17088:17090  to */\n      dup3\n        /* \"@openzeppelin/contracts@5.0.0/token/ERC721/ERC721.sol\":17072:17108  IERC721Receiver(to).onERC721Received */\n      0xffffffffffffffffffffffffffffffffffffffff\n      and\n      0x150b7a02\n        /* \"@openzeppelin/contracts@5.0.0/token/ERC721/ERC721.sol\":17109:17121  _msgSender() */\n      tag_235\n        /* \"@openzeppelin/contracts@5.0.0/token/ERC721/ERC721.sol\":17109:17119  _msgSender */\n      tag_123\n        /* \"@openzeppelin/contracts@5.0.0/token/ERC721/ERC721.sol\":17109:17121  _msgSender() */\n      jump\t// in\n    tag_235:\n        /* \"@openzeppelin/contracts@5.0.0/token/ERC721/ERC721.sol\":17123:17127  from */\n      dup7\n        /* \"@openzeppelin/contracts@5.0.0/token/ERC721/ERC721.sol\":17129:17136  tokenId */\n      dup6\n        /* \"@openzeppelin/contracts@5.0.0/token/ERC721/ERC721.sol\":17138:17142  data */\n      dup6\n        /* \"@openzeppelin/contracts@5.0.0/token/ERC721/ERC721.sol\":17072:17143  IERC721Receiver(to).onERC721Received(_msgSender(), from, tokenId, data) */\n      mload(0x40)\n      dup6\n      0xffffffff\n      and\n      0xe0\n      shl\n      dup2\n      mstore\n      0x04\n      add\n      tag_236\n      swap5\n      swap4\n      swap3\n      swap2\n      swap1\n      tag_237\n      jump\t// in\n    tag_236:\n      0x20\n      mload(0x40)\n      dup1\n      dup4\n      sub\n      dup2\n      0x00\n      dup8\n      gas\n      call\n      swap3\n      pop\n      pop\n      pop\n      dup1\n      iszero\n      tag_238\n      jumpi\n      pop\n      mload(0x40)\n      returndatasize\n      not(0x1f)\n      0x1f\n      dup3\n      add\n      and\n      dup3\n      add\n      dup1\n      0x40\n      mstore\n      pop\n      dup2\n      add\n      swap1\n      tag_239\n      swap2\n      swap1\n      tag_240\n      jump\t// in\n    tag_239:\n      0x01\n    tag_238:\n        /* \"@openzeppelin/contracts@5.0.0/token/ERC721/ERC721.sol\":17068:17684  try IERC721Receiver(to).onERC721Received(_msgSender(), from, tokenId, data) returns (bytes4 retval) {... */\n      tag_241\n      jumpi\n      returndatasize\n      dup1\n      0x00\n      dup2\n      eq\n      tag_246\n      jumpi\n      mload(0x40)\n      swap2\n      pop\n      and(add(returndatasize, 0x3f), not(0x1f))\n      dup3\n      add\n      0x40\n      mstore\n      returndatasize\n      dup3\n      mstore\n      returndatasize\n      0x00\n      0x20\n      dup5\n      add\n      returndatacopy\n      jump(tag_245)\n    tag_246:\n      0x60\n      swap2\n      pop\n    tag_245:\n      pop\n        /* \"@openzeppelin/contracts@5.0.0/token/ERC721/ERC721.sol\":17398:17399  0 */\n      0x00\n        /* \"@openzeppelin/contracts@5.0.0/token/ERC721/ERC721.sol\":17381:17387  reason */\n      dup2\n        /* \"@openzeppelin/contracts@5.0.0/token/ERC721/ERC721.sol\":17381:17394  reason.length */\n      mload\n        /* \"@openzeppelin/contracts@5.0.0/token/ERC721/ERC721.sol\":17381:17399  reason.length == 0 */\n      sub\n        /* \"@openzeppelin/contracts@5.0.0/token/ERC721/ERC721.sol\":17377:17670  if (reason.length == 0) {... */\n      tag_247\n      jumpi\n        /* \"@openzeppelin/contracts@5.0.0/token/ERC721/ERC721.sol\":17452:17454  to */\n      dup4\n        /* \"@openzeppelin/contracts@5.0.0/token/ERC721/ERC721.sol\":17430:17455  ERC721InvalidReceiver(to) */\n      mload(0x40)\n      0x64a0ae9200000000000000000000000000000000000000000000000000000000\n      dup2\n      mstore\n      0x04\n      add\n      tag_248\n      swap2\n      swap1\n      tag_40\n      jump\t// in\n    tag_248:\n      mload(0x40)\n      dup1\n      swap2\n      sub\n      swap1\n      revert\n        /* \"@openzeppelin/contracts@5.0.0/token/ERC721/ERC721.sol\":17377:17670  if (reason.length == 0) {... */\n    tag_247:\n        /* \"@openzeppelin/contracts@5.0.0/token/ERC721/ERC721.sol\":17622:17628  reason */\n      dup1\n        /* \"@openzeppelin/contracts@5.0.0/token/ERC721/ERC721.sol\":17616:17629  mload(reason) */\n      mload\n        /* \"@openzeppelin/contracts@5.0.0/token/ERC721/ERC721.sol\":17607:17613  reason */\n      dup2\n        /* \"@openzeppelin/contracts@5.0.0/token/ERC721/ERC721.sol\":17603:17605  32 */\n      0x20\n        /* \"@openzeppelin/contracts@5.0.0/token/ERC721/ERC721.sol\":17599:17614  add(32, reason) */\n      add\n        /* \"@openzeppelin/contracts@5.0.0/token/ERC721/ERC721.sol\":17592:17630  revert(add(32, reason), mload(reason)) */\n      revert\n        /* \"@openzeppelin/contracts@5.0.0/token/ERC721/ERC721.sol\":17068:17684  try IERC721Receiver(to).onERC721Received(_msgSender(), from, tokenId, data) returns (bytes4 retval) {... */\n    tag_241:\n        /* \"@openzeppelin/contracts@5.0.0/token/ERC721/ERC721.sol\":17200:17241  IERC721Receiver.onERC721Received.selector */\n      shl(0xe0, 0x150b7a02)\n        /* \"@openzeppelin/contracts@5.0.0/token/ERC721/ERC721.sol\":17190:17241  retval != IERC721Receiver.onERC721Received.selector */\n      not(0xffffffffffffffffffffffffffffffffffffffffffffffffffffffff)\n      and\n        /* \"@openzeppelin/contracts@5.0.0/token/ERC721/ERC721.sol\":17190:17196  retval */\n      dup2\n        /* \"@openzeppelin/contracts@5.0.0/token/ERC721/ERC721.sol\":17190:17241  retval != IERC721Receiver.onERC721Received.selector */\n      not(0xffffffffffffffffffffffffffffffffffffffffffffffffffffffff)\n      and\n      eq\n        /* \"@openzeppelin/contracts@5.0.0/token/ERC721/ERC721.sol\":17186:17316  if (retval != IERC721Receiver.onERC721Received.selector) {... */\n      tag_251\n      jumpi\n        /* \"@openzeppelin/contracts@5.0.0/token/ERC721/ERC721.sol\":17294:17296  to */\n      dup4\n        /* \"@openzeppelin/contracts@5.0.0/token/ERC721/ERC721.sol\":17272:17297  ERC721InvalidReceiver(to) */\n      mload(0x40)\n      0x64a0ae9200000000000000000000000000000000000000000000000000000000\n      dup2\n      mstore\n      0x04\n      add\n      tag_252\n      swap2\n      swap1\n      tag_40\n      jump\t// in\n    tag_252:\n      mload(0x40)\n      dup1\n      swap2\n      sub\n      swap1\n      revert\n        /* \"@openzeppelin/contracts@5.0.0/token/ERC721/ERC721.sol\":17186:17316  if (retval != IERC721Receiver.onERC721Received.selector) {... */\n    tag_251:\n        /* \"@openzeppelin/contracts@5.0.0/token/ERC721/ERC721.sol\":17144:17330  returns (bytes4 retval) {... */\n      pop\n        /* \"@openzeppelin/contracts@5.0.0/token/ERC721/ERC721.sol\":17030:17694  if (to.code.length > 0) {... */\n    tag_234:\n        /* \"@openzeppelin/contracts@5.0.0/token/ERC721/ERC721.sol\":16918:17700  function _checkOnERC721Received(address from, address to, uint256 tokenId, bytes memory data) private {... */\n      pop\n      pop\n      pop\n      pop\n      jump\t// out\n        /* \"@openzeppelin/contracts@5.0.0/token/ERC721/ERC721.sol\":3174:3266  function _baseURI() internal view virtual returns (string memory) {... */\n    tag_177:\n        /* \"@openzeppelin/contracts@5.0.0/token/ERC721/ERC721.sol\":3225:3238  string memory */\n      0x60\n        /* \"@openzeppelin/contracts@5.0.0/token/ERC721/ERC721.sol\":3250:3259  return \"\" */\n      mload(0x40)\n      dup1\n      0x20\n      add\n      0x40\n      mstore\n      dup1\n      0x00\n      dup2\n      mstore\n      pop\n      swap1\n      pop\n        /* \"@openzeppelin/contracts@5.0.0/token/ERC721/ERC721.sol\":3174:3266  function _baseURI() internal view virtual returns (string memory) {... */\n      swap1\n      jump\t// out\n        /* \"@openzeppelin/contracts@5.0.0/utils/Strings.sol\":637:1335  function toString(uint256 value) internal pure returns (string memory) {... */\n    tag_181:\n        /* \"@openzeppelin/contracts@5.0.0/utils/Strings.sol\":693:706  string memory */\n      0x60\n        /* \"@openzeppelin/contracts@5.0.0/utils/Strings.sol\":742:756  uint256 length */\n      0x00\n        /* \"@openzeppelin/contracts@5.0.0/utils/Strings.sol\":779:780  1 */\n      0x01\n        /* \"@openzeppelin/contracts@5.0.0/utils/Strings.sol\":759:776  Math.log10(value) */\n      tag_255\n        /* \"@openzeppelin/contracts@5.0.0/utils/Strings.sol\":770:775  value */\n      dup5\n        /* \"@openzeppelin/contracts@5.0.0/utils/Strings.sol\":759:769  Math.log10 */\n      tag_256\n        /* \"@openzeppelin/contracts@5.0.0/utils/Strings.sol\":759:776  Math.log10(value) */\n      jump\t// in\n    tag_255:\n        /* \"@openzeppelin/contracts@5.0.0/utils/Strings.sol\":759:780  Math.log10(value) + 1 */\n      add\n        /* \"@openzeppelin/contracts@5.0.0/utils/Strings.sol\":742:780  uint256 length = Math.log10(value) + 1 */\n      swap1\n      pop\n        /* \"@openzeppelin/contracts@5.0.0/utils/Strings.sol\":794:814  string memory buffer */\n      0x00\n        /* \"@openzeppelin/contracts@5.0.0/utils/Strings.sol\":828:834  length */\n      dup2\n        /* \"@openzeppelin/contracts@5.0.0/utils/Strings.sol\":817:835  new string(length) */\n      0xffffffffffffffff\n      dup2\n      gt\n      iszero\n      tag_257\n      jumpi\n      tag_258\n      tag_259\n      jump\t// in\n    tag_258:\n    tag_257:\n      mload(0x40)\n      swap1\n      dup1\n      dup3\n      mstore\n      dup1\n      0x1f\n      add\n      not(0x1f)\n      and\n      0x20\n      add\n      dup3\n      add\n      0x40\n      mstore\n      dup1\n      iszero\n      tag_260\n      jumpi\n      dup2\n      0x20\n      add\n      0x01\n      dup3\n      mul\n      dup1\n      calldatasize\n      dup4\n      calldatacopy\n      dup1\n      dup3\n      add\n      swap2\n      pop\n      pop\n      swap1\n      pop\n    tag_260:\n      pop\n        /* \"@openzeppelin/contracts@5.0.0/utils/Strings.sol\":794:835  string memory buffer = new string(length) */\n      swap1\n      pop\n        /* \"@openzeppelin/contracts@5.0.0/utils/Strings.sol\":849:860  uint256 ptr */\n      0x00\n        /* \"@openzeppelin/contracts@5.0.0/utils/Strings.sol\":975:981  length */\n      dup3\n        /* \"@openzeppelin/contracts@5.0.0/utils/Strings.sol\":971:973  32 */\n      0x20\n        /* \"@openzeppelin/contracts@5.0.0/utils/Strings.sol\":967:982  add(32, length) */\n      add\n        /* \"@openzeppelin/contracts@5.0.0/utils/Strings.sol\":959:965  buffer */\n      dup3\n        /* \"@openzeppelin/contracts@5.0.0/utils/Strings.sol\":955:983  add(buffer, add(32, length)) */\n      add\n        /* \"@openzeppelin/contracts@5.0.0/utils/Strings.sol\":948:983  ptr := add(buffer, add(32, length)) */\n      swap1\n      pop\n        /* \"@openzeppelin/contracts@5.0.0/utils/Strings.sol\":1010:1292  while (true) {... */\n    tag_261:\n        /* \"@openzeppelin/contracts@5.0.0/utils/Strings.sol\":1017:1021  true */\n      0x01\n        /* \"@openzeppelin/contracts@5.0.0/utils/Strings.sol\":1010:1292  while (true) {... */\n      iszero\n      tag_262\n      jumpi\n        /* \"@openzeppelin/contracts@5.0.0/utils/Strings.sol\":1041:1046  ptr-- */\n      dup1\n      dup1\n      0x01\n      swap1\n      sub\n      swap2\n      pop\n      pop\n        /* \"@openzeppelin/contracts@5.0.0/utils/Strings.sol\":1180:1190  HEX_DIGITS */\n      0x3031323334353637383961626364656600000000000000000000000000000000\n        /* \"@openzeppelin/contracts@5.0.0/utils/Strings.sol\":1175:1177  10 */\n      0x0a\n        /* \"@openzeppelin/contracts@5.0.0/utils/Strings.sol\":1168:1173  value */\n      dup7\n        /* \"@openzeppelin/contracts@5.0.0/utils/Strings.sol\":1164:1178  mod(value, 10) */\n      mod\n        /* \"@openzeppelin/contracts@5.0.0/utils/Strings.sol\":1159:1191  byte(mod(value, 10), HEX_DIGITS) */\n      byte\n        /* \"@openzeppelin/contracts@5.0.0/utils/Strings.sol\":1154:1157  ptr */\n      dup2\n        /* \"@openzeppelin/contracts@5.0.0/utils/Strings.sol\":1146:1192  mstore8(ptr, byte(mod(value, 10), HEX_DIGITS)) */\n      mstore8\n        /* \"@openzeppelin/contracts@5.0.0/utils/Strings.sol\":1236:1238  10 */\n      0x0a\n        /* \"@openzeppelin/contracts@5.0.0/utils/Strings.sol\":1227:1238  value /= 10 */\n      dup6\n      dup2\n      tag_263\n      jumpi\n      tag_264\n      tag_265\n      jump\t// in\n    tag_264:\n    tag_263:\n      div\n      swap5\n      pop\n        /* \"@openzeppelin/contracts@5.0.0/utils/Strings.sol\":1269:1270  0 */\n      0x00\n        /* \"@openzeppelin/contracts@5.0.0/utils/Strings.sol\":1260:1265  value */\n      dup6\n        /* \"@openzeppelin/contracts@5.0.0/utils/Strings.sol\":1260:1270  value == 0 */\n      sub\n        /* \"@openzeppelin/contracts@5.0.0/utils/Strings.sol\":1010:1292  while (true) {... */\n      tag_261\n        /* \"@openzeppelin/contracts@5.0.0/utils/Strings.sol\":1256:1277  if (value == 0) break */\n      jumpi\n        /* \"@openzeppelin/contracts@5.0.0/utils/Strings.sol\":1010:1292  while (true) {... */\n    tag_262:\n        /* \"@openzeppelin/contracts@5.0.0/utils/Strings.sol\":1312:1318  buffer */\n      dup2\n        /* \"@openzeppelin/contracts@5.0.0/utils/Strings.sol\":1305:1318  return buffer */\n      swap4\n      pop\n      pop\n      pop\n      pop\n        /* \"@openzeppelin/contracts@5.0.0/utils/Strings.sol\":637:1335  function toString(uint256 value) internal pure returns (string memory) {... */\n      swap2\n      swap1\n      pop\n      jump\t// out\n        /* \"@openzeppelin/contracts@5.0.0/token/ERC721/ERC721.sol\":5707:5822  function _ownerOf(uint256 tokenId) internal view virtual returns (address) {... */\n    tag_203:\n        /* \"@openzeppelin/contracts@5.0.0/token/ERC721/ERC721.sol\":5773:5780  address */\n      0x00\n        /* \"@openzeppelin/contracts@5.0.0/token/ERC721/ERC721.sol\":5799:5806  _owners */\n      0x02\n        /* \"@openzeppelin/contracts@5.0.0/token/ERC721/ERC721.sol\":5799:5815  _owners[tokenId] */\n      0x00\n        /* \"@openzeppelin/contracts@5.0.0/token/ERC721/ERC721.sol\":5807:5814  tokenId */\n      dup4\n        /* \"@openzeppelin/contracts@5.0.0/token/ERC721/ERC721.sol\":5799:5815  _owners[tokenId] */\n      dup2\n      mstore\n      0x20\n      add\n      swap1\n      dup2\n      mstore\n      0x20\n      add\n      0x00\n      keccak256\n      0x00\n      swap1\n      sload\n      swap1\n      0x0100\n      exp\n      swap1\n      div\n      0xffffffffffffffffffffffffffffffffffffffff\n      and\n        /* \"@openzeppelin/contracts@5.0.0/token/ERC721/ERC721.sol\":5792:5815  return _owners[tokenId] */\n      swap1\n      pop\n        /* \"@openzeppelin/contracts@5.0.0/token/ERC721/ERC721.sol\":5707:5822  function _ownerOf(uint256 tokenId) internal view virtual returns (address) {... */\n      swap2\n      swap1\n      pop\n      jump\t// out\n        /* \"@openzeppelin/contracts@5.0.0/token/ERC721/ERC721.sol\":14720:15382  function _approve(address to, uint256 tokenId, address auth, bool emitEvent) internal virtual {... */\n    tag_210:\n        /* \"@openzeppelin/contracts@5.0.0/token/ERC721/ERC721.sol\":14880:14889  emitEvent */\n      dup1\n        /* \"@openzeppelin/contracts@5.0.0/token/ERC721/ERC721.sol\":14880:14911  emitEvent || auth != address(0) */\n      dup1\n      tag_269\n      jumpi\n      pop\n        /* \"@openzeppelin/contracts@5.0.0/token/ERC721/ERC721.sol\":14909:14910  0 */\n      0x00\n        /* \"@openzeppelin/contracts@5.0.0/token/ERC721/ERC721.sol\":14893:14911  auth != address(0) */\n      0xffffffffffffffffffffffffffffffffffffffff\n      and\n        /* \"@openzeppelin/contracts@5.0.0/token/ERC721/ERC721.sol\":14893:14897  auth */\n      dup3\n        /* \"@openzeppelin/contracts@5.0.0/token/ERC721/ERC721.sol\":14893:14911  auth != address(0) */\n      0xffffffffffffffffffffffffffffffffffffffff\n      and\n      eq\n      iszero\n        /* \"@openzeppelin/contracts@5.0.0/token/ERC721/ERC721.sol\":14880:14911  emitEvent || auth != address(0) */\n    tag_269:\n        /* \"@openzeppelin/contracts@5.0.0/token/ERC721/ERC721.sol\":14876:15336  if (emitEvent || auth != address(0)) {... */\n      iszero\n      tag_270\n      jumpi\n        /* \"@openzeppelin/contracts@5.0.0/token/ERC721/ERC721.sol\":14927:14940  address owner */\n      0x00\n        /* \"@openzeppelin/contracts@5.0.0/token/ERC721/ERC721.sol\":14943:14965  _requireOwned(tokenId) */\n      tag_271\n        /* \"@openzeppelin/contracts@5.0.0/token/ERC721/ERC721.sol\":14957:14964  tokenId */\n      dup5\n        /* \"@openzeppelin/contracts@5.0.0/token/ERC721/ERC721.sol\":14943:14956  _requireOwned */\n      tag_117\n        /* \"@openzeppelin/contracts@5.0.0/token/ERC721/ERC721.sol\":14943:14965  _requireOwned(tokenId) */\n      jump\t// in\n    tag_271:\n        /* \"@openzeppelin/contracts@5.0.0/token/ERC721/ERC721.sol\":14927:14965  address owner = _requireOwned(tokenId) */\n      swap1\n      pop\n        /* \"@openzeppelin/contracts@5.0.0/token/ERC721/ERC721.sol\":15109:15110  0 */\n      0x00\n        /* \"@openzeppelin/contracts@5.0.0/token/ERC721/ERC721.sol\":15093:15111  auth != address(0) */\n      0xffffffffffffffffffffffffffffffffffffffff\n      and\n        /* \"@openzeppelin/contracts@5.0.0/token/ERC721/ERC721.sol\":15093:15097  auth */\n      dup4\n        /* \"@openzeppelin/contracts@5.0.0/token/ERC721/ERC721.sol\":15093:15111  auth != address(0) */\n      0xffffffffffffffffffffffffffffffffffffffff\n      and\n      eq\n      iszero\n        /* \"@openzeppelin/contracts@5.0.0/token/ERC721/ERC721.sol\":15093:15128  auth != address(0) && owner != auth */\n      dup1\n      iszero\n      tag_272\n      jumpi\n      pop\n        /* \"@openzeppelin/contracts@5.0.0/token/ERC721/ERC721.sol\":15124:15128  auth */\n      dup3\n        /* \"@openzeppelin/contracts@5.0.0/token/ERC721/ERC721.sol\":15115:15128  owner != auth */\n      0xffffffffffffffffffffffffffffffffffffffff\n      and\n        /* \"@openzeppelin/contracts@5.0.0/token/ERC721/ERC721.sol\":15115:15120  owner */\n      dup2\n        /* \"@openzeppelin/contracts@5.0.0/token/ERC721/ERC721.sol\":15115:15128  owner != auth */\n      0xffffffffffffffffffffffffffffffffffffffff\n      and\n      eq\n      iszero\n        /* \"@openzeppelin/contracts@5.0.0/token/ERC721/ERC721.sol\":15093:15128  auth != address(0) && owner != auth */\n    tag_272:\n        /* \"@openzeppelin/contracts@5.0.0/token/ERC721/ERC721.sol\":15093:15162  auth != address(0) && owner != auth && !isApprovedForAll(owner, auth) */\n      dup1\n      iszero\n      tag_273\n      jumpi\n      pop\n        /* \"@openzeppelin/contracts@5.0.0/token/ERC721/ERC721.sol\":15133:15162  isApprovedForAll(owner, auth) */\n      tag_274\n        /* \"@openzeppelin/contracts@5.0.0/token/ERC721/ERC721.sol\":15150:15155  owner */\n      dup2\n        /* \"@openzeppelin/contracts@5.0.0/token/ERC721/ERC721.sol\":15157:15161  auth */\n      dup5\n        /* \"@openzeppelin/contracts@5.0.0/token/ERC721/ERC721.sol\":15133:15149  isApprovedForAll */\n      tag_98\n        /* \"@openzeppelin/contracts@5.0.0/token/ERC721/ERC721.sol\":15133:15162  isApprovedForAll(owner, auth) */\n      jump\t// in\n    tag_274:\n        /* \"@openzeppelin/contracts@5.0.0/token/ERC721/ERC721.sol\":15132:15162  !isApprovedForAll(owner, auth) */\n      iszero\n        /* \"@openzeppelin/contracts@5.0.0/token/ERC721/ERC721.sol\":15093:15162  auth != address(0) && owner != auth && !isApprovedForAll(owner, auth) */\n    tag_273:\n        /* \"@openzeppelin/contracts@5.0.0/token/ERC721/ERC721.sol\":15089:15231  if (auth != address(0) && owner != auth && !isApprovedForAll(owner, auth)) {... */\n      iszero\n      tag_275\n      jumpi\n        /* \"@openzeppelin/contracts@5.0.0/token/ERC721/ERC721.sol\":15211:15215  auth */\n      dup3\n        /* \"@openzeppelin/contracts@5.0.0/token/ERC721/ERC721.sol\":15189:15216  ERC721InvalidApprover(auth) */\n      mload(0x40)\n      0xa9fbf51f00000000000000000000000000000000000000000000000000000000\n      dup2\n      mstore\n      0x04\n      add\n      tag_276\n      swap2\n      swap1\n      tag_40\n      jump\t// in\n    tag_276:\n      mload(0x40)\n      dup1\n      swap2\n      sub\n      swap1\n      revert\n        /* \"@openzeppelin/contracts@5.0.0/token/ERC721/ERC721.sol\":15089:15231  if (auth != address(0) && owner != auth && !isApprovedForAll(owner, auth)) {... */\n    tag_275:\n        /* \"@openzeppelin/contracts@5.0.0/token/ERC721/ERC721.sol\":15249:15258  emitEvent */\n      dup2\n        /* \"@openzeppelin/contracts@5.0.0/token/ERC721/ERC721.sol\":15245:15326  if (emitEvent) {... */\n      iszero\n      tag_277\n      jumpi\n        /* \"@openzeppelin/contracts@5.0.0/token/ERC721/ERC721.sol\":15303:15310  tokenId */\n      dup4\n        /* \"@openzeppelin/contracts@5.0.0/token/ERC721/ERC721.sol\":15299:15301  to */\n      dup6\n        /* \"@openzeppelin/contracts@5.0.0/token/ERC721/ERC721.sol\":15283:15311  Approval(owner, to, tokenId) */\n      0xffffffffffffffffffffffffffffffffffffffff\n      and\n        /* \"@openzeppelin/contracts@5.0.0/token/ERC721/ERC721.sol\":15292:15297  owner */\n      dup3\n        /* \"@openzeppelin/contracts@5.0.0/token/ERC721/ERC721.sol\":15283:15311  Approval(owner, to, tokenId) */\n      0xffffffffffffffffffffffffffffffffffffffff\n      and\n      0x8c5be1e5ebec7d5bd14f71427d1e84f3dd0314c0f7b2291e5b200ac8c7c3b925\n      mload(0x40)\n      mload(0x40)\n      dup1\n      swap2\n      sub\n      swap1\n      log4\n        /* \"@openzeppelin/contracts@5.0.0/token/ERC721/ERC721.sol\":15245:15326  if (emitEvent) {... */\n    tag_277:\n        /* \"@openzeppelin/contracts@5.0.0/token/ERC721/ERC721.sol\":14913:15336  {... */\n      pop\n        /* \"@openzeppelin/contracts@5.0.0/token/ERC721/ERC721.sol\":14876:15336  if (emitEvent || auth != address(0)) {... */\n    tag_270:\n        /* \"@openzeppelin/contracts@5.0.0/token/ERC721/ERC721.sol\":15373:15375  to */\n      dup4\n        /* \"@openzeppelin/contracts@5.0.0/token/ERC721/ERC721.sol\":15346:15361  _tokenApprovals */\n      0x04\n        /* \"@openzeppelin/contracts@5.0.0/token/ERC721/ERC721.sol\":15346:15370  _tokenApprovals[tokenId] */\n      0x00\n        /* \"@openzeppelin/contracts@5.0.0/token/ERC721/ERC721.sol\":15362:15369  tokenId */\n      dup6\n        /* \"@openzeppelin/contracts@5.0.0/token/ERC721/ERC721.sol\":15346:15370  _tokenApprovals[tokenId] */\n      dup2\n      mstore\n      0x20\n      add\n      swap1\n      dup2\n      mstore\n      0x20\n      add\n      0x00\n      keccak256\n      0x00\n        /* \"@openzeppelin/contracts@5.0.0/token/ERC721/ERC721.sol\":15346:15375  _tokenApprovals[tokenId] = to */\n      0x0100\n      exp\n      dup2\n      sload\n      dup2\n      0xffffffffffffffffffffffffffffffffffffffff\n      mul\n      not\n      and\n      swap1\n      dup4\n      0xffffffffffffffffffffffffffffffffffffffff\n      and\n      mul\n      or\n      swap1\n      sstore\n      pop\n        /* \"@openzeppelin/contracts@5.0.0/token/ERC721/ERC721.sol\":14720:15382  function _approve(address to, uint256 tokenId, address auth, bool emitEvent) internal virtual {... */\n      pop\n      pop\n      pop\n      pop\n      jump\t// out\n        /* \"@openzeppelin/contracts@5.0.0/token/ERC721/ERC721.sol\":7082:7450  function _checkAuthorized(address owner, address spender, uint256 tokenId) internal view virtual {... */\n    tag_215:\n        /* \"@openzeppelin/contracts@5.0.0/token/ERC721/ERC721.sol\":7194:7232  _isAuthorized(owner, spender, tokenId) */\n      tag_279\n        /* \"@openzeppelin/contracts@5.0.0/token/ERC721/ERC721.sol\":7208:7213  owner */\n      dup4\n        /* \"@openzeppelin/contracts@5.0.0/token/ERC721/ERC721.sol\":7215:7222  spender */\n      dup4\n        /* \"@openzeppelin/contracts@5.0.0/token/ERC721/ERC721.sol\":7224:7231  tokenId */\n      dup4\n        /* \"@openzeppelin/contracts@5.0.0/token/ERC721/ERC721.sol\":7194:7207  _isAuthorized */\n      tag_280\n        /* \"@openzeppelin/contracts@5.0.0/token/ERC721/ERC721.sol\":7194:7232  _isAuthorized(owner, spender, tokenId) */\n      jump\t// in\n    tag_279:\n        /* \"@openzeppelin/contracts@5.0.0/token/ERC721/ERC721.sol\":7189:7444  if (!_isAuthorized(owner, spender, tokenId)) {... */\n      tag_281\n      jumpi\n        /* \"@openzeppelin/contracts@5.0.0/token/ERC721/ERC721.sol\":7269:7270  0 */\n      0x00\n        /* \"@openzeppelin/contracts@5.0.0/token/ERC721/ERC721.sol\":7252:7271  owner == address(0) */\n      0xffffffffffffffffffffffffffffffffffffffff\n      and\n        /* \"@openzeppelin/contracts@5.0.0/token/ERC721/ERC721.sol\":7252:7257  owner */\n      dup4\n        /* \"@openzeppelin/contracts@5.0.0/token/ERC721/ERC721.sol\":7252:7271  owner == address(0) */\n      0xffffffffffffffffffffffffffffffffffffffff\n      and\n      sub\n        /* \"@openzeppelin/contracts@5.0.0/token/ERC721/ERC721.sol\":7248:7434  if (owner == address(0)) {... */\n      tag_282\n      jumpi\n        /* \"@openzeppelin/contracts@5.0.0/token/ERC721/ERC721.sol\":7321:7328  tokenId */\n      dup1\n        /* \"@openzeppelin/contracts@5.0.0/token/ERC721/ERC721.sol\":7298:7329  ERC721NonexistentToken(tokenId) */\n      mload(0x40)\n      0x7e27328900000000000000000000000000000000000000000000000000000000\n      dup2\n      mstore\n      0x04\n      add\n      tag_283\n      swap2\n      swap1\n      tag_65\n      jump\t// in\n    tag_283:\n      mload(0x40)\n      dup1\n      swap2\n      sub\n      swap1\n      revert\n        /* \"@openzeppelin/contracts@5.0.0/token/ERC721/ERC721.sol\":7248:7434  if (owner == address(0)) {... */\n    tag_282:\n        /* \"@openzeppelin/contracts@5.0.0/token/ERC721/ERC721.sol\":7402:7409  spender */\n      dup2\n        /* \"@openzeppelin/contracts@5.0.0/token/ERC721/ERC721.sol\":7411:7418  tokenId */\n      dup2\n        /* \"@openzeppelin/contracts@5.0.0/token/ERC721/ERC721.sol\":7375:7419  ERC721InsufficientApproval(spender, tokenId) */\n      mload(0x40)\n      0x177e802f00000000000000000000000000000000000000000000000000000000\n      dup2\n      mstore\n      0x04\n      add\n      tag_285\n      swap3\n      swap2\n      swap1\n      tag_286\n      jump\t// in\n    tag_285:\n      mload(0x40)\n      dup1\n      swap2\n      sub\n      swap1\n      revert\n        /* \"@openzeppelin/contracts@5.0.0/token/ERC721/ERC721.sol\":7189:7444  if (!_isAuthorized(owner, spender, tokenId)) {... */\n    tag_281:\n        /* \"@openzeppelin/contracts@5.0.0/token/ERC721/ERC721.sol\":7082:7450  function _checkAuthorized(address owner, address spender, uint256 tokenId) internal view virtual {... */\n      pop\n      pop\n      pop\n      jump\t// out\n        /* \"@openzeppelin/contracts@5.0.0/token/ERC721/ERC721.sol\":10954:11136  function _safeMint(address to, uint256 tokenId, bytes memory data) internal virtual {... */\n    tag_227:\n        /* \"@openzeppelin/contracts@5.0.0/token/ERC721/ERC721.sol\":11048:11066  _mint(to, tokenId) */\n      tag_288\n        /* \"@openzeppelin/contracts@5.0.0/token/ERC721/ERC721.sol\":11054:11056  to */\n      dup4\n        /* \"@openzeppelin/contracts@5.0.0/token/ERC721/ERC721.sol\":11058:11065  tokenId */\n      dup4\n        /* \"@openzeppelin/contracts@5.0.0/token/ERC721/ERC721.sol\":11048:11053  _mint */\n      tag_289\n        /* \"@openzeppelin/contracts@5.0.0/token/ERC721/ERC721.sol\":11048:11066  _mint(to, tokenId) */\n      jump\t// in\n    tag_288:\n        /* \"@openzeppelin/contracts@5.0.0/token/ERC721/ERC721.sol\":11076:11129  _checkOnERC721Received(address(0), to, tokenId, data) */\n      tag_290\n        /* \"@openzeppelin/contracts@5.0.0/token/ERC721/ERC721.sol\":11107:11108  0 */\n      0x00\n        /* \"@openzeppelin/contracts@5.0.0/token/ERC721/ERC721.sol\":11111:11113  to */\n      dup5\n        /* \"@openzeppelin/contracts@5.0.0/token/ERC721/ERC721.sol\":11115:11122  tokenId */\n      dup5\n        /* \"@openzeppelin/contracts@5.0.0/token/ERC721/ERC721.sol\":11124:11128  data */\n      dup5\n        /* \"@openzeppelin/contracts@5.0.0/token/ERC721/ERC721.sol\":11076:11098  _checkOnERC721Received */\n      tag_173\n        /* \"@openzeppelin/contracts@5.0.0/token/ERC721/ERC721.sol\":11076:11129  _checkOnERC721Received(address(0), to, tokenId, data) */\n      jump\t// in\n    tag_290:\n        /* \"@openzeppelin/contracts@5.0.0/token/ERC721/ERC721.sol\":10954:11136  function _safeMint(address to, uint256 tokenId, bytes memory data) internal virtual {... */\n      pop\n      pop\n      pop\n      jump\t// out\n        /* \"@openzeppelin/contracts@5.0.0/utils/math/Math.sol\":12214:13130  function log10(uint256 value) internal pure returns (uint256) {... */\n    tag_256:\n        /* \"@openzeppelin/contracts@5.0.0/utils/math/Math.sol\":12267:12274  uint256 */\n      0x00\n        /* \"@openzeppelin/contracts@5.0.0/utils/math/Math.sol\":12286:12300  uint256 result */\n      dup1\n        /* \"@openzeppelin/contracts@5.0.0/utils/math/Math.sol\":12303:12304  0 */\n      0x00\n        /* \"@openzeppelin/contracts@5.0.0/utils/math/Math.sol\":12286:12304  uint256 result = 0 */\n      swap1\n      pop\n        /* \"@openzeppelin/contracts@5.0.0/utils/math/Math.sol\":12351:12359  10 ** 64 */\n      0x184f03e93ff9f4daa797ed6e38ed64bf6a1f010000000000000000\n        /* \"@openzeppelin/contracts@5.0.0/utils/math/Math.sol\":12342:12347  value */\n      dup4\n        /* \"@openzeppelin/contracts@5.0.0/utils/math/Math.sol\":12342:12359  value >= 10 ** 64 */\n      lt\n        /* \"@openzeppelin/contracts@5.0.0/utils/math/Math.sol\":12338:12441  if (value >= 10 ** 64) {... */\n      tag_292\n      jumpi\n        /* \"@openzeppelin/contracts@5.0.0/utils/math/Math.sol\":12388:12396  10 ** 64 */\n      0x184f03e93ff9f4daa797ed6e38ed64bf6a1f010000000000000000\n        /* \"@openzeppelin/contracts@5.0.0/utils/math/Math.sol\":12379:12396  value /= 10 ** 64 */\n      dup4\n      dup2\n      tag_293\n      jumpi\n      tag_294\n      tag_265\n      jump\t// in\n    tag_294:\n    tag_293:\n      div\n      swap3\n      pop\n        /* \"@openzeppelin/contracts@5.0.0/utils/math/Math.sol\":12424:12426  64 */\n      0x40\n        /* \"@openzeppelin/contracts@5.0.0/utils/math/Math.sol\":12414:12426  result += 64 */\n      dup2\n      add\n      swap1\n      pop\n        /* \"@openzeppelin/contracts@5.0.0/utils/math/Math.sol\":12338:12441  if (value >= 10 ** 64) {... */\n    tag_292:\n        /* \"@openzeppelin/contracts@5.0.0/utils/math/Math.sol\":12467:12475  10 ** 32 */\n      0x04ee2d6d415b85acef8100000000\n        /* \"@openzeppelin/contracts@5.0.0/utils/math/Math.sol\":12458:12463  value */\n      dup4\n        /* \"@openzeppelin/contracts@5.0.0/utils/math/Math.sol\":12458:12475  value >= 10 ** 32 */\n      lt\n        /* \"@openzeppelin/contracts@5.0.0/utils/math/Math.sol\":12454:12557  if (value >= 10 ** 32) {... */\n      tag_295\n      jumpi\n        /* \"@openzeppelin/contracts@5.0.0/utils/math/Math.sol\":12504:12512  10 ** 32 */\n      0x04ee2d6d415b85acef8100000000\n        /* \"@openzeppelin/contracts@5.0.0/utils/math/Math.sol\":12495:12512  value /= 10 ** 32 */\n      dup4\n      dup2\n      tag_296\n      jumpi\n      tag_297\n      tag_265\n      jump\t// in\n    tag_297:\n    tag_296:\n      div\n      swap3\n      pop\n        /* \"@openzeppelin/contracts@5.0.0/utils/math/Math.sol\":12540:12542  32 */\n      0x20\n        /* \"@openzeppelin/contracts@5.0.0/utils/math/Math.sol\":12530:12542  result += 32 */\n      dup2\n      add\n      swap1\n      pop\n        /* \"@openzeppelin/contracts@5.0.0/utils/math/Math.sol\":12454:12557  if (value >= 10 ** 32) {... */\n    tag_295:\n        /* \"@openzeppelin/contracts@5.0.0/utils/math/Math.sol\":12583:12591  10 ** 16 */\n      0x2386f26fc10000\n        /* \"@openzeppelin/contracts@5.0.0/utils/math/Math.sol\":12574:12579  value */\n      dup4\n        /* \"@openzeppelin/contracts@5.0.0/utils/math/Math.sol\":12574:12591  value >= 10 ** 16 */\n      lt\n        /* \"@openzeppelin/contracts@5.0.0/utils/math/Math.sol\":12570:12673  if (value >= 10 ** 16) {... */\n      tag_298\n      jumpi\n        /* \"@openzeppelin/contracts@5.0.0/utils/math/Math.sol\":12620:12628  10 ** 16 */\n      0x2386f26fc10000\n        /* \"@openzeppelin/contracts@5.0.0/utils/math/Math.sol\":12611:12628  value /= 10 ** 16 */\n      dup4\n      dup2\n      tag_299\n      jumpi\n      tag_300\n      tag_265\n      jump\t// in\n    tag_300:\n    tag_299:\n      div\n      swap3\n      pop\n        /* \"@openzeppelin/contracts@5.0.0/utils/math/Math.sol\":12656:12658  16 */\n      0x10\n        /* \"@openzeppelin/contracts@5.0.0/utils/math/Math.sol\":12646:12658  result += 16 */\n      dup2\n      add\n      swap1\n      pop\n        /* \"@openzeppelin/contracts@5.0.0/utils/math/Math.sol\":12570:12673  if (value >= 10 ** 16) {... */\n    tag_298:\n        /* \"@openzeppelin/contracts@5.0.0/utils/math/Math.sol\":12699:12706  10 ** 8 */\n      0x05f5e100\n        /* \"@openzeppelin/contracts@5.0.0/utils/math/Math.sol\":12690:12695  value */\n      dup4\n        /* \"@openzeppelin/contracts@5.0.0/utils/math/Math.sol\":12690:12706  value >= 10 ** 8 */\n      lt\n        /* \"@openzeppelin/contracts@5.0.0/utils/math/Math.sol\":12686:12786  if (value >= 10 ** 8) {... */\n      tag_301\n      jumpi\n        /* \"@openzeppelin/contracts@5.0.0/utils/math/Math.sol\":12735:12742  10 ** 8 */\n      0x05f5e100\n        /* \"@openzeppelin/contracts@5.0.0/utils/math/Math.sol\":12726:12742  value /= 10 ** 8 */\n      dup4\n      dup2\n      tag_302\n      jumpi\n      tag_303\n      tag_265\n      jump\t// in\n    tag_303:\n    tag_302:\n      div\n      swap3\n      pop\n        /* \"@openzeppelin/contracts@5.0.0/utils/math/Math.sol\":12770:12771  8 */\n      0x08\n        /* \"@openzeppelin/contracts@5.0.0/utils/math/Math.sol\":12760:12771  result += 8 */\n      dup2\n      add\n      swap1\n      pop\n        /* \"@openzeppelin/contracts@5.0.0/utils/math/Math.sol\":12686:12786  if (value >= 10 ** 8) {... */\n    tag_301:\n        /* \"@openzeppelin/contracts@5.0.0/utils/math/Math.sol\":12812:12819  10 ** 4 */\n      0x2710\n        /* \"@openzeppelin/contracts@5.0.0/utils/math/Math.sol\":12803:12808  value */\n      dup4\n        /* \"@openzeppelin/contracts@5.0.0/utils/math/Math.sol\":12803:12819  value >= 10 ** 4 */\n      lt\n        /* \"@openzeppelin/contracts@5.0.0/utils/math/Math.sol\":12799:12899  if (value >= 10 ** 4) {... */\n      tag_304\n      jumpi\n        /* \"@openzeppelin/contracts@5.0.0/utils/math/Math.sol\":12848:12855  10 ** 4 */\n      0x2710\n        /* \"@openzeppelin/contracts@5.0.0/utils/math/Math.sol\":12839:12855  value /= 10 ** 4 */\n      dup4\n      dup2\n      tag_305\n      jumpi\n      tag_306\n      tag_265\n      jump\t// in\n    tag_306:\n    tag_305:\n      div\n      swap3\n      pop\n        /* \"@openzeppelin/contracts@5.0.0/utils/math/Math.sol\":12883:12884  4 */\n      0x04\n        /* \"@openzeppelin/contracts@5.0.0/utils/math/Math.sol\":12873:12884  result += 4 */\n      dup2\n      add\n      swap1\n      pop\n        /* \"@openzeppelin/contracts@5.0.0/utils/math/Math.sol\":12799:12899  if (value >= 10 ** 4) {... */\n    tag_304:\n        /* \"@openzeppelin/contracts@5.0.0/utils/math/Math.sol\":12925:12932  10 ** 2 */\n      0x64\n        /* \"@openzeppelin/contracts@5.0.0/utils/math/Math.sol\":12916:12921  value */\n      dup4\n        /* \"@openzeppelin/contracts@5.0.0/utils/math/Math.sol\":12916:12932  value >= 10 ** 2 */\n      lt\n        /* \"@openzeppelin/contracts@5.0.0/utils/math/Math.sol\":12912:13012  if (value >= 10 ** 2) {... */\n      tag_307\n      jumpi\n        /* \"@openzeppelin/contracts@5.0.0/utils/math/Math.sol\":12961:12968  10 ** 2 */\n      0x64\n        /* \"@openzeppelin/contracts@5.0.0/utils/math/Math.sol\":12952:12968  value /= 10 ** 2 */\n      dup4\n      dup2\n      tag_308\n      jumpi\n      tag_309\n      tag_265\n      jump\t// in\n    tag_309:\n    tag_308:\n      div\n      swap3\n      pop\n        /* \"@openzeppelin/contracts@5.0.0/utils/math/Math.sol\":12996:12997  2 */\n      0x02\n        /* \"@openzeppelin/contracts@5.0.0/utils/math/Math.sol\":12986:12997  result += 2 */\n      dup2\n      add\n      swap1\n      pop\n        /* \"@openzeppelin/contracts@5.0.0/utils/math/Math.sol\":12912:13012  if (value >= 10 ** 2) {... */\n    tag_307:\n        /* \"@openzeppelin/contracts@5.0.0/utils/math/Math.sol\":13038:13045  10 ** 1 */\n      0x0a\n        /* \"@openzeppelin/contracts@5.0.0/utils/math/Math.sol\":13029:13034  value */\n      dup4\n        /* \"@openzeppelin/contracts@5.0.0/utils/math/Math.sol\":13029:13045  value >= 10 ** 1 */\n      lt\n        /* \"@openzeppelin/contracts@5.0.0/utils/math/Math.sol\":13025:13091  if (value >= 10 ** 1) {... */\n      tag_310\n      jumpi\n        /* \"@openzeppelin/contracts@5.0.0/utils/math/Math.sol\":13075:13076  1 */\n      0x01\n        /* \"@openzeppelin/contracts@5.0.0/utils/math/Math.sol\":13065:13076  result += 1 */\n      dup2\n      add\n      swap1\n      pop\n        /* \"@openzeppelin/contracts@5.0.0/utils/math/Math.sol\":13025:13091  if (value >= 10 ** 1) {... */\n    tag_310:\n        /* \"@openzeppelin/contracts@5.0.0/utils/math/Math.sol\":13117:13123  result */\n      dup1\n        /* \"@openzeppelin/contracts@5.0.0/utils/math/Math.sol\":13110:13123  return result */\n      swap2\n      pop\n      pop\n        /* \"@openzeppelin/contracts@5.0.0/utils/math/Math.sol\":12214:13130  function log10(uint256 value) internal pure returns (uint256) {... */\n      swap2\n      swap1\n      pop\n      jump\t// out\n        /* \"@openzeppelin/contracts@5.0.0/token/ERC721/ERC721.sol\":6376:6648  function _isAuthorized(address owner, address spender, uint256 tokenId) internal view virtual returns (bool) {... */\n    tag_280:\n        /* \"@openzeppelin/contracts@5.0.0/token/ERC721/ERC721.sol\":6479:6483  bool */\n      0x00\n        /* \"@openzeppelin/contracts@5.0.0/token/ERC721/ERC721.sol\":6533:6534  0 */\n      dup1\n        /* \"@openzeppelin/contracts@5.0.0/token/ERC721/ERC721.sol\":6514:6535  spender != address(0) */\n      0xffffffffffffffffffffffffffffffffffffffff\n      and\n        /* \"@openzeppelin/contracts@5.0.0/token/ERC721/ERC721.sol\":6514:6521  spender */\n      dup4\n        /* \"@openzeppelin/contracts@5.0.0/token/ERC721/ERC721.sol\":6514:6535  spender != address(0) */\n      0xffffffffffffffffffffffffffffffffffffffff\n      and\n      eq\n      iszero\n        /* \"@openzeppelin/contracts@5.0.0/token/ERC721/ERC721.sol\":6514:6641  spender != address(0) &&... */\n      dup1\n      iszero\n      tag_312\n      jumpi\n      pop\n        /* \"@openzeppelin/contracts@5.0.0/token/ERC721/ERC721.sol\":6561:6568  spender */\n      dup3\n        /* \"@openzeppelin/contracts@5.0.0/token/ERC721/ERC721.sol\":6552:6568  owner == spender */\n      0xffffffffffffffffffffffffffffffffffffffff\n      and\n        /* \"@openzeppelin/contracts@5.0.0/token/ERC721/ERC721.sol\":6552:6557  owner */\n      dup5\n        /* \"@openzeppelin/contracts@5.0.0/token/ERC721/ERC721.sol\":6552:6568  owner == spender */\n      0xffffffffffffffffffffffffffffffffffffffff\n      and\n      eq\n        /* \"@openzeppelin/contracts@5.0.0/token/ERC721/ERC721.sol\":6552:6604  owner == spender || isApprovedForAll(owner, spender) */\n      dup1\n      tag_313\n      jumpi\n      pop\n        /* \"@openzeppelin/contracts@5.0.0/token/ERC721/ERC721.sol\":6572:6604  isApprovedForAll(owner, spender) */\n      tag_314\n        /* \"@openzeppelin/contracts@5.0.0/token/ERC721/ERC721.sol\":6589:6594  owner */\n      dup5\n        /* \"@openzeppelin/contracts@5.0.0/token/ERC721/ERC721.sol\":6596:6603  spender */\n      dup5\n        /* \"@openzeppelin/contracts@5.0.0/token/ERC721/ERC721.sol\":6572:6588  isApprovedForAll */\n      tag_98\n        /* \"@openzeppelin/contracts@5.0.0/token/ERC721/ERC721.sol\":6572:6604  isApprovedForAll(owner, spender) */\n      jump\t// in\n    tag_314:\n        /* \"@openzeppelin/contracts@5.0.0/token/ERC721/ERC721.sol\":6552:6604  owner == spender || isApprovedForAll(owner, spender) */\n    tag_313:\n        /* \"@openzeppelin/contracts@5.0.0/token/ERC721/ERC721.sol\":6552:6640  owner == spender || isApprovedForAll(owner, spender) || _getApproved(tokenId) == spender */\n      dup1\n      tag_315\n      jumpi\n      pop\n        /* \"@openzeppelin/contracts@5.0.0/token/ERC721/ERC721.sol\":6633:6640  spender */\n      dup3\n        /* \"@openzeppelin/contracts@5.0.0/token/ERC721/ERC721.sol\":6608:6640  _getApproved(tokenId) == spender */\n      0xffffffffffffffffffffffffffffffffffffffff\n      and\n        /* \"@openzeppelin/contracts@5.0.0/token/ERC721/ERC721.sol\":6608:6629  _getApproved(tokenId) */\n      tag_316\n        /* \"@openzeppelin/contracts@5.0.0/token/ERC721/ERC721.sol\":6621:6628  tokenId */\n      dup4\n        /* \"@openzeppelin/contracts@5.0.0/token/ERC721/ERC721.sol\":6608:6620  _getApproved */\n      tag_119\n        /* \"@openzeppelin/contracts@5.0.0/token/ERC721/ERC721.sol\":6608:6629  _getApproved(tokenId) */\n      jump\t// in\n    tag_316:\n        /* \"@openzeppelin/contracts@5.0.0/token/ERC721/ERC721.sol\":6608:6640  _getApproved(tokenId) == spender */\n      0xffffffffffffffffffffffffffffffffffffffff\n      and\n      eq\n        /* \"@openzeppelin/contracts@5.0.0/token/ERC721/ERC721.sol\":6552:6640  owner == spender || isApprovedForAll(owner, spender) || _getApproved(tokenId) == spender */\n    tag_315:\n        /* \"@openzeppelin/contracts@5.0.0/token/ERC721/ERC721.sol\":6514:6641  spender != address(0) &&... */\n    tag_312:\n        /* \"@openzeppelin/contracts@5.0.0/token/ERC721/ERC721.sol\":6495:6641  return... */\n      swap1\n      pop\n        /* \"@openzeppelin/contracts@5.0.0/token/ERC721/ERC721.sol\":6376:6648  function _isAuthorized(address owner, address spender, uint256 tokenId) internal view virtual returns (bool) {... */\n      swap4\n      swap3\n      pop\n      pop\n      pop\n      jump\t// out\n        /* \"@openzeppelin/contracts@5.0.0/token/ERC721/ERC721.sol\":9955:10282  function _mint(address to, uint256 tokenId) internal {... */\n    tag_289:\n        /* \"@openzeppelin/contracts@5.0.0/token/ERC721/ERC721.sol\":10036:10037  0 */\n      0x00\n        /* \"@openzeppelin/contracts@5.0.0/token/ERC721/ERC721.sol\":10022:10038  to == address(0) */\n      0xffffffffffffffffffffffffffffffffffffffff\n      and\n        /* \"@openzeppelin/contracts@5.0.0/token/ERC721/ERC721.sol\":10022:10024  to */\n      dup3\n        /* \"@openzeppelin/contracts@5.0.0/token/ERC721/ERC721.sol\":10022:10038  to == address(0) */\n      0xffffffffffffffffffffffffffffffffffffffff\n      and\n      sub\n        /* \"@openzeppelin/contracts@5.0.0/token/ERC721/ERC721.sol\":10018:10105  if (to == address(0)) {... */\n      tag_318\n      jumpi\n        /* \"@openzeppelin/contracts@5.0.0/token/ERC721/ERC721.sol\":10091:10092  0 */\n      0x00\n        /* \"@openzeppelin/contracts@5.0.0/token/ERC721/ERC721.sol\":10061:10094  ERC721InvalidReceiver(address(0)) */\n      mload(0x40)\n      0x64a0ae9200000000000000000000000000000000000000000000000000000000\n      dup2\n      mstore\n      0x04\n      add\n      tag_319\n      swap2\n      swap1\n      tag_40\n      jump\t// in\n    tag_319:\n      mload(0x40)\n      dup1\n      swap2\n      sub\n      swap1\n      revert\n        /* \"@openzeppelin/contracts@5.0.0/token/ERC721/ERC721.sol\":10018:10105  if (to == address(0)) {... */\n    tag_318:\n        /* \"@openzeppelin/contracts@5.0.0/token/ERC721/ERC721.sol\":10114:10135  address previousOwner */\n      0x00\n        /* \"@openzeppelin/contracts@5.0.0/token/ERC721/ERC721.sol\":10138:10170  _update(to, tokenId, address(0)) */\n      tag_320\n        /* \"@openzeppelin/contracts@5.0.0/token/ERC721/ERC721.sol\":10146:10148  to */\n      dup4\n        /* \"@openzeppelin/contracts@5.0.0/token/ERC721/ERC721.sol\":10150:10157  tokenId */\n      dup4\n        /* \"@openzeppelin/contracts@5.0.0/token/ERC721/ERC721.sol\":10167:10168  0 */\n      0x00\n        /* \"@openzeppelin/contracts@5.0.0/token/ERC721/ERC721.sol\":10138:10145  _update */\n      tag_130\n        /* \"@openzeppelin/contracts@5.0.0/token/ERC721/ERC721.sol\":10138:10170  _update(to, tokenId, address(0)) */\n      jump\t// in\n    tag_320:\n        /* \"@openzeppelin/contracts@5.0.0/token/ERC721/ERC721.sol\":10114:10170  address previousOwner = _update(to, tokenId, address(0)) */\n      swap1\n      pop\n        /* \"@openzeppelin/contracts@5.0.0/token/ERC721/ERC721.sol\":10209:10210  0 */\n      0x00\n        /* \"@openzeppelin/contracts@5.0.0/token/ERC721/ERC721.sol\":10184:10211  previousOwner != address(0) */\n      0xffffffffffffffffffffffffffffffffffffffff\n      and\n        /* \"@openzeppelin/contracts@5.0.0/token/ERC721/ERC721.sol\":10184:10197  previousOwner */\n      dup2\n        /* \"@openzeppelin/contracts@5.0.0/token/ERC721/ERC721.sol\":10184:10211  previousOwner != address(0) */\n      0xffffffffffffffffffffffffffffffffffffffff\n      and\n      eq\n        /* \"@openzeppelin/contracts@5.0.0/token/ERC721/ERC721.sol\":10180:10276  if (previousOwner != address(0)) {... */\n      tag_321\n      jumpi\n        /* \"@openzeppelin/contracts@5.0.0/token/ERC721/ERC721.sol\":10262:10263  0 */\n      0x00\n        /* \"@openzeppelin/contracts@5.0.0/token/ERC721/ERC721.sol\":10234:10265  ERC721InvalidSender(address(0)) */\n      mload(0x40)\n      0x73c6ac6e00000000000000000000000000000000000000000000000000000000\n      dup2\n      mstore\n      0x04\n      add\n      tag_322\n      swap2\n      swap1\n      tag_40\n      jump\t// in\n    tag_322:\n      mload(0x40)\n      dup1\n      swap2\n      sub\n      swap1\n      revert\n        /* \"@openzeppelin/contracts@5.0.0/token/ERC721/ERC721.sol\":10180:10276  if (previousOwner != address(0)) {... */\n    tag_321:\n        /* \"@openzeppelin/contracts@5.0.0/token/ERC721/ERC721.sol\":10008:10282  {... */\n      pop\n        /* \"@openzeppelin/contracts@5.0.0/token/ERC721/ERC721.sol\":9955:10282  function _mint(address to, uint256 tokenId) internal {... */\n      pop\n      pop\n      jump\t// out\n        /* \"#utility.yul\":7:82   */\n    tag_323:\n        /* \"#utility.yul\":40:46   */\n      0x00\n        /* \"#utility.yul\":73:75   */\n      0x40\n        /* \"#utility.yul\":67:76   */\n      mload\n        /* \"#utility.yul\":57:76   */\n      swap1\n      pop\n        /* \"#utility.yul\":7:82   */\n      swap1\n      jump\t// out\n        /* \"#utility.yul\":88:205   */\n    tag_324:\n        /* \"#utility.yul\":197:198   */\n      0x00\n        /* \"#utility.yul\":194:195   */\n      dup1\n        /* \"#utility.yul\":187:199   */\n      revert\n        /* \"#utility.yul\":211:328   */\n    tag_325:\n        /* \"#utility.yul\":320:321   */\n      0x00\n        /* \"#utility.yul\":317:318   */\n      dup1\n        /* \"#utility.yul\":310:322   */\n      revert\n        /* \"#utility.yul\":334:483   */\n    tag_326:\n        /* \"#utility.yul\":370:377   */\n      0x00\n        /* \"#utility.yul\":410:476   */\n      0xffffffff00000000000000000000000000000000000000000000000000000000\n        /* \"#utility.yul\":403:408   */\n      dup3\n        /* \"#utility.yul\":399:477   */\n      and\n        /* \"#utility.yul\":388:477   */\n      swap1\n      pop\n        /* \"#utility.yul\":334:483   */\n      swap2\n      swap1\n      pop\n      jump\t// out\n        /* \"#utility.yul\":489:609   */\n    tag_327:\n        /* \"#utility.yul\":561:584   */\n      tag_389\n        /* \"#utility.yul\":578:583   */\n      dup2\n        /* \"#utility.yul\":561:584   */\n      tag_326\n      jump\t// in\n    tag_389:\n        /* \"#utility.yul\":554:559   */\n      dup2\n        /* \"#utility.yul\":551:585   */\n      eq\n        /* \"#utility.yul\":541:603   */\n      tag_390\n      jumpi\n        /* \"#utility.yul\":599:600   */\n      0x00\n        /* \"#utility.yul\":596:597   */\n      dup1\n        /* \"#utility.yul\":589:601   */\n      revert\n        /* \"#utility.yul\":541:603   */\n    tag_390:\n        /* \"#utility.yul\":489:609   */\n      pop\n      jump\t// out\n        /* \"#utility.yul\":615:752   */\n    tag_328:\n        /* \"#utility.yul\":660:665   */\n      0x00\n        /* \"#utility.yul\":698:704   */\n      dup2\n        /* \"#utility.yul\":685:705   */\n      calldataload\n        /* \"#utility.yul\":676:705   */\n      swap1\n      pop\n        /* \"#utility.yul\":714:746   */\n      tag_392\n        /* \"#utility.yul\":740:745   */\n      dup2\n        /* \"#utility.yul\":714:746   */\n      tag_327\n      jump\t// in\n    tag_392:\n        /* \"#utility.yul\":615:752   */\n      swap3\n      swap2\n      pop\n      pop\n      jump\t// out\n        /* \"#utility.yul\":758:1085   */\n    tag_27:\n        /* \"#utility.yul\":816:822   */\n      0x00\n        /* \"#utility.yul\":865:867   */\n      0x20\n        /* \"#utility.yul\":853:862   */\n      dup3\n        /* \"#utility.yul\":844:851   */\n      dup5\n        /* \"#utility.yul\":840:863   */\n      sub\n        /* \"#utility.yul\":836:868   */\n      slt\n        /* \"#utility.yul\":833:952   */\n      iszero\n      tag_394\n      jumpi\n        /* \"#utility.yul\":871:950   */\n      tag_395\n      tag_324\n      jump\t// in\n    tag_395:\n        /* \"#utility.yul\":833:952   */\n    tag_394:\n        /* \"#utility.yul\":991:992   */\n      0x00\n        /* \"#utility.yul\":1016:1068   */\n      tag_396\n        /* \"#utility.yul\":1060:1067   */\n      dup5\n        /* \"#utility.yul\":1051:1057   */\n      dup3\n        /* \"#utility.yul\":1040:1049   */\n      dup6\n        /* \"#utility.yul\":1036:1058   */\n      add\n        /* \"#utility.yul\":1016:1068   */\n      tag_328\n      jump\t// in\n    tag_396:\n        /* \"#utility.yul\":1006:1068   */\n      swap2\n      pop\n        /* \"#utility.yul\":962:1078   */\n      pop\n        /* \"#utility.yul\":758:1085   */\n      swap3\n      swap2\n      pop\n      pop\n      jump\t// out\n        /* \"#utility.yul\":1091:1181   */\n    tag_329:\n        /* \"#utility.yul\":1125:1132   */\n      0x00\n        /* \"#utility.yul\":1168:1173   */\n      dup2\n        /* \"#utility.yul\":1161:1174   */\n      iszero\n        /* \"#utility.yul\":1154:1175   */\n      iszero\n        /* \"#utility.yul\":1143:1175   */\n      swap1\n      pop\n        /* \"#utility.yul\":1091:1181   */\n      swap2\n      swap1\n      pop\n      jump\t// out\n        /* \"#utility.yul\":1187:1296   */\n    tag_330:\n        /* \"#utility.yul\":1268:1289   */\n      tag_399\n        /* \"#utility.yul\":1283:1288   */\n      dup2\n        /* \"#utility.yul\":1268:1289   */\n      tag_329\n      jump\t// in\n    tag_399:\n        /* \"#utility.yul\":1263:1266   */\n      dup3\n        /* \"#utility.yul\":1256:1290   */\n      mstore\n        /* \"#utility.yul\":1187:1296   */\n      pop\n      pop\n      jump\t// out\n        /* \"#utility.yul\":1302:1512   */\n    tag_30:\n        /* \"#utility.yul\":1389:1393   */\n      0x00\n        /* \"#utility.yul\":1427:1429   */\n      0x20\n        /* \"#utility.yul\":1416:1425   */\n      dup3\n        /* \"#utility.yul\":1412:1430   */\n      add\n        /* \"#utility.yul\":1404:1430   */\n      swap1\n      pop\n        /* \"#utility.yul\":1440:1505   */\n      tag_401\n        /* \"#utility.yul\":1502:1503   */\n      0x00\n        /* \"#utility.yul\":1491:1500   */\n      dup4\n        /* \"#utility.yul\":1487:1504   */\n      add\n        /* \"#utility.yul\":1478:1484   */\n      dup5\n        /* \"#utility.yul\":1440:1505   */\n      tag_330\n      jump\t// in\n    tag_401:\n        /* \"#utility.yul\":1302:1512   */\n      swap3\n      swap2\n      pop\n      pop\n      jump\t// out\n        /* \"#utility.yul\":1518:1617   */\n    tag_331:\n        /* \"#utility.yul\":1570:1576   */\n      0x00\n        /* \"#utility.yul\":1604:1609   */\n      dup2\n        /* \"#utility.yul\":1598:1610   */\n      mload\n        /* \"#utility.yul\":1588:1610   */\n      swap1\n      pop\n        /* \"#utility.yul\":1518:1617   */\n      swap2\n      swap1\n      pop\n      jump\t// out\n        /* \"#utility.yul\":1623:1792   */\n    tag_332:\n        /* \"#utility.yul\":1707:1718   */\n      0x00\n        /* \"#utility.yul\":1741:1747   */\n      dup3\n        /* \"#utility.yul\":1736:1739   */\n      dup3\n        /* \"#utility.yul\":1729:1748   */\n      mstore\n        /* \"#utility.yul\":1781:1785   */\n      0x20\n        /* \"#utility.yul\":1776:1779   */\n      dup3\n        /* \"#utility.yul\":1772:1786   */\n      add\n        /* \"#utility.yul\":1757:1786   */\n      swap1\n      pop\n        /* \"#utility.yul\":1623:1792   */\n      swap3\n      swap2\n      pop\n      pop\n      jump\t// out\n        /* \"#utility.yul\":1798:2044   */\n    tag_333:\n        /* \"#utility.yul\":1879:1880   */\n      0x00\n        /* \"#utility.yul\":1889:2002   */\n    tag_405:\n        /* \"#utility.yul\":1903:1909   */\n      dup4\n        /* \"#utility.yul\":1900:1901   */\n      dup2\n        /* \"#utility.yul\":1897:1910   */\n      lt\n        /* \"#utility.yul\":1889:2002   */\n      iszero\n      tag_407\n      jumpi\n        /* \"#utility.yul\":1988:1989   */\n      dup1\n        /* \"#utility.yul\":1983:1986   */\n      dup3\n        /* \"#utility.yul\":1979:1990   */\n      add\n        /* \"#utility.yul\":1973:1991   */\n      mload\n        /* \"#utility.yul\":1969:1970   */\n      dup2\n        /* \"#utility.yul\":1964:1967   */\n      dup5\n        /* \"#utility.yul\":1960:1971   */\n      add\n        /* \"#utility.yul\":1953:1992   */\n      mstore\n        /* \"#utility.yul\":1925:1927   */\n      0x20\n        /* \"#utility.yul\":1922:1923   */\n      dup2\n        /* \"#utility.yul\":1918:1928   */\n      add\n        /* \"#utility.yul\":1913:1928   */\n      swap1\n      pop\n        /* \"#utility.yul\":1889:2002   */\n      jump(tag_405)\n    tag_407:\n        /* \"#utility.yul\":2036:2037   */\n      0x00\n        /* \"#utility.yul\":2027:2033   */\n      dup5\n        /* \"#utility.yul\":2022:2025   */\n      dup5\n        /* \"#utility.yul\":2018:2034   */\n      add\n        /* \"#utility.yul\":2011:2038   */\n      mstore\n        /* \"#utility.yul\":1860:2044   */\n      pop\n        /* \"#utility.yul\":1798:2044   */\n      pop\n      pop\n      pop\n      jump\t// out\n        /* \"#utility.yul\":2050:2152   */\n    tag_334:\n        /* \"#utility.yul\":2091:2097   */\n      0x00\n        /* \"#utility.yul\":2142:2144   */\n      0x1f\n        /* \"#utility.yul\":2138:2145   */\n      not\n        /* \"#utility.yul\":2133:2135   */\n      0x1f\n        /* \"#utility.yul\":2126:2131   */\n      dup4\n        /* \"#utility.yul\":2122:2136   */\n      add\n        /* \"#utility.yul\":2118:2146   */\n      and\n        /* \"#utility.yul\":2108:2146   */\n      swap1\n      pop\n        /* \"#utility.yul\":2050:2152   */\n      swap2\n      swap1\n      pop\n      jump\t// out\n        /* \"#utility.yul\":2158:2535   */\n    tag_335:\n        /* \"#utility.yul\":2246:2249   */\n      0x00\n        /* \"#utility.yul\":2274:2313   */\n      tag_410\n        /* \"#utility.yul\":2307:2312   */\n      dup3\n        /* \"#utility.yul\":2274:2313   */\n      tag_331\n      jump\t// in\n    tag_410:\n        /* \"#utility.yul\":2329:2400   */\n      tag_411\n        /* \"#utility.yul\":2393:2399   */\n      dup2\n        /* \"#utility.yul\":2388:2391   */\n      dup6\n        /* \"#utility.yul\":2329:2400   */\n      tag_332\n      jump\t// in\n    tag_411:\n        /* \"#utility.yul\":2322:2400   */\n      swap4\n      pop\n        /* \"#utility.yul\":2409:2474   */\n      tag_412\n        /* \"#utility.yul\":2467:2473   */\n      dup2\n        /* \"#utility.yul\":2462:2465   */\n      dup6\n        /* \"#utility.yul\":2455:2459   */\n      0x20\n        /* \"#utility.yul\":2448:2453   */\n      dup7\n        /* \"#utility.yul\":2444:2460   */\n      add\n        /* \"#utility.yul\":2409:2474   */\n      tag_333\n      jump\t// in\n    tag_412:\n        /* \"#utility.yul\":2499:2528   */\n      tag_413\n        /* \"#utility.yul\":2521:2527   */\n      dup2\n        /* \"#utility.yul\":2499:2528   */\n      tag_334\n      jump\t// in\n    tag_413:\n        /* \"#utility.yul\":2494:2497   */\n      dup5\n        /* \"#utility.yul\":2490:2529   */\n      add\n        /* \"#utility.yul\":2483:2529   */\n      swap2\n      pop\n        /* \"#utility.yul\":2250:2535   */\n      pop\n        /* \"#utility.yul\":2158:2535   */\n      swap3\n      swap2\n      pop\n      pop\n      jump\t// out\n        /* \"#utility.yul\":2541:2854   */\n    tag_34:\n        /* \"#utility.yul\":2654:2658   */\n      0x00\n        /* \"#utility.yul\":2692:2694   */\n      0x20\n        /* \"#utility.yul\":2681:2690   */\n      dup3\n        /* \"#utility.yul\":2677:2695   */\n      add\n        /* \"#utility.yul\":2669:2695   */\n      swap1\n      pop\n        /* \"#utility.yul\":2741:2750   */\n      dup2\n        /* \"#utility.yul\":2735:2739   */\n      dup2\n        /* \"#utility.yul\":2731:2751   */\n      sub\n        /* \"#utility.yul\":2727:2728   */\n      0x00\n        /* \"#utility.yul\":2716:2725   */\n      dup4\n        /* \"#utility.yul\":2712:2729   */\n      add\n        /* \"#utility.yul\":2705:2752   */\n      mstore\n        /* \"#utility.yul\":2769:2847   */\n      tag_415\n        /* \"#utility.yul\":2842:2846   */\n      dup2\n        /* \"#utility.yul\":2833:2839   */\n      dup5\n        /* \"#utility.yul\":2769:2847   */\n      tag_335\n      jump\t// in\n    tag_415:\n        /* \"#utility.yul\":2761:2847   */\n      swap1\n      pop\n        /* \"#utility.yul\":2541:2854   */\n      swap3\n      swap2\n      pop\n      pop\n      jump\t// out\n        /* \"#utility.yul\":2860:2937   */\n    tag_336:\n        /* \"#utility.yul\":2897:2904   */\n      0x00\n        /* \"#utility.yul\":2926:2931   */\n      dup2\n        /* \"#utility.yul\":2915:2931   */\n      swap1\n      pop\n        /* \"#utility.yul\":2860:2937   */\n      swap2\n      swap1\n      pop\n      jump\t// out\n        /* \"#utility.yul\":2943:3065   */\n    tag_337:\n        /* \"#utility.yul\":3016:3040   */\n      tag_418\n        /* \"#utility.yul\":3034:3039   */\n      dup2\n        /* \"#utility.yul\":3016:3040   */\n      tag_336\n      jump\t// in\n    tag_418:\n        /* \"#utility.yul\":3009:3014   */\n      dup2\n        /* \"#utility.yul\":3006:3041   */\n      eq\n        /* \"#utility.yul\":2996:3059   */\n      tag_419\n      jumpi\n        /* \"#utility.yul\":3055:3056   */\n      0x00\n        /* \"#utility.yul\":3052:3053   */\n      dup1\n        /* \"#utility.yul\":3045:3057   */\n      revert\n        /* \"#utility.yul\":2996:3059   */\n    tag_419:\n        /* \"#utility.yul\":2943:3065   */\n      pop\n      jump\t// out\n        /* \"#utility.yul\":3071:3210   */\n    tag_338:\n        /* \"#utility.yul\":3117:3122   */\n      0x00\n        /* \"#utility.yul\":3155:3161   */\n      dup2\n        /* \"#utility.yul\":3142:3162   */\n      calldataload\n        /* \"#utility.yul\":3133:3162   */\n      swap1\n      pop\n        /* \"#utility.yul\":3171:3204   */\n      tag_421\n        /* \"#utility.yul\":3198:3203   */\n      dup2\n        /* \"#utility.yul\":3171:3204   */\n      tag_337\n      jump\t// in\n    tag_421:\n        /* \"#utility.yul\":3071:3210   */\n      swap3\n      swap2\n      pop\n      pop\n      jump\t// out\n        /* \"#utility.yul\":3216:3545   */\n    tag_37:\n        /* \"#utility.yul\":3275:3281   */\n      0x00\n        /* \"#utility.yul\":3324:3326   */\n      0x20\n        /* \"#utility.yul\":3312:3321   */\n      dup3\n        /* \"#utility.yul\":3303:3310   */\n      dup5\n        /* \"#utility.yul\":3299:3322   */\n      sub\n        /* \"#utility.yul\":3295:3327   */\n      slt\n        /* \"#utility.yul\":3292:3411   */\n      iszero\n      tag_423\n      jumpi\n        /* \"#utility.yul\":3330:3409   */\n      tag_424\n      tag_324\n      jump\t// in\n    tag_424:\n        /* \"#utility.yul\":3292:3411   */\n    tag_423:\n        /* \"#utility.yul\":3450:3451   */\n      0x00\n        /* \"#utility.yul\":3475:3528   */\n      tag_425\n        /* \"#utility.yul\":3520:3527   */\n      dup5\n        /* \"#utility.yul\":3511:3517   */\n      dup3\n        /* \"#utility.yul\":3500:3509   */\n      dup6\n        /* \"#utility.yul\":3496:3518   */\n      add\n        /* \"#utility.yul\":3475:3528   */\n      tag_338\n      jump\t// in\n    tag_425:\n        /* \"#utility.yul\":3465:3528   */\n      swap2\n      pop\n        /* \"#utility.yul\":3421:3538   */\n      pop\n        /* \"#utility.yul\":3216:3545   */\n      swap3\n      swap2\n      pop\n      pop\n      jump\t// out\n        /* \"#utility.yul\":3551:3677   */\n    tag_339:\n        /* \"#utility.yul\":3588:3595   */\n      0x00\n        /* \"#utility.yul\":3628:3670   */\n      0xffffffffffffffffffffffffffffffffffffffff\n        /* \"#utility.yul\":3621:3626   */\n      dup3\n        /* \"#utility.yul\":3617:3671   */\n      and\n        /* \"#utility.yul\":3606:3671   */\n      swap1\n      pop\n        /* \"#utility.yul\":3551:3677   */\n      swap2\n      swap1\n      pop\n      jump\t// out\n        /* \"#utility.yul\":3683:3779   */\n    tag_340:\n        /* \"#utility.yul\":3720:3727   */\n      0x00\n        /* \"#utility.yul\":3749:3773   */\n      tag_428\n        /* \"#utility.yul\":3767:3772   */\n      dup3\n        /* \"#utility.yul\":3749:3773   */\n      tag_339\n      jump\t// in\n    tag_428:\n        /* \"#utility.yul\":3738:3773   */\n      swap1\n      pop\n        /* \"#utility.yul\":3683:3779   */\n      swap2\n      swap1\n      pop\n      jump\t// out\n        /* \"#utility.yul\":3785:3903   */\n    tag_341:\n        /* \"#utility.yul\":3872:3896   */\n      tag_430\n        /* \"#utility.yul\":3890:3895   */\n      dup2\n        /* \"#utility.yul\":3872:3896   */\n      tag_340\n      jump\t// in\n    tag_430:\n        /* \"#utility.yul\":3867:3870   */\n      dup3\n        /* \"#utility.yul\":3860:3897   */\n      mstore\n        /* \"#utility.yul\":3785:3903   */\n      pop\n      pop\n      jump\t// out\n        /* \"#utility.yul\":3909:4131   */\n    tag_40:\n        /* \"#utility.yul\":4002:4006   */\n      0x00\n        /* \"#utility.yul\":4040:4042   */\n      0x20\n        /* \"#utility.yul\":4029:4038   */\n      dup3\n        /* \"#utility.yul\":4025:4043   */\n      add\n        /* \"#utility.yul\":4017:4043   */\n      swap1\n      pop\n        /* \"#utility.yul\":4053:4124   */\n      tag_432\n        /* \"#utility.yul\":4121:4122   */\n      0x00\n        /* \"#utility.yul\":4110:4119   */\n      dup4\n        /* \"#utility.yul\":4106:4123   */\n      add\n        /* \"#utility.yul\":4097:4103   */\n      dup5\n        /* \"#utility.yul\":4053:4124   */\n      tag_341\n      jump\t// in\n    tag_432:\n        /* \"#utility.yul\":3909:4131   */\n      swap3\n      swap2\n      pop\n      pop\n      jump\t// out\n        /* \"#utility.yul\":4137:4259   */\n    tag_342:\n        /* \"#utility.yul\":4210:4234   */\n      tag_434\n        /* \"#utility.yul\":4228:4233   */\n      dup2\n        /* \"#utility.yul\":4210:4234   */\n      tag_340\n      jump\t// in\n    tag_434:\n        /* \"#utility.yul\":4203:4208   */\n      dup2\n        /* \"#utility.yul\":4200:4235   */\n      eq\n        /* \"#utility.yul\":4190:4253   */\n      tag_435\n      jumpi\n        /* \"#utility.yul\":4249:4250   */\n      0x00\n        /* \"#utility.yul\":4246:4247   */\n      dup1\n        /* \"#utility.yul\":4239:4251   */\n      revert\n        /* \"#utility.yul\":4190:4253   */\n    tag_435:\n        /* \"#utility.yul\":4137:4259   */\n      pop\n      jump\t// out\n        /* \"#utility.yul\":4265:4404   */\n    tag_343:\n        /* \"#utility.yul\":4311:4316   */\n      0x00\n        /* \"#utility.yul\":4349:4355   */\n      dup2\n        /* \"#utility.yul\":4336:4356   */\n      calldataload\n        /* \"#utility.yul\":4327:4356   */\n      swap1\n      pop\n        /* \"#utility.yul\":4365:4398   */\n      tag_437\n        /* \"#utility.yul\":4392:4397   */\n      dup2\n        /* \"#utility.yul\":4365:4398   */\n      tag_342\n      jump\t// in\n    tag_437:\n        /* \"#utility.yul\":4265:4404   */\n      swap3\n      swap2\n      pop\n      pop\n      jump\t// out\n        /* \"#utility.yul\":4410:4884   */\n    tag_43:\n        /* \"#utility.yul\":4478:4484   */\n      0x00\n        /* \"#utility.yul\":4486:4492   */\n      dup1\n        /* \"#utility.yul\":4535:4537   */\n      0x40\n        /* \"#utility.yul\":4523:4532   */\n      dup4\n        /* \"#utility.yul\":4514:4521   */\n      dup6\n        /* \"#utility.yul\":4510:4533   */\n      sub\n        /* \"#utility.yul\":4506:4538   */\n      slt\n        /* \"#utility.yul\":4503:4622   */\n      iszero\n      tag_439\n      jumpi\n        /* \"#utility.yul\":4541:4620   */\n      tag_440\n      tag_324\n      jump\t// in\n    tag_440:\n        /* \"#utility.yul\":4503:4622   */\n    tag_439:\n        /* \"#utility.yul\":4661:4662   */\n      0x00\n        /* \"#utility.yul\":4686:4739   */\n      tag_441\n        /* \"#utility.yul\":4731:4738   */\n      dup6\n        /* \"#utility.yul\":4722:4728   */\n      dup3\n        /* \"#utility.yul\":4711:4720   */\n      dup7\n        /* \"#utility.yul\":4707:4729   */\n      add\n        /* \"#utility.yul\":4686:4739   */\n      tag_343\n      jump\t// in\n    tag_441:\n        /* \"#utility.yul\":4676:4739   */\n      swap3\n      pop\n        /* \"#utility.yul\":4632:4749   */\n      pop\n        /* \"#utility.yul\":4788:4790   */\n      0x20\n        /* \"#utility.yul\":4814:4867   */\n      tag_442\n        /* \"#utility.yul\":4859:4866   */\n      dup6\n        /* \"#utility.yul\":4850:4856   */\n      dup3\n        /* \"#utility.yul\":4839:4848   */\n      dup7\n        /* \"#utility.yul\":4835:4857   */\n      add\n        /* \"#utility.yul\":4814:4867   */\n      tag_338\n      jump\t// in\n    tag_442:\n        /* \"#utility.yul\":4804:4867   */\n      swap2\n      pop\n        /* \"#utility.yul\":4759:4877   */\n      pop\n        /* \"#utility.yul\":4410:4884   */\n      swap3\n      pop\n      swap3\n      swap1\n      pop\n      jump\t// out\n        /* \"#utility.yul\":4890:5509   */\n    tag_47:\n        /* \"#utility.yul\":4967:4973   */\n      0x00\n        /* \"#utility.yul\":4975:4981   */\n      dup1\n        /* \"#utility.yul\":4983:4989   */\n      0x00\n        /* \"#utility.yul\":5032:5034   */\n      0x60\n        /* \"#utility.yul\":5020:5029   */\n      dup5\n        /* \"#utility.yul\":5011:5018   */\n      dup7\n        /* \"#utility.yul\":5007:5030   */\n      sub\n        /* \"#utility.yul\":5003:5035   */\n      slt\n        /* \"#utility.yul\":5000:5119   */\n      iszero\n      tag_444\n      jumpi\n        /* \"#utility.yul\":5038:5117   */\n      tag_445\n      tag_324\n      jump\t// in\n    tag_445:\n        /* \"#utility.yul\":5000:5119   */\n    tag_444:\n        /* \"#utility.yul\":5158:5159   */\n      0x00\n        /* \"#utility.yul\":5183:5236   */\n      tag_446\n        /* \"#utility.yul\":5228:5235   */\n      dup7\n        /* \"#utility.yul\":5219:5225   */\n      dup3\n        /* \"#utility.yul\":5208:5217   */\n      dup8\n        /* \"#utility.yul\":5204:5226   */\n      add\n        /* \"#utility.yul\":5183:5236   */\n      tag_343\n      jump\t// in\n    tag_446:\n        /* \"#utility.yul\":5173:5236   */\n      swap4\n      pop\n        /* \"#utility.yul\":5129:5246   */\n      pop\n        /* \"#utility.yul\":5285:5287   */\n      0x20\n        /* \"#utility.yul\":5311:5364   */\n      tag_447\n        /* \"#utility.yul\":5356:5363   */\n      dup7\n        /* \"#utility.yul\":5347:5353   */\n      dup3\n        /* \"#utility.yul\":5336:5345   */\n      dup8\n        /* \"#utility.yul\":5332:5354   */\n      add\n        /* \"#utility.yul\":5311:5364   */\n      tag_343\n      jump\t// in\n    tag_447:\n        /* \"#utility.yul\":5301:5364   */\n      swap3\n      pop\n        /* \"#utility.yul\":5256:5374   */\n      pop\n        /* \"#utility.yul\":5413:5415   */\n      0x40\n        /* \"#utility.yul\":5439:5492   */\n      tag_448\n        /* \"#utility.yul\":5484:5491   */\n      dup7\n        /* \"#utility.yul\":5475:5481   */\n      dup3\n        /* \"#utility.yul\":5464:5473   */\n      dup8\n        /* \"#utility.yul\":5460:5482   */\n      add\n        /* \"#utility.yul\":5439:5492   */\n      tag_338\n      jump\t// in\n    tag_448:\n        /* \"#utility.yul\":5429:5492   */\n      swap2\n      pop\n        /* \"#utility.yul\":5384:5502   */\n      pop\n        /* \"#utility.yul\":4890:5509   */\n      swap3\n      pop\n      swap3\n      pop\n      swap3\n      jump\t// out\n        /* \"#utility.yul\":5515:5632   */\n    tag_344:\n        /* \"#utility.yul\":5624:5625   */\n      0x00\n        /* \"#utility.yul\":5621:5622   */\n      dup1\n        /* \"#utility.yul\":5614:5626   */\n      revert\n        /* \"#utility.yul\":5638:5755   */\n    tag_345:\n        /* \"#utility.yul\":5747:5748   */\n      0x00\n        /* \"#utility.yul\":5744:5745   */\n      dup1\n        /* \"#utility.yul\":5737:5749   */\n      revert\n        /* \"#utility.yul\":5761:5941   */\n    tag_259:\n        /* \"#utility.yul\":5809:5886   */\n      0x4e487b7100000000000000000000000000000000000000000000000000000000\n        /* \"#utility.yul\":5806:5807   */\n      0x00\n        /* \"#utility.yul\":5799:5887   */\n      mstore\n        /* \"#utility.yul\":5906:5910   */\n      0x41\n        /* \"#utility.yul\":5903:5904   */\n      0x04\n        /* \"#utility.yul\":5896:5911   */\n      mstore\n        /* \"#utility.yul\":5930:5934   */\n      0x24\n        /* \"#utility.yul\":5927:5928   */\n      0x00\n        /* \"#utility.yul\":5920:5935   */\n      revert\n        /* \"#utility.yul\":5947:6228   */\n    tag_346:\n        /* \"#utility.yul\":6030:6057   */\n      tag_453\n        /* \"#utility.yul\":6052:6056   */\n      dup3\n        /* \"#utility.yul\":6030:6057   */\n      tag_334\n      jump\t// in\n    tag_453:\n        /* \"#utility.yul\":6022:6028   */\n      dup2\n        /* \"#utility.yul\":6018:6058   */\n      add\n        /* \"#utility.yul\":6160:6166   */\n      dup2\n        /* \"#utility.yul\":6148:6158   */\n      dup2\n        /* \"#utility.yul\":6145:6167   */\n      lt\n        /* \"#utility.yul\":6124:6142   */\n      0xffffffffffffffff\n        /* \"#utility.yul\":6112:6122   */\n      dup3\n        /* \"#utility.yul\":6109:6143   */\n      gt\n        /* \"#utility.yul\":6106:6168   */\n      or\n        /* \"#utility.yul\":6103:6191   */\n      iszero\n      tag_454\n      jumpi\n        /* \"#utility.yul\":6171:6189   */\n      tag_455\n      tag_259\n      jump\t// in\n    tag_455:\n        /* \"#utility.yul\":6103:6191   */\n    tag_454:\n        /* \"#utility.yul\":6211:6221   */\n      dup1\n        /* \"#utility.yul\":6207:6209   */\n      0x40\n        /* \"#utility.yul\":6200:6222   */\n      mstore\n        /* \"#utility.yul\":5990:6228   */\n      pop\n        /* \"#utility.yul\":5947:6228   */\n      pop\n      pop\n      jump\t// out\n        /* \"#utility.yul\":6234:6363   */\n    tag_347:\n        /* \"#utility.yul\":6268:6274   */\n      0x00\n        /* \"#utility.yul\":6295:6315   */\n      tag_457\n      tag_323\n      jump\t// in\n    tag_457:\n        /* \"#utility.yul\":6285:6315   */\n      swap1\n      pop\n        /* \"#utility.yul\":6324:6357   */\n      tag_458\n        /* \"#utility.yul\":6352:6356   */\n      dup3\n        /* \"#utility.yul\":6344:6350   */\n      dup3\n        /* \"#utility.yul\":6324:6357   */\n      tag_346\n      jump\t// in\n    tag_458:\n        /* \"#utility.yul\":6234:6363   */\n      swap2\n      swap1\n      pop\n      jump\t// out\n        /* \"#utility.yul\":6369:6677   */\n    tag_348:\n        /* \"#utility.yul\":6431:6435   */\n      0x00\n        /* \"#utility.yul\":6521:6539   */\n      0xffffffffffffffff\n        /* \"#utility.yul\":6513:6519   */\n      dup3\n        /* \"#utility.yul\":6510:6540   */\n      gt\n        /* \"#utility.yul\":6507:6563   */\n      iszero\n      tag_460\n      jumpi\n        /* \"#utility.yul\":6543:6561   */\n      tag_461\n      tag_259\n      jump\t// in\n    tag_461:\n        /* \"#utility.yul\":6507:6563   */\n    tag_460:\n        /* \"#utility.yul\":6581:6610   */\n      tag_462\n        /* \"#utility.yul\":6603:6609   */\n      dup3\n        /* \"#utility.yul\":6581:6610   */\n      tag_334\n      jump\t// in\n    tag_462:\n        /* \"#utility.yul\":6573:6610   */\n      swap1\n      pop\n        /* \"#utility.yul\":6665:6669   */\n      0x20\n        /* \"#utility.yul\":6659:6663   */\n      dup2\n        /* \"#utility.yul\":6655:6670   */\n      add\n        /* \"#utility.yul\":6647:6670   */\n      swap1\n      pop\n        /* \"#utility.yul\":6369:6677   */\n      swap2\n      swap1\n      pop\n      jump\t// out\n        /* \"#utility.yul\":6683:6829   */\n    tag_349:\n        /* \"#utility.yul\":6780:6786   */\n      dup3\n        /* \"#utility.yul\":6775:6778   */\n      dup2\n        /* \"#utility.yul\":6770:6773   */\n      dup4\n        /* \"#utility.yul\":6757:6787   */\n      calldatacopy\n        /* \"#utility.yul\":6821:6822   */\n      0x00\n        /* \"#utility.yul\":6812:6818   */\n      dup4\n        /* \"#utility.yul\":6807:6810   */\n      dup4\n        /* \"#utility.yul\":6803:6819   */\n      add\n        /* \"#utility.yul\":6796:6823   */\n      mstore\n        /* \"#utility.yul\":6683:6829   */\n      pop\n      pop\n      pop\n      jump\t// out\n        /* \"#utility.yul\":6835:7260   */\n    tag_350:\n        /* \"#utility.yul\":6913:6918   */\n      0x00\n        /* \"#utility.yul\":6938:7004   */\n      tag_465\n        /* \"#utility.yul\":6954:7003   */\n      tag_466\n        /* \"#utility.yul\":6996:7002   */\n      dup5\n        /* \"#utility.yul\":6954:7003   */\n      tag_348\n      jump\t// in\n    tag_466:\n        /* \"#utility.yul\":6938:7004   */\n      tag_347\n      jump\t// in\n    tag_465:\n        /* \"#utility.yul\":6929:7004   */\n      swap1\n      pop\n        /* \"#utility.yul\":7027:7033   */\n      dup3\n        /* \"#utility.yul\":7020:7025   */\n      dup2\n        /* \"#utility.yul\":7013:7034   */\n      mstore\n        /* \"#utility.yul\":7065:7069   */\n      0x20\n        /* \"#utility.yul\":7058:7063   */\n      dup2\n        /* \"#utility.yul\":7054:7070   */\n      add\n        /* \"#utility.yul\":7103:7106   */\n      dup5\n        /* \"#utility.yul\":7094:7100   */\n      dup5\n        /* \"#utility.yul\":7089:7092   */\n      dup5\n        /* \"#utility.yul\":7085:7101   */\n      add\n        /* \"#utility.yul\":7082:7107   */\n      gt\n        /* \"#utility.yul\":7079:7191   */\n      iszero\n      tag_467\n      jumpi\n        /* \"#utility.yul\":7110:7189   */\n      tag_468\n      tag_345\n      jump\t// in\n    tag_468:\n        /* \"#utility.yul\":7079:7191   */\n    tag_467:\n        /* \"#utility.yul\":7200:7254   */\n      tag_469\n        /* \"#utility.yul\":7247:7253   */\n      dup5\n        /* \"#utility.yul\":7242:7245   */\n      dup3\n        /* \"#utility.yul\":7237:7240   */\n      dup6\n        /* \"#utility.yul\":7200:7254   */\n      tag_349\n      jump\t// in\n    tag_469:\n        /* \"#utility.yul\":6919:7260   */\n      pop\n        /* \"#utility.yul\":6835:7260   */\n      swap4\n      swap3\n      pop\n      pop\n      pop\n      jump\t// out\n        /* \"#utility.yul\":7280:7620   */\n    tag_351:\n        /* \"#utility.yul\":7336:7341   */\n      0x00\n        /* \"#utility.yul\":7385:7388   */\n      dup3\n        /* \"#utility.yul\":7378:7382   */\n      0x1f\n        /* \"#utility.yul\":7370:7376   */\n      dup4\n        /* \"#utility.yul\":7366:7383   */\n      add\n        /* \"#utility.yul\":7362:7389   */\n      slt\n        /* \"#utility.yul\":7352:7474   */\n      tag_471\n      jumpi\n        /* \"#utility.yul\":7393:7472   */\n      tag_472\n      tag_344\n      jump\t// in\n    tag_472:\n        /* \"#utility.yul\":7352:7474   */\n    tag_471:\n        /* \"#utility.yul\":7510:7516   */\n      dup2\n        /* \"#utility.yul\":7497:7517   */\n      calldataload\n        /* \"#utility.yul\":7535:7614   */\n      tag_473\n        /* \"#utility.yul\":7610:7613   */\n      dup5\n        /* \"#utility.yul\":7602:7608   */\n      dup3\n        /* \"#utility.yul\":7595:7599   */\n      0x20\n        /* \"#utility.yul\":7587:7593   */\n      dup7\n        /* \"#utility.yul\":7583:7600   */\n      add\n        /* \"#utility.yul\":7535:7614   */\n      tag_350\n      jump\t// in\n    tag_473:\n        /* \"#utility.yul\":7526:7614   */\n      swap2\n      pop\n        /* \"#utility.yul\":7342:7620   */\n      pop\n        /* \"#utility.yul\":7280:7620   */\n      swap3\n      swap2\n      pop\n      pop\n      jump\t// out\n        /* \"#utility.yul\":7626:8425   */\n    tag_54:\n        /* \"#utility.yul\":7713:7719   */\n      0x00\n        /* \"#utility.yul\":7721:7727   */\n      dup1\n        /* \"#utility.yul\":7729:7735   */\n      0x00\n        /* \"#utility.yul\":7778:7780   */\n      0x60\n        /* \"#utility.yul\":7766:7775   */\n      dup5\n        /* \"#utility.yul\":7757:7764   */\n      dup7\n        /* \"#utility.yul\":7753:7776   */\n      sub\n        /* \"#utility.yul\":7749:7781   */\n      slt\n        /* \"#utility.yul\":7746:7865   */\n      iszero\n      tag_475\n      jumpi\n        /* \"#utility.yul\":7784:7863   */\n      tag_476\n      tag_324\n      jump\t// in\n    tag_476:\n        /* \"#utility.yul\":7746:7865   */\n    tag_475:\n        /* \"#utility.yul\":7932:7933   */\n      0x00\n        /* \"#utility.yul\":7921:7930   */\n      dup5\n        /* \"#utility.yul\":7917:7934   */\n      add\n        /* \"#utility.yul\":7904:7935   */\n      calldataload\n        /* \"#utility.yul\":7962:7980   */\n      0xffffffffffffffff\n        /* \"#utility.yul\":7954:7960   */\n      dup2\n        /* \"#utility.yul\":7951:7981   */\n      gt\n        /* \"#utility.yul\":7948:8065   */\n      iszero\n      tag_477\n      jumpi\n        /* \"#utility.yul\":7984:8063   */\n      tag_478\n      tag_325\n      jump\t// in\n    tag_478:\n        /* \"#utility.yul\":7948:8065   */\n    tag_477:\n        /* \"#utility.yul\":8089:8152   */\n      tag_479\n        /* \"#utility.yul\":8144:8151   */\n      dup7\n        /* \"#utility.yul\":8135:8141   */\n      dup3\n        /* \"#utility.yul\":8124:8133   */\n      dup8\n        /* \"#utility.yul\":8120:8142   */\n      add\n        /* \"#utility.yul\":8089:8152   */\n      tag_351\n      jump\t// in\n    tag_479:\n        /* \"#utility.yul\":8079:8152   */\n      swap4\n      pop\n        /* \"#utility.yul\":7875:8162   */\n      pop\n        /* \"#utility.yul\":8201:8203   */\n      0x20\n        /* \"#utility.yul\":8227:8280   */\n      tag_480\n        /* \"#utility.yul\":8272:8279   */\n      dup7\n        /* \"#utility.yul\":8263:8269   */\n      dup3\n        /* \"#utility.yul\":8252:8261   */\n      dup8\n        /* \"#utility.yul\":8248:8270   */\n      add\n        /* \"#utility.yul\":8227:8280   */\n      tag_338\n      jump\t// in\n    tag_480:\n        /* \"#utility.yul\":8217:8280   */\n      swap3\n      pop\n        /* \"#utility.yul\":8172:8290   */\n      pop\n        /* \"#utility.yul\":8329:8331   */\n      0x40\n        /* \"#utility.yul\":8355:8408   */\n      tag_481\n        /* \"#utility.yul\":8400:8407   */\n      dup7\n        /* \"#utility.yul\":8391:8397   */\n      dup3\n        /* \"#utility.yul\":8380:8389   */\n      dup8\n        /* \"#utility.yul\":8376:8398   */\n      add\n        /* \"#utility.yul\":8355:8408   */\n      tag_338\n      jump\t// in\n    tag_481:\n        /* \"#utility.yul\":8345:8408   */\n      swap2\n      pop\n        /* \"#utility.yul\":8300:8418   */\n      pop\n        /* \"#utility.yul\":7626:8425   */\n      swap3\n      pop\n      swap3\n      pop\n      swap3\n      jump\t// out\n        /* \"#utility.yul\":8431:8760   */\n    tag_62:\n        /* \"#utility.yul\":8490:8496   */\n      0x00\n        /* \"#utility.yul\":8539:8541   */\n      0x20\n        /* \"#utility.yul\":8527:8536   */\n      dup3\n        /* \"#utility.yul\":8518:8525   */\n      dup5\n        /* \"#utility.yul\":8514:8537   */\n      sub\n        /* \"#utility.yul\":8510:8542   */\n      slt\n        /* \"#utility.yul\":8507:8626   */\n      iszero\n      tag_483\n      jumpi\n        /* \"#utility.yul\":8545:8624   */\n      tag_484\n      tag_324\n      jump\t// in\n    tag_484:\n        /* \"#utility.yul\":8507:8626   */\n    tag_483:\n        /* \"#utility.yul\":8665:8666   */\n      0x00\n        /* \"#utility.yul\":8690:8743   */\n      tag_485\n        /* \"#utility.yul\":8735:8742   */\n      dup5\n        /* \"#utility.yul\":8726:8732   */\n      dup3\n        /* \"#utility.yul\":8715:8724   */\n      dup6\n        /* \"#utility.yul\":8711:8733   */\n      add\n        /* \"#utility.yul\":8690:8743   */\n      tag_343\n      jump\t// in\n    tag_485:\n        /* \"#utility.yul\":8680:8743   */\n      swap2\n      pop\n        /* \"#utility.yul\":8636:8753   */\n      pop\n        /* \"#utility.yul\":8431:8760   */\n      swap3\n      swap2\n      pop\n      pop\n      jump\t// out\n        /* \"#utility.yul\":8766:8884   */\n    tag_352:\n        /* \"#utility.yul\":8853:8877   */\n      tag_487\n        /* \"#utility.yul\":8871:8876   */\n      dup2\n        /* \"#utility.yul\":8853:8877   */\n      tag_336\n      jump\t// in\n    tag_487:\n        /* \"#utility.yul\":8848:8851   */\n      dup3\n        /* \"#utility.yul\":8841:8878   */\n      mstore\n        /* \"#utility.yul\":8766:8884   */\n      pop\n      pop\n      jump\t// out\n        /* \"#utility.yul\":8890:9112   */\n    tag_65:\n        /* \"#utility.yul\":8983:8987   */\n      0x00\n        /* \"#utility.yul\":9021:9023   */\n      0x20\n        /* \"#utility.yul\":9010:9019   */\n      dup3\n        /* \"#utility.yul\":9006:9024   */\n      add\n        /* \"#utility.yul\":8998:9024   */\n      swap1\n      pop\n        /* \"#utility.yul\":9034:9105   */\n      tag_489\n        /* \"#utility.yul\":9102:9103   */\n      0x00\n        /* \"#utility.yul\":9091:9100   */\n      dup4\n        /* \"#utility.yul\":9087:9104   */\n      add\n        /* \"#utility.yul\":9078:9084   */\n      dup5\n        /* \"#utility.yul\":9034:9105   */\n      tag_352\n      jump\t// in\n    tag_489:\n        /* \"#utility.yul\":8890:9112   */\n      swap3\n      swap2\n      pop\n      pop\n      jump\t// out\n        /* \"#utility.yul\":9118:9234   */\n    tag_353:\n        /* \"#utility.yul\":9188:9209   */\n      tag_491\n        /* \"#utility.yul\":9203:9208   */\n      dup2\n        /* \"#utility.yul\":9188:9209   */\n      tag_329\n      jump\t// in\n    tag_491:\n        /* \"#utility.yul\":9181:9186   */\n      dup2\n        /* \"#utility.yul\":9178:9210   */\n      eq\n        /* \"#utility.yul\":9168:9228   */\n      tag_492\n      jumpi\n        /* \"#utility.yul\":9224:9225   */\n      0x00\n        /* \"#utility.yul\":9221:9222   */\n      dup1\n        /* \"#utility.yul\":9214:9226   */\n      revert\n        /* \"#utility.yul\":9168:9228   */\n    tag_492:\n        /* \"#utility.yul\":9118:9234   */\n      pop\n      jump\t// out\n        /* \"#utility.yul\":9240:9373   */\n    tag_354:\n        /* \"#utility.yul\":9283:9288   */\n      0x00\n        /* \"#utility.yul\":9321:9327   */\n      dup2\n        /* \"#utility.yul\":9308:9328   */\n      calldataload\n        /* \"#utility.yul\":9299:9328   */\n      swap1\n      pop\n        /* \"#utility.yul\":9337:9367   */\n      tag_494\n        /* \"#utility.yul\":9361:9366   */\n      dup2\n        /* \"#utility.yul\":9337:9367   */\n      tag_353\n      jump\t// in\n    tag_494:\n        /* \"#utility.yul\":9240:9373   */\n      swap3\n      swap2\n      pop\n      pop\n      jump\t// out\n        /* \"#utility.yul\":9379:9847   */\n    tag_80:\n        /* \"#utility.yul\":9444:9450   */\n      0x00\n        /* \"#utility.yul\":9452:9458   */\n      dup1\n        /* \"#utility.yul\":9501:9503   */\n      0x40\n        /* \"#utility.yul\":9489:9498   */\n      dup4\n        /* \"#utility.yul\":9480:9487   */\n      dup6\n        /* \"#utility.yul\":9476:9499   */\n      sub\n        /* \"#utility.yul\":9472:9504   */\n      slt\n        /* \"#utility.yul\":9469:9588   */\n      iszero\n      tag_496\n      jumpi\n        /* \"#utility.yul\":9507:9586   */\n      tag_497\n      tag_324\n      jump\t// in\n    tag_497:\n        /* \"#utility.yul\":9469:9588   */\n    tag_496:\n        /* \"#utility.yul\":9627:9628   */\n      0x00\n        /* \"#utility.yul\":9652:9705   */\n      tag_498\n        /* \"#utility.yul\":9697:9704   */\n      dup6\n        /* \"#utility.yul\":9688:9694   */\n      dup3\n        /* \"#utility.yul\":9677:9686   */\n      dup7\n        /* \"#utility.yul\":9673:9695   */\n      add\n        /* \"#utility.yul\":9652:9705   */\n      tag_343\n      jump\t// in\n    tag_498:\n        /* \"#utility.yul\":9642:9705   */\n      swap3\n      pop\n        /* \"#utility.yul\":9598:9715   */\n      pop\n        /* \"#utility.yul\":9754:9756   */\n      0x20\n        /* \"#utility.yul\":9780:9830   */\n      tag_499\n        /* \"#utility.yul\":9822:9829   */\n      dup6\n        /* \"#utility.yul\":9813:9819   */\n      dup3\n        /* \"#utility.yul\":9802:9811   */\n      dup7\n        /* \"#utility.yul\":9798:9820   */\n      add\n        /* \"#utility.yul\":9780:9830   */\n      tag_354\n      jump\t// in\n    tag_499:\n        /* \"#utility.yul\":9770:9830   */\n      swap2\n      pop\n        /* \"#utility.yul\":9725:9840   */\n      pop\n        /* \"#utility.yul\":9379:9847   */\n      swap3\n      pop\n      swap3\n      swap1\n      pop\n      jump\t// out\n        /* \"#utility.yul\":9853:10160   */\n    tag_355:\n        /* \"#utility.yul\":9914:9918   */\n      0x00\n        /* \"#utility.yul\":10004:10022   */\n      0xffffffffffffffff\n        /* \"#utility.yul\":9996:10002   */\n      dup3\n        /* \"#utility.yul\":9993:10023   */\n      gt\n        /* \"#utility.yul\":9990:10046   */\n      iszero\n      tag_501\n      jumpi\n        /* \"#utility.yul\":10026:10044   */\n      tag_502\n      tag_259\n      jump\t// in\n    tag_502:\n        /* \"#utility.yul\":9990:10046   */\n    tag_501:\n        /* \"#utility.yul\":10064:10093   */\n      tag_503\n        /* \"#utility.yul\":10086:10092   */\n      dup3\n        /* \"#utility.yul\":10064:10093   */\n      tag_334\n      jump\t// in\n    tag_503:\n        /* \"#utility.yul\":10056:10093   */\n      swap1\n      pop\n        /* \"#utility.yul\":10148:10152   */\n      0x20\n        /* \"#utility.yul\":10142:10146   */\n      dup2\n        /* \"#utility.yul\":10138:10153   */\n      add\n        /* \"#utility.yul\":10130:10153   */\n      swap1\n      pop\n        /* \"#utility.yul\":9853:10160   */\n      swap2\n      swap1\n      pop\n      jump\t// out\n        /* \"#utility.yul\":10166:10589   */\n    tag_356:\n        /* \"#utility.yul\":10243:10248   */\n      0x00\n        /* \"#utility.yul\":10268:10333   */\n      tag_505\n        /* \"#utility.yul\":10284:10332   */\n      tag_506\n        /* \"#utility.yul\":10325:10331   */\n      dup5\n        /* \"#utility.yul\":10284:10332   */\n      tag_355\n      jump\t// in\n    tag_506:\n        /* \"#utility.yul\":10268:10333   */\n      tag_347\n      jump\t// in\n    tag_505:\n        /* \"#utility.yul\":10259:10333   */\n      swap1\n      pop\n        /* \"#utility.yul\":10356:10362   */\n      dup3\n        /* \"#utility.yul\":10349:10354   */\n      dup2\n        /* \"#utility.yul\":10342:10363   */\n      mstore\n        /* \"#utility.yul\":10394:10398   */\n      0x20\n        /* \"#utility.yul\":10387:10392   */\n      dup2\n        /* \"#utility.yul\":10383:10399   */\n      add\n        /* \"#utility.yul\":10432:10435   */\n      dup5\n        /* \"#utility.yul\":10423:10429   */\n      dup5\n        /* \"#utility.yul\":10418:10421   */\n      dup5\n        /* \"#utility.yul\":10414:10430   */\n      add\n        /* \"#utility.yul\":10411:10436   */\n      gt\n        /* \"#utility.yul\":10408:10520   */\n      iszero\n      tag_507\n      jumpi\n        /* \"#utility.yul\":10439:10518   */\n      tag_508\n      tag_345\n      jump\t// in\n    tag_508:\n        /* \"#utility.yul\":10408:10520   */\n    tag_507:\n        /* \"#utility.yul\":10529:10583   */\n      tag_509\n        /* \"#utility.yul\":10576:10582   */\n      dup5\n        /* \"#utility.yul\":10571:10574   */\n      dup3\n        /* \"#utility.yul\":10566:10569   */\n      dup6\n        /* \"#utility.yul\":10529:10583   */\n      tag_349\n      jump\t// in\n    tag_509:\n        /* \"#utility.yul\":10249:10589   */\n      pop\n        /* \"#utility.yul\":10166:10589   */\n      swap4\n      swap3\n      pop\n      pop\n      pop\n      jump\t// out\n        /* \"#utility.yul\":10608:10946   */\n    tag_357:\n        /* \"#utility.yul\":10663:10668   */\n      0x00\n        /* \"#utility.yul\":10712:10715   */\n      dup3\n        /* \"#utility.yul\":10705:10709   */\n      0x1f\n        /* \"#utility.yul\":10697:10703   */\n      dup4\n        /* \"#utility.yul\":10693:10710   */\n      add\n        /* \"#utility.yul\":10689:10716   */\n      slt\n        /* \"#utility.yul\":10679:10801   */\n      tag_511\n      jumpi\n        /* \"#utility.yul\":10720:10799   */\n      tag_512\n      tag_344\n      jump\t// in\n    tag_512:\n        /* \"#utility.yul\":10679:10801   */\n    tag_511:\n        /* \"#utility.yul\":10837:10843   */\n      dup2\n        /* \"#utility.yul\":10824:10844   */\n      calldataload\n        /* \"#utility.yul\":10862:10940   */\n      tag_513\n        /* \"#utility.yul\":10936:10939   */\n      dup5\n        /* \"#utility.yul\":10928:10934   */\n      dup3\n        /* \"#utility.yul\":10921:10925   */\n      0x20\n        /* \"#utility.yul\":10913:10919   */\n      dup7\n        /* \"#utility.yul\":10909:10926   */\n      add\n        /* \"#utility.yul\":10862:10940   */\n      tag_356\n      jump\t// in\n    tag_513:\n        /* \"#utility.yul\":10853:10940   */\n      swap2\n      pop\n        /* \"#utility.yul\":10669:10946   */\n      pop\n        /* \"#utility.yul\":10608:10946   */\n      swap3\n      swap2\n      pop\n      pop\n      jump\t// out\n        /* \"#utility.yul\":10952:11895   */\n    tag_84:\n        /* \"#utility.yul\":11047:11053   */\n      0x00\n        /* \"#utility.yul\":11055:11061   */\n      dup1\n        /* \"#utility.yul\":11063:11069   */\n      0x00\n        /* \"#utility.yul\":11071:11077   */\n      dup1\n        /* \"#utility.yul\":11120:11123   */\n      0x80\n        /* \"#utility.yul\":11108:11117   */\n      dup6\n        /* \"#utility.yul\":11099:11106   */\n      dup8\n        /* \"#utility.yul\":11095:11118   */\n      sub\n        /* \"#utility.yul\":11091:11124   */\n      slt\n        /* \"#utility.yul\":11088:11208   */\n      iszero\n      tag_515\n      jumpi\n        /* \"#utility.yul\":11127:11206   */\n      tag_516\n      tag_324\n      jump\t// in\n    tag_516:\n        /* \"#utility.yul\":11088:11208   */\n    tag_515:\n        /* \"#utility.yul\":11247:11248   */\n      0x00\n        /* \"#utility.yul\":11272:11325   */\n      tag_517\n        /* \"#utility.yul\":11317:11324   */\n      dup8\n        /* \"#utility.yul\":11308:11314   */\n      dup3\n        /* \"#utility.yul\":11297:11306   */\n      dup9\n        /* \"#utility.yul\":11293:11315   */\n      add\n        /* \"#utility.yul\":11272:11325   */\n      tag_343\n      jump\t// in\n    tag_517:\n        /* \"#utility.yul\":11262:11325   */\n      swap5\n      pop\n        /* \"#utility.yul\":11218:11335   */\n      pop\n        /* \"#utility.yul\":11374:11376   */\n      0x20\n        /* \"#utility.yul\":11400:11453   */\n      tag_518\n        /* \"#utility.yul\":11445:11452   */\n      dup8\n        /* \"#utility.yul\":11436:11442   */\n      dup3\n        /* \"#utility.yul\":11425:11434   */\n      dup9\n        /* \"#utility.yul\":11421:11443   */\n      add\n        /* \"#utility.yul\":11400:11453   */\n      tag_343\n      jump\t// in\n    tag_518:\n        /* \"#utility.yul\":11390:11453   */\n      swap4\n      pop\n        /* \"#utility.yul\":11345:11463   */\n      pop\n        /* \"#utility.yul\":11502:11504   */\n      0x40\n        /* \"#utility.yul\":11528:11581   */\n      tag_519\n        /* \"#utility.yul\":11573:11580   */\n      dup8\n        /* \"#utility.yul\":11564:11570   */\n      dup3\n        /* \"#utility.yul\":11553:11562   */\n      dup9\n        /* \"#utility.yul\":11549:11571   */\n      add\n        /* \"#utility.yul\":11528:11581   */\n      tag_338\n      jump\t// in\n    tag_519:\n        /* \"#utility.yul\":11518:11581   */\n      swap3\n      pop\n        /* \"#utility.yul\":11473:11591   */\n      pop\n        /* \"#utility.yul\":11658:11660   */\n      0x60\n        /* \"#utility.yul\":11647:11656   */\n      dup6\n        /* \"#utility.yul\":11643:11661   */\n      add\n        /* \"#utility.yul\":11630:11662   */\n      calldataload\n        /* \"#utility.yul\":11689:11707   */\n      0xffffffffffffffff\n        /* \"#utility.yul\":11681:11687   */\n      dup2\n        /* \"#utility.yul\":11678:11708   */\n      gt\n        /* \"#utility.yul\":11675:11792   */\n      iszero\n      tag_520\n      jumpi\n        /* \"#utility.yul\":11711:11790   */\n      tag_521\n      tag_325\n      jump\t// in\n    tag_521:\n        /* \"#utility.yul\":11675:11792   */\n    tag_520:\n        /* \"#utility.yul\":11816:11878   */\n      tag_522\n        /* \"#utility.yul\":11870:11877   */\n      dup8\n        /* \"#utility.yul\":11861:11867   */\n      dup3\n        /* \"#utility.yul\":11850:11859   */\n      dup9\n        /* \"#utility.yul\":11846:11868   */\n      add\n        /* \"#utility.yul\":11816:11878   */\n      tag_357\n      jump\t// in\n    tag_522:\n        /* \"#utility.yul\":11806:11878   */\n      swap2\n      pop\n        /* \"#utility.yul\":11601:11888   */\n      pop\n        /* \"#utility.yul\":10952:11895   */\n      swap3\n      swap6\n      swap2\n      swap5\n      pop\n      swap3\n      pop\n      jump\t// out\n        /* \"#utility.yul\":11901:12434   */\n    tag_94:\n        /* \"#utility.yul\":12070:12074   */\n      0x00\n        /* \"#utility.yul\":12108:12110   */\n      0x60\n        /* \"#utility.yul\":12097:12106   */\n      dup3\n        /* \"#utility.yul\":12093:12111   */\n      add\n        /* \"#utility.yul\":12085:12111   */\n      swap1\n      pop\n        /* \"#utility.yul\":12157:12166   */\n      dup2\n        /* \"#utility.yul\":12151:12155   */\n      dup2\n        /* \"#utility.yul\":12147:12167   */\n      sub\n        /* \"#utility.yul\":12143:12144   */\n      0x00\n        /* \"#utility.yul\":12132:12141   */\n      dup4\n        /* \"#utility.yul\":12128:12145   */\n      add\n        /* \"#utility.yul\":12121:12168   */\n      mstore\n        /* \"#utility.yul\":12185:12263   */\n      tag_524\n        /* \"#utility.yul\":12258:12262   */\n      dup2\n        /* \"#utility.yul\":12249:12255   */\n      dup7\n        /* \"#utility.yul\":12185:12263   */\n      tag_335\n      jump\t// in\n    tag_524:\n        /* \"#utility.yul\":12177:12263   */\n      swap1\n      pop\n        /* \"#utility.yul\":12273:12345   */\n      tag_525\n        /* \"#utility.yul\":12341:12343   */\n      0x20\n        /* \"#utility.yul\":12330:12339   */\n      dup4\n        /* \"#utility.yul\":12326:12344   */\n      add\n        /* \"#utility.yul\":12317:12323   */\n      dup6\n        /* \"#utility.yul\":12273:12345   */\n      tag_352\n      jump\t// in\n    tag_525:\n        /* \"#utility.yul\":12355:12427   */\n      tag_526\n        /* \"#utility.yul\":12423:12425   */\n      0x40\n        /* \"#utility.yul\":12412:12421   */\n      dup4\n        /* \"#utility.yul\":12408:12426   */\n      add\n        /* \"#utility.yul\":12399:12405   */\n      dup5\n        /* \"#utility.yul\":12355:12427   */\n      tag_352\n      jump\t// in\n    tag_526:\n        /* \"#utility.yul\":11901:12434   */\n      swap5\n      swap4\n      pop\n      pop\n      pop\n      pop\n      jump\t// out\n        /* \"#utility.yul\":12440:12914   */\n    tag_97:\n        /* \"#utility.yul\":12508:12514   */\n      0x00\n        /* \"#utility.yul\":12516:12522   */\n      dup1\n        /* \"#utility.yul\":12565:12567   */\n      0x40\n        /* \"#utility.yul\":12553:12562   */\n      dup4\n        /* \"#utility.yul\":12544:12551   */\n      dup6\n        /* \"#utility.yul\":12540:12563   */\n      sub\n        /* \"#utility.yul\":12536:12568   */\n      slt\n        /* \"#utility.yul\":12533:12652   */\n      iszero\n      tag_528\n      jumpi\n        /* \"#utility.yul\":12571:12650   */\n      tag_529\n      tag_324\n      jump\t// in\n    tag_529:\n        /* \"#utility.yul\":12533:12652   */\n    tag_528:\n        /* \"#utility.yul\":12691:12692   */\n      0x00\n        /* \"#utility.yul\":12716:12769   */\n      tag_530\n        /* \"#utility.yul\":12761:12768   */\n      dup6\n        /* \"#utility.yul\":12752:12758   */\n      dup3\n        /* \"#utility.yul\":12741:12750   */\n      dup7\n        /* \"#utility.yul\":12737:12759   */\n      add\n        /* \"#utility.yul\":12716:12769   */\n      tag_343\n      jump\t// in\n    tag_530:\n        /* \"#utility.yul\":12706:12769   */\n      swap3\n      pop\n        /* \"#utility.yul\":12662:12779   */\n      pop\n        /* \"#utility.yul\":12818:12820   */\n      0x20\n        /* \"#utility.yul\":12844:12897   */\n      tag_531\n        /* \"#utility.yul\":12889:12896   */\n      dup6\n        /* \"#utility.yul\":12880:12886   */\n      dup3\n        /* \"#utility.yul\":12869:12878   */\n      dup7\n        /* \"#utility.yul\":12865:12887   */\n      add\n        /* \"#utility.yul\":12844:12897   */\n      tag_343\n      jump\t// in\n    tag_531:\n        /* \"#utility.yul\":12834:12897   */\n      swap2\n      pop\n        /* \"#utility.yul\":12789:12907   */\n      pop\n        /* \"#utility.yul\":12440:12914   */\n      swap3\n      pop\n      swap3\n      swap1\n      pop\n      jump\t// out\n        /* \"#utility.yul\":12920:13100   */\n    tag_358:\n        /* \"#utility.yul\":12968:13045   */\n      0x4e487b7100000000000000000000000000000000000000000000000000000000\n        /* \"#utility.yul\":12965:12966   */\n      0x00\n        /* \"#utility.yul\":12958:13046   */\n      mstore\n        /* \"#utility.yul\":13065:13069   */\n      0x22\n        /* \"#utility.yul\":13062:13063   */\n      0x04\n        /* \"#utility.yul\":13055:13070   */\n      mstore\n        /* \"#utility.yul\":13089:13093   */\n      0x24\n        /* \"#utility.yul\":13086:13087   */\n      0x00\n        /* \"#utility.yul\":13079:13094   */\n      revert\n        /* \"#utility.yul\":13106:13426   */\n    tag_110:\n        /* \"#utility.yul\":13150:13156   */\n      0x00\n        /* \"#utility.yul\":13187:13188   */\n      0x02\n        /* \"#utility.yul\":13181:13185   */\n      dup3\n        /* \"#utility.yul\":13177:13189   */\n      div\n        /* \"#utility.yul\":13167:13189   */\n      swap1\n      pop\n        /* \"#utility.yul\":13234:13235   */\n      0x01\n        /* \"#utility.yul\":13228:13232   */\n      dup3\n        /* \"#utility.yul\":13224:13236   */\n      and\n        /* \"#utility.yul\":13255:13273   */\n      dup1\n        /* \"#utility.yul\":13245:13326   */\n      tag_534\n      jumpi\n        /* \"#utility.yul\":13311:13315   */\n      0x7f\n        /* \"#utility.yul\":13303:13309   */\n      dup3\n        /* \"#utility.yul\":13299:13316   */\n      and\n        /* \"#utility.yul\":13289:13316   */\n      swap2\n      pop\n        /* \"#utility.yul\":13245:13326   */\n    tag_534:\n        /* \"#utility.yul\":13373:13375   */\n      0x20\n        /* \"#utility.yul\":13365:13371   */\n      dup3\n        /* \"#utility.yul\":13362:13376   */\n      lt\n        /* \"#utility.yul\":13342:13360   */\n      dup2\n        /* \"#utility.yul\":13339:13377   */\n      sub\n        /* \"#utility.yul\":13336:13420   */\n      tag_535\n      jumpi\n        /* \"#utility.yul\":13392:13410   */\n      tag_536\n      tag_358\n      jump\t// in\n    tag_536:\n        /* \"#utility.yul\":13336:13420   */\n    tag_535:\n        /* \"#utility.yul\":13157:13426   */\n      pop\n        /* \"#utility.yul\":13106:13426   */\n      swap2\n      swap1\n      pop\n      jump\t// out\n        /* \"#utility.yul\":13432:13874   */\n    tag_133:\n        /* \"#utility.yul\":13581:13585   */\n      0x00\n        /* \"#utility.yul\":13619:13621   */\n      0x60\n        /* \"#utility.yul\":13608:13617   */\n      dup3\n        /* \"#utility.yul\":13604:13622   */\n      add\n        /* \"#utility.yul\":13596:13622   */\n      swap1\n      pop\n        /* \"#utility.yul\":13632:13703   */\n      tag_538\n        /* \"#utility.yul\":13700:13701   */\n      0x00\n        /* \"#utility.yul\":13689:13698   */\n      dup4\n        /* \"#utility.yul\":13685:13702   */\n      add\n        /* \"#utility.yul\":13676:13682   */\n      dup7\n        /* \"#utility.yul\":13632:13703   */\n      tag_341\n      jump\t// in\n    tag_538:\n        /* \"#utility.yul\":13713:13785   */\n      tag_539\n        /* \"#utility.yul\":13781:13783   */\n      0x20\n        /* \"#utility.yul\":13770:13779   */\n      dup4\n        /* \"#utility.yul\":13766:13784   */\n      add\n        /* \"#utility.yul\":13757:13763   */\n      dup6\n        /* \"#utility.yul\":13713:13785   */\n      tag_352\n      jump\t// in\n    tag_539:\n        /* \"#utility.yul\":13795:13867   */\n      tag_540\n        /* \"#utility.yul\":13863:13865   */\n      0x40\n        /* \"#utility.yul\":13852:13861   */\n      dup4\n        /* \"#utility.yul\":13848:13866   */\n      add\n        /* \"#utility.yul\":13839:13845   */\n      dup5\n        /* \"#utility.yul\":13795:13867   */\n      tag_341\n      jump\t// in\n    tag_540:\n        /* \"#utility.yul\":13432:13874   */\n      swap5\n      swap4\n      pop\n      pop\n      pop\n      pop\n      jump\t// out\n        /* \"#utility.yul\":13880:14021   */\n    tag_359:\n        /* \"#utility.yul\":13929:13933   */\n      0x00\n        /* \"#utility.yul\":13952:13955   */\n      dup2\n        /* \"#utility.yul\":13944:13955   */\n      swap1\n      pop\n        /* \"#utility.yul\":13975:13978   */\n      dup2\n        /* \"#utility.yul\":13972:13973   */\n      0x00\n        /* \"#utility.yul\":13965:13979   */\n      mstore\n        /* \"#utility.yul\":14009:14013   */\n      0x20\n        /* \"#utility.yul\":14006:14007   */\n      0x00\n        /* \"#utility.yul\":13996:14014   */\n      keccak256\n        /* \"#utility.yul\":13988:14014   */\n      swap1\n      pop\n        /* \"#utility.yul\":13880:14021   */\n      swap2\n      swap1\n      pop\n      jump\t// out\n        /* \"#utility.yul\":14027:14120   */\n    tag_360:\n        /* \"#utility.yul\":14064:14070   */\n      0x00\n        /* \"#utility.yul\":14111:14113   */\n      0x20\n        /* \"#utility.yul\":14106:14108   */\n      0x1f\n        /* \"#utility.yul\":14099:14104   */\n      dup4\n        /* \"#utility.yul\":14095:14109   */\n      add\n        /* \"#utility.yul\":14091:14114   */\n      div\n        /* \"#utility.yul\":14081:14114   */\n      swap1\n      pop\n        /* \"#utility.yul\":14027:14120   */\n      swap2\n      swap1\n      pop\n      jump\t// out\n        /* \"#utility.yul\":14126:14233   */\n    tag_361:\n        /* \"#utility.yul\":14170:14178   */\n      0x00\n        /* \"#utility.yul\":14220:14225   */\n      dup3\n        /* \"#utility.yul\":14214:14218   */\n      dup3\n        /* \"#utility.yul\":14210:14226   */\n      shl\n        /* \"#utility.yul\":14189:14226   */\n      swap1\n      pop\n        /* \"#utility.yul\":14126:14233   */\n      swap3\n      swap2\n      pop\n      pop\n      jump\t// out\n        /* \"#utility.yul\":14239:14632   */\n    tag_362:\n        /* \"#utility.yul\":14308:14314   */\n      0x00\n        /* \"#utility.yul\":14358:14359   */\n      0x08\n        /* \"#utility.yul\":14346:14356   */\n      dup4\n        /* \"#utility.yul\":14342:14360   */\n      mul\n        /* \"#utility.yul\":14381:14478   */\n      tag_545\n        /* \"#utility.yul\":14411:14477   */\n      0xffffffffffffffffffffffffffffffffffffffffffffffffffffffffffffffff\n        /* \"#utility.yul\":14400:14409   */\n      dup3\n        /* \"#utility.yul\":14381:14478   */\n      tag_361\n      jump\t// in\n    tag_545:\n        /* \"#utility.yul\":14499:14538   */\n      tag_546\n        /* \"#utility.yul\":14529:14537   */\n      dup7\n        /* \"#utility.yul\":14518:14527   */\n      dup4\n        /* \"#utility.yul\":14499:14538   */\n      tag_361\n      jump\t// in\n    tag_546:\n        /* \"#utility.yul\":14487:14538   */\n      swap6\n      pop\n        /* \"#utility.yul\":14571:14575   */\n      dup1\n        /* \"#utility.yul\":14567:14576   */\n      not\n        /* \"#utility.yul\":14560:14565   */\n      dup5\n        /* \"#utility.yul\":14556:14577   */\n      and\n        /* \"#utility.yul\":14547:14577   */\n      swap4\n      pop\n        /* \"#utility.yul\":14620:14624   */\n      dup1\n        /* \"#utility.yul\":14610:14618   */\n      dup7\n        /* \"#utility.yul\":14606:14625   */\n      and\n        /* \"#utility.yul\":14599:14604   */\n      dup5\n        /* \"#utility.yul\":14596:14626   */\n      or\n        /* \"#utility.yul\":14586:14626   */\n      swap3\n      pop\n        /* \"#utility.yul\":14315:14632   */\n      pop\n      pop\n        /* \"#utility.yul\":14239:14632   */\n      swap4\n      swap3\n      pop\n      pop\n      pop\n      jump\t// out\n        /* \"#utility.yul\":14638:14698   */\n    tag_363:\n        /* \"#utility.yul\":14666:14669   */\n      0x00\n        /* \"#utility.yul\":14687:14692   */\n      dup2\n        /* \"#utility.yul\":14680:14692   */\n      swap1\n      pop\n        /* \"#utility.yul\":14638:14698   */\n      swap2\n      swap1\n      pop\n      jump\t// out\n        /* \"#utility.yul\":14704:14846   */\n    tag_364:\n        /* \"#utility.yul\":14754:14763   */\n      0x00\n        /* \"#utility.yul\":14787:14840   */\n      tag_549\n        /* \"#utility.yul\":14805:14839   */\n      tag_550\n        /* \"#utility.yul\":14814:14838   */\n      tag_551\n        /* \"#utility.yul\":14832:14837   */\n      dup5\n        /* \"#utility.yul\":14814:14838   */\n      tag_336\n      jump\t// in\n    tag_551:\n        /* \"#utility.yul\":14805:14839   */\n      tag_363\n      jump\t// in\n    tag_550:\n        /* \"#utility.yul\":14787:14840   */\n      tag_336\n      jump\t// in\n    tag_549:\n        /* \"#utility.yul\":14774:14840   */\n      swap1\n      pop\n        /* \"#utility.yul\":14704:14846   */\n      swap2\n      swap1\n      pop\n      jump\t// out\n        /* \"#utility.yul\":14852:14927   */\n    tag_365:\n        /* \"#utility.yul\":14895:14898   */\n      0x00\n        /* \"#utility.yul\":14916:14921   */\n      dup2\n        /* \"#utility.yul\":14909:14921   */\n      swap1\n      pop\n        /* \"#utility.yul\":14852:14927   */\n      swap2\n      swap1\n      pop\n      jump\t// out\n        /* \"#utility.yul\":14933:15202   */\n    tag_366:\n        /* \"#utility.yul\":15043:15082   */\n      tag_554\n        /* \"#utility.yul\":15074:15081   */\n      dup4\n        /* \"#utility.yul\":15043:15082   */\n      tag_364\n      jump\t// in\n    tag_554:\n        /* \"#utility.yul\":15104:15195   */\n      tag_555\n        /* \"#utility.yul\":15153:15194   */\n      tag_556\n        /* \"#utility.yul\":15177:15193   */\n      dup3\n        /* \"#utility.yul\":15153:15194   */\n      tag_365\n      jump\t// in\n    tag_556:\n        /* \"#utility.yul\":15145:15151   */\n      dup5\n        /* \"#utility.yul\":15138:15142   */\n      dup5\n        /* \"#utility.yul\":15132:15143   */\n      sload\n        /* \"#utility.yul\":15104:15195   */\n      tag_362\n      jump\t// in\n    tag_555:\n        /* \"#utility.yul\":15098:15102   */\n      dup3\n        /* \"#utility.yul\":15091:15196   */\n      sstore\n        /* \"#utility.yul\":15009:15202   */\n      pop\n        /* \"#utility.yul\":14933:15202   */\n      pop\n      pop\n      pop\n      jump\t// out\n        /* \"#utility.yul\":15208:15281   */\n    tag_367:\n        /* \"#utility.yul\":15253:15256   */\n      0x00\n        /* \"#utility.yul\":15208:15281   */\n      swap1\n      jump\t// out\n        /* \"#utility.yul\":15287:15476   */\n    tag_368:\n        /* \"#utility.yul\":15364:15396   */\n      tag_559\n      tag_367\n      jump\t// in\n    tag_559:\n        /* \"#utility.yul\":15405:15470   */\n      tag_560\n        /* \"#utility.yul\":15463:15469   */\n      dup2\n        /* \"#utility.yul\":15455:15461   */\n      dup5\n        /* \"#utility.yul\":15449:15453   */\n      dup5\n        /* \"#utility.yul\":15405:15470   */\n      tag_366\n      jump\t// in\n    tag_560:\n        /* \"#utility.yul\":15340:15476   */\n      pop\n        /* \"#utility.yul\":15287:15476   */\n      pop\n      pop\n      jump\t// out\n        /* \"#utility.yul\":15482:15668   */\n    tag_369:\n        /* \"#utility.yul\":15542:15662   */\n    tag_562:\n        /* \"#utility.yul\":15559:15562   */\n      dup2\n        /* \"#utility.yul\":15552:15557   */\n      dup2\n        /* \"#utility.yul\":15549:15563   */\n      lt\n        /* \"#utility.yul\":15542:15662   */\n      iszero\n      tag_564\n      jumpi\n        /* \"#utility.yul\":15613:15652   */\n      tag_565\n        /* \"#utility.yul\":15650:15651   */\n      0x00\n        /* \"#utility.yul\":15643:15648   */\n      dup3\n        /* \"#utility.yul\":15613:15652   */\n      tag_368\n      jump\t// in\n    tag_565:\n        /* \"#utility.yul\":15586:15587   */\n      0x01\n        /* \"#utility.yul\":15579:15584   */\n      dup2\n        /* \"#utility.yul\":15575:15588   */\n      add\n        /* \"#utility.yul\":15566:15588   */\n      swap1\n      pop\n        /* \"#utility.yul\":15542:15662   */\n      jump(tag_562)\n    tag_564:\n        /* \"#utility.yul\":15482:15668   */\n      pop\n      pop\n      jump\t// out\n        /* \"#utility.yul\":15674:16217   */\n    tag_370:\n        /* \"#utility.yul\":15775:15777   */\n      0x1f\n        /* \"#utility.yul\":15770:15773   */\n      dup3\n        /* \"#utility.yul\":15767:15778   */\n      gt\n        /* \"#utility.yul\":15764:16210   */\n      iszero\n      tag_567\n      jumpi\n        /* \"#utility.yul\":15809:15847   */\n      tag_568\n        /* \"#utility.yul\":15841:15846   */\n      dup2\n        /* \"#utility.yul\":15809:15847   */\n      tag_359\n      jump\t// in\n    tag_568:\n        /* \"#utility.yul\":15893:15922   */\n      tag_569\n        /* \"#utility.yul\":15911:15921   */\n      dup5\n        /* \"#utility.yul\":15893:15922   */\n      tag_360\n      jump\t// in\n    tag_569:\n        /* \"#utility.yul\":15883:15891   */\n      dup2\n        /* \"#utility.yul\":15879:15923   */\n      add\n        /* \"#utility.yul\":16076:16078   */\n      0x20\n        /* \"#utility.yul\":16064:16074   */\n      dup6\n        /* \"#utility.yul\":16061:16079   */\n      lt\n        /* \"#utility.yul\":16058:16107   */\n      iszero\n      tag_570\n      jumpi\n        /* \"#utility.yul\":16097:16105   */\n      dup2\n        /* \"#utility.yul\":16082:16105   */\n      swap1\n      pop\n        /* \"#utility.yul\":16058:16107   */\n    tag_570:\n        /* \"#utility.yul\":16120:16200   */\n      tag_571\n        /* \"#utility.yul\":16176:16198   */\n      tag_572\n        /* \"#utility.yul\":16194:16197   */\n      dup6\n        /* \"#utility.yul\":16176:16198   */\n      tag_360\n      jump\t// in\n    tag_572:\n        /* \"#utility.yul\":16166:16174   */\n      dup4\n        /* \"#utility.yul\":16162:16199   */\n      add\n        /* \"#utility.yul\":16149:16160   */\n      dup3\n        /* \"#utility.yul\":16120:16200   */\n      tag_369\n      jump\t// in\n    tag_571:\n        /* \"#utility.yul\":15779:16210   */\n      pop\n      pop\n        /* \"#utility.yul\":15764:16210   */\n    tag_567:\n        /* \"#utility.yul\":15674:16217   */\n      pop\n      pop\n      pop\n      jump\t// out\n        /* \"#utility.yul\":16223:16340   */\n    tag_371:\n        /* \"#utility.yul\":16277:16285   */\n      0x00\n        /* \"#utility.yul\":16327:16332   */\n      dup3\n        /* \"#utility.yul\":16321:16325   */\n      dup3\n        /* \"#utility.yul\":16317:16333   */\n      shr\n        /* \"#utility.yul\":16296:16333   */\n      swap1\n      pop\n        /* \"#utility.yul\":16223:16340   */\n      swap3\n      swap2\n      pop\n      pop\n      jump\t// out\n        /* \"#utility.yul\":16346:16515   */\n    tag_372:\n        /* \"#utility.yul\":16390:16396   */\n      0x00\n        /* \"#utility.yul\":16423:16474   */\n      tag_575\n        /* \"#utility.yul\":16471:16472   */\n      0x00\n        /* \"#utility.yul\":16467:16473   */\n      not\n        /* \"#utility.yul\":16459:16464   */\n      dup5\n        /* \"#utility.yul\":16456:16457   */\n      0x08\n        /* \"#utility.yul\":16452:16465   */\n      mul\n        /* \"#utility.yul\":16423:16474   */\n      tag_371\n      jump\t// in\n    tag_575:\n        /* \"#utility.yul\":16419:16475   */\n      not\n        /* \"#utility.yul\":16504:16508   */\n      dup1\n        /* \"#utility.yul\":16498:16502   */\n      dup4\n        /* \"#utility.yul\":16494:16509   */\n      and\n        /* \"#utility.yul\":16484:16509   */\n      swap2\n      pop\n        /* \"#utility.yul\":16397:16515   */\n      pop\n        /* \"#utility.yul\":16346:16515   */\n      swap3\n      swap2\n      pop\n      pop\n      jump\t// out\n        /* \"#utility.yul\":16520:16815   */\n    tag_373:\n        /* \"#utility.yul\":16596:16600   */\n      0x00\n        /* \"#utility.yul\":16742:16771   */\n      tag_577\n        /* \"#utility.yul\":16767:16770   */\n      dup4\n        /* \"#utility.yul\":16761:16765   */\n      dup4\n        /* \"#utility.yul\":16742:16771   */\n      tag_372\n      jump\t// in\n    tag_577:\n        /* \"#utility.yul\":16734:16771   */\n      swap2\n      pop\n        /* \"#utility.yul\":16804:16807   */\n      dup3\n        /* \"#utility.yul\":16801:16802   */\n      0x02\n        /* \"#utility.yul\":16797:16808   */\n      mul\n        /* \"#utility.yul\":16791:16795   */\n      dup3\n        /* \"#utility.yul\":16788:16809   */\n      or\n        /* \"#utility.yul\":16780:16809   */\n      swap1\n      pop\n        /* \"#utility.yul\":16520:16815   */\n      swap3\n      swap2\n      pop\n      pop\n      jump\t// out\n        /* \"#utility.yul\":16820:18215   */\n    tag_143:\n        /* \"#utility.yul\":16937:16974   */\n      tag_579\n        /* \"#utility.yul\":16970:16973   */\n      dup3\n        /* \"#utility.yul\":16937:16974   */\n      tag_331\n      jump\t// in\n    tag_579:\n        /* \"#utility.yul\":17039:17057   */\n      0xffffffffffffffff\n        /* \"#utility.yul\":17031:17037   */\n      dup2\n        /* \"#utility.yul\":17028:17058   */\n      gt\n        /* \"#utility.yul\":17025:17081   */\n      iszero\n      tag_580\n      jumpi\n        /* \"#utility.yul\":17061:17079   */\n      tag_581\n      tag_259\n      jump\t// in\n    tag_581:\n        /* \"#utility.yul\":17025:17081   */\n    tag_580:\n        /* \"#utility.yul\":17105:17143   */\n      tag_582\n        /* \"#utility.yul\":17137:17141   */\n      dup3\n        /* \"#utility.yul\":17131:17142   */\n      sload\n        /* \"#utility.yul\":17105:17143   */\n      tag_110\n      jump\t// in\n    tag_582:\n        /* \"#utility.yul\":17190:17257   */\n      tag_583\n        /* \"#utility.yul\":17250:17256   */\n      dup3\n        /* \"#utility.yul\":17242:17248   */\n      dup3\n        /* \"#utility.yul\":17236:17240   */\n      dup6\n        /* \"#utility.yul\":17190:17257   */\n      tag_370\n      jump\t// in\n    tag_583:\n        /* \"#utility.yul\":17284:17285   */\n      0x00\n        /* \"#utility.yul\":17308:17312   */\n      0x20\n        /* \"#utility.yul\":17295:17312   */\n      swap1\n      pop\n        /* \"#utility.yul\":17340:17342   */\n      0x1f\n        /* \"#utility.yul\":17332:17338   */\n      dup4\n        /* \"#utility.yul\":17329:17343   */\n      gt\n        /* \"#utility.yul\":17357:17358   */\n      0x01\n        /* \"#utility.yul\":17352:17970   */\n      dup2\n      eq\n      tag_585\n      jumpi\n        /* \"#utility.yul\":18014:18015   */\n      0x00\n        /* \"#utility.yul\":18031:18037   */\n      dup5\n        /* \"#utility.yul\":18028:18105   */\n      iszero\n      tag_586\n      jumpi\n        /* \"#utility.yul\":18080:18089   */\n      dup3\n        /* \"#utility.yul\":18075:18078   */\n      dup8\n        /* \"#utility.yul\":18071:18090   */\n      add\n        /* \"#utility.yul\":18065:18091   */\n      mload\n        /* \"#utility.yul\":18056:18091   */\n      swap1\n      pop\n        /* \"#utility.yul\":18028:18105   */\n    tag_586:\n        /* \"#utility.yul\":18131:18198   */\n      tag_587\n        /* \"#utility.yul\":18191:18197   */\n      dup6\n        /* \"#utility.yul\":18184:18189   */\n      dup3\n        /* \"#utility.yul\":18131:18198   */\n      tag_373\n      jump\t// in\n    tag_587:\n        /* \"#utility.yul\":18125:18129   */\n      dup7\n        /* \"#utility.yul\":18118:18199   */\n      sstore\n        /* \"#utility.yul\":17987:18209   */\n      pop\n        /* \"#utility.yul\":17322:18209   */\n      jump(tag_584)\n        /* \"#utility.yul\":17352:17970   */\n    tag_585:\n        /* \"#utility.yul\":17404:17408   */\n      0x1f\n        /* \"#utility.yul\":17400:17409   */\n      not\n        /* \"#utility.yul\":17392:17398   */\n      dup5\n        /* \"#utility.yul\":17388:17410   */\n      and\n        /* \"#utility.yul\":17438:17475   */\n      tag_588\n        /* \"#utility.yul\":17470:17474   */\n      dup7\n        /* \"#utility.yul\":17438:17475   */\n      tag_359\n      jump\t// in\n    tag_588:\n        /* \"#utility.yul\":17497:17498   */\n      0x00\n        /* \"#utility.yul\":17511:17719   */\n    tag_589:\n        /* \"#utility.yul\":17525:17532   */\n      dup3\n        /* \"#utility.yul\":17522:17523   */\n      dup2\n        /* \"#utility.yul\":17519:17533   */\n      lt\n        /* \"#utility.yul\":17511:17719   */\n      iszero\n      tag_591\n      jumpi\n        /* \"#utility.yul\":17604:17613   */\n      dup5\n        /* \"#utility.yul\":17599:17602   */\n      dup10\n        /* \"#utility.yul\":17595:17614   */\n      add\n        /* \"#utility.yul\":17589:17615   */\n      mload\n        /* \"#utility.yul\":17581:17587   */\n      dup3\n        /* \"#utility.yul\":17574:17616   */\n      sstore\n        /* \"#utility.yul\":17655:17656   */\n      0x01\n        /* \"#utility.yul\":17647:17653   */\n      dup3\n        /* \"#utility.yul\":17643:17657   */\n      add\n        /* \"#utility.yul\":17633:17657   */\n      swap2\n      pop\n        /* \"#utility.yul\":17702:17704   */\n      0x20\n        /* \"#utility.yul\":17691:17700   */\n      dup6\n        /* \"#utility.yul\":17687:17705   */\n      add\n        /* \"#utility.yul\":17674:17705   */\n      swap5\n      pop\n        /* \"#utility.yul\":17548:17552   */\n      0x20\n        /* \"#utility.yul\":17545:17546   */\n      dup2\n        /* \"#utility.yul\":17541:17553   */\n      add\n        /* \"#utility.yul\":17536:17553   */\n      swap1\n      pop\n        /* \"#utility.yul\":17511:17719   */\n      jump(tag_589)\n    tag_591:\n        /* \"#utility.yul\":17747:17753   */\n      dup7\n        /* \"#utility.yul\":17738:17745   */\n      dup4\n        /* \"#utility.yul\":17735:17754   */\n      lt\n        /* \"#utility.yul\":17732:17911   */\n      iszero\n      tag_592\n      jumpi\n        /* \"#utility.yul\":17805:17814   */\n      dup5\n        /* \"#utility.yul\":17800:17803   */\n      dup10\n        /* \"#utility.yul\":17796:17815   */\n      add\n        /* \"#utility.yul\":17790:17816   */\n      mload\n        /* \"#utility.yul\":17848:17896   */\n      tag_593\n        /* \"#utility.yul\":17890:17894   */\n      0x1f\n        /* \"#utility.yul\":17882:17888   */\n      dup10\n        /* \"#utility.yul\":17878:17895   */\n      and\n        /* \"#utility.yul\":17867:17876   */\n      dup3\n        /* \"#utility.yul\":17848:17896   */\n      tag_372\n      jump\t// in\n    tag_593:\n        /* \"#utility.yul\":17840:17846   */\n      dup4\n        /* \"#utility.yul\":17833:17897   */\n      sstore\n        /* \"#utility.yul\":17755:17911   */\n      pop\n        /* \"#utility.yul\":17732:17911   */\n    tag_592:\n        /* \"#utility.yul\":17957:17958   */\n      0x01\n        /* \"#utility.yul\":17953:17954   */\n      0x02\n        /* \"#utility.yul\":17945:17951   */\n      dup9\n        /* \"#utility.yul\":17941:17955   */\n      mul\n        /* \"#utility.yul\":17937:17959   */\n      add\n        /* \"#utility.yul\":17931:17935   */\n      dup9\n        /* \"#utility.yul\":17924:17960   */\n      sstore\n        /* \"#utility.yul\":17359:17970   */\n      pop\n      pop\n      pop\n        /* \"#utility.yul\":17322:18209   */\n    tag_584:\n      pop\n        /* \"#utility.yul\":16912:18215   */\n      pop\n      pop\n      pop\n        /* \"#utility.yul\":16820:18215   */\n      pop\n      pop\n      jump\t// out\n        /* \"#utility.yul\":18221:18401   */\n    tag_374:\n        /* \"#utility.yul\":18269:18346   */\n      0x4e487b7100000000000000000000000000000000000000000000000000000000\n        /* \"#utility.yul\":18266:18267   */\n      0x00\n        /* \"#utility.yul\":18259:18347   */\n      mstore\n        /* \"#utility.yul\":18366:18370   */\n      0x11\n        /* \"#utility.yul\":18363:18364   */\n      0x04\n        /* \"#utility.yul\":18356:18371   */\n      mstore\n        /* \"#utility.yul\":18390:18394   */\n      0x24\n        /* \"#utility.yul\":18387:18388   */\n      0x00\n        /* \"#utility.yul\":18380:18395   */\n      revert\n        /* \"#utility.yul\":18407:18640   */\n    tag_145:\n        /* \"#utility.yul\":18446:18449   */\n      0x00\n        /* \"#utility.yul\":18469:18493   */\n      tag_596\n        /* \"#utility.yul\":18487:18492   */\n      dup3\n        /* \"#utility.yul\":18469:18493   */\n      tag_336\n      jump\t// in\n    tag_596:\n        /* \"#utility.yul\":18460:18493   */\n      swap2\n      pop\n        /* \"#utility.yul\":18515:18581   */\n      0xffffffffffffffffffffffffffffffffffffffffffffffffffffffffffffffff\n        /* \"#utility.yul\":18508:18513   */\n      dup3\n        /* \"#utility.yul\":18505:18582   */\n      sub\n        /* \"#utility.yul\":18502:18605   */\n      tag_597\n      jumpi\n        /* \"#utility.yul\":18585:18603   */\n      tag_598\n      tag_374\n      jump\t// in\n    tag_598:\n        /* \"#utility.yul\":18502:18605   */\n    tag_597:\n        /* \"#utility.yul\":18632:18633   */\n      0x01\n        /* \"#utility.yul\":18625:18630   */\n      dup3\n        /* \"#utility.yul\":18621:18634   */\n      add\n        /* \"#utility.yul\":18614:18634   */\n      swap1\n      pop\n        /* \"#utility.yul\":18407:18640   */\n      swap2\n      swap1\n      pop\n      jump\t// out\n        /* \"#utility.yul\":18646:19401   */\n    tag_147:\n        /* \"#utility.yul\":18871:18875   */\n      0x00\n        /* \"#utility.yul\":18909:18912   */\n      0xa0\n        /* \"#utility.yul\":18898:18907   */\n      dup3\n        /* \"#utility.yul\":18894:18913   */\n      add\n        /* \"#utility.yul\":18886:18913   */\n      swap1\n      pop\n        /* \"#utility.yul\":18923:18994   */\n      tag_600\n        /* \"#utility.yul\":18991:18992   */\n      0x00\n        /* \"#utility.yul\":18980:18989   */\n      dup4\n        /* \"#utility.yul\":18976:18993   */\n      add\n        /* \"#utility.yul\":18967:18973   */\n      dup9\n        /* \"#utility.yul\":18923:18994   */\n      tag_341\n      jump\t// in\n    tag_600:\n        /* \"#utility.yul\":19004:19076   */\n      tag_601\n        /* \"#utility.yul\":19072:19074   */\n      0x20\n        /* \"#utility.yul\":19061:19070   */\n      dup4\n        /* \"#utility.yul\":19057:19075   */\n      add\n        /* \"#utility.yul\":19048:19054   */\n      dup8\n        /* \"#utility.yul\":19004:19076   */\n      tag_352\n      jump\t// in\n    tag_601:\n        /* \"#utility.yul\":19123:19132   */\n      dup2\n        /* \"#utility.yul\":19117:19121   */\n      dup2\n        /* \"#utility.yul\":19113:19133   */\n      sub\n        /* \"#utility.yul\":19108:19110   */\n      0x40\n        /* \"#utility.yul\":19097:19106   */\n      dup4\n        /* \"#utility.yul\":19093:19111   */\n      add\n        /* \"#utility.yul\":19086:19134   */\n      mstore\n        /* \"#utility.yul\":19151:19229   */\n      tag_602\n        /* \"#utility.yul\":19224:19228   */\n      dup2\n        /* \"#utility.yul\":19215:19221   */\n      dup7\n        /* \"#utility.yul\":19151:19229   */\n      tag_335\n      jump\t// in\n    tag_602:\n        /* \"#utility.yul\":19143:19229   */\n      swap1\n      pop\n        /* \"#utility.yul\":19239:19311   */\n      tag_603\n        /* \"#utility.yul\":19307:19309   */\n      0x60\n        /* \"#utility.yul\":19296:19305   */\n      dup4\n        /* \"#utility.yul\":19292:19310   */\n      add\n        /* \"#utility.yul\":19283:19289   */\n      dup6\n        /* \"#utility.yul\":19239:19311   */\n      tag_352\n      jump\t// in\n    tag_603:\n        /* \"#utility.yul\":19321:19394   */\n      tag_604\n        /* \"#utility.yul\":19389:19392   */\n      0x80\n        /* \"#utility.yul\":19378:19387   */\n      dup4\n        /* \"#utility.yul\":19374:19393   */\n      add\n        /* \"#utility.yul\":19365:19371   */\n      dup5\n        /* \"#utility.yul\":19321:19394   */\n      tag_352\n      jump\t// in\n    tag_604:\n        /* \"#utility.yul\":18646:19401   */\n      swap7\n      swap6\n      pop\n      pop\n      pop\n      pop\n      pop\n      pop\n      jump\t// out\n        /* \"#utility.yul\":19407:19555   */\n    tag_375:\n        /* \"#utility.yul\":19509:19520   */\n      0x00\n        /* \"#utility.yul\":19546:19549   */\n      dup2\n        /* \"#utility.yul\":19531:19549   */\n      swap1\n      pop\n        /* \"#utility.yul\":19407:19555   */\n      swap3\n      swap2\n      pop\n      pop\n      jump\t// out\n        /* \"#utility.yul\":19561:19951   */\n    tag_376:\n        /* \"#utility.yul\":19667:19670   */\n      0x00\n        /* \"#utility.yul\":19695:19734   */\n      tag_607\n        /* \"#utility.yul\":19728:19733   */\n      dup3\n        /* \"#utility.yul\":19695:19734   */\n      tag_331\n      jump\t// in\n    tag_607:\n        /* \"#utility.yul\":19750:19839   */\n      tag_608\n        /* \"#utility.yul\":19832:19838   */\n      dup2\n        /* \"#utility.yul\":19827:19830   */\n      dup6\n        /* \"#utility.yul\":19750:19839   */\n      tag_375\n      jump\t// in\n    tag_608:\n        /* \"#utility.yul\":19743:19839   */\n      swap4\n      pop\n        /* \"#utility.yul\":19848:19913   */\n      tag_609\n        /* \"#utility.yul\":19906:19912   */\n      dup2\n        /* \"#utility.yul\":19901:19904   */\n      dup6\n        /* \"#utility.yul\":19894:19898   */\n      0x20\n        /* \"#utility.yul\":19887:19892   */\n      dup7\n        /* \"#utility.yul\":19883:19899   */\n      add\n        /* \"#utility.yul\":19848:19913   */\n      tag_333\n      jump\t// in\n    tag_609:\n        /* \"#utility.yul\":19938:19944   */\n      dup1\n        /* \"#utility.yul\":19933:19936   */\n      dup5\n        /* \"#utility.yul\":19929:19945   */\n      add\n        /* \"#utility.yul\":19922:19945   */\n      swap2\n      pop\n        /* \"#utility.yul\":19671:19951   */\n      pop\n        /* \"#utility.yul\":19561:19951   */\n      swap3\n      swap2\n      pop\n      pop\n      jump\t// out\n        /* \"#utility.yul\":19957:20392   */\n    tag_183:\n        /* \"#utility.yul\":20137:20140   */\n      0x00\n        /* \"#utility.yul\":20159:20254   */\n      tag_611\n        /* \"#utility.yul\":20250:20253   */\n      dup3\n        /* \"#utility.yul\":20241:20247   */\n      dup6\n        /* \"#utility.yul\":20159:20254   */\n      tag_376\n      jump\t// in\n    tag_611:\n        /* \"#utility.yul\":20152:20254   */\n      swap2\n      pop\n        /* \"#utility.yul\":20271:20366   */\n      tag_612\n        /* \"#utility.yul\":20362:20365   */\n      dup3\n        /* \"#utility.yul\":20353:20359   */\n      dup5\n        /* \"#utility.yul\":20271:20366   */\n      tag_376\n      jump\t// in\n    tag_612:\n        /* \"#utility.yul\":20264:20366   */\n      swap2\n      pop\n        /* \"#utility.yul\":20383:20386   */\n      dup2\n        /* \"#utility.yul\":20376:20386   */\n      swap1\n      pop\n        /* \"#utility.yul\":19957:20392   */\n      swap4\n      swap3\n      pop\n      pop\n      pop\n      jump\t// out\n        /* \"#utility.yul\":20398:20568   */\n    tag_377:\n        /* \"#utility.yul\":20538:20560   */\n      0x436861726163746572206e6f74206d696e746564000000000000000000000000\n        /* \"#utility.yul\":20534:20535   */\n      0x00\n        /* \"#utility.yul\":20526:20532   */\n      dup3\n        /* \"#utility.yul\":20522:20536   */\n      add\n        /* \"#utility.yul\":20515:20561   */\n      mstore\n        /* \"#utility.yul\":20398:20568   */\n      pop\n      jump\t// out\n        /* \"#utility.yul\":20574:20940   */\n    tag_378:\n        /* \"#utility.yul\":20716:20719   */\n      0x00\n        /* \"#utility.yul\":20737:20804   */\n      tag_615\n        /* \"#utility.yul\":20801:20803   */\n      0x14\n        /* \"#utility.yul\":20796:20799   */\n      dup4\n        /* \"#utility.yul\":20737:20804   */\n      tag_332\n      jump\t// in\n    tag_615:\n        /* \"#utility.yul\":20730:20804   */\n      swap2\n      pop\n        /* \"#utility.yul\":20813:20906   */\n      tag_616\n        /* \"#utility.yul\":20902:20905   */\n      dup3\n        /* \"#utility.yul\":20813:20906   */\n      tag_377\n      jump\t// in\n    tag_616:\n        /* \"#utility.yul\":20931:20933   */\n      0x20\n        /* \"#utility.yul\":20926:20929   */\n      dup3\n        /* \"#utility.yul\":20922:20934   */\n      add\n        /* \"#utility.yul\":20915:20934   */\n      swap1\n      pop\n        /* \"#utility.yul\":20574:20940   */\n      swap2\n      swap1\n      pop\n      jump\t// out\n        /* \"#utility.yul\":20946:21365   */\n    tag_187:\n        /* \"#utility.yul\":21112:21116   */\n      0x00\n        /* \"#utility.yul\":21150:21152   */\n      0x20\n        /* \"#utility.yul\":21139:21148   */\n      dup3\n        /* \"#utility.yul\":21135:21153   */\n      add\n        /* \"#utility.yul\":21127:21153   */\n      swap1\n      pop\n        /* \"#utility.yul\":21199:21208   */\n      dup2\n        /* \"#utility.yul\":21193:21197   */\n      dup2\n        /* \"#utility.yul\":21189:21209   */\n      sub\n        /* \"#utility.yul\":21185:21186   */\n      0x00\n        /* \"#utility.yul\":21174:21183   */\n      dup4\n        /* \"#utility.yul\":21170:21187   */\n      add\n        /* \"#utility.yul\":21163:21210   */\n      mstore\n        /* \"#utility.yul\":21227:21358   */\n      tag_618\n        /* \"#utility.yul\":21353:21357   */\n      dup2\n        /* \"#utility.yul\":21227:21358   */\n      tag_378\n      jump\t// in\n    tag_618:\n        /* \"#utility.yul\":21219:21358   */\n      swap1\n      pop\n        /* \"#utility.yul\":20946:21365   */\n      swap2\n      swap1\n      pop\n      jump\t// out\n        /* \"#utility.yul\":21371:21469   */\n    tag_379:\n        /* \"#utility.yul\":21422:21428   */\n      0x00\n        /* \"#utility.yul\":21456:21461   */\n      dup2\n        /* \"#utility.yul\":21450:21462   */\n      mload\n        /* \"#utility.yul\":21440:21462   */\n      swap1\n      pop\n        /* \"#utility.yul\":21371:21469   */\n      swap2\n      swap1\n      pop\n      jump\t// out\n        /* \"#utility.yul\":21475:21643   */\n    tag_380:\n        /* \"#utility.yul\":21558:21569   */\n      0x00\n        /* \"#utility.yul\":21592:21598   */\n      dup3\n        /* \"#utility.yul\":21587:21590   */\n      dup3\n        /* \"#utility.yul\":21580:21599   */\n      mstore\n        /* \"#utility.yul\":21632:21636   */\n      0x20\n        /* \"#utility.yul\":21627:21630   */\n      dup3\n        /* \"#utility.yul\":21623:21637   */\n      add\n        /* \"#utility.yul\":21608:21637   */\n      swap1\n      pop\n        /* \"#utility.yul\":21475:21643   */\n      swap3\n      swap2\n      pop\n      pop\n      jump\t// out\n        /* \"#utility.yul\":21649:22022   */\n    tag_381:\n        /* \"#utility.yul\":21735:21738   */\n      0x00\n        /* \"#utility.yul\":21763:21801   */\n      tag_622\n        /* \"#utility.yul\":21795:21800   */\n      dup3\n        /* \"#utility.yul\":21763:21801   */\n      tag_379\n      jump\t// in\n    tag_622:\n        /* \"#utility.yul\":21817:21887   */\n      tag_623\n        /* \"#utility.yul\":21880:21886   */\n      dup2\n        /* \"#utility.yul\":21875:21878   */\n      dup6\n        /* \"#utility.yul\":21817:21887   */\n      tag_380\n      jump\t// in\n    tag_623:\n        /* \"#utility.yul\":21810:21887   */\n      swap4\n      pop\n        /* \"#utility.yul\":21896:21961   */\n      tag_624\n        /* \"#utility.yul\":21954:21960   */\n      dup2\n        /* \"#utility.yul\":21949:21952   */\n      dup6\n        /* \"#utility.yul\":21942:21946   */\n      0x20\n        /* \"#utility.yul\":21935:21940   */\n      dup7\n        /* \"#utility.yul\":21931:21947   */\n      add\n        /* \"#utility.yul\":21896:21961   */\n      tag_333\n      jump\t// in\n    tag_624:\n        /* \"#utility.yul\":21986:22015   */\n      tag_625\n        /* \"#utility.yul\":22008:22014   */\n      dup2\n        /* \"#utility.yul\":21986:22015   */\n      tag_334\n      jump\t// in\n    tag_625:\n        /* \"#utility.yul\":21981:21984   */\n      dup5\n        /* \"#utility.yul\":21977:22016   */\n      add\n        /* \"#utility.yul\":21970:22016   */\n      swap2\n      pop\n        /* \"#utility.yul\":21739:22022   */\n      pop\n        /* \"#utility.yul\":21649:22022   */\n      swap3\n      swap2\n      pop\n      pop\n      jump\t// out\n        /* \"#utility.yul\":22028:22668   */\n    tag_237:\n        /* \"#utility.yul\":22223:22227   */\n      0x00\n        /* \"#utility.yul\":22261:22264   */\n      0x80\n        /* \"#utility.yul\":22250:22259   */\n      dup3\n        /* \"#utility.yul\":22246:22265   */\n      add\n        /* \"#utility.yul\":22238:22265   */\n      swap1\n      pop\n        /* \"#utility.yul\":22275:22346   */\n      tag_627\n        /* \"#utility.yul\":22343:22344   */\n      0x00\n        /* \"#utility.yul\":22332:22341   */\n      dup4\n        /* \"#utility.yul\":22328:22345   */\n      add\n        /* \"#utility.yul\":22319:22325   */\n      dup8\n        /* \"#utility.yul\":22275:22346   */\n      tag_341\n      jump\t// in\n    tag_627:\n        /* \"#utility.yul\":22356:22428   */\n      tag_628\n        /* \"#utility.yul\":22424:22426   */\n      0x20\n        /* \"#utility.yul\":22413:22422   */\n      dup4\n        /* \"#utility.yul\":22409:22427   */\n      add\n        /* \"#utility.yul\":22400:22406   */\n      dup7\n        /* \"#utility.yul\":22356:22428   */\n      tag_341\n      jump\t// in\n    tag_628:\n        /* \"#utility.yul\":22438:22510   */\n      tag_629\n        /* \"#utility.yul\":22506:22508   */\n      0x40\n        /* \"#utility.yul\":22495:22504   */\n      dup4\n        /* \"#utility.yul\":22491:22509   */\n      add\n        /* \"#utility.yul\":22482:22488   */\n      dup6\n        /* \"#utility.yul\":22438:22510   */\n      tag_352\n      jump\t// in\n    tag_629:\n        /* \"#utility.yul\":22557:22566   */\n      dup2\n        /* \"#utility.yul\":22551:22555   */\n      dup2\n        /* \"#utility.yul\":22547:22567   */\n      sub\n        /* \"#utility.yul\":22542:22544   */\n      0x60\n        /* \"#utility.yul\":22531:22540   */\n      dup4\n        /* \"#utility.yul\":22527:22545   */\n      add\n        /* \"#utility.yul\":22520:22568   */\n      mstore\n        /* \"#utility.yul\":22585:22661   */\n      tag_630\n        /* \"#utility.yul\":22656:22660   */\n      dup2\n        /* \"#utility.yul\":22647:22653   */\n      dup5\n        /* \"#utility.yul\":22585:22661   */\n      tag_381\n      jump\t// in\n    tag_630:\n        /* \"#utility.yul\":22577:22661   */\n      swap1\n      pop\n        /* \"#utility.yul\":22028:22668   */\n      swap6\n      swap5\n      pop\n      pop\n      pop\n      pop\n      pop\n      jump\t// out\n        /* \"#utility.yul\":22674:22815   */\n    tag_382:\n        /* \"#utility.yul\":22730:22735   */\n      0x00\n        /* \"#utility.yul\":22761:22767   */\n      dup2\n        /* \"#utility.yul\":22755:22768   */\n      mload\n        /* \"#utility.yul\":22746:22768   */\n      swap1\n      pop\n        /* \"#utility.yul\":22777:22809   */\n      tag_632\n        /* \"#utility.yul\":22803:22808   */\n      dup2\n        /* \"#utility.yul\":22777:22809   */\n      tag_327\n      jump\t// in\n    tag_632:\n        /* \"#utility.yul\":22674:22815   */\n      swap3\n      swap2\n      pop\n      pop\n      jump\t// out\n        /* \"#utility.yul\":22821:23170   */\n    tag_240:\n        /* \"#utility.yul\":22890:22896   */\n      0x00\n        /* \"#utility.yul\":22939:22941   */\n      0x20\n        /* \"#utility.yul\":22927:22936   */\n      dup3\n        /* \"#utility.yul\":22918:22925   */\n      dup5\n        /* \"#utility.yul\":22914:22937   */\n      sub\n        /* \"#utility.yul\":22910:22942   */\n      slt\n        /* \"#utility.yul\":22907:23026   */\n      iszero\n      tag_634\n      jumpi\n        /* \"#utility.yul\":22945:23024   */\n      tag_635\n      tag_324\n      jump\t// in\n    tag_635:\n        /* \"#utility.yul\":22907:23026   */\n    tag_634:\n        /* \"#utility.yul\":23065:23066   */\n      0x00\n        /* \"#utility.yul\":23090:23153   */\n      tag_636\n        /* \"#utility.yul\":23145:23152   */\n      dup5\n        /* \"#utility.yul\":23136:23142   */\n      dup3\n        /* \"#utility.yul\":23125:23134   */\n      dup6\n        /* \"#utility.yul\":23121:23143   */\n      add\n        /* \"#utility.yul\":23090:23153   */\n      tag_382\n      jump\t// in\n    tag_636:\n        /* \"#utility.yul\":23080:23153   */\n      swap2\n      pop\n        /* \"#utility.yul\":23036:23163   */\n      pop\n        /* \"#utility.yul\":22821:23170   */\n      swap3\n      swap2\n      pop\n      pop\n      jump\t// out\n        /* \"#utility.yul\":23176:23356   */\n    tag_265:\n        /* \"#utility.yul\":23224:23301   */\n      0x4e487b7100000000000000000000000000000000000000000000000000000000\n        /* \"#utility.yul\":23221:23222   */\n      0x00\n        /* \"#utility.yul\":23214:23302   */\n      mstore\n        /* \"#utility.yul\":23321:23325   */\n      0x12\n        /* \"#utility.yul\":23318:23319   */\n      0x04\n        /* \"#utility.yul\":23311:23326   */\n      mstore\n        /* \"#utility.yul\":23345:23349   */\n      0x24\n        /* \"#utility.yul\":23342:23343   */\n      0x00\n        /* \"#utility.yul\":23335:23350   */\n      revert\n        /* \"#utility.yul\":23362:23694   */\n    tag_286:\n        /* \"#utility.yul\":23483:23487   */\n      0x00\n        /* \"#utility.yul\":23521:23523   */\n      0x40\n        /* \"#utility.yul\":23510:23519   */\n      dup3\n        /* \"#utility.yul\":23506:23524   */\n      add\n        /* \"#utility.yul\":23498:23524   */\n      swap1\n      pop\n        /* \"#utility.yul\":23534:23605   */\n      tag_639\n        /* \"#utility.yul\":23602:23603   */\n      0x00\n        /* \"#utility.yul\":23591:23600   */\n      dup4\n        /* \"#utility.yul\":23587:23604   */\n      add\n        /* \"#utility.yul\":23578:23584   */\n      dup6\n        /* \"#utility.yul\":23534:23605   */\n      tag_341\n      jump\t// in\n    tag_639:\n        /* \"#utility.yul\":23615:23687   */\n      tag_640\n        /* \"#utility.yul\":23683:23685   */\n      0x20\n        /* \"#utility.yul\":23672:23681   */\n      dup4\n        /* \"#utility.yul\":23668:23686   */\n      add\n        /* \"#utility.yul\":23659:23665   */\n      dup5\n        /* \"#utility.yul\":23615:23687   */\n      tag_352\n      jump\t// in\n    tag_640:\n        /* \"#utility.yul\":23362:23694   */\n      swap4\n      swap3\n      pop\n      pop\n      pop\n      jump\t// out\n\n    auxdata: 0xa2646970667358221220c49d479e061aa09c8ae70be3cb0ec9dea6a9413c523d45f06d8c36a742788a9464736f6c63430008160033\n}\n",
				"bytecode": {
					"linkReferences": {},
					"object": "608060405234801562000010575f80fd5b5060405162002ea238038062002ea2833981810160405281019062000036919062000333565b338282815f9081620000499190620005ed565b5080600190816200005b9190620005ed565b5050505f73ffffffffffffffffffffffffffffffffffffffff168173ffffffffffffffffffffffffffffffffffffffff1603620000d1575f6040517f1e4fbdf7000000000000000000000000000000000000000000000000000000008152600401620000c8919062000714565b60405180910390fd5b620000e281620000eb60201b60201c565b5050506200072f565b5f60065f9054906101000a900473ffffffffffffffffffffffffffffffffffffffff1690508160065f6101000a81548173ffffffffffffffffffffffffffffffffffffffff021916908373ffffffffffffffffffffffffffffffffffffffff1602179055508173ffffffffffffffffffffffffffffffffffffffff168173ffffffffffffffffffffffffffffffffffffffff167f8be0079c531659141344cd1fd0a4f28419497f9722a3daafe3b4186f6b6457e060405160405180910390a35050565b5f604051905090565b5f80fd5b5f80fd5b5f80fd5b5f80fd5b5f601f19601f8301169050919050565b7f4e487b71000000000000000000000000000000000000000000000000000000005f52604160045260245ffd5b6200020f82620001c7565b810181811067ffffffffffffffff82111715620002315762000230620001d7565b5b80604052505050565b5f62000245620001ae565b905062000253828262000204565b919050565b5f67ffffffffffffffff821115620002755762000274620001d7565b5b6200028082620001c7565b9050602081019050919050565b5f5b83811015620002ac5780820151818401526020810190506200028f565b5f8484015250505050565b5f620002cd620002c78462000258565b6200023a565b905082815260208101848484011115620002ec57620002eb620001c3565b5b620002f98482856200028d565b509392505050565b5f82601f830112620003185762000317620001bf565b5b81516200032a848260208601620002b7565b91505092915050565b5f80604083850312156200034c576200034b620001b7565b5b5f83015167ffffffffffffffff8111156200036c576200036b620001bb565b5b6200037a8582860162000301565b925050602083015167ffffffffffffffff8111156200039e576200039d620001bb565b5b620003ac8582860162000301565b9150509250929050565b5f81519050919050565b7f4e487b71000000000000000000000000000000000000000000000000000000005f52602260045260245ffd5b5f60028204905060018216806200040557607f821691505b6020821081036200041b576200041a620003c0565b5b50919050565b5f819050815f5260205f209050919050565b5f6020601f8301049050919050565b5f82821b905092915050565b5f600883026200047f7fffffffffffffffffffffffffffffffffffffffffffffffffffffffffffffffff8262000442565b6200048b868362000442565b95508019841693508086168417925050509392505050565b5f819050919050565b5f819050919050565b5f620004d5620004cf620004c984620004a3565b620004ac565b620004a3565b9050919050565b5f819050919050565b620004f083620004b5565b62000508620004ff82620004dc565b8484546200044e565b825550505050565b5f90565b6200051e62000510565b6200052b818484620004e5565b505050565b5b818110156200055257620005465f8262000514565b60018101905062000531565b5050565b601f821115620005a1576200056b8162000421565b620005768462000433565b8101602085101562000586578190505b6200059e620005958562000433565b83018262000530565b50505b505050565b5f82821c905092915050565b5f620005c35f1984600802620005a6565b1980831691505092915050565b5f620005dd8383620005b2565b9150826002028217905092915050565b620005f882620003b6565b67ffffffffffffffff811115620006145762000613620001d7565b5b620006208254620003ed565b6200062d82828562000556565b5f60209050601f83116001811462000663575f84156200064e578287015190505b6200065a8582620005d0565b865550620006c9565b601f198416620006738662000421565b5f5b828110156200069c5784890151825560018201915060208501945060208101905062000675565b86831015620006bc5784890151620006b8601f891682620005b2565b8355505b6001600288020188555050505b505050505050565b5f73ffffffffffffffffffffffffffffffffffffffff82169050919050565b5f620006fc82620006d1565b9050919050565b6200070e81620006f0565b82525050565b5f602082019050620007295f83018462000703565b92915050565b612765806200073d5f395ff3fe608060405234801561000f575f80fd5b506004361061011f575f3560e01c8063715018a6116100ab578063b88d4fde1161006f578063b88d4fde14610303578063c87b56dd1461031f578063d0e60cff1461034f578063e985e9c514610381578063f2fde38b146103b15761011f565b8063715018a6146102715780638da5cb5b1461027b57806395d89b41146102995780639756aadd146102b7578063a22cb465146102e75761011f565b806323b872dd116100f257806323b872dd146101bd57806342842e0e146101d95780635091df62146101f55780636352211e1461021157806370a08231146102415761011f565b806301ffc9a71461012357806306fdde0314610153578063081812fc14610171578063095ea7b3146101a1575b5f80fd5b61013d60048036038101906101389190611b10565b6103cd565b60405161014a9190611b55565b60405180910390f35b61015b6104ae565b6040516101689190611bf8565b60405180910390f35b61018b60048036038101906101869190611c4b565b61053d565b6040516101989190611cb5565b60405180910390f35b6101bb60048036038101906101b69190611cf8565b610558565b005b6101d760048036038101906101d29190611d36565b61056e565b005b6101f360048036038101906101ee9190611d36565b61066d565b005b61020f600480360381019061020a9190611eb2565b61068c565b005b61022b60048036038101906102269190611c4b565b610780565b6040516102389190611cb5565b60405180910390f35b61025b60048036038101906102569190611f1e565b610791565b6040516102689190611f58565b60405180910390f35b610279610847565b005b61028361085a565b6040516102909190611cb5565b60405180910390f35b6102a1610882565b6040516102ae9190611bf8565b60405180910390f35b6102d160048036038101906102cc9190611c4b565b610912565b6040516102de9190611b55565b60405180910390f35b61030160048036038101906102fc9190611f9b565b610938565b005b61031d60048036038101906103189190612077565b61094e565b005b61033960048036038101906103349190611c4b565b61096b565b6040516103469190611bf8565b60405180910390f35b61036960048036038101906103649190611c4b565b6109d1565b604051610378939291906120f7565b60405180910390f35b61039b60048036038101906103969190612133565b610b10565b6040516103a89190611b55565b60405180910390f35b6103cb60048036038101906103c69190611f1e565b610b9e565b005b5f7f80ac58cd000000000000000000000000000000000000000000000000000000007bffffffffffffffffffffffffffffffffffffffffffffffffffffffff1916827bffffffffffffffffffffffffffffffffffffffffffffffffffffffff1916148061049757507f5b5e139f000000000000000000000000000000000000000000000000000000007bffffffffffffffffffffffffffffffffffffffffffffffffffffffff1916827bffffffffffffffffffffffffffffffffffffffffffffffffffffffff1916145b806104a757506104a682610c22565b5b9050919050565b60605f80546104bc9061219e565b80601f01602080910402602001604051908101604052809291908181526020018280546104e89061219e565b80156105335780601f1061050a57610100808354040283529160200191610533565b820191905f5260205f20905b81548152906001019060200180831161051657829003601f168201915b5050505050905090565b5f61054782610c8b565b5061055182610d11565b9050919050565b61056a8282610565610d4a565b610d51565b5050565b5f73ffffffffffffffffffffffffffffffffffffffff168273ffffffffffffffffffffffffffffffffffffffff16036105de575f6040517f64a0ae920000000000000000000000000000000000000000000000000000000081526004016105d59190611cb5565b60405180910390fd5b5f6105f183836105ec610d4a565b610d63565b90508373ffffffffffffffffffffffffffffffffffffffff168173ffffffffffffffffffffffffffffffffffffffff1614610667578382826040517f64283d7b00000000000000000000000000000000000000000000000000000000815260040161065e939291906121ce565b60405180910390fd5b50505050565b61068783838360405180602001604052805f81525061094e565b505050565b610694610f6e565b5f60075490506106a43382610ff5565b600160085f8381526020019081526020015f205f6101000a81548160ff02191690831515021790555060405180606001604052808581526020018481526020018381525060095f8381526020019081526020015f205f820151815f01908161070c91906123a0565b50602082015181600101556040820151816002015590505060075f8154809291906107369061249c565b91905055507f7a4bb3b51994e0ca98a9a569b1b5baade9f795a768ce078dffdb422d1afeef4b33828686866040516107729594939291906124e3565b60405180910390a150505050565b5f61078a82610c8b565b9050919050565b5f8073ffffffffffffffffffffffffffffffffffffffff168273ffffffffffffffffffffffffffffffffffffffff1603610802575f6040517f89c62b640000000000000000000000000000000000000000000000000000000081526004016107f99190611cb5565b60405180910390fd5b60035f8373ffffffffffffffffffffffffffffffffffffffff1673ffffffffffffffffffffffffffffffffffffffff1681526020019081526020015f20549050919050565b61084f610f6e565b6108585f611012565b565b5f60065f9054906101000a900473ffffffffffffffffffffffffffffffffffffffff16905090565b6060600180546108919061219e565b80601f01602080910402602001604051908101604052809291908181526020018280546108bd9061219e565b80156109085780601f106108df57610100808354040283529160200191610908565b820191905f5260205f20905b8154815290600101906020018083116108eb57829003601f168201915b5050505050905090565b5f60085f8381526020019081526020015f205f9054906101000a900460ff169050919050565b61094a610943610d4a565b83836110d5565b5050565b61095984848461056e565b6109658484848461123e565b50505050565b606061097682610c8b565b505f6109806113f0565b90505f81511161099e5760405180602001604052805f8152506109c9565b806109a884611406565b6040516020016109b9929190612575565b6040516020818303038152906040525b915050919050565b60605f8060085f8581526020019081526020015f205f9054906101000a900460ff16610a32576040517f08c379a0000000000000000000000000000000000000000000000000000000008152600401610a29906125e2565b60405180910390fd5b5f60095f8681526020019081526020015f206040518060600160405290815f82018054610a5e9061219e565b80601f0160208091040260200160405190810160405280929190818152602001828054610a8a9061219e565b8015610ad55780601f10610aac57610100808354040283529160200191610ad5565b820191905f5260205f20905b815481529060010190602001808311610ab857829003601f168201915b50505050508152602001600182015481526020016002820154815250509050805f015181602001518260400151935093509350509193909250565b5f60055f8473ffffffffffffffffffffffffffffffffffffffff1673ffffffffffffffffffffffffffffffffffffffff1681526020019081526020015f205f8373ffffffffffffffffffffffffffffffffffffffff1673ffffffffffffffffffffffffffffffffffffffff1681526020019081526020015f205f9054906101000a900460ff16905092915050565b610ba6610f6e565b5f73ffffffffffffffffffffffffffffffffffffffff168173ffffffffffffffffffffffffffffffffffffffff1603610c16575f6040517f1e4fbdf7000000000000000000000000000000000000000000000000000000008152600401610c0d9190611cb5565b60405180910390fd5b610c1f81611012565b50565b5f7f01ffc9a7000000000000000000000000000000000000000000000000000000007bffffffffffffffffffffffffffffffffffffffffffffffffffffffff1916827bffffffffffffffffffffffffffffffffffffffffffffffffffffffff1916149050919050565b5f80610c96836114d0565b90505f73ffffffffffffffffffffffffffffffffffffffff168173ffffffffffffffffffffffffffffffffffffffff1603610d0857826040517f7e273289000000000000000000000000000000000000000000000000000000008152600401610cff9190611f58565b60405180910390fd5b80915050919050565b5f60045f8381526020019081526020015f205f9054906101000a900473ffffffffffffffffffffffffffffffffffffffff169050919050565b5f33905090565b610d5e8383836001611509565b505050565b5f80610d6e846114d0565b90505f73ffffffffffffffffffffffffffffffffffffffff168373ffffffffffffffffffffffffffffffffffffffff1614610daf57610dae8184866116c8565b5b5f73ffffffffffffffffffffffffffffffffffffffff168173ffffffffffffffffffffffffffffffffffffffff1614610e3a57610dee5f855f80611509565b600160035f8373ffffffffffffffffffffffffffffffffffffffff1673ffffffffffffffffffffffffffffffffffffffff1681526020019081526020015f205f82825403925050819055505b5f73ffffffffffffffffffffffffffffffffffffffff168573ffffffffffffffffffffffffffffffffffffffff1614610eb957600160035f8773ffffffffffffffffffffffffffffffffffffffff1673ffffffffffffffffffffffffffffffffffffffff1681526020019081526020015f205f82825401925050819055505b8460025f8681526020019081526020015f205f6101000a81548173ffffffffffffffffffffffffffffffffffffffff021916908373ffffffffffffffffffffffffffffffffffffffff160217905550838573ffffffffffffffffffffffffffffffffffffffff168273ffffffffffffffffffffffffffffffffffffffff167fddf252ad1be2c89b69c2b068fc378daa952ba7f163c4a11628f55a4df523b3ef60405160405180910390a4809150509392505050565b610f76610d4a565b73ffffffffffffffffffffffffffffffffffffffff16610f9461085a565b73ffffffffffffffffffffffffffffffffffffffff1614610ff357610fb7610d4a565b6040517f118cdaa7000000000000000000000000000000000000000000000000000000008152600401610fea9190611cb5565b60405180910390fd5b565b61100e828260405180602001604052805f81525061178b565b5050565b5f60065f9054906101000a900473ffffffffffffffffffffffffffffffffffffffff1690508160065f6101000a81548173ffffffffffffffffffffffffffffffffffffffff021916908373ffffffffffffffffffffffffffffffffffffffff1602179055508173ffffffffffffffffffffffffffffffffffffffff168173ffffffffffffffffffffffffffffffffffffffff167f8be0079c531659141344cd1fd0a4f28419497f9722a3daafe3b4186f6b6457e060405160405180910390a35050565b5f73ffffffffffffffffffffffffffffffffffffffff168273ffffffffffffffffffffffffffffffffffffffff160361114557816040517f5b08ba1800000000000000000000000000000000000000000000000000000000815260040161113c9190611cb5565b60405180910390fd5b8060055f8573ffffffffffffffffffffffffffffffffffffffff1673ffffffffffffffffffffffffffffffffffffffff1681526020019081526020015f205f8473ffffffffffffffffffffffffffffffffffffffff1673ffffffffffffffffffffffffffffffffffffffff1681526020019081526020015f205f6101000a81548160ff0219169083151502179055508173ffffffffffffffffffffffffffffffffffffffff168373ffffffffffffffffffffffffffffffffffffffff167f17307eab39ab6107e8899845ad3d59bd9653f200f220920489ca2b5937696c31836040516112319190611b55565b60405180910390a3505050565b5f8373ffffffffffffffffffffffffffffffffffffffff163b11156113ea578273ffffffffffffffffffffffffffffffffffffffff1663150b7a02611281610d4a565b8685856040518563ffffffff1660e01b81526004016112a39493929190612652565b6020604051808303815f875af19250505080156112de57506040513d601f19601f820116820180604052508101906112db91906126b0565b60015b61135f573d805f811461130c576040519150601f19603f3d011682016040523d82523d5f602084013e611311565b606091505b505f81510361135757836040517f64a0ae9200000000000000000000000000000000000000000000000000000000815260040161134e9190611cb5565b60405180910390fd5b805181602001fd5b63150b7a0260e01b7bffffffffffffffffffffffffffffffffffffffffffffffffffffffff1916817bffffffffffffffffffffffffffffffffffffffffffffffffffffffff1916146113e857836040517f64a0ae920000000000000000000000000000000000000000000000000000000081526004016113df9190611cb5565b60405180910390fd5b505b50505050565b606060405180602001604052805f815250905090565b60605f6001611414846117a6565b0190505f8167ffffffffffffffff81111561143257611431611d8e565b5b6040519080825280601f01601f1916602001820160405280156114645781602001600182028036833780820191505090505b5090505f82602001820190505b6001156114c5578080600190039150507f3031323334353637383961626364656600000000000000000000000000000000600a86061a8153600a85816114ba576114b96126db565b5b0494505f8503611471575b819350505050919050565b5f60025f8381526020019081526020015f205f9054906101000a900473ffffffffffffffffffffffffffffffffffffffff169050919050565b808061154157505f73ffffffffffffffffffffffffffffffffffffffff168273ffffffffffffffffffffffffffffffffffffffff1614155b15611673575f61155084610c8b565b90505f73ffffffffffffffffffffffffffffffffffffffff168373ffffffffffffffffffffffffffffffffffffffff16141580156115ba57508273ffffffffffffffffffffffffffffffffffffffff168173ffffffffffffffffffffffffffffffffffffffff1614155b80156115cd57506115cb8184610b10565b155b1561160f57826040517fa9fbf51f0000000000000000000000000000000000000000000000000000000081526004016116069190611cb5565b60405180910390fd5b811561167157838573ffffffffffffffffffffffffffffffffffffffff168273ffffffffffffffffffffffffffffffffffffffff167f8c5be1e5ebec7d5bd14f71427d1e84f3dd0314c0f7b2291e5b200ac8c7c3b92560405160405180910390a45b505b8360045f8581526020019081526020015f205f6101000a81548173ffffffffffffffffffffffffffffffffffffffff021916908373ffffffffffffffffffffffffffffffffffffffff16021790555050505050565b6116d38383836118f7565b611786575f73ffffffffffffffffffffffffffffffffffffffff168373ffffffffffffffffffffffffffffffffffffffff160361174757806040517f7e27328900000000000000000000000000000000000000000000000000000000815260040161173e9190611f58565b60405180910390fd5b81816040517f177e802f00000000000000000000000000000000000000000000000000000000815260040161177d929190612708565b60405180910390fd5b505050565b61179583836119b7565b6117a15f84848461123e565b505050565b5f805f90507a184f03e93ff9f4daa797ed6e38ed64bf6a1f0100000000000000008310611802577a184f03e93ff9f4daa797ed6e38ed64bf6a1f01000000000000000083816117f8576117f76126db565b5b0492506040810190505b6d04ee2d6d415b85acef8100000000831061183f576d04ee2d6d415b85acef81000000008381611835576118346126db565b5b0492506020810190505b662386f26fc10000831061186e57662386f26fc100008381611864576118636126db565b5b0492506010810190505b6305f5e1008310611897576305f5e100838161188d5761188c6126db565b5b0492506008810190505b61271083106118bc5761271083816118b2576118b16126db565b5b0492506004810190505b606483106118df57606483816118d5576118d46126db565b5b0492506002810190505b600a83106118ee576001810190505b80915050919050565b5f8073ffffffffffffffffffffffffffffffffffffffff168373ffffffffffffffffffffffffffffffffffffffff16141580156119ae57508273ffffffffffffffffffffffffffffffffffffffff168473ffffffffffffffffffffffffffffffffffffffff16148061196f575061196e8484610b10565b5b806119ad57508273ffffffffffffffffffffffffffffffffffffffff1661199583610d11565b73ffffffffffffffffffffffffffffffffffffffff16145b5b90509392505050565b5f73ffffffffffffffffffffffffffffffffffffffff168273ffffffffffffffffffffffffffffffffffffffff1603611a27575f6040517f64a0ae92000000000000000000000000000000000000000000000000000000008152600401611a1e9190611cb5565b60405180910390fd5b5f611a3383835f610d63565b90505f73ffffffffffffffffffffffffffffffffffffffff168173ffffffffffffffffffffffffffffffffffffffff1614611aa5575f6040517f73c6ac6e000000000000000000000000000000000000000000000000000000008152600401611a9c9190611cb5565b60405180910390fd5b505050565b5f604051905090565b5f80fd5b5f80fd5b5f7fffffffff0000000000000000000000000000000000000000000000000000000082169050919050565b611aef81611abb565b8114611af9575f80fd5b50565b5f81359050611b0a81611ae6565b92915050565b5f60208284031215611b2557611b24611ab3565b5b5f611b3284828501611afc565b91505092915050565b5f8115159050919050565b611b4f81611b3b565b82525050565b5f602082019050611b685f830184611b46565b92915050565b5f81519050919050565b5f82825260208201905092915050565b5f5b83811015611ba5578082015181840152602081019050611b8a565b5f8484015250505050565b5f601f19601f8301169050919050565b5f611bca82611b6e565b611bd48185611b78565b9350611be4818560208601611b88565b611bed81611bb0565b840191505092915050565b5f6020820190508181035f830152611c108184611bc0565b905092915050565b5f819050919050565b611c2a81611c18565b8114611c34575f80fd5b50565b5f81359050611c4581611c21565b92915050565b5f60208284031215611c6057611c5f611ab3565b5b5f611c6d84828501611c37565b91505092915050565b5f73ffffffffffffffffffffffffffffffffffffffff82169050919050565b5f611c9f82611c76565b9050919050565b611caf81611c95565b82525050565b5f602082019050611cc85f830184611ca6565b92915050565b611cd781611c95565b8114611ce1575f80fd5b50565b5f81359050611cf281611cce565b92915050565b5f8060408385031215611d0e57611d0d611ab3565b5b5f611d1b85828601611ce4565b9250506020611d2c85828601611c37565b9150509250929050565b5f805f60608486031215611d4d57611d4c611ab3565b5b5f611d5a86828701611ce4565b9350506020611d6b86828701611ce4565b9250506040611d7c86828701611c37565b9150509250925092565b5f80fd5b5f80fd5b7f4e487b71000000000000000000000000000000000000000000000000000000005f52604160045260245ffd5b611dc482611bb0565b810181811067ffffffffffffffff82111715611de357611de2611d8e565b5b80604052505050565b5f611df5611aaa565b9050611e018282611dbb565b919050565b5f67ffffffffffffffff821115611e2057611e1f611d8e565b5b611e2982611bb0565b9050602081019050919050565b828183375f83830152505050565b5f611e56611e5184611e06565b611dec565b905082815260208101848484011115611e7257611e71611d8a565b5b611e7d848285611e36565b509392505050565b5f82601f830112611e9957611e98611d86565b5b8135611ea9848260208601611e44565b91505092915050565b5f805f60608486031215611ec957611ec8611ab3565b5b5f84013567ffffffffffffffff811115611ee657611ee5611ab7565b5b611ef286828701611e85565b9350506020611f0386828701611c37565b9250506040611f1486828701611c37565b9150509250925092565b5f60208284031215611f3357611f32611ab3565b5b5f611f4084828501611ce4565b91505092915050565b611f5281611c18565b82525050565b5f602082019050611f6b5f830184611f49565b92915050565b611f7a81611b3b565b8114611f84575f80fd5b50565b5f81359050611f9581611f71565b92915050565b5f8060408385031215611fb157611fb0611ab3565b5b5f611fbe85828601611ce4565b9250506020611fcf85828601611f87565b9150509250929050565b5f67ffffffffffffffff821115611ff357611ff2611d8e565b5b611ffc82611bb0565b9050602081019050919050565b5f61201b61201684611fd9565b611dec565b90508281526020810184848401111561203757612036611d8a565b5b612042848285611e36565b509392505050565b5f82601f83011261205e5761205d611d86565b5b813561206e848260208601612009565b91505092915050565b5f805f806080858703121561208f5761208e611ab3565b5b5f61209c87828801611ce4565b94505060206120ad87828801611ce4565b93505060406120be87828801611c37565b925050606085013567ffffffffffffffff8111156120df576120de611ab7565b5b6120eb8782880161204a565b91505092959194509250565b5f6060820190508181035f83015261210f8186611bc0565b905061211e6020830185611f49565b61212b6040830184611f49565b949350505050565b5f806040838503121561214957612148611ab3565b5b5f61215685828601611ce4565b925050602061216785828601611ce4565b9150509250929050565b7f4e487b71000000000000000000000000000000000000000000000000000000005f52602260045260245ffd5b5f60028204905060018216806121b557607f821691505b6020821081036121c8576121c7612171565b5b50919050565b5f6060820190506121e15f830186611ca6565b6121ee6020830185611f49565b6121fb6040830184611ca6565b949350505050565b5f819050815f5260205f209050919050565b5f6020601f8301049050919050565b5f82821b905092915050565b5f6008830261225f7fffffffffffffffffffffffffffffffffffffffffffffffffffffffffffffffff82612224565b6122698683612224565b95508019841693508086168417925050509392505050565b5f819050919050565b5f6122a461229f61229a84611c18565b612281565b611c18565b9050919050565b5f819050919050565b6122bd8361228a565b6122d16122c9826122ab565b848454612230565b825550505050565b5f90565b6122e56122d9565b6122f08184846122b4565b505050565b5b81811015612313576123085f826122dd565b6001810190506122f6565b5050565b601f8211156123585761232981612203565b61233284612215565b81016020851015612341578190505b61235561234d85612215565b8301826122f5565b50505b505050565b5f82821c905092915050565b5f6123785f198460080261235d565b1980831691505092915050565b5f6123908383612369565b9150826002028217905092915050565b6123a982611b6e565b67ffffffffffffffff8111156123c2576123c1611d8e565b5b6123cc825461219e565b6123d7828285612317565b5f60209050601f831160018114612408575f84156123f6578287015190505b6124008582612385565b865550612467565b601f19841661241686612203565b5f5b8281101561243d57848901518255600182019150602085019450602081019050612418565b8683101561245a5784890151612456601f891682612369565b8355505b6001600288020188555050505b505050505050565b7f4e487b71000000000000000000000000000000000000000000000000000000005f52601160045260245ffd5b5f6124a682611c18565b91507fffffffffffffffffffffffffffffffffffffffffffffffffffffffffffffffff82036124d8576124d761246f565b5b600182019050919050565b5f60a0820190506124f65f830188611ca6565b6125036020830187611f49565b81810360408301526125158186611bc0565b90506125246060830185611f49565b6125316080830184611f49565b9695505050505050565b5f81905092915050565b5f61254f82611b6e565b612559818561253b565b9350612569818560208601611b88565b80840191505092915050565b5f6125808285612545565b915061258c8284612545565b91508190509392505050565b7f436861726163746572206e6f74206d696e7465640000000000000000000000005f82015250565b5f6125cc601483611b78565b91506125d782612598565b602082019050919050565b5f6020820190508181035f8301526125f9816125c0565b9050919050565b5f81519050919050565b5f82825260208201905092915050565b5f61262482612600565b61262e818561260a565b935061263e818560208601611b88565b61264781611bb0565b840191505092915050565b5f6080820190506126655f830187611ca6565b6126726020830186611ca6565b61267f6040830185611f49565b8181036060830152612691818461261a565b905095945050505050565b5f815190506126aa81611ae6565b92915050565b5f602082840312156126c5576126c4611ab3565b5b5f6126d28482850161269c565b91505092915050565b7f4e487b71000000000000000000000000000000000000000000000000000000005f52601260045260245ffd5b5f60408201905061271b5f830185611ca6565b6127286020830184611f49565b939250505056fea2646970667358221220c49d479e061aa09c8ae70be3cb0ec9dea6a9413c523d45f06d8c36a742788a9464736f6c63430008160033",
					"opcodes": "PUSH1 0x80 PUSH1 0x40 MSTORE CALLVALUE DUP1 ISZERO PUSH3 0x10 JUMPI PUSH0 DUP1 REVERT JUMPDEST POP PUSH1 0x40 MLOAD PUSH3 0x2EA2 CODESIZE SUB DUP1 PUSH3 0x2EA2 DUP4 CODECOPY DUP2 DUP2 ADD PUSH1 0x40 MSTORE DUP2 ADD SWAP1 PUSH3 0x36 SWAP2 SWAP1 PUSH3 0x333 JUMP JUMPDEST CALLER DUP3 DUP3 DUP2 PUSH0 SWAP1 DUP2 PUSH3 0x49 SWAP2 SWAP1 PUSH3 0x5ED JUMP JUMPDEST POP DUP1 PUSH1 0x1 SWAP1 DUP2 PUSH3 0x5B SWAP2 SWAP1 PUSH3 0x5ED JUMP JUMPDEST POP POP POP PUSH0 PUSH20 0xFFFFFFFFFFFFFFFFFFFFFFFFFFFFFFFFFFFFFFFF AND DUP2 PUSH20 0xFFFFFFFFFFFFFFFFFFFFFFFFFFFFFFFFFFFFFFFF AND SUB PUSH3 0xD1 JUMPI PUSH0 PUSH1 0x40 MLOAD PUSH32 0x1E4FBDF700000000000000000000000000000000000000000000000000000000 DUP2 MSTORE PUSH1 0x4 ADD PUSH3 0xC8 SWAP2 SWAP1 PUSH3 0x714 JUMP JUMPDEST PUSH1 0x40 MLOAD DUP1 SWAP2 SUB SWAP1 REVERT JUMPDEST PUSH3 0xE2 DUP2 PUSH3 0xEB PUSH1 0x20 SHL PUSH1 0x20 SHR JUMP JUMPDEST POP POP POP PUSH3 0x72F JUMP JUMPDEST PUSH0 PUSH1 0x6 PUSH0 SWAP1 SLOAD SWAP1 PUSH2 0x100 EXP SWAP1 DIV PUSH20 0xFFFFFFFFFFFFFFFFFFFFFFFFFFFFFFFFFFFFFFFF AND SWAP1 POP DUP2 PUSH1 0x6 PUSH0 PUSH2 0x100 EXP DUP2 SLOAD DUP2 PUSH20 0xFFFFFFFFFFFFFFFFFFFFFFFFFFFFFFFFFFFFFFFF MUL NOT AND SWAP1 DUP4 PUSH20 0xFFFFFFFFFFFFFFFFFFFFFFFFFFFFFFFFFFFFFFFF AND MUL OR SWAP1 SSTORE POP DUP2 PUSH20 0xFFFFFFFFFFFFFFFFFFFFFFFFFFFFFFFFFFFFFFFF AND DUP2 PUSH20 0xFFFFFFFFFFFFFFFFFFFFFFFFFFFFFFFFFFFFFFFF AND PUSH32 0x8BE0079C531659141344CD1FD0A4F28419497F9722A3DAAFE3B4186F6B6457E0 PUSH1 0x40 MLOAD PUSH1 0x40 MLOAD DUP1 SWAP2 SUB SWAP1 LOG3 POP POP JUMP JUMPDEST PUSH0 PUSH1 0x40 MLOAD SWAP1 POP SWAP1 JUMP JUMPDEST PUSH0 DUP1 REVERT JUMPDEST PUSH0 DUP1 REVERT JUMPDEST PUSH0 DUP1 REVERT JUMPDEST PUSH0 DUP1 REVERT JUMPDEST PUSH0 PUSH1 0x1F NOT PUSH1 0x1F DUP4 ADD AND SWAP1 POP SWAP2 SWAP1 POP JUMP JUMPDEST PUSH32 0x4E487B7100000000000000000000000000000000000000000000000000000000 PUSH0 MSTORE PUSH1 0x41 PUSH1 0x4 MSTORE PUSH1 0x24 PUSH0 REVERT JUMPDEST PUSH3 0x20F DUP3 PUSH3 0x1C7 JUMP JUMPDEST DUP2 ADD DUP2 DUP2 LT PUSH8 0xFFFFFFFFFFFFFFFF DUP3 GT OR ISZERO PUSH3 0x231 JUMPI PUSH3 0x230 PUSH3 0x1D7 JUMP JUMPDEST JUMPDEST DUP1 PUSH1 0x40 MSTORE POP POP POP JUMP JUMPDEST PUSH0 PUSH3 0x245 PUSH3 0x1AE JUMP JUMPDEST SWAP1 POP PUSH3 0x253 DUP3 DUP3 PUSH3 0x204 JUMP JUMPDEST SWAP2 SWAP1 POP JUMP JUMPDEST PUSH0 PUSH8 0xFFFFFFFFFFFFFFFF DUP3 GT ISZERO PUSH3 0x275 JUMPI PUSH3 0x274 PUSH3 0x1D7 JUMP JUMPDEST JUMPDEST PUSH3 0x280 DUP3 PUSH3 0x1C7 JUMP JUMPDEST SWAP1 POP PUSH1 0x20 DUP2 ADD SWAP1 POP SWAP2 SWAP1 POP JUMP JUMPDEST PUSH0 JUMPDEST DUP4 DUP2 LT ISZERO PUSH3 0x2AC JUMPI DUP1 DUP3 ADD MLOAD DUP2 DUP5 ADD MSTORE PUSH1 0x20 DUP2 ADD SWAP1 POP PUSH3 0x28F JUMP JUMPDEST PUSH0 DUP5 DUP5 ADD MSTORE POP POP POP POP JUMP JUMPDEST PUSH0 PUSH3 0x2CD PUSH3 0x2C7 DUP5 PUSH3 0x258 JUMP JUMPDEST PUSH3 0x23A JUMP JUMPDEST SWAP1 POP DUP3 DUP2 MSTORE PUSH1 0x20 DUP2 ADD DUP5 DUP5 DUP5 ADD GT ISZERO PUSH3 0x2EC JUMPI PUSH3 0x2EB PUSH3 0x1C3 JUMP JUMPDEST JUMPDEST PUSH3 0x2F9 DUP5 DUP3 DUP6 PUSH3 0x28D JUMP JUMPDEST POP SWAP4 SWAP3 POP POP POP JUMP JUMPDEST PUSH0 DUP3 PUSH1 0x1F DUP4 ADD SLT PUSH3 0x318 JUMPI PUSH3 0x317 PUSH3 0x1BF JUMP JUMPDEST JUMPDEST DUP2 MLOAD PUSH3 0x32A DUP5 DUP3 PUSH1 0x20 DUP7 ADD PUSH3 0x2B7 JUMP JUMPDEST SWAP2 POP POP SWAP3 SWAP2 POP POP JUMP JUMPDEST PUSH0 DUP1 PUSH1 0x40 DUP4 DUP6 SUB SLT ISZERO PUSH3 0x34C JUMPI PUSH3 0x34B PUSH3 0x1B7 JUMP JUMPDEST JUMPDEST PUSH0 DUP4 ADD MLOAD PUSH8 0xFFFFFFFFFFFFFFFF DUP2 GT ISZERO PUSH3 0x36C JUMPI PUSH3 0x36B PUSH3 0x1BB JUMP JUMPDEST JUMPDEST PUSH3 0x37A DUP6 DUP3 DUP7 ADD PUSH3 0x301 JUMP JUMPDEST SWAP3 POP POP PUSH1 0x20 DUP4 ADD MLOAD PUSH8 0xFFFFFFFFFFFFFFFF DUP2 GT ISZERO PUSH3 0x39E JUMPI PUSH3 0x39D PUSH3 0x1BB JUMP JUMPDEST JUMPDEST PUSH3 0x3AC DUP6 DUP3 DUP7 ADD PUSH3 0x301 JUMP JUMPDEST SWAP2 POP POP SWAP3 POP SWAP3 SWAP1 POP JUMP JUMPDEST PUSH0 DUP2 MLOAD SWAP1 POP SWAP2 SWAP1 POP JUMP JUMPDEST PUSH32 0x4E487B7100000000000000000000000000000000000000000000000000000000 PUSH0 MSTORE PUSH1 0x22 PUSH1 0x4 MSTORE PUSH1 0x24 PUSH0 REVERT JUMPDEST PUSH0 PUSH1 0x2 DUP3 DIV SWAP1 POP PUSH1 0x1 DUP3 AND DUP1 PUSH3 0x405 JUMPI PUSH1 0x7F DUP3 AND SWAP2 POP JUMPDEST PUSH1 0x20 DUP3 LT DUP2 SUB PUSH3 0x41B JUMPI PUSH3 0x41A PUSH3 0x3C0 JUMP JUMPDEST JUMPDEST POP SWAP2 SWAP1 POP JUMP JUMPDEST PUSH0 DUP2 SWAP1 POP DUP2 PUSH0 MSTORE PUSH1 0x20 PUSH0 KECCAK256 SWAP1 POP SWAP2 SWAP1 POP JUMP JUMPDEST PUSH0 PUSH1 0x20 PUSH1 0x1F DUP4 ADD DIV SWAP1 POP SWAP2 SWAP1 POP JUMP JUMPDEST PUSH0 DUP3 DUP3 SHL SWAP1 POP SWAP3 SWAP2 POP POP JUMP JUMPDEST PUSH0 PUSH1 0x8 DUP4 MUL PUSH3 0x47F PUSH32 0xFFFFFFFFFFFFFFFFFFFFFFFFFFFFFFFFFFFFFFFFFFFFFFFFFFFFFFFFFFFFFFFF DUP3 PUSH3 0x442 JUMP JUMPDEST PUSH3 0x48B DUP7 DUP4 PUSH3 0x442 JUMP JUMPDEST SWAP6 POP DUP1 NOT DUP5 AND SWAP4 POP DUP1 DUP7 AND DUP5 OR SWAP3 POP POP POP SWAP4 SWAP3 POP POP POP JUMP JUMPDEST PUSH0 DUP2 SWAP1 POP SWAP2 SWAP1 POP JUMP JUMPDEST PUSH0 DUP2 SWAP1 POP SWAP2 SWAP1 POP JUMP JUMPDEST PUSH0 PUSH3 0x4D5 PUSH3 0x4CF PUSH3 0x4C9 DUP5 PUSH3 0x4A3 JUMP JUMPDEST PUSH3 0x4AC JUMP JUMPDEST PUSH3 0x4A3 JUMP JUMPDEST SWAP1 POP SWAP2 SWAP1 POP JUMP JUMPDEST PUSH0 DUP2 SWAP1 POP SWAP2 SWAP1 POP JUMP JUMPDEST PUSH3 0x4F0 DUP4 PUSH3 0x4B5 JUMP JUMPDEST PUSH3 0x508 PUSH3 0x4FF DUP3 PUSH3 0x4DC JUMP JUMPDEST DUP5 DUP5 SLOAD PUSH3 0x44E JUMP JUMPDEST DUP3 SSTORE POP POP POP POP JUMP JUMPDEST PUSH0 SWAP1 JUMP JUMPDEST PUSH3 0x51E PUSH3 0x510 JUMP JUMPDEST PUSH3 0x52B DUP2 DUP5 DUP5 PUSH3 0x4E5 JUMP JUMPDEST POP POP POP JUMP JUMPDEST JUMPDEST DUP2 DUP2 LT ISZERO PUSH3 0x552 JUMPI PUSH3 0x546 PUSH0 DUP3 PUSH3 0x514 JUMP JUMPDEST PUSH1 0x1 DUP2 ADD SWAP1 POP PUSH3 0x531 JUMP JUMPDEST POP POP JUMP JUMPDEST PUSH1 0x1F DUP3 GT ISZERO PUSH3 0x5A1 JUMPI PUSH3 0x56B DUP2 PUSH3 0x421 JUMP JUMPDEST PUSH3 0x576 DUP5 PUSH3 0x433 JUMP JUMPDEST DUP2 ADD PUSH1 0x20 DUP6 LT ISZERO PUSH3 0x586 JUMPI DUP2 SWAP1 POP JUMPDEST PUSH3 0x59E PUSH3 0x595 DUP6 PUSH3 0x433 JUMP JUMPDEST DUP4 ADD DUP3 PUSH3 0x530 JUMP JUMPDEST POP POP JUMPDEST POP POP POP JUMP JUMPDEST PUSH0 DUP3 DUP3 SHR SWAP1 POP SWAP3 SWAP2 POP POP JUMP JUMPDEST PUSH0 PUSH3 0x5C3 PUSH0 NOT DUP5 PUSH1 0x8 MUL PUSH3 0x5A6 JUMP JUMPDEST NOT DUP1 DUP4 AND SWAP2 POP POP SWAP3 SWAP2 POP POP JUMP JUMPDEST PUSH0 PUSH3 0x5DD DUP4 DUP4 PUSH3 0x5B2 JUMP JUMPDEST SWAP2 POP DUP3 PUSH1 0x2 MUL DUP3 OR SWAP1 POP SWAP3 SWAP2 POP POP JUMP JUMPDEST PUSH3 0x5F8 DUP3 PUSH3 0x3B6 JUMP JUMPDEST PUSH8 0xFFFFFFFFFFFFFFFF DUP2 GT ISZERO PUSH3 0x614 JUMPI PUSH3 0x613 PUSH3 0x1D7 JUMP JUMPDEST JUMPDEST PUSH3 0x620 DUP3 SLOAD PUSH3 0x3ED JUMP JUMPDEST PUSH3 0x62D DUP3 DUP3 DUP6 PUSH3 0x556 JUMP JUMPDEST PUSH0 PUSH1 0x20 SWAP1 POP PUSH1 0x1F DUP4 GT PUSH1 0x1 DUP2 EQ PUSH3 0x663 JUMPI PUSH0 DUP5 ISZERO PUSH3 0x64E JUMPI DUP3 DUP8 ADD MLOAD SWAP1 POP JUMPDEST PUSH3 0x65A DUP6 DUP3 PUSH3 0x5D0 JUMP JUMPDEST DUP7 SSTORE POP PUSH3 0x6C9 JUMP JUMPDEST PUSH1 0x1F NOT DUP5 AND PUSH3 0x673 DUP7 PUSH3 0x421 JUMP JUMPDEST PUSH0 JUMPDEST DUP3 DUP2 LT ISZERO PUSH3 0x69C JUMPI DUP5 DUP10 ADD MLOAD DUP3 SSTORE PUSH1 0x1 DUP3 ADD SWAP2 POP PUSH1 0x20 DUP6 ADD SWAP5 POP PUSH1 0x20 DUP2 ADD SWAP1 POP PUSH3 0x675 JUMP JUMPDEST DUP7 DUP4 LT ISZERO PUSH3 0x6BC JUMPI DUP5 DUP10 ADD MLOAD PUSH3 0x6B8 PUSH1 0x1F DUP10 AND DUP3 PUSH3 0x5B2 JUMP JUMPDEST DUP4 SSTORE POP JUMPDEST PUSH1 0x1 PUSH1 0x2 DUP9 MUL ADD DUP9 SSTORE POP POP POP JUMPDEST POP POP POP POP POP POP JUMP JUMPDEST PUSH0 PUSH20 0xFFFFFFFFFFFFFFFFFFFFFFFFFFFFFFFFFFFFFFFF DUP3 AND SWAP1 POP SWAP2 SWAP1 POP JUMP JUMPDEST PUSH0 PUSH3 0x6FC DUP3 PUSH3 0x6D1 JUMP JUMPDEST SWAP1 POP SWAP2 SWAP1 POP JUMP JUMPDEST PUSH3 0x70E DUP2 PUSH3 0x6F0 JUMP JUMPDEST DUP3 MSTORE POP POP JUMP JUMPDEST PUSH0 PUSH1 0x20 DUP3 ADD SWAP1 POP PUSH3 0x729 PUSH0 DUP4 ADD DUP5 PUSH3 0x703 JUMP JUMPDEST SWAP3 SWAP2 POP POP JUMP JUMPDEST PUSH2 0x2765 DUP1 PUSH3 0x73D PUSH0 CODECOPY PUSH0 RETURN INVALID PUSH1 0x80 PUSH1 0x40 MSTORE CALLVALUE DUP1 ISZERO PUSH2 0xF JUMPI PUSH0 DUP1 REVERT JUMPDEST POP PUSH1 0x4 CALLDATASIZE LT PUSH2 0x11F JUMPI PUSH0 CALLDATALOAD PUSH1 0xE0 SHR DUP1 PUSH4 0x715018A6 GT PUSH2 0xAB JUMPI DUP1 PUSH4 0xB88D4FDE GT PUSH2 0x6F JUMPI DUP1 PUSH4 0xB88D4FDE EQ PUSH2 0x303 JUMPI DUP1 PUSH4 0xC87B56DD EQ PUSH2 0x31F JUMPI DUP1 PUSH4 0xD0E60CFF EQ PUSH2 0x34F JUMPI DUP1 PUSH4 0xE985E9C5 EQ PUSH2 0x381 JUMPI DUP1 PUSH4 0xF2FDE38B EQ PUSH2 0x3B1 JUMPI PUSH2 0x11F JUMP JUMPDEST DUP1 PUSH4 0x715018A6 EQ PUSH2 0x271 JUMPI DUP1 PUSH4 0x8DA5CB5B EQ PUSH2 0x27B JUMPI DUP1 PUSH4 0x95D89B41 EQ PUSH2 0x299 JUMPI DUP1 PUSH4 0x9756AADD EQ PUSH2 0x2B7 JUMPI DUP1 PUSH4 0xA22CB465 EQ PUSH2 0x2E7 JUMPI PUSH2 0x11F JUMP JUMPDEST DUP1 PUSH4 0x23B872DD GT PUSH2 0xF2 JUMPI DUP1 PUSH4 0x23B872DD EQ PUSH2 0x1BD JUMPI DUP1 PUSH4 0x42842E0E EQ PUSH2 0x1D9 JUMPI DUP1 PUSH4 0x5091DF62 EQ PUSH2 0x1F5 JUMPI DUP1 PUSH4 0x6352211E EQ PUSH2 0x211 JUMPI DUP1 PUSH4 0x70A08231 EQ PUSH2 0x241 JUMPI PUSH2 0x11F JUMP JUMPDEST DUP1 PUSH4 0x1FFC9A7 EQ PUSH2 0x123 JUMPI DUP1 PUSH4 0x6FDDE03 EQ PUSH2 0x153 JUMPI DUP1 PUSH4 0x81812FC EQ PUSH2 0x171 JUMPI DUP1 PUSH4 0x95EA7B3 EQ PUSH2 0x1A1 JUMPI JUMPDEST PUSH0 DUP1 REVERT JUMPDEST PUSH2 0x13D PUSH1 0x4 DUP1 CALLDATASIZE SUB DUP2 ADD SWAP1 PUSH2 0x138 SWAP2 SWAP1 PUSH2 0x1B10 JUMP JUMPDEST PUSH2 0x3CD JUMP JUMPDEST PUSH1 0x40 MLOAD PUSH2 0x14A SWAP2 SWAP1 PUSH2 0x1B55 JUMP JUMPDEST PUSH1 0x40 MLOAD DUP1 SWAP2 SUB SWAP1 RETURN JUMPDEST PUSH2 0x15B PUSH2 0x4AE JUMP JUMPDEST PUSH1 0x40 MLOAD PUSH2 0x168 SWAP2 SWAP1 PUSH2 0x1BF8 JUMP JUMPDEST PUSH1 0x40 MLOAD DUP1 SWAP2 SUB SWAP1 RETURN JUMPDEST PUSH2 0x18B PUSH1 0x4 DUP1 CALLDATASIZE SUB DUP2 ADD SWAP1 PUSH2 0x186 SWAP2 SWAP1 PUSH2 0x1C4B JUMP JUMPDEST PUSH2 0x53D JUMP JUMPDEST PUSH1 0x40 MLOAD PUSH2 0x198 SWAP2 SWAP1 PUSH2 0x1CB5 JUMP JUMPDEST PUSH1 0x40 MLOAD DUP1 SWAP2 SUB SWAP1 RETURN JUMPDEST PUSH2 0x1BB PUSH1 0x4 DUP1 CALLDATASIZE SUB DUP2 ADD SWAP1 PUSH2 0x1B6 SWAP2 SWAP1 PUSH2 0x1CF8 JUMP JUMPDEST PUSH2 0x558 JUMP JUMPDEST STOP JUMPDEST PUSH2 0x1D7 PUSH1 0x4 DUP1 CALLDATASIZE SUB DUP2 ADD SWAP1 PUSH2 0x1D2 SWAP2 SWAP1 PUSH2 0x1D36 JUMP JUMPDEST PUSH2 0x56E JUMP JUMPDEST STOP JUMPDEST PUSH2 0x1F3 PUSH1 0x4 DUP1 CALLDATASIZE SUB DUP2 ADD SWAP1 PUSH2 0x1EE SWAP2 SWAP1 PUSH2 0x1D36 JUMP JUMPDEST PUSH2 0x66D JUMP JUMPDEST STOP JUMPDEST PUSH2 0x20F PUSH1 0x4 DUP1 CALLDATASIZE SUB DUP2 ADD SWAP1 PUSH2 0x20A SWAP2 SWAP1 PUSH2 0x1EB2 JUMP JUMPDEST PUSH2 0x68C JUMP JUMPDEST STOP JUMPDEST PUSH2 0x22B PUSH1 0x4 DUP1 CALLDATASIZE SUB DUP2 ADD SWAP1 PUSH2 0x226 SWAP2 SWAP1 PUSH2 0x1C4B JUMP JUMPDEST PUSH2 0x780 JUMP JUMPDEST PUSH1 0x40 MLOAD PUSH2 0x238 SWAP2 SWAP1 PUSH2 0x1CB5 JUMP JUMPDEST PUSH1 0x40 MLOAD DUP1 SWAP2 SUB SWAP1 RETURN JUMPDEST PUSH2 0x25B PUSH1 0x4 DUP1 CALLDATASIZE SUB DUP2 ADD SWAP1 PUSH2 0x256 SWAP2 SWAP1 PUSH2 0x1F1E JUMP JUMPDEST PUSH2 0x791 JUMP JUMPDEST PUSH1 0x40 MLOAD PUSH2 0x268 SWAP2 SWAP1 PUSH2 0x1F58 JUMP JUMPDEST PUSH1 0x40 MLOAD DUP1 SWAP2 SUB SWAP1 RETURN JUMPDEST PUSH2 0x279 PUSH2 0x847 JUMP JUMPDEST STOP JUMPDEST PUSH2 0x283 PUSH2 0x85A JUMP JUMPDEST PUSH1 0x40 MLOAD PUSH2 0x290 SWAP2 SWAP1 PUSH2 0x1CB5 JUMP JUMPDEST PUSH1 0x40 MLOAD DUP1 SWAP2 SUB SWAP1 RETURN JUMPDEST PUSH2 0x2A1 PUSH2 0x882 JUMP JUMPDEST PUSH1 0x40 MLOAD PUSH2 0x2AE SWAP2 SWAP1 PUSH2 0x1BF8 JUMP JUMPDEST PUSH1 0x40 MLOAD DUP1 SWAP2 SUB SWAP1 RETURN JUMPDEST PUSH2 0x2D1 PUSH1 0x4 DUP1 CALLDATASIZE SUB DUP2 ADD SWAP1 PUSH2 0x2CC SWAP2 SWAP1 PUSH2 0x1C4B JUMP JUMPDEST PUSH2 0x912 JUMP JUMPDEST PUSH1 0x40 MLOAD PUSH2 0x2DE SWAP2 SWAP1 PUSH2 0x1B55 JUMP JUMPDEST PUSH1 0x40 MLOAD DUP1 SWAP2 SUB SWAP1 RETURN JUMPDEST PUSH2 0x301 PUSH1 0x4 DUP1 CALLDATASIZE SUB DUP2 ADD SWAP1 PUSH2 0x2FC SWAP2 SWAP1 PUSH2 0x1F9B JUMP JUMPDEST PUSH2 0x938 JUMP JUMPDEST STOP JUMPDEST PUSH2 0x31D PUSH1 0x4 DUP1 CALLDATASIZE SUB DUP2 ADD SWAP1 PUSH2 0x318 SWAP2 SWAP1 PUSH2 0x2077 JUMP JUMPDEST PUSH2 0x94E JUMP JUMPDEST STOP JUMPDEST PUSH2 0x339 PUSH1 0x4 DUP1 CALLDATASIZE SUB DUP2 ADD SWAP1 PUSH2 0x334 SWAP2 SWAP1 PUSH2 0x1C4B JUMP JUMPDEST PUSH2 0x96B JUMP JUMPDEST PUSH1 0x40 MLOAD PUSH2 0x346 SWAP2 SWAP1 PUSH2 0x1BF8 JUMP JUMPDEST PUSH1 0x40 MLOAD DUP1 SWAP2 SUB SWAP1 RETURN JUMPDEST PUSH2 0x369 PUSH1 0x4 DUP1 CALLDATASIZE SUB DUP2 ADD SWAP1 PUSH2 0x364 SWAP2 SWAP1 PUSH2 0x1C4B JUMP JUMPDEST PUSH2 0x9D1 JUMP JUMPDEST PUSH1 0x40 MLOAD PUSH2 0x378 SWAP4 SWAP3 SWAP2 SWAP1 PUSH2 0x20F7 JUMP JUMPDEST PUSH1 0x40 MLOAD DUP1 SWAP2 SUB SWAP1 RETURN JUMPDEST PUSH2 0x39B PUSH1 0x4 DUP1 CALLDATASIZE SUB DUP2 ADD SWAP1 PUSH2 0x396 SWAP2 SWAP1 PUSH2 0x2133 JUMP JUMPDEST PUSH2 0xB10 JUMP JUMPDEST PUSH1 0x40 MLOAD PUSH2 0x3A8 SWAP2 SWAP1 PUSH2 0x1B55 JUMP JUMPDEST PUSH1 0x40 MLOAD DUP1 SWAP2 SUB SWAP1 RETURN JUMPDEST PUSH2 0x3CB PUSH1 0x4 DUP1 CALLDATASIZE SUB DUP2 ADD SWAP1 PUSH2 0x3C6 SWAP2 SWAP1 PUSH2 0x1F1E JUMP JUMPDEST PUSH2 0xB9E JUMP JUMPDEST STOP JUMPDEST PUSH0 PUSH32 0x80AC58CD00000000000000000000000000000000000000000000000000000000 PUSH28 0xFFFFFFFFFFFFFFFFFFFFFFFFFFFFFFFFFFFFFFFFFFFFFFFFFFFFFFFF NOT AND DUP3 PUSH28 0xFFFFFFFFFFFFFFFFFFFFFFFFFFFFFFFFFFFFFFFFFFFFFFFFFFFFFFFF NOT AND EQ DUP1 PUSH2 0x497 JUMPI POP PUSH32 0x5B5E139F00000000000000000000000000000000000000000000000000000000 PUSH28 0xFFFFFFFFFFFFFFFFFFFFFFFFFFFFFFFFFFFFFFFFFFFFFFFFFFFFFFFF NOT AND DUP3 PUSH28 0xFFFFFFFFFFFFFFFFFFFFFFFFFFFFFFFFFFFFFFFFFFFFFFFFFFFFFFFF NOT AND EQ JUMPDEST DUP1 PUSH2 0x4A7 JUMPI POP PUSH2 0x4A6 DUP3 PUSH2 0xC22 JUMP JUMPDEST JUMPDEST SWAP1 POP SWAP2 SWAP1 POP JUMP JUMPDEST PUSH1 0x60 PUSH0 DUP1 SLOAD PUSH2 0x4BC SWAP1 PUSH2 0x219E JUMP JUMPDEST DUP1 PUSH1 0x1F ADD PUSH1 0x20 DUP1 SWAP2 DIV MUL PUSH1 0x20 ADD PUSH1 0x40 MLOAD SWAP1 DUP2 ADD PUSH1 0x40 MSTORE DUP1 SWAP3 SWAP2 SWAP1 DUP2 DUP2 MSTORE PUSH1 0x20 ADD DUP3 DUP1 SLOAD PUSH2 0x4E8 SWAP1 PUSH2 0x219E JUMP JUMPDEST DUP1 ISZERO PUSH2 0x533 JUMPI DUP1 PUSH1 0x1F LT PUSH2 0x50A JUMPI PUSH2 0x100 DUP1 DUP4 SLOAD DIV MUL DUP4 MSTORE SWAP2 PUSH1 0x20 ADD SWAP2 PUSH2 0x533 JUMP JUMPDEST DUP3 ADD SWAP2 SWAP1 PUSH0 MSTORE PUSH1 0x20 PUSH0 KECCAK256 SWAP1 JUMPDEST DUP2 SLOAD DUP2 MSTORE SWAP1 PUSH1 0x1 ADD SWAP1 PUSH1 0x20 ADD DUP1 DUP4 GT PUSH2 0x516 JUMPI DUP3 SWAP1 SUB PUSH1 0x1F AND DUP3 ADD SWAP2 JUMPDEST POP POP POP POP POP SWAP1 POP SWAP1 JUMP JUMPDEST PUSH0 PUSH2 0x547 DUP3 PUSH2 0xC8B JUMP JUMPDEST POP PUSH2 0x551 DUP3 PUSH2 0xD11 JUMP JUMPDEST SWAP1 POP SWAP2 SWAP1 POP JUMP JUMPDEST PUSH2 0x56A DUP3 DUP3 PUSH2 0x565 PUSH2 0xD4A JUMP JUMPDEST PUSH2 0xD51 JUMP JUMPDEST POP POP JUMP JUMPDEST PUSH0 PUSH20 0xFFFFFFFFFFFFFFFFFFFFFFFFFFFFFFFFFFFFFFFF AND DUP3 PUSH20 0xFFFFFFFFFFFFFFFFFFFFFFFFFFFFFFFFFFFFFFFF AND SUB PUSH2 0x5DE JUMPI PUSH0 PUSH1 0x40 MLOAD PUSH32 0x64A0AE9200000000000000000000000000000000000000000000000000000000 DUP2 MSTORE PUSH1 0x4 ADD PUSH2 0x5D5 SWAP2 SWAP1 PUSH2 0x1CB5 JUMP JUMPDEST PUSH1 0x40 MLOAD DUP1 SWAP2 SUB SWAP1 REVERT JUMPDEST PUSH0 PUSH2 0x5F1 DUP4 DUP4 PUSH2 0x5EC PUSH2 0xD4A JUMP JUMPDEST PUSH2 0xD63 JUMP JUMPDEST SWAP1 POP DUP4 PUSH20 0xFFFFFFFFFFFFFFFFFFFFFFFFFFFFFFFFFFFFFFFF AND DUP2 PUSH20 0xFFFFFFFFFFFFFFFFFFFFFFFFFFFFFFFFFFFFFFFF AND EQ PUSH2 0x667 JUMPI DUP4 DUP3 DUP3 PUSH1 0x40 MLOAD PUSH32 0x64283D7B00000000000000000000000000000000000000000000000000000000 DUP2 MSTORE PUSH1 0x4 ADD PUSH2 0x65E SWAP4 SWAP3 SWAP2 SWAP1 PUSH2 0x21CE JUMP JUMPDEST PUSH1 0x40 MLOAD DUP1 SWAP2 SUB SWAP1 REVERT JUMPDEST POP POP POP POP JUMP JUMPDEST PUSH2 0x687 DUP4 DUP4 DUP4 PUSH1 0x40 MLOAD DUP1 PUSH1 0x20 ADD PUSH1 0x40 MSTORE DUP1 PUSH0 DUP2 MSTORE POP PUSH2 0x94E JUMP JUMPDEST POP POP POP JUMP JUMPDEST PUSH2 0x694 PUSH2 0xF6E JUMP JUMPDEST PUSH0 PUSH1 0x7 SLOAD SWAP1 POP PUSH2 0x6A4 CALLER DUP3 PUSH2 0xFF5 JUMP JUMPDEST PUSH1 0x1 PUSH1 0x8 PUSH0 DUP4 DUP2 MSTORE PUSH1 0x20 ADD SWAP1 DUP2 MSTORE PUSH1 0x20 ADD PUSH0 KECCAK256 PUSH0 PUSH2 0x100 EXP DUP2 SLOAD DUP2 PUSH1 0xFF MUL NOT AND SWAP1 DUP4 ISZERO ISZERO MUL OR SWAP1 SSTORE POP PUSH1 0x40 MLOAD DUP1 PUSH1 0x60 ADD PUSH1 0x40 MSTORE DUP1 DUP6 DUP2 MSTORE PUSH1 0x20 ADD DUP5 DUP2 MSTORE PUSH1 0x20 ADD DUP4 DUP2 MSTORE POP PUSH1 0x9 PUSH0 DUP4 DUP2 MSTORE PUSH1 0x20 ADD SWAP1 DUP2 MSTORE PUSH1 0x20 ADD PUSH0 KECCAK256 PUSH0 DUP3 ADD MLOAD DUP2 PUSH0 ADD SWAP1 DUP2 PUSH2 0x70C SWAP2 SWAP1 PUSH2 0x23A0 JUMP JUMPDEST POP PUSH1 0x20 DUP3 ADD MLOAD DUP2 PUSH1 0x1 ADD SSTORE PUSH1 0x40 DUP3 ADD MLOAD DUP2 PUSH1 0x2 ADD SSTORE SWAP1 POP POP PUSH1 0x7 PUSH0 DUP2 SLOAD DUP1 SWAP3 SWAP2 SWAP1 PUSH2 0x736 SWAP1 PUSH2 0x249C JUMP JUMPDEST SWAP2 SWAP1 POP SSTORE POP PUSH32 0x7A4BB3B51994E0CA98A9A569B1B5BAADE9F795A768CE078DFFDB422D1AFEEF4B CALLER DUP3 DUP7 DUP7 DUP7 PUSH1 0x40 MLOAD PUSH2 0x772 SWAP6 SWAP5 SWAP4 SWAP3 SWAP2 SWAP1 PUSH2 0x24E3 JUMP JUMPDEST PUSH1 0x40 MLOAD DUP1 SWAP2 SUB SWAP1 LOG1 POP POP POP POP JUMP JUMPDEST PUSH0 PUSH2 0x78A DUP3 PUSH2 0xC8B JUMP JUMPDEST SWAP1 POP SWAP2 SWAP1 POP JUMP JUMPDEST PUSH0 DUP1 PUSH20 0xFFFFFFFFFFFFFFFFFFFFFFFFFFFFFFFFFFFFFFFF AND DUP3 PUSH20 0xFFFFFFFFFFFFFFFFFFFFFFFFFFFFFFFFFFFFFFFF AND SUB PUSH2 0x802 JUMPI PUSH0 PUSH1 0x40 MLOAD PUSH32 0x89C62B6400000000000000000000000000000000000000000000000000000000 DUP2 MSTORE PUSH1 0x4 ADD PUSH2 0x7F9 SWAP2 SWAP1 PUSH2 0x1CB5 JUMP JUMPDEST PUSH1 0x40 MLOAD DUP1 SWAP2 SUB SWAP1 REVERT JUMPDEST PUSH1 0x3 PUSH0 DUP4 PUSH20 0xFFFFFFFFFFFFFFFFFFFFFFFFFFFFFFFFFFFFFFFF AND PUSH20 0xFFFFFFFFFFFFFFFFFFFFFFFFFFFFFFFFFFFFFFFF AND DUP2 MSTORE PUSH1 0x20 ADD SWAP1 DUP2 MSTORE PUSH1 0x20 ADD PUSH0 KECCAK256 SLOAD SWAP1 POP SWAP2 SWAP1 POP JUMP JUMPDEST PUSH2 0x84F PUSH2 0xF6E JUMP JUMPDEST PUSH2 0x858 PUSH0 PUSH2 0x1012 JUMP JUMPDEST JUMP JUMPDEST PUSH0 PUSH1 0x6 PUSH0 SWAP1 SLOAD SWAP1 PUSH2 0x100 EXP SWAP1 DIV PUSH20 0xFFFFFFFFFFFFFFFFFFFFFFFFFFFFFFFFFFFFFFFF AND SWAP1 POP SWAP1 JUMP JUMPDEST PUSH1 0x60 PUSH1 0x1 DUP1 SLOAD PUSH2 0x891 SWAP1 PUSH2 0x219E JUMP JUMPDEST DUP1 PUSH1 0x1F ADD PUSH1 0x20 DUP1 SWAP2 DIV MUL PUSH1 0x20 ADD PUSH1 0x40 MLOAD SWAP1 DUP2 ADD PUSH1 0x40 MSTORE DUP1 SWAP3 SWAP2 SWAP1 DUP2 DUP2 MSTORE PUSH1 0x20 ADD DUP3 DUP1 SLOAD PUSH2 0x8BD SWAP1 PUSH2 0x219E JUMP JUMPDEST DUP1 ISZERO PUSH2 0x908 JUMPI DUP1 PUSH1 0x1F LT PUSH2 0x8DF JUMPI PUSH2 0x100 DUP1 DUP4 SLOAD DIV MUL DUP4 MSTORE SWAP2 PUSH1 0x20 ADD SWAP2 PUSH2 0x908 JUMP JUMPDEST DUP3 ADD SWAP2 SWAP1 PUSH0 MSTORE PUSH1 0x20 PUSH0 KECCAK256 SWAP1 JUMPDEST DUP2 SLOAD DUP2 MSTORE SWAP1 PUSH1 0x1 ADD SWAP1 PUSH1 0x20 ADD DUP1 DUP4 GT PUSH2 0x8EB JUMPI DUP3 SWAP1 SUB PUSH1 0x1F AND DUP3 ADD SWAP2 JUMPDEST POP POP POP POP POP SWAP1 POP SWAP1 JUMP JUMPDEST PUSH0 PUSH1 0x8 PUSH0 DUP4 DUP2 MSTORE PUSH1 0x20 ADD SWAP1 DUP2 MSTORE PUSH1 0x20 ADD PUSH0 KECCAK256 PUSH0 SWAP1 SLOAD SWAP1 PUSH2 0x100 EXP SWAP1 DIV PUSH1 0xFF AND SWAP1 POP SWAP2 SWAP1 POP JUMP JUMPDEST PUSH2 0x94A PUSH2 0x943 PUSH2 0xD4A JUMP JUMPDEST DUP4 DUP4 PUSH2 0x10D5 JUMP JUMPDEST POP POP JUMP JUMPDEST PUSH2 0x959 DUP5 DUP5 DUP5 PUSH2 0x56E JUMP JUMPDEST PUSH2 0x965 DUP5 DUP5 DUP5 DUP5 PUSH2 0x123E JUMP JUMPDEST POP POP POP POP JUMP JUMPDEST PUSH1 0x60 PUSH2 0x976 DUP3 PUSH2 0xC8B JUMP JUMPDEST POP PUSH0 PUSH2 0x980 PUSH2 0x13F0 JUMP JUMPDEST SWAP1 POP PUSH0 DUP2 MLOAD GT PUSH2 0x99E JUMPI PUSH1 0x40 MLOAD DUP1 PUSH1 0x20 ADD PUSH1 0x40 MSTORE DUP1 PUSH0 DUP2 MSTORE POP PUSH2 0x9C9 JUMP JUMPDEST DUP1 PUSH2 0x9A8 DUP5 PUSH2 0x1406 JUMP JUMPDEST PUSH1 0x40 MLOAD PUSH1 0x20 ADD PUSH2 0x9B9 SWAP3 SWAP2 SWAP1 PUSH2 0x2575 JUMP JUMPDEST PUSH1 0x40 MLOAD PUSH1 0x20 DUP2 DUP4 SUB SUB DUP2 MSTORE SWAP1 PUSH1 0x40 MSTORE JUMPDEST SWAP2 POP POP SWAP2 SWAP1 POP JUMP JUMPDEST PUSH1 0x60 PUSH0 DUP1 PUSH1 0x8 PUSH0 DUP6 DUP2 MSTORE PUSH1 0x20 ADD SWAP1 DUP2 MSTORE PUSH1 0x20 ADD PUSH0 KECCAK256 PUSH0 SWAP1 SLOAD SWAP1 PUSH2 0x100 EXP SWAP1 DIV PUSH1 0xFF AND PUSH2 0xA32 JUMPI PUSH1 0x40 MLOAD PUSH32 0x8C379A000000000000000000000000000000000000000000000000000000000 DUP2 MSTORE PUSH1 0x4 ADD PUSH2 0xA29 SWAP1 PUSH2 0x25E2 JUMP JUMPDEST PUSH1 0x40 MLOAD DUP1 SWAP2 SUB SWAP1 REVERT JUMPDEST PUSH0 PUSH1 0x9 PUSH0 DUP7 DUP2 MSTORE PUSH1 0x20 ADD SWAP1 DUP2 MSTORE PUSH1 0x20 ADD PUSH0 KECCAK256 PUSH1 0x40 MLOAD DUP1 PUSH1 0x60 ADD PUSH1 0x40 MSTORE SWAP1 DUP2 PUSH0 DUP3 ADD DUP1 SLOAD PUSH2 0xA5E SWAP1 PUSH2 0x219E JUMP JUMPDEST DUP1 PUSH1 0x1F ADD PUSH1 0x20 DUP1 SWAP2 DIV MUL PUSH1 0x20 ADD PUSH1 0x40 MLOAD SWAP1 DUP2 ADD PUSH1 0x40 MSTORE DUP1 SWAP3 SWAP2 SWAP1 DUP2 DUP2 MSTORE PUSH1 0x20 ADD DUP3 DUP1 SLOAD PUSH2 0xA8A SWAP1 PUSH2 0x219E JUMP JUMPDEST DUP1 ISZERO PUSH2 0xAD5 JUMPI DUP1 PUSH1 0x1F LT PUSH2 0xAAC JUMPI PUSH2 0x100 DUP1 DUP4 SLOAD DIV MUL DUP4 MSTORE SWAP2 PUSH1 0x20 ADD SWAP2 PUSH2 0xAD5 JUMP JUMPDEST DUP3 ADD SWAP2 SWAP1 PUSH0 MSTORE PUSH1 0x20 PUSH0 KECCAK256 SWAP1 JUMPDEST DUP2 SLOAD DUP2 MSTORE SWAP1 PUSH1 0x1 ADD SWAP1 PUSH1 0x20 ADD DUP1 DUP4 GT PUSH2 0xAB8 JUMPI DUP3 SWAP1 SUB PUSH1 0x1F AND DUP3 ADD SWAP2 JUMPDEST POP POP POP POP POP DUP2 MSTORE PUSH1 0x20 ADD PUSH1 0x1 DUP3 ADD SLOAD DUP2 MSTORE PUSH1 0x20 ADD PUSH1 0x2 DUP3 ADD SLOAD DUP2 MSTORE POP POP SWAP1 POP DUP1 PUSH0 ADD MLOAD DUP2 PUSH1 0x20 ADD MLOAD DUP3 PUSH1 0x40 ADD MLOAD SWAP4 POP SWAP4 POP SWAP4 POP POP SWAP2 SWAP4 SWAP1 SWAP3 POP JUMP JUMPDEST PUSH0 PUSH1 0x5 PUSH0 DUP5 PUSH20 0xFFFFFFFFFFFFFFFFFFFFFFFFFFFFFFFFFFFFFFFF AND PUSH20 0xFFFFFFFFFFFFFFFFFFFFFFFFFFFFFFFFFFFFFFFF AND DUP2 MSTORE PUSH1 0x20 ADD SWAP1 DUP2 MSTORE PUSH1 0x20 ADD PUSH0 KECCAK256 PUSH0 DUP4 PUSH20 0xFFFFFFFFFFFFFFFFFFFFFFFFFFFFFFFFFFFFFFFF AND PUSH20 0xFFFFFFFFFFFFFFFFFFFFFFFFFFFFFFFFFFFFFFFF AND DUP2 MSTORE PUSH1 0x20 ADD SWAP1 DUP2 MSTORE PUSH1 0x20 ADD PUSH0 KECCAK256 PUSH0 SWAP1 SLOAD SWAP1 PUSH2 0x100 EXP SWAP1 DIV PUSH1 0xFF AND SWAP1 POP SWAP3 SWAP2 POP POP JUMP JUMPDEST PUSH2 0xBA6 PUSH2 0xF6E JUMP JUMPDEST PUSH0 PUSH20 0xFFFFFFFFFFFFFFFFFFFFFFFFFFFFFFFFFFFFFFFF AND DUP2 PUSH20 0xFFFFFFFFFFFFFFFFFFFFFFFFFFFFFFFFFFFFFFFF AND SUB PUSH2 0xC16 JUMPI PUSH0 PUSH1 0x40 MLOAD PUSH32 0x1E4FBDF700000000000000000000000000000000000000000000000000000000 DUP2 MSTORE PUSH1 0x4 ADD PUSH2 0xC0D SWAP2 SWAP1 PUSH2 0x1CB5 JUMP JUMPDEST PUSH1 0x40 MLOAD DUP1 SWAP2 SUB SWAP1 REVERT JUMPDEST PUSH2 0xC1F DUP2 PUSH2 0x1012 JUMP JUMPDEST POP JUMP JUMPDEST PUSH0 PUSH32 0x1FFC9A700000000000000000000000000000000000000000000000000000000 PUSH28 0xFFFFFFFFFFFFFFFFFFFFFFFFFFFFFFFFFFFFFFFFFFFFFFFFFFFFFFFF NOT AND DUP3 PUSH28 0xFFFFFFFFFFFFFFFFFFFFFFFFFFFFFFFFFFFFFFFFFFFFFFFFFFFFFFFF NOT AND EQ SWAP1 POP SWAP2 SWAP1 POP JUMP JUMPDEST PUSH0 DUP1 PUSH2 0xC96 DUP4 PUSH2 0x14D0 JUMP JUMPDEST SWAP1 POP PUSH0 PUSH20 0xFFFFFFFFFFFFFFFFFFFFFFFFFFFFFFFFFFFFFFFF AND DUP2 PUSH20 0xFFFFFFFFFFFFFFFFFFFFFFFFFFFFFFFFFFFFFFFF AND SUB PUSH2 0xD08 JUMPI DUP3 PUSH1 0x40 MLOAD PUSH32 0x7E27328900000000000000000000000000000000000000000000000000000000 DUP2 MSTORE PUSH1 0x4 ADD PUSH2 0xCFF SWAP2 SWAP1 PUSH2 0x1F58 JUMP JUMPDEST PUSH1 0x40 MLOAD DUP1 SWAP2 SUB SWAP1 REVERT JUMPDEST DUP1 SWAP2 POP POP SWAP2 SWAP1 POP JUMP JUMPDEST PUSH0 PUSH1 0x4 PUSH0 DUP4 DUP2 MSTORE PUSH1 0x20 ADD SWAP1 DUP2 MSTORE PUSH1 0x20 ADD PUSH0 KECCAK256 PUSH0 SWAP1 SLOAD SWAP1 PUSH2 0x100 EXP SWAP1 DIV PUSH20 0xFFFFFFFFFFFFFFFFFFFFFFFFFFFFFFFFFFFFFFFF AND SWAP1 POP SWAP2 SWAP1 POP JUMP JUMPDEST PUSH0 CALLER SWAP1 POP SWAP1 JUMP JUMPDEST PUSH2 0xD5E DUP4 DUP4 DUP4 PUSH1 0x1 PUSH2 0x1509 JUMP JUMPDEST POP POP POP JUMP JUMPDEST PUSH0 DUP1 PUSH2 0xD6E DUP5 PUSH2 0x14D0 JUMP JUMPDEST SWAP1 POP PUSH0 PUSH20 0xFFFFFFFFFFFFFFFFFFFFFFFFFFFFFFFFFFFFFFFF AND DUP4 PUSH20 0xFFFFFFFFFFFFFFFFFFFFFFFFFFFFFFFFFFFFFFFF AND EQ PUSH2 0xDAF JUMPI PUSH2 0xDAE DUP2 DUP5 DUP7 PUSH2 0x16C8 JUMP JUMPDEST JUMPDEST PUSH0 PUSH20 0xFFFFFFFFFFFFFFFFFFFFFFFFFFFFFFFFFFFFFFFF AND DUP2 PUSH20 0xFFFFFFFFFFFFFFFFFFFFFFFFFFFFFFFFFFFFFFFF AND EQ PUSH2 0xE3A JUMPI PUSH2 0xDEE PUSH0 DUP6 PUSH0 DUP1 PUSH2 0x1509 JUMP JUMPDEST PUSH1 0x1 PUSH1 0x3 PUSH0 DUP4 PUSH20 0xFFFFFFFFFFFFFFFFFFFFFFFFFFFFFFFFFFFFFFFF AND PUSH20 0xFFFFFFFFFFFFFFFFFFFFFFFFFFFFFFFFFFFFFFFF AND DUP2 MSTORE PUSH1 0x20 ADD SWAP1 DUP2 MSTORE PUSH1 0x20 ADD PUSH0 KECCAK256 PUSH0 DUP3 DUP3 SLOAD SUB SWAP3 POP POP DUP2 SWAP1 SSTORE POP JUMPDEST PUSH0 PUSH20 0xFFFFFFFFFFFFFFFFFFFFFFFFFFFFFFFFFFFFFFFF AND DUP6 PUSH20 0xFFFFFFFFFFFFFFFFFFFFFFFFFFFFFFFFFFFFFFFF AND EQ PUSH2 0xEB9 JUMPI PUSH1 0x1 PUSH1 0x3 PUSH0 DUP8 PUSH20 0xFFFFFFFFFFFFFFFFFFFFFFFFFFFFFFFFFFFFFFFF AND PUSH20 0xFFFFFFFFFFFFFFFFFFFFFFFFFFFFFFFFFFFFFFFF AND DUP2 MSTORE PUSH1 0x20 ADD SWAP1 DUP2 MSTORE PUSH1 0x20 ADD PUSH0 KECCAK256 PUSH0 DUP3 DUP3 SLOAD ADD SWAP3 POP POP DUP2 SWAP1 SSTORE POP JUMPDEST DUP5 PUSH1 0x2 PUSH0 DUP7 DUP2 MSTORE PUSH1 0x20 ADD SWAP1 DUP2 MSTORE PUSH1 0x20 ADD PUSH0 KECCAK256 PUSH0 PUSH2 0x100 EXP DUP2 SLOAD DUP2 PUSH20 0xFFFFFFFFFFFFFFFFFFFFFFFFFFFFFFFFFFFFFFFF MUL NOT AND SWAP1 DUP4 PUSH20 0xFFFFFFFFFFFFFFFFFFFFFFFFFFFFFFFFFFFFFFFF AND MUL OR SWAP1 SSTORE POP DUP4 DUP6 PUSH20 0xFFFFFFFFFFFFFFFFFFFFFFFFFFFFFFFFFFFFFFFF AND DUP3 PUSH20 0xFFFFFFFFFFFFFFFFFFFFFFFFFFFFFFFFFFFFFFFF AND PUSH32 0xDDF252AD1BE2C89B69C2B068FC378DAA952BA7F163C4A11628F55A4DF523B3EF PUSH1 0x40 MLOAD PUSH1 0x40 MLOAD DUP1 SWAP2 SUB SWAP1 LOG4 DUP1 SWAP2 POP POP SWAP4 SWAP3 POP POP POP JUMP JUMPDEST PUSH2 0xF76 PUSH2 0xD4A JUMP JUMPDEST PUSH20 0xFFFFFFFFFFFFFFFFFFFFFFFFFFFFFFFFFFFFFFFF AND PUSH2 0xF94 PUSH2 0x85A JUMP JUMPDEST PUSH20 0xFFFFFFFFFFFFFFFFFFFFFFFFFFFFFFFFFFFFFFFF AND EQ PUSH2 0xFF3 JUMPI PUSH2 0xFB7 PUSH2 0xD4A JUMP JUMPDEST PUSH1 0x40 MLOAD PUSH32 0x118CDAA700000000000000000000000000000000000000000000000000000000 DUP2 MSTORE PUSH1 0x4 ADD PUSH2 0xFEA SWAP2 SWAP1 PUSH2 0x1CB5 JUMP JUMPDEST PUSH1 0x40 MLOAD DUP1 SWAP2 SUB SWAP1 REVERT JUMPDEST JUMP JUMPDEST PUSH2 0x100E DUP3 DUP3 PUSH1 0x40 MLOAD DUP1 PUSH1 0x20 ADD PUSH1 0x40 MSTORE DUP1 PUSH0 DUP2 MSTORE POP PUSH2 0x178B JUMP JUMPDEST POP POP JUMP JUMPDEST PUSH0 PUSH1 0x6 PUSH0 SWAP1 SLOAD SWAP1 PUSH2 0x100 EXP SWAP1 DIV PUSH20 0xFFFFFFFFFFFFFFFFFFFFFFFFFFFFFFFFFFFFFFFF AND SWAP1 POP DUP2 PUSH1 0x6 PUSH0 PUSH2 0x100 EXP DUP2 SLOAD DUP2 PUSH20 0xFFFFFFFFFFFFFFFFFFFFFFFFFFFFFFFFFFFFFFFF MUL NOT AND SWAP1 DUP4 PUSH20 0xFFFFFFFFFFFFFFFFFFFFFFFFFFFFFFFFFFFFFFFF AND MUL OR SWAP1 SSTORE POP DUP2 PUSH20 0xFFFFFFFFFFFFFFFFFFFFFFFFFFFFFFFFFFFFFFFF AND DUP2 PUSH20 0xFFFFFFFFFFFFFFFFFFFFFFFFFFFFFFFFFFFFFFFF AND PUSH32 0x8BE0079C531659141344CD1FD0A4F28419497F9722A3DAAFE3B4186F6B6457E0 PUSH1 0x40 MLOAD PUSH1 0x40 MLOAD DUP1 SWAP2 SUB SWAP1 LOG3 POP POP JUMP JUMPDEST PUSH0 PUSH20 0xFFFFFFFFFFFFFFFFFFFFFFFFFFFFFFFFFFFFFFFF AND DUP3 PUSH20 0xFFFFFFFFFFFFFFFFFFFFFFFFFFFFFFFFFFFFFFFF AND SUB PUSH2 0x1145 JUMPI DUP2 PUSH1 0x40 MLOAD PUSH32 0x5B08BA1800000000000000000000000000000000000000000000000000000000 DUP2 MSTORE PUSH1 0x4 ADD PUSH2 0x113C SWAP2 SWAP1 PUSH2 0x1CB5 JUMP JUMPDEST PUSH1 0x40 MLOAD DUP1 SWAP2 SUB SWAP1 REVERT JUMPDEST DUP1 PUSH1 0x5 PUSH0 DUP6 PUSH20 0xFFFFFFFFFFFFFFFFFFFFFFFFFFFFFFFFFFFFFFFF AND PUSH20 0xFFFFFFFFFFFFFFFFFFFFFFFFFFFFFFFFFFFFFFFF AND DUP2 MSTORE PUSH1 0x20 ADD SWAP1 DUP2 MSTORE PUSH1 0x20 ADD PUSH0 KECCAK256 PUSH0 DUP5 PUSH20 0xFFFFFFFFFFFFFFFFFFFFFFFFFFFFFFFFFFFFFFFF AND PUSH20 0xFFFFFFFFFFFFFFFFFFFFFFFFFFFFFFFFFFFFFFFF AND DUP2 MSTORE PUSH1 0x20 ADD SWAP1 DUP2 MSTORE PUSH1 0x20 ADD PUSH0 KECCAK256 PUSH0 PUSH2 0x100 EXP DUP2 SLOAD DUP2 PUSH1 0xFF MUL NOT AND SWAP1 DUP4 ISZERO ISZERO MUL OR SWAP1 SSTORE POP DUP2 PUSH20 0xFFFFFFFFFFFFFFFFFFFFFFFFFFFFFFFFFFFFFFFF AND DUP4 PUSH20 0xFFFFFFFFFFFFFFFFFFFFFFFFFFFFFFFFFFFFFFFF AND PUSH32 0x17307EAB39AB6107E8899845AD3D59BD9653F200F220920489CA2B5937696C31 DUP4 PUSH1 0x40 MLOAD PUSH2 0x1231 SWAP2 SWAP1 PUSH2 0x1B55 JUMP JUMPDEST PUSH1 0x40 MLOAD DUP1 SWAP2 SUB SWAP1 LOG3 POP POP POP JUMP JUMPDEST PUSH0 DUP4 PUSH20 0xFFFFFFFFFFFFFFFFFFFFFFFFFFFFFFFFFFFFFFFF AND EXTCODESIZE GT ISZERO PUSH2 0x13EA JUMPI DUP3 PUSH20 0xFFFFFFFFFFFFFFFFFFFFFFFFFFFFFFFFFFFFFFFF AND PUSH4 0x150B7A02 PUSH2 0x1281 PUSH2 0xD4A JUMP JUMPDEST DUP7 DUP6 DUP6 PUSH1 0x40 MLOAD DUP6 PUSH4 0xFFFFFFFF AND PUSH1 0xE0 SHL DUP2 MSTORE PUSH1 0x4 ADD PUSH2 0x12A3 SWAP5 SWAP4 SWAP3 SWAP2 SWAP1 PUSH2 0x2652 JUMP JUMPDEST PUSH1 0x20 PUSH1 0x40 MLOAD DUP1 DUP4 SUB DUP2 PUSH0 DUP8 GAS CALL SWAP3 POP POP POP DUP1 ISZERO PUSH2 0x12DE JUMPI POP PUSH1 0x40 MLOAD RETURNDATASIZE PUSH1 0x1F NOT PUSH1 0x1F DUP3 ADD AND DUP3 ADD DUP1 PUSH1 0x40 MSTORE POP DUP2 ADD SWAP1 PUSH2 0x12DB SWAP2 SWAP1 PUSH2 0x26B0 JUMP JUMPDEST PUSH1 0x1 JUMPDEST PUSH2 0x135F JUMPI RETURNDATASIZE DUP1 PUSH0 DUP2 EQ PUSH2 0x130C JUMPI PUSH1 0x40 MLOAD SWAP2 POP PUSH1 0x1F NOT PUSH1 0x3F RETURNDATASIZE ADD AND DUP3 ADD PUSH1 0x40 MSTORE RETURNDATASIZE DUP3 MSTORE RETURNDATASIZE PUSH0 PUSH1 0x20 DUP5 ADD RETURNDATACOPY PUSH2 0x1311 JUMP JUMPDEST PUSH1 0x60 SWAP2 POP JUMPDEST POP PUSH0 DUP2 MLOAD SUB PUSH2 0x1357 JUMPI DUP4 PUSH1 0x40 MLOAD PUSH32 0x64A0AE9200000000000000000000000000000000000000000000000000000000 DUP2 MSTORE PUSH1 0x4 ADD PUSH2 0x134E SWAP2 SWAP1 PUSH2 0x1CB5 JUMP JUMPDEST PUSH1 0x40 MLOAD DUP1 SWAP2 SUB SWAP1 REVERT JUMPDEST DUP1 MLOAD DUP2 PUSH1 0x20 ADD REVERT JUMPDEST PUSH4 0x150B7A02 PUSH1 0xE0 SHL PUSH28 0xFFFFFFFFFFFFFFFFFFFFFFFFFFFFFFFFFFFFFFFFFFFFFFFFFFFFFFFF NOT AND DUP2 PUSH28 0xFFFFFFFFFFFFFFFFFFFFFFFFFFFFFFFFFFFFFFFFFFFFFFFFFFFFFFFF NOT AND EQ PUSH2 0x13E8 JUMPI DUP4 PUSH1 0x40 MLOAD PUSH32 0x64A0AE9200000000000000000000000000000000000000000000000000000000 DUP2 MSTORE PUSH1 0x4 ADD PUSH2 0x13DF SWAP2 SWAP1 PUSH2 0x1CB5 JUMP JUMPDEST PUSH1 0x40 MLOAD DUP1 SWAP2 SUB SWAP1 REVERT JUMPDEST POP JUMPDEST POP POP POP POP JUMP JUMPDEST PUSH1 0x60 PUSH1 0x40 MLOAD DUP1 PUSH1 0x20 ADD PUSH1 0x40 MSTORE DUP1 PUSH0 DUP2 MSTORE POP SWAP1 POP SWAP1 JUMP JUMPDEST PUSH1 0x60 PUSH0 PUSH1 0x1 PUSH2 0x1414 DUP5 PUSH2 0x17A6 JUMP JUMPDEST ADD SWAP1 POP PUSH0 DUP2 PUSH8 0xFFFFFFFFFFFFFFFF DUP2 GT ISZERO PUSH2 0x1432 JUMPI PUSH2 0x1431 PUSH2 0x1D8E JUMP JUMPDEST JUMPDEST PUSH1 0x40 MLOAD SWAP1 DUP1 DUP3 MSTORE DUP1 PUSH1 0x1F ADD PUSH1 0x1F NOT AND PUSH1 0x20 ADD DUP3 ADD PUSH1 0x40 MSTORE DUP1 ISZERO PUSH2 0x1464 JUMPI DUP2 PUSH1 0x20 ADD PUSH1 0x1 DUP3 MUL DUP1 CALLDATASIZE DUP4 CALLDATACOPY DUP1 DUP3 ADD SWAP2 POP POP SWAP1 POP JUMPDEST POP SWAP1 POP PUSH0 DUP3 PUSH1 0x20 ADD DUP3 ADD SWAP1 POP JUMPDEST PUSH1 0x1 ISZERO PUSH2 0x14C5 JUMPI DUP1 DUP1 PUSH1 0x1 SWAP1 SUB SWAP2 POP POP PUSH32 0x3031323334353637383961626364656600000000000000000000000000000000 PUSH1 0xA DUP7 MOD BYTE DUP2 MSTORE8 PUSH1 0xA DUP6 DUP2 PUSH2 0x14BA JUMPI PUSH2 0x14B9 PUSH2 0x26DB JUMP JUMPDEST JUMPDEST DIV SWAP5 POP PUSH0 DUP6 SUB PUSH2 0x1471 JUMPI JUMPDEST DUP2 SWAP4 POP POP POP POP SWAP2 SWAP1 POP JUMP JUMPDEST PUSH0 PUSH1 0x2 PUSH0 DUP4 DUP2 MSTORE PUSH1 0x20 ADD SWAP1 DUP2 MSTORE PUSH1 0x20 ADD PUSH0 KECCAK256 PUSH0 SWAP1 SLOAD SWAP1 PUSH2 0x100 EXP SWAP1 DIV PUSH20 0xFFFFFFFFFFFFFFFFFFFFFFFFFFFFFFFFFFFFFFFF AND SWAP1 POP SWAP2 SWAP1 POP JUMP JUMPDEST DUP1 DUP1 PUSH2 0x1541 JUMPI POP PUSH0 PUSH20 0xFFFFFFFFFFFFFFFFFFFFFFFFFFFFFFFFFFFFFFFF AND DUP3 PUSH20 0xFFFFFFFFFFFFFFFFFFFFFFFFFFFFFFFFFFFFFFFF AND EQ ISZERO JUMPDEST ISZERO PUSH2 0x1673 JUMPI PUSH0 PUSH2 0x1550 DUP5 PUSH2 0xC8B JUMP JUMPDEST SWAP1 POP PUSH0 PUSH20 0xFFFFFFFFFFFFFFFFFFFFFFFFFFFFFFFFFFFFFFFF AND DUP4 PUSH20 0xFFFFFFFFFFFFFFFFFFFFFFFFFFFFFFFFFFFFFFFF AND EQ ISZERO DUP1 ISZERO PUSH2 0x15BA JUMPI POP DUP3 PUSH20 0xFFFFFFFFFFFFFFFFFFFFFFFFFFFFFFFFFFFFFFFF AND DUP2 PUSH20 0xFFFFFFFFFFFFFFFFFFFFFFFFFFFFFFFFFFFFFFFF AND EQ ISZERO JUMPDEST DUP1 ISZERO PUSH2 0x15CD JUMPI POP PUSH2 0x15CB DUP2 DUP5 PUSH2 0xB10 JUMP JUMPDEST ISZERO JUMPDEST ISZERO PUSH2 0x160F JUMPI DUP3 PUSH1 0x40 MLOAD PUSH32 0xA9FBF51F00000000000000000000000000000000000000000000000000000000 DUP2 MSTORE PUSH1 0x4 ADD PUSH2 0x1606 SWAP2 SWAP1 PUSH2 0x1CB5 JUMP JUMPDEST PUSH1 0x40 MLOAD DUP1 SWAP2 SUB SWAP1 REVERT JUMPDEST DUP2 ISZERO PUSH2 0x1671 JUMPI DUP4 DUP6 PUSH20 0xFFFFFFFFFFFFFFFFFFFFFFFFFFFFFFFFFFFFFFFF AND DUP3 PUSH20 0xFFFFFFFFFFFFFFFFFFFFFFFFFFFFFFFFFFFFFFFF AND PUSH32 0x8C5BE1E5EBEC7D5BD14F71427D1E84F3DD0314C0F7B2291E5B200AC8C7C3B925 PUSH1 0x40 MLOAD PUSH1 0x40 MLOAD DUP1 SWAP2 SUB SWAP1 LOG4 JUMPDEST POP JUMPDEST DUP4 PUSH1 0x4 PUSH0 DUP6 DUP2 MSTORE PUSH1 0x20 ADD SWAP1 DUP2 MSTORE PUSH1 0x20 ADD PUSH0 KECCAK256 PUSH0 PUSH2 0x100 EXP DUP2 SLOAD DUP2 PUSH20 0xFFFFFFFFFFFFFFFFFFFFFFFFFFFFFFFFFFFFFFFF MUL NOT AND SWAP1 DUP4 PUSH20 0xFFFFFFFFFFFFFFFFFFFFFFFFFFFFFFFFFFFFFFFF AND MUL OR SWAP1 SSTORE POP POP POP POP POP JUMP JUMPDEST PUSH2 0x16D3 DUP4 DUP4 DUP4 PUSH2 0x18F7 JUMP JUMPDEST PUSH2 0x1786 JUMPI PUSH0 PUSH20 0xFFFFFFFFFFFFFFFFFFFFFFFFFFFFFFFFFFFFFFFF AND DUP4 PUSH20 0xFFFFFFFFFFFFFFFFFFFFFFFFFFFFFFFFFFFFFFFF AND SUB PUSH2 0x1747 JUMPI DUP1 PUSH1 0x40 MLOAD PUSH32 0x7E27328900000000000000000000000000000000000000000000000000000000 DUP2 MSTORE PUSH1 0x4 ADD PUSH2 0x173E SWAP2 SWAP1 PUSH2 0x1F58 JUMP JUMPDEST PUSH1 0x40 MLOAD DUP1 SWAP2 SUB SWAP1 REVERT JUMPDEST DUP2 DUP2 PUSH1 0x40 MLOAD PUSH32 0x177E802F00000000000000000000000000000000000000000000000000000000 DUP2 MSTORE PUSH1 0x4 ADD PUSH2 0x177D SWAP3 SWAP2 SWAP1 PUSH2 0x2708 JUMP JUMPDEST PUSH1 0x40 MLOAD DUP1 SWAP2 SUB SWAP1 REVERT JUMPDEST POP POP POP JUMP JUMPDEST PUSH2 0x1795 DUP4 DUP4 PUSH2 0x19B7 JUMP JUMPDEST PUSH2 0x17A1 PUSH0 DUP5 DUP5 DUP5 PUSH2 0x123E JUMP JUMPDEST POP POP POP JUMP JUMPDEST PUSH0 DUP1 PUSH0 SWAP1 POP PUSH27 0x184F03E93FF9F4DAA797ED6E38ED64BF6A1F010000000000000000 DUP4 LT PUSH2 0x1802 JUMPI PUSH27 0x184F03E93FF9F4DAA797ED6E38ED64BF6A1F010000000000000000 DUP4 DUP2 PUSH2 0x17F8 JUMPI PUSH2 0x17F7 PUSH2 0x26DB JUMP JUMPDEST JUMPDEST DIV SWAP3 POP PUSH1 0x40 DUP2 ADD SWAP1 POP JUMPDEST PUSH14 0x4EE2D6D415B85ACEF8100000000 DUP4 LT PUSH2 0x183F JUMPI PUSH14 0x4EE2D6D415B85ACEF8100000000 DUP4 DUP2 PUSH2 0x1835 JUMPI PUSH2 0x1834 PUSH2 0x26DB JUMP JUMPDEST JUMPDEST DIV SWAP3 POP PUSH1 0x20 DUP2 ADD SWAP1 POP JUMPDEST PUSH7 0x2386F26FC10000 DUP4 LT PUSH2 0x186E JUMPI PUSH7 0x2386F26FC10000 DUP4 DUP2 PUSH2 0x1864 JUMPI PUSH2 0x1863 PUSH2 0x26DB JUMP JUMPDEST JUMPDEST DIV SWAP3 POP PUSH1 0x10 DUP2 ADD SWAP1 POP JUMPDEST PUSH4 0x5F5E100 DUP4 LT PUSH2 0x1897 JUMPI PUSH4 0x5F5E100 DUP4 DUP2 PUSH2 0x188D JUMPI PUSH2 0x188C PUSH2 0x26DB JUMP JUMPDEST JUMPDEST DIV SWAP3 POP PUSH1 0x8 DUP2 ADD SWAP1 POP JUMPDEST PUSH2 0x2710 DUP4 LT PUSH2 0x18BC JUMPI PUSH2 0x2710 DUP4 DUP2 PUSH2 0x18B2 JUMPI PUSH2 0x18B1 PUSH2 0x26DB JUMP JUMPDEST JUMPDEST DIV SWAP3 POP PUSH1 0x4 DUP2 ADD SWAP1 POP JUMPDEST PUSH1 0x64 DUP4 LT PUSH2 0x18DF JUMPI PUSH1 0x64 DUP4 DUP2 PUSH2 0x18D5 JUMPI PUSH2 0x18D4 PUSH2 0x26DB JUMP JUMPDEST JUMPDEST DIV SWAP3 POP PUSH1 0x2 DUP2 ADD SWAP1 POP JUMPDEST PUSH1 0xA DUP4 LT PUSH2 0x18EE JUMPI PUSH1 0x1 DUP2 ADD SWAP1 POP JUMPDEST DUP1 SWAP2 POP POP SWAP2 SWAP1 POP JUMP JUMPDEST PUSH0 DUP1 PUSH20 0xFFFFFFFFFFFFFFFFFFFFFFFFFFFFFFFFFFFFFFFF AND DUP4 PUSH20 0xFFFFFFFFFFFFFFFFFFFFFFFFFFFFFFFFFFFFFFFF AND EQ ISZERO DUP1 ISZERO PUSH2 0x19AE JUMPI POP DUP3 PUSH20 0xFFFFFFFFFFFFFFFFFFFFFFFFFFFFFFFFFFFFFFFF AND DUP5 PUSH20 0xFFFFFFFFFFFFFFFFFFFFFFFFFFFFFFFFFFFFFFFF AND EQ DUP1 PUSH2 0x196F JUMPI POP PUSH2 0x196E DUP5 DUP5 PUSH2 0xB10 JUMP JUMPDEST JUMPDEST DUP1 PUSH2 0x19AD JUMPI POP DUP3 PUSH20 0xFFFFFFFFFFFFFFFFFFFFFFFFFFFFFFFFFFFFFFFF AND PUSH2 0x1995 DUP4 PUSH2 0xD11 JUMP JUMPDEST PUSH20 0xFFFFFFFFFFFFFFFFFFFFFFFFFFFFFFFFFFFFFFFF AND EQ JUMPDEST JUMPDEST SWAP1 POP SWAP4 SWAP3 POP POP POP JUMP JUMPDEST PUSH0 PUSH20 0xFFFFFFFFFFFFFFFFFFFFFFFFFFFFFFFFFFFFFFFF AND DUP3 PUSH20 0xFFFFFFFFFFFFFFFFFFFFFFFFFFFFFFFFFFFFFFFF AND SUB PUSH2 0x1A27 JUMPI PUSH0 PUSH1 0x40 MLOAD PUSH32 0x64A0AE9200000000000000000000000000000000000000000000000000000000 DUP2 MSTORE PUSH1 0x4 ADD PUSH2 0x1A1E SWAP2 SWAP1 PUSH2 0x1CB5 JUMP JUMPDEST PUSH1 0x40 MLOAD DUP1 SWAP2 SUB SWAP1 REVERT JUMPDEST PUSH0 PUSH2 0x1A33 DUP4 DUP4 PUSH0 PUSH2 0xD63 JUMP JUMPDEST SWAP1 POP PUSH0 PUSH20 0xFFFFFFFFFFFFFFFFFFFFFFFFFFFFFFFFFFFFFFFF AND DUP2 PUSH20 0xFFFFFFFFFFFFFFFFFFFFFFFFFFFFFFFFFFFFFFFF AND EQ PUSH2 0x1AA5 JUMPI PUSH0 PUSH1 0x40 MLOAD PUSH32 0x73C6AC6E00000000000000000000000000000000000000000000000000000000 DUP2 MSTORE PUSH1 0x4 ADD PUSH2 0x1A9C SWAP2 SWAP1 PUSH2 0x1CB5 JUMP JUMPDEST PUSH1 0x40 MLOAD DUP1 SWAP2 SUB SWAP1 REVERT JUMPDEST POP POP POP JUMP JUMPDEST PUSH0 PUSH1 0x40 MLOAD SWAP1 POP SWAP1 JUMP JUMPDEST PUSH0 DUP1 REVERT JUMPDEST PUSH0 DUP1 REVERT JUMPDEST PUSH0 PUSH32 0xFFFFFFFF00000000000000000000000000000000000000000000000000000000 DUP3 AND SWAP1 POP SWAP2 SWAP1 POP JUMP JUMPDEST PUSH2 0x1AEF DUP2 PUSH2 0x1ABB JUMP JUMPDEST DUP2 EQ PUSH2 0x1AF9 JUMPI PUSH0 DUP1 REVERT JUMPDEST POP JUMP JUMPDEST PUSH0 DUP2 CALLDATALOAD SWAP1 POP PUSH2 0x1B0A DUP2 PUSH2 0x1AE6 JUMP JUMPDEST SWAP3 SWAP2 POP POP JUMP JUMPDEST PUSH0 PUSH1 0x20 DUP3 DUP5 SUB SLT ISZERO PUSH2 0x1B25 JUMPI PUSH2 0x1B24 PUSH2 0x1AB3 JUMP JUMPDEST JUMPDEST PUSH0 PUSH2 0x1B32 DUP5 DUP3 DUP6 ADD PUSH2 0x1AFC JUMP JUMPDEST SWAP2 POP POP SWAP3 SWAP2 POP POP JUMP JUMPDEST PUSH0 DUP2 ISZERO ISZERO SWAP1 POP SWAP2 SWAP1 POP JUMP JUMPDEST PUSH2 0x1B4F DUP2 PUSH2 0x1B3B JUMP JUMPDEST DUP3 MSTORE POP POP JUMP JUMPDEST PUSH0 PUSH1 0x20 DUP3 ADD SWAP1 POP PUSH2 0x1B68 PUSH0 DUP4 ADD DUP5 PUSH2 0x1B46 JUMP JUMPDEST SWAP3 SWAP2 POP POP JUMP JUMPDEST PUSH0 DUP2 MLOAD SWAP1 POP SWAP2 SWAP1 POP JUMP JUMPDEST PUSH0 DUP3 DUP3 MSTORE PUSH1 0x20 DUP3 ADD SWAP1 POP SWAP3 SWAP2 POP POP JUMP JUMPDEST PUSH0 JUMPDEST DUP4 DUP2 LT ISZERO PUSH2 0x1BA5 JUMPI DUP1 DUP3 ADD MLOAD DUP2 DUP5 ADD MSTORE PUSH1 0x20 DUP2 ADD SWAP1 POP PUSH2 0x1B8A JUMP JUMPDEST PUSH0 DUP5 DUP5 ADD MSTORE POP POP POP POP JUMP JUMPDEST PUSH0 PUSH1 0x1F NOT PUSH1 0x1F DUP4 ADD AND SWAP1 POP SWAP2 SWAP1 POP JUMP JUMPDEST PUSH0 PUSH2 0x1BCA DUP3 PUSH2 0x1B6E JUMP JUMPDEST PUSH2 0x1BD4 DUP2 DUP6 PUSH2 0x1B78 JUMP JUMPDEST SWAP4 POP PUSH2 0x1BE4 DUP2 DUP6 PUSH1 0x20 DUP7 ADD PUSH2 0x1B88 JUMP JUMPDEST PUSH2 0x1BED DUP2 PUSH2 0x1BB0 JUMP JUMPDEST DUP5 ADD SWAP2 POP POP SWAP3 SWAP2 POP POP JUMP JUMPDEST PUSH0 PUSH1 0x20 DUP3 ADD SWAP1 POP DUP2 DUP2 SUB PUSH0 DUP4 ADD MSTORE PUSH2 0x1C10 DUP2 DUP5 PUSH2 0x1BC0 JUMP JUMPDEST SWAP1 POP SWAP3 SWAP2 POP POP JUMP JUMPDEST PUSH0 DUP2 SWAP1 POP SWAP2 SWAP1 POP JUMP JUMPDEST PUSH2 0x1C2A DUP2 PUSH2 0x1C18 JUMP JUMPDEST DUP2 EQ PUSH2 0x1C34 JUMPI PUSH0 DUP1 REVERT JUMPDEST POP JUMP JUMPDEST PUSH0 DUP2 CALLDATALOAD SWAP1 POP PUSH2 0x1C45 DUP2 PUSH2 0x1C21 JUMP JUMPDEST SWAP3 SWAP2 POP POP JUMP JUMPDEST PUSH0 PUSH1 0x20 DUP3 DUP5 SUB SLT ISZERO PUSH2 0x1C60 JUMPI PUSH2 0x1C5F PUSH2 0x1AB3 JUMP JUMPDEST JUMPDEST PUSH0 PUSH2 0x1C6D DUP5 DUP3 DUP6 ADD PUSH2 0x1C37 JUMP JUMPDEST SWAP2 POP POP SWAP3 SWAP2 POP POP JUMP JUMPDEST PUSH0 PUSH20 0xFFFFFFFFFFFFFFFFFFFFFFFFFFFFFFFFFFFFFFFF DUP3 AND SWAP1 POP SWAP2 SWAP1 POP JUMP JUMPDEST PUSH0 PUSH2 0x1C9F DUP3 PUSH2 0x1C76 JUMP JUMPDEST SWAP1 POP SWAP2 SWAP1 POP JUMP JUMPDEST PUSH2 0x1CAF DUP2 PUSH2 0x1C95 JUMP JUMPDEST DUP3 MSTORE POP POP JUMP JUMPDEST PUSH0 PUSH1 0x20 DUP3 ADD SWAP1 POP PUSH2 0x1CC8 PUSH0 DUP4 ADD DUP5 PUSH2 0x1CA6 JUMP JUMPDEST SWAP3 SWAP2 POP POP JUMP JUMPDEST PUSH2 0x1CD7 DUP2 PUSH2 0x1C95 JUMP JUMPDEST DUP2 EQ PUSH2 0x1CE1 JUMPI PUSH0 DUP1 REVERT JUMPDEST POP JUMP JUMPDEST PUSH0 DUP2 CALLDATALOAD SWAP1 POP PUSH2 0x1CF2 DUP2 PUSH2 0x1CCE JUMP JUMPDEST SWAP3 SWAP2 POP POP JUMP JUMPDEST PUSH0 DUP1 PUSH1 0x40 DUP4 DUP6 SUB SLT ISZERO PUSH2 0x1D0E JUMPI PUSH2 0x1D0D PUSH2 0x1AB3 JUMP JUMPDEST JUMPDEST PUSH0 PUSH2 0x1D1B DUP6 DUP3 DUP7 ADD PUSH2 0x1CE4 JUMP JUMPDEST SWAP3 POP POP PUSH1 0x20 PUSH2 0x1D2C DUP6 DUP3 DUP7 ADD PUSH2 0x1C37 JUMP JUMPDEST SWAP2 POP POP SWAP3 POP SWAP3 SWAP1 POP JUMP JUMPDEST PUSH0 DUP1 PUSH0 PUSH1 0x60 DUP5 DUP7 SUB SLT ISZERO PUSH2 0x1D4D JUMPI PUSH2 0x1D4C PUSH2 0x1AB3 JUMP JUMPDEST JUMPDEST PUSH0 PUSH2 0x1D5A DUP7 DUP3 DUP8 ADD PUSH2 0x1CE4 JUMP JUMPDEST SWAP4 POP POP PUSH1 0x20 PUSH2 0x1D6B DUP7 DUP3 DUP8 ADD PUSH2 0x1CE4 JUMP JUMPDEST SWAP3 POP POP PUSH1 0x40 PUSH2 0x1D7C DUP7 DUP3 DUP8 ADD PUSH2 0x1C37 JUMP JUMPDEST SWAP2 POP POP SWAP3 POP SWAP3 POP SWAP3 JUMP JUMPDEST PUSH0 DUP1 REVERT JUMPDEST PUSH0 DUP1 REVERT JUMPDEST PUSH32 0x4E487B7100000000000000000000000000000000000000000000000000000000 PUSH0 MSTORE PUSH1 0x41 PUSH1 0x4 MSTORE PUSH1 0x24 PUSH0 REVERT JUMPDEST PUSH2 0x1DC4 DUP3 PUSH2 0x1BB0 JUMP JUMPDEST DUP2 ADD DUP2 DUP2 LT PUSH8 0xFFFFFFFFFFFFFFFF DUP3 GT OR ISZERO PUSH2 0x1DE3 JUMPI PUSH2 0x1DE2 PUSH2 0x1D8E JUMP JUMPDEST JUMPDEST DUP1 PUSH1 0x40 MSTORE POP POP POP JUMP JUMPDEST PUSH0 PUSH2 0x1DF5 PUSH2 0x1AAA JUMP JUMPDEST SWAP1 POP PUSH2 0x1E01 DUP3 DUP3 PUSH2 0x1DBB JUMP JUMPDEST SWAP2 SWAP1 POP JUMP JUMPDEST PUSH0 PUSH8 0xFFFFFFFFFFFFFFFF DUP3 GT ISZERO PUSH2 0x1E20 JUMPI PUSH2 0x1E1F PUSH2 0x1D8E JUMP JUMPDEST JUMPDEST PUSH2 0x1E29 DUP3 PUSH2 0x1BB0 JUMP JUMPDEST SWAP1 POP PUSH1 0x20 DUP2 ADD SWAP1 POP SWAP2 SWAP1 POP JUMP JUMPDEST DUP3 DUP2 DUP4 CALLDATACOPY PUSH0 DUP4 DUP4 ADD MSTORE POP POP POP JUMP JUMPDEST PUSH0 PUSH2 0x1E56 PUSH2 0x1E51 DUP5 PUSH2 0x1E06 JUMP JUMPDEST PUSH2 0x1DEC JUMP JUMPDEST SWAP1 POP DUP3 DUP2 MSTORE PUSH1 0x20 DUP2 ADD DUP5 DUP5 DUP5 ADD GT ISZERO PUSH2 0x1E72 JUMPI PUSH2 0x1E71 PUSH2 0x1D8A JUMP JUMPDEST JUMPDEST PUSH2 0x1E7D DUP5 DUP3 DUP6 PUSH2 0x1E36 JUMP JUMPDEST POP SWAP4 SWAP3 POP POP POP JUMP JUMPDEST PUSH0 DUP3 PUSH1 0x1F DUP4 ADD SLT PUSH2 0x1E99 JUMPI PUSH2 0x1E98 PUSH2 0x1D86 JUMP JUMPDEST JUMPDEST DUP2 CALLDATALOAD PUSH2 0x1EA9 DUP5 DUP3 PUSH1 0x20 DUP7 ADD PUSH2 0x1E44 JUMP JUMPDEST SWAP2 POP POP SWAP3 SWAP2 POP POP JUMP JUMPDEST PUSH0 DUP1 PUSH0 PUSH1 0x60 DUP5 DUP7 SUB SLT ISZERO PUSH2 0x1EC9 JUMPI PUSH2 0x1EC8 PUSH2 0x1AB3 JUMP JUMPDEST JUMPDEST PUSH0 DUP5 ADD CALLDATALOAD PUSH8 0xFFFFFFFFFFFFFFFF DUP2 GT ISZERO PUSH2 0x1EE6 JUMPI PUSH2 0x1EE5 PUSH2 0x1AB7 JUMP JUMPDEST JUMPDEST PUSH2 0x1EF2 DUP7 DUP3 DUP8 ADD PUSH2 0x1E85 JUMP JUMPDEST SWAP4 POP POP PUSH1 0x20 PUSH2 0x1F03 DUP7 DUP3 DUP8 ADD PUSH2 0x1C37 JUMP JUMPDEST SWAP3 POP POP PUSH1 0x40 PUSH2 0x1F14 DUP7 DUP3 DUP8 ADD PUSH2 0x1C37 JUMP JUMPDEST SWAP2 POP POP SWAP3 POP SWAP3 POP SWAP3 JUMP JUMPDEST PUSH0 PUSH1 0x20 DUP3 DUP5 SUB SLT ISZERO PUSH2 0x1F33 JUMPI PUSH2 0x1F32 PUSH2 0x1AB3 JUMP JUMPDEST JUMPDEST PUSH0 PUSH2 0x1F40 DUP5 DUP3 DUP6 ADD PUSH2 0x1CE4 JUMP JUMPDEST SWAP2 POP POP SWAP3 SWAP2 POP POP JUMP JUMPDEST PUSH2 0x1F52 DUP2 PUSH2 0x1C18 JUMP JUMPDEST DUP3 MSTORE POP POP JUMP JUMPDEST PUSH0 PUSH1 0x20 DUP3 ADD SWAP1 POP PUSH2 0x1F6B PUSH0 DUP4 ADD DUP5 PUSH2 0x1F49 JUMP JUMPDEST SWAP3 SWAP2 POP POP JUMP JUMPDEST PUSH2 0x1F7A DUP2 PUSH2 0x1B3B JUMP JUMPDEST DUP2 EQ PUSH2 0x1F84 JUMPI PUSH0 DUP1 REVERT JUMPDEST POP JUMP JUMPDEST PUSH0 DUP2 CALLDATALOAD SWAP1 POP PUSH2 0x1F95 DUP2 PUSH2 0x1F71 JUMP JUMPDEST SWAP3 SWAP2 POP POP JUMP JUMPDEST PUSH0 DUP1 PUSH1 0x40 DUP4 DUP6 SUB SLT ISZERO PUSH2 0x1FB1 JUMPI PUSH2 0x1FB0 PUSH2 0x1AB3 JUMP JUMPDEST JUMPDEST PUSH0 PUSH2 0x1FBE DUP6 DUP3 DUP7 ADD PUSH2 0x1CE4 JUMP JUMPDEST SWAP3 POP POP PUSH1 0x20 PUSH2 0x1FCF DUP6 DUP3 DUP7 ADD PUSH2 0x1F87 JUMP JUMPDEST SWAP2 POP POP SWAP3 POP SWAP3 SWAP1 POP JUMP JUMPDEST PUSH0 PUSH8 0xFFFFFFFFFFFFFFFF DUP3 GT ISZERO PUSH2 0x1FF3 JUMPI PUSH2 0x1FF2 PUSH2 0x1D8E JUMP JUMPDEST JUMPDEST PUSH2 0x1FFC DUP3 PUSH2 0x1BB0 JUMP JUMPDEST SWAP1 POP PUSH1 0x20 DUP2 ADD SWAP1 POP SWAP2 SWAP1 POP JUMP JUMPDEST PUSH0 PUSH2 0x201B PUSH2 0x2016 DUP5 PUSH2 0x1FD9 JUMP JUMPDEST PUSH2 0x1DEC JUMP JUMPDEST SWAP1 POP DUP3 DUP2 MSTORE PUSH1 0x20 DUP2 ADD DUP5 DUP5 DUP5 ADD GT ISZERO PUSH2 0x2037 JUMPI PUSH2 0x2036 PUSH2 0x1D8A JUMP JUMPDEST JUMPDEST PUSH2 0x2042 DUP5 DUP3 DUP6 PUSH2 0x1E36 JUMP JUMPDEST POP SWAP4 SWAP3 POP POP POP JUMP JUMPDEST PUSH0 DUP3 PUSH1 0x1F DUP4 ADD SLT PUSH2 0x205E JUMPI PUSH2 0x205D PUSH2 0x1D86 JUMP JUMPDEST JUMPDEST DUP2 CALLDATALOAD PUSH2 0x206E DUP5 DUP3 PUSH1 0x20 DUP7 ADD PUSH2 0x2009 JUMP JUMPDEST SWAP2 POP POP SWAP3 SWAP2 POP POP JUMP JUMPDEST PUSH0 DUP1 PUSH0 DUP1 PUSH1 0x80 DUP6 DUP8 SUB SLT ISZERO PUSH2 0x208F JUMPI PUSH2 0x208E PUSH2 0x1AB3 JUMP JUMPDEST JUMPDEST PUSH0 PUSH2 0x209C DUP8 DUP3 DUP9 ADD PUSH2 0x1CE4 JUMP JUMPDEST SWAP5 POP POP PUSH1 0x20 PUSH2 0x20AD DUP8 DUP3 DUP9 ADD PUSH2 0x1CE4 JUMP JUMPDEST SWAP4 POP POP PUSH1 0x40 PUSH2 0x20BE DUP8 DUP3 DUP9 ADD PUSH2 0x1C37 JUMP JUMPDEST SWAP3 POP POP PUSH1 0x60 DUP6 ADD CALLDATALOAD PUSH8 0xFFFFFFFFFFFFFFFF DUP2 GT ISZERO PUSH2 0x20DF JUMPI PUSH2 0x20DE PUSH2 0x1AB7 JUMP JUMPDEST JUMPDEST PUSH2 0x20EB DUP8 DUP3 DUP9 ADD PUSH2 0x204A JUMP JUMPDEST SWAP2 POP POP SWAP3 SWAP6 SWAP2 SWAP5 POP SWAP3 POP JUMP JUMPDEST PUSH0 PUSH1 0x60 DUP3 ADD SWAP1 POP DUP2 DUP2 SUB PUSH0 DUP4 ADD MSTORE PUSH2 0x210F DUP2 DUP7 PUSH2 0x1BC0 JUMP JUMPDEST SWAP1 POP PUSH2 0x211E PUSH1 0x20 DUP4 ADD DUP6 PUSH2 0x1F49 JUMP JUMPDEST PUSH2 0x212B PUSH1 0x40 DUP4 ADD DUP5 PUSH2 0x1F49 JUMP JUMPDEST SWAP5 SWAP4 POP POP POP POP JUMP JUMPDEST PUSH0 DUP1 PUSH1 0x40 DUP4 DUP6 SUB SLT ISZERO PUSH2 0x2149 JUMPI PUSH2 0x2148 PUSH2 0x1AB3 JUMP JUMPDEST JUMPDEST PUSH0 PUSH2 0x2156 DUP6 DUP3 DUP7 ADD PUSH2 0x1CE4 JUMP JUMPDEST SWAP3 POP POP PUSH1 0x20 PUSH2 0x2167 DUP6 DUP3 DUP7 ADD PUSH2 0x1CE4 JUMP JUMPDEST SWAP2 POP POP SWAP3 POP SWAP3 SWAP1 POP JUMP JUMPDEST PUSH32 0x4E487B7100000000000000000000000000000000000000000000000000000000 PUSH0 MSTORE PUSH1 0x22 PUSH1 0x4 MSTORE PUSH1 0x24 PUSH0 REVERT JUMPDEST PUSH0 PUSH1 0x2 DUP3 DIV SWAP1 POP PUSH1 0x1 DUP3 AND DUP1 PUSH2 0x21B5 JUMPI PUSH1 0x7F DUP3 AND SWAP2 POP JUMPDEST PUSH1 0x20 DUP3 LT DUP2 SUB PUSH2 0x21C8 JUMPI PUSH2 0x21C7 PUSH2 0x2171 JUMP JUMPDEST JUMPDEST POP SWAP2 SWAP1 POP JUMP JUMPDEST PUSH0 PUSH1 0x60 DUP3 ADD SWAP1 POP PUSH2 0x21E1 PUSH0 DUP4 ADD DUP7 PUSH2 0x1CA6 JUMP JUMPDEST PUSH2 0x21EE PUSH1 0x20 DUP4 ADD DUP6 PUSH2 0x1F49 JUMP JUMPDEST PUSH2 0x21FB PUSH1 0x40 DUP4 ADD DUP5 PUSH2 0x1CA6 JUMP JUMPDEST SWAP5 SWAP4 POP POP POP POP JUMP JUMPDEST PUSH0 DUP2 SWAP1 POP DUP2 PUSH0 MSTORE PUSH1 0x20 PUSH0 KECCAK256 SWAP1 POP SWAP2 SWAP1 POP JUMP JUMPDEST PUSH0 PUSH1 0x20 PUSH1 0x1F DUP4 ADD DIV SWAP1 POP SWAP2 SWAP1 POP JUMP JUMPDEST PUSH0 DUP3 DUP3 SHL SWAP1 POP SWAP3 SWAP2 POP POP JUMP JUMPDEST PUSH0 PUSH1 0x8 DUP4 MUL PUSH2 0x225F PUSH32 0xFFFFFFFFFFFFFFFFFFFFFFFFFFFFFFFFFFFFFFFFFFFFFFFFFFFFFFFFFFFFFFFF DUP3 PUSH2 0x2224 JUMP JUMPDEST PUSH2 0x2269 DUP7 DUP4 PUSH2 0x2224 JUMP JUMPDEST SWAP6 POP DUP1 NOT DUP5 AND SWAP4 POP DUP1 DUP7 AND DUP5 OR SWAP3 POP POP POP SWAP4 SWAP3 POP POP POP JUMP JUMPDEST PUSH0 DUP2 SWAP1 POP SWAP2 SWAP1 POP JUMP JUMPDEST PUSH0 PUSH2 0x22A4 PUSH2 0x229F PUSH2 0x229A DUP5 PUSH2 0x1C18 JUMP JUMPDEST PUSH2 0x2281 JUMP JUMPDEST PUSH2 0x1C18 JUMP JUMPDEST SWAP1 POP SWAP2 SWAP1 POP JUMP JUMPDEST PUSH0 DUP2 SWAP1 POP SWAP2 SWAP1 POP JUMP JUMPDEST PUSH2 0x22BD DUP4 PUSH2 0x228A JUMP JUMPDEST PUSH2 0x22D1 PUSH2 0x22C9 DUP3 PUSH2 0x22AB JUMP JUMPDEST DUP5 DUP5 SLOAD PUSH2 0x2230 JUMP JUMPDEST DUP3 SSTORE POP POP POP POP JUMP JUMPDEST PUSH0 SWAP1 JUMP JUMPDEST PUSH2 0x22E5 PUSH2 0x22D9 JUMP JUMPDEST PUSH2 0x22F0 DUP2 DUP5 DUP5 PUSH2 0x22B4 JUMP JUMPDEST POP POP POP JUMP JUMPDEST JUMPDEST DUP2 DUP2 LT ISZERO PUSH2 0x2313 JUMPI PUSH2 0x2308 PUSH0 DUP3 PUSH2 0x22DD JUMP JUMPDEST PUSH1 0x1 DUP2 ADD SWAP1 POP PUSH2 0x22F6 JUMP JUMPDEST POP POP JUMP JUMPDEST PUSH1 0x1F DUP3 GT ISZERO PUSH2 0x2358 JUMPI PUSH2 0x2329 DUP2 PUSH2 0x2203 JUMP JUMPDEST PUSH2 0x2332 DUP5 PUSH2 0x2215 JUMP JUMPDEST DUP2 ADD PUSH1 0x20 DUP6 LT ISZERO PUSH2 0x2341 JUMPI DUP2 SWAP1 POP JUMPDEST PUSH2 0x2355 PUSH2 0x234D DUP6 PUSH2 0x2215 JUMP JUMPDEST DUP4 ADD DUP3 PUSH2 0x22F5 JUMP JUMPDEST POP POP JUMPDEST POP POP POP JUMP JUMPDEST PUSH0 DUP3 DUP3 SHR SWAP1 POP SWAP3 SWAP2 POP POP JUMP JUMPDEST PUSH0 PUSH2 0x2378 PUSH0 NOT DUP5 PUSH1 0x8 MUL PUSH2 0x235D JUMP JUMPDEST NOT DUP1 DUP4 AND SWAP2 POP POP SWAP3 SWAP2 POP POP JUMP JUMPDEST PUSH0 PUSH2 0x2390 DUP4 DUP4 PUSH2 0x2369 JUMP JUMPDEST SWAP2 POP DUP3 PUSH1 0x2 MUL DUP3 OR SWAP1 POP SWAP3 SWAP2 POP POP JUMP JUMPDEST PUSH2 0x23A9 DUP3 PUSH2 0x1B6E JUMP JUMPDEST PUSH8 0xFFFFFFFFFFFFFFFF DUP2 GT ISZERO PUSH2 0x23C2 JUMPI PUSH2 0x23C1 PUSH2 0x1D8E JUMP JUMPDEST JUMPDEST PUSH2 0x23CC DUP3 SLOAD PUSH2 0x219E JUMP JUMPDEST PUSH2 0x23D7 DUP3 DUP3 DUP6 PUSH2 0x2317 JUMP JUMPDEST PUSH0 PUSH1 0x20 SWAP1 POP PUSH1 0x1F DUP4 GT PUSH1 0x1 DUP2 EQ PUSH2 0x2408 JUMPI PUSH0 DUP5 ISZERO PUSH2 0x23F6 JUMPI DUP3 DUP8 ADD MLOAD SWAP1 POP JUMPDEST PUSH2 0x2400 DUP6 DUP3 PUSH2 0x2385 JUMP JUMPDEST DUP7 SSTORE POP PUSH2 0x2467 JUMP JUMPDEST PUSH1 0x1F NOT DUP5 AND PUSH2 0x2416 DUP7 PUSH2 0x2203 JUMP JUMPDEST PUSH0 JUMPDEST DUP3 DUP2 LT ISZERO PUSH2 0x243D JUMPI DUP5 DUP10 ADD MLOAD DUP3 SSTORE PUSH1 0x1 DUP3 ADD SWAP2 POP PUSH1 0x20 DUP6 ADD SWAP5 POP PUSH1 0x20 DUP2 ADD SWAP1 POP PUSH2 0x2418 JUMP JUMPDEST DUP7 DUP4 LT ISZERO PUSH2 0x245A JUMPI DUP5 DUP10 ADD MLOAD PUSH2 0x2456 PUSH1 0x1F DUP10 AND DUP3 PUSH2 0x2369 JUMP JUMPDEST DUP4 SSTORE POP JUMPDEST PUSH1 0x1 PUSH1 0x2 DUP9 MUL ADD DUP9 SSTORE POP POP POP JUMPDEST POP POP POP POP POP POP JUMP JUMPDEST PUSH32 0x4E487B7100000000000000000000000000000000000000000000000000000000 PUSH0 MSTORE PUSH1 0x11 PUSH1 0x4 MSTORE PUSH1 0x24 PUSH0 REVERT JUMPDEST PUSH0 PUSH2 0x24A6 DUP3 PUSH2 0x1C18 JUMP JUMPDEST SWAP2 POP PUSH32 0xFFFFFFFFFFFFFFFFFFFFFFFFFFFFFFFFFFFFFFFFFFFFFFFFFFFFFFFFFFFFFFFF DUP3 SUB PUSH2 0x24D8 JUMPI PUSH2 0x24D7 PUSH2 0x246F JUMP JUMPDEST JUMPDEST PUSH1 0x1 DUP3 ADD SWAP1 POP SWAP2 SWAP1 POP JUMP JUMPDEST PUSH0 PUSH1 0xA0 DUP3 ADD SWAP1 POP PUSH2 0x24F6 PUSH0 DUP4 ADD DUP9 PUSH2 0x1CA6 JUMP JUMPDEST PUSH2 0x2503 PUSH1 0x20 DUP4 ADD DUP8 PUSH2 0x1F49 JUMP JUMPDEST DUP2 DUP2 SUB PUSH1 0x40 DUP4 ADD MSTORE PUSH2 0x2515 DUP2 DUP7 PUSH2 0x1BC0 JUMP JUMPDEST SWAP1 POP PUSH2 0x2524 PUSH1 0x60 DUP4 ADD DUP6 PUSH2 0x1F49 JUMP JUMPDEST PUSH2 0x2531 PUSH1 0x80 DUP4 ADD DUP5 PUSH2 0x1F49 JUMP JUMPDEST SWAP7 SWAP6 POP POP POP POP POP POP JUMP JUMPDEST PUSH0 DUP2 SWAP1 POP SWAP3 SWAP2 POP POP JUMP JUMPDEST PUSH0 PUSH2 0x254F DUP3 PUSH2 0x1B6E JUMP JUMPDEST PUSH2 0x2559 DUP2 DUP6 PUSH2 0x253B JUMP JUMPDEST SWAP4 POP PUSH2 0x2569 DUP2 DUP6 PUSH1 0x20 DUP7 ADD PUSH2 0x1B88 JUMP JUMPDEST DUP1 DUP5 ADD SWAP2 POP POP SWAP3 SWAP2 POP POP JUMP JUMPDEST PUSH0 PUSH2 0x2580 DUP3 DUP6 PUSH2 0x2545 JUMP JUMPDEST SWAP2 POP PUSH2 0x258C DUP3 DUP5 PUSH2 0x2545 JUMP JUMPDEST SWAP2 POP DUP2 SWAP1 POP SWAP4 SWAP3 POP POP POP JUMP JUMPDEST PUSH32 0x436861726163746572206E6F74206D696E746564000000000000000000000000 PUSH0 DUP3 ADD MSTORE POP JUMP JUMPDEST PUSH0 PUSH2 0x25CC PUSH1 0x14 DUP4 PUSH2 0x1B78 JUMP JUMPDEST SWAP2 POP PUSH2 0x25D7 DUP3 PUSH2 0x2598 JUMP JUMPDEST PUSH1 0x20 DUP3 ADD SWAP1 POP SWAP2 SWAP1 POP JUMP JUMPDEST PUSH0 PUSH1 0x20 DUP3 ADD SWAP1 POP DUP2 DUP2 SUB PUSH0 DUP4 ADD MSTORE PUSH2 0x25F9 DUP2 PUSH2 0x25C0 JUMP JUMPDEST SWAP1 POP SWAP2 SWAP1 POP JUMP JUMPDEST PUSH0 DUP2 MLOAD SWAP1 POP SWAP2 SWAP1 POP JUMP JUMPDEST PUSH0 DUP3 DUP3 MSTORE PUSH1 0x20 DUP3 ADD SWAP1 POP SWAP3 SWAP2 POP POP JUMP JUMPDEST PUSH0 PUSH2 0x2624 DUP3 PUSH2 0x2600 JUMP JUMPDEST PUSH2 0x262E DUP2 DUP6 PUSH2 0x260A JUMP JUMPDEST SWAP4 POP PUSH2 0x263E DUP2 DUP6 PUSH1 0x20 DUP7 ADD PUSH2 0x1B88 JUMP JUMPDEST PUSH2 0x2647 DUP2 PUSH2 0x1BB0 JUMP JUMPDEST DUP5 ADD SWAP2 POP POP SWAP3 SWAP2 POP POP JUMP JUMPDEST PUSH0 PUSH1 0x80 DUP3 ADD SWAP1 POP PUSH2 0x2665 PUSH0 DUP4 ADD DUP8 PUSH2 0x1CA6 JUMP JUMPDEST PUSH2 0x2672 PUSH1 0x20 DUP4 ADD DUP7 PUSH2 0x1CA6 JUMP JUMPDEST PUSH2 0x267F PUSH1 0x40 DUP4 ADD DUP6 PUSH2 0x1F49 JUMP JUMPDEST DUP2 DUP2 SUB PUSH1 0x60 DUP4 ADD MSTORE PUSH2 0x2691 DUP2 DUP5 PUSH2 0x261A JUMP JUMPDEST SWAP1 POP SWAP6 SWAP5 POP POP POP POP POP JUMP JUMPDEST PUSH0 DUP2 MLOAD SWAP1 POP PUSH2 0x26AA DUP2 PUSH2 0x1AE6 JUMP JUMPDEST SWAP3 SWAP2 POP POP JUMP JUMPDEST PUSH0 PUSH1 0x20 DUP3 DUP5 SUB SLT ISZERO PUSH2 0x26C5 JUMPI PUSH2 0x26C4 PUSH2 0x1AB3 JUMP JUMPDEST JUMPDEST PUSH0 PUSH2 0x26D2 DUP5 DUP3 DUP6 ADD PUSH2 0x269C JUMP JUMPDEST SWAP2 POP POP SWAP3 SWAP2 POP POP JUMP JUMPDEST PUSH32 0x4E487B7100000000000000000000000000000000000000000000000000000000 PUSH0 MSTORE PUSH1 0x12 PUSH1 0x4 MSTORE PUSH1 0x24 PUSH0 REVERT JUMPDEST PUSH0 PUSH1 0x40 DUP3 ADD SWAP1 POP PUSH2 0x271B PUSH0 DUP4 ADD DUP6 PUSH2 0x1CA6 JUMP JUMPDEST PUSH2 0x2728 PUSH1 0x20 DUP4 ADD DUP5 PUSH2 0x1F49 JUMP JUMPDEST SWAP4 SWAP3 POP POP POP JUMP INVALID LOG2 PUSH5 0x6970667358 0x22 SLT KECCAK256 0xC4 SWAP14 SELFBALANCE SWAP15 MOD BYTE LOG0 SWAP13 DUP11 0xE7 SIGNEXTEND 0xE3 0xCB 0xE 0xC9 0xDE 0xA6 0xA9 COINBASE EXTCODECOPY MSTORE RETURNDATASIZE GASLIMIT CREATE PUSH14 0x8C36A742788A9464736F6C634300 ADDMOD AND STOP CALLER "
				},
				"gasEstimates": {
					"creation": {
						"codeDepositCost": "2017000",
						"executionCost": "infinite",
						"totalCost": "infinite"
					},
					"external": {
						"approve(address,uint256)": "infinite",
						"balanceOf(address)": "infinite",
						"getApproved(uint256)": "infinite",
						"getCharacterAttributes(uint256)": "infinite",
						"isApprovedForAll(address,address)": "infinite",
						"isCharacterMinted(uint256)": "2899",
						"mintCharacter(string,uint256,uint256)": "infinite",
						"name()": "infinite",
						"owner()": "2560",
						"ownerOf(uint256)": "infinite",
						"renounceOwnership()": "infinite",
						"safeTransferFrom(address,address,uint256)": "infinite",
						"safeTransferFrom(address,address,uint256,bytes)": "infinite",
						"setApprovalForAll(address,bool)": "infinite",
						"supportsInterface(bytes4)": "787",
						"symbol()": "infinite",
						"tokenURI(uint256)": "infinite",
						"transferFrom(address,address,uint256)": "infinite",
						"transferOwnership(address)": "infinite"
					}
				},
				"methodIdentifiers": {
					"approve(address,uint256)": "095ea7b3",
					"balanceOf(address)": "70a08231",
					"getApproved(uint256)": "081812fc",
					"getCharacterAttributes(uint256)": "d0e60cff",
					"isApprovedForAll(address,address)": "e985e9c5",
					"isCharacterMinted(uint256)": "9756aadd",
					"mintCharacter(string,uint256,uint256)": "5091df62",
					"name()": "06fdde03",
					"owner()": "8da5cb5b",
					"ownerOf(uint256)": "6352211e",
					"renounceOwnership()": "715018a6",
					"safeTransferFrom(address,address,uint256)": "42842e0e",
					"safeTransferFrom(address,address,uint256,bytes)": "b88d4fde",
					"setApprovalForAll(address,bool)": "a22cb465",
					"supportsInterface(bytes4)": "01ffc9a7",
					"symbol()": "95d89b41",
					"tokenURI(uint256)": "c87b56dd",
					"transferFrom(address,address,uint256)": "23b872dd",
					"transferOwnership(address)": "f2fde38b"
				}
			},
			"storageLayout": {
				"storage": [
					{
						"astId": 349,
						"contract": "contracts/nft.sol:GameCharacterNFT",
						"label": "_name",
						"offset": 0,
						"slot": "0",
						"type": "t_string_storage"
					},
					{
						"astId": 351,
						"contract": "contracts/nft.sol:GameCharacterNFT",
						"label": "_symbol",
						"offset": 0,
						"slot": "1",
						"type": "t_string_storage"
					},
					{
						"astId": 355,
						"contract": "contracts/nft.sol:GameCharacterNFT",
						"label": "_owners",
						"offset": 0,
						"slot": "2",
						"type": "t_mapping(t_uint256,t_address)"
					},
					{
						"astId": 359,
						"contract": "contracts/nft.sol:GameCharacterNFT",
						"label": "_balances",
						"offset": 0,
						"slot": "3",
						"type": "t_mapping(t_address,t_uint256)"
					},
					{
						"astId": 363,
						"contract": "contracts/nft.sol:GameCharacterNFT",
						"label": "_tokenApprovals",
						"offset": 0,
						"slot": "4",
						"type": "t_mapping(t_uint256,t_address)"
					},
					{
						"astId": 369,
						"contract": "contracts/nft.sol:GameCharacterNFT",
						"label": "_operatorApprovals",
						"offset": 0,
						"slot": "5",
						"type": "t_mapping(t_address,t_mapping(t_address,t_bool))"
					},
					{
						"astId": 8,
						"contract": "contracts/nft.sol:GameCharacterNFT",
						"label": "_owner",
						"offset": 0,
						"slot": "6",
						"type": "t_address"
					},
					{
						"astId": 3109,
						"contract": "contracts/nft.sol:GameCharacterNFT",
						"label": "tokenIdCounter",
						"offset": 0,
						"slot": "7",
						"type": "t_uint256"
					},
					{
						"astId": 3113,
						"contract": "contracts/nft.sol:GameCharacterNFT",
						"label": "characterMinted",
						"offset": 0,
						"slot": "8",
						"type": "t_mapping(t_uint256,t_bool)"
					},
					{
						"astId": 3118,
						"contract": "contracts/nft.sol:GameCharacterNFT",
						"label": "characterAttributes",
						"offset": 0,
						"slot": "9",
						"type": "t_mapping(t_uint256,t_struct(CharacterAttributes)3125_storage)"
					}
				],
				"types": {
					"t_address": {
						"encoding": "inplace",
						"label": "address",
						"numberOfBytes": "20"
					},
					"t_bool": {
						"encoding": "inplace",
						"label": "bool",
						"numberOfBytes": "1"
					},
					"t_mapping(t_address,t_bool)": {
						"encoding": "mapping",
						"key": "t_address",
						"label": "mapping(address => bool)",
						"numberOfBytes": "32",
						"value": "t_bool"
					},
					"t_mapping(t_address,t_mapping(t_address,t_bool))": {
						"encoding": "mapping",
						"key": "t_address",
						"label": "mapping(address => mapping(address => bool))",
						"numberOfBytes": "32",
						"value": "t_mapping(t_address,t_bool)"
					},
					"t_mapping(t_address,t_uint256)": {
						"encoding": "mapping",
						"key": "t_address",
						"label": "mapping(address => uint256)",
						"numberOfBytes": "32",
						"value": "t_uint256"
					},
					"t_mapping(t_uint256,t_address)": {
						"encoding": "mapping",
						"key": "t_uint256",
						"label": "mapping(uint256 => address)",
						"numberOfBytes": "32",
						"value": "t_address"
					},
					"t_mapping(t_uint256,t_bool)": {
						"encoding": "mapping",
						"key": "t_uint256",
						"label": "mapping(uint256 => bool)",
						"numberOfBytes": "32",
						"value": "t_bool"
					},
					"t_mapping(t_uint256,t_struct(CharacterAttributes)3125_storage)": {
						"encoding": "mapping",
						"key": "t_uint256",
						"label": "mapping(uint256 => struct GameCharacterNFT.CharacterAttributes)",
						"numberOfBytes": "32",
						"value": "t_struct(CharacterAttributes)3125_storage"
					},
					"t_string_storage": {
						"encoding": "bytes",
						"label": "string",
						"numberOfBytes": "32"
					},
					"t_struct(CharacterAttributes)3125_storage": {
						"encoding": "inplace",
						"label": "struct GameCharacterNFT.CharacterAttributes",
						"members": [
							{
								"astId": 3120,
								"contract": "contracts/nft.sol:GameCharacterNFT",
								"label": "name",
								"offset": 0,
								"slot": "0",
								"type": "t_string_storage"
							},
							{
								"astId": 3122,
								"contract": "contracts/nft.sol:GameCharacterNFT",
								"label": "level",
								"offset": 0,
								"slot": "1",
								"type": "t_uint256"
							},
							{
								"astId": 3124,
								"contract": "contracts/nft.sol:GameCharacterNFT",
								"label": "power",
								"offset": 0,
								"slot": "2",
								"type": "t_uint256"
							}
						],
						"numberOfBytes": "96"
					},
					"t_uint256": {
						"encoding": "inplace",
						"label": "uint256",
						"numberOfBytes": "32"
					}
				}
			},
			"userdoc": {
				"kind": "user",
				"methods": {},
				"version": 1
			}
		}
	}
}